:020000040800F2
:1050000000500020C99000087D87000881870008B3
:10501000A5870008C9870008ED8700080000000088
:1050200000000000000000000000000011880008DF
:105030001388000800000000158800081788000881
:105040001991000819910008199100083D8A00087B
:1050500019910008199100087588000895880008C2
:10506000B5880008E9880008098900081991000836
:10507000199100081991000819910008998A0008EF
:105080001991000819910008258800081991000855
:105090009D8A0008199100081991000829890008C3
:1050A000199100081991000819910008F189000868
:1050B000056B00081991000819910008458800083F
:1050C00055880008199100081991000865880008A2
:1050D00019910008199100083588000819910008F5
:1050E00079890008598A0008199100080000000019
:1050F00000000000000000000000000000000000B0
:0C51000000000000000000005FF808F153
:1051100081F0004102E000BF83F0004330B54FEA68
:1051200041044FEA430594EA050F08BF90EA020FD5
:105130001FBF54EA000C55EA020C7FEA645C7FEA68
:10514000655C00F0E2804FEA5454D4EB5555B8BF8B
:105150006D420CDD2C4480EA020281EA030382EAFC
:10516000000083EA010180EA020281EA0303362D8E
:1051700088BF30BD11F0004F4FEA01314FF4801C61
:105180004CEA113102D0404261EB410113F0004F73
:105190004FEA03334CEA133302D0524263EB43032A
:1051A00094EA050F00F0A780A4F10104D5F1200EC8
:1051B0000DDB02FA0EFC22FA05F2801841F1000123
:1051C00003FA0EF2801843FA05F359410EE0A5F1F7
:1051D00020050EF1200E012A03FA0EFC28BF4CF028
:1051E000020C43FA05F3C01851EBE37101F00045DE
:1051F00007D54FF0000EDCF1000C7EEB00006EEBEB
:105200000101B1F5801F1BD3B1F5001F0CD3490874
:105210005FEA30004FEA3C0C04F101044FEA4452CB
:1052200012F5800F80F09A80BCF1004F08BF5FEA52
:10523000500C50F1000041EB045141EA050130BD32
:105240005FEA4C0C404141EB010111F4801FA4F1D5
:105250000104E9D191F0000F04BF01460020B1FA2A
:1052600081F308BF2033A3F10B03B3F120020CDA62
:105270000C3208DD02F1140CC2F10C0201FA0CF040
:1052800021FA02F10CE002F11402D8BFC2F1200CA5
:1052900001FA02F120FA0CFCDCBF41EA0C0190405B
:1052A000E41AA2BF01EB0451294330BD6FEA0404A4
:1052B0001F3C1CDA0C340EDC04F11404C4F120028F
:1052C00020FA04F001FA02F340EA030021FA04F3A1
:1052D00045EA030130BDC4F10C04C4F1200220FAF8
:1052E00002F001FA04F340EA0300294630BD21FA36
:1052F00004F0294630BD94F0000F83F4801306BFFC
:1053000081F480110134013D4EE77FEA645C18BFEF
:105310007FEA655C29D094EA050F08BF90EA020F86
:1053200005D054EA000C04BF1946104630BD91EA7E
:10533000030F1EBF0021002030BD5FEA545C05D181
:105340004000494128BF41F0004130BD14F58004C0
:105350003CBF01F5801130BD01F0004545F0FE4134
:1053600041F470014FF0000030BD7FEA645C1ABF69
:10537000194610467FEA655C1CBF0B46024650EAA0
:10538000013406BF52EA033591EA030F41F40021CC
:1053900030BD00BF90F0000F04BF0021704730B552
:1053A0004FF4806404F132044FF000054FF0000127
:1053B00050E700BF90F0000F04BF0021704730B5E8
:1053C0004FF4806404F1320410F0004548BF4042BD
:1053D0004FF000013EE700BF42004FEAE2014FEA12
:1053E00031014FEA02701FBF12F07F4393F07F4FED
:1053F00081F06051704792F0000F14BF93F07F4F1F
:10540000704730B54FF4607401F0004521F0004161
:1054100020E700BF50EA010208BF704730B54FF0E7
:1054200000050AE050EA010208BF704730B511F0EC
:10543000004502D5404261EB41014FF4806404F124
:1054400032045FEA915C3FF4DCAE4FF003025FEAA6
:10545000DC0C18BF03325FEADC0C18BF033202EB2E
:10546000DC02C2F1200300FA03FC20FA02F001FA88
:1054700003FE40EA0E0021FA02F11444C1E600BF27
:1054800070B54FF0FF0C4CF4E06C1CEA11541DBFDA
:105490001CEA135594EA0C0F95EA0C0F00F0DEF8A5
:1054A0002C4481EA030621EA4C5123EA4C5350EA8A
:1054B000013518BF52EA033541F4801143F48013DB
:1054C00038D0A0FB02CE4FF00005E1FB02E506F06C
:1054D0000042E0FB03E54FF00006E1FB03569CF0C1
:1054E000000F18BF4EF0010EA4F1FF04B6F5007FC7
:1054F00064F5407404D25FEA4E0E6D4146EB060639
:1055000042EAC62141EA55514FEAC52040EA5E50C1
:105510004FEACE2EB4F1FD0C88BFBCF5E06F1ED86B
:10552000BEF1004F08BF5FEA500E50F1000041EBA2
:10553000045170BD06F0004646EA010140EA02004F
:1055400081EA0301B4EB5C04C2BFD4EB0C0541EA71
:10555000045170BD41F480114FF0000E013C00F386
:10556000AB8014F1360FDEBF002001F0004170BDAA
:10557000C4F10004203C35DA0C341BDC04F11404C3
:10558000C4F1200500FA05F320FA04F001FA05F24F
:1055900040EA020001F0004221F0004110EBD3701C
:1055A00021FA04F642EB06015EEA430E08BF20EA48
:1055B000D37070BDC4F10C04C4F1200500FA04F3EB
:1055C00020FA05F001FA04F240EA020001F000417D
:1055D00010EBD37041F100015EEA430E08BF20EAF0
:1055E000D37070BDC4F1200500FA05F24EEA020E38
:1055F00020FA04F301FA05F243EA020321FA04F067
:1056000001F0004121FA04F220EA020000EBD3701D
:105610005EEA430E08BF20EAD37070BD94F0000F1D
:105620000FD101F00046400041EB010111F4801F51
:1056300008BF013CF7D041EA060195F0000F18BF02
:10564000704703F00046520043EB030313F4801F3E
:1056500008BF013DF7D043EA0603704794EA0C0FF8
:105660000CEA135518BF95EA0C0F0CD050EA41060E
:1056700018BF52EA4306D1D181EA030101F000418B
:105680004FF0000070BD50EA410606BF10461946B3
:1056900052EA430619D094EA0C0F02D150EA0136BF
:1056A00013D195EA0C0F05D152EA03361CBF104600
:1056B00019460AD181EA030101F0004141F0FE419F
:1056C00041F470014FF0000070BD41F0FE4141F423
:1056D000780170BD70B54FF0FF0C4CF4E06C1CEA23
:1056E00011541DBF1CEA135594EA0C0F95EA0C0FD8
:1056F00000F0A7F8A4EB050481EA030E52EA033593
:105700004FEA013100F088804FEA03334FF08055B3
:1057100045EA131343EA12634FEA022245EA1115E0
:1057200045EA10654FEA00260EF000419D4208BF91
:10573000964244F1FD0404F5407402D25B084FEA3E
:105740003202B61A65EB03055B084FEA32024FF4EA
:1057500080104FF4002CB6EB020E75EB030E22BF47
:10576000B61A754640EA0C005B084FEA3202B6EB07
:10577000020E75EB030E22BFB61A754640EA5C00B6
:105780005B084FEA3202B6EB020E75EB030E22BF46
:10579000B61A754640EA9C005B084FEA3202B6EB47
:1057A000020E75EB030E22BFB61A754640EADC0006
:1057B00055EA060E18D04FEA051545EA16754FEA68
:1057C00006164FEAC30343EA52734FEAC2025FEA86
:1057D0001C1CC0D111F4801F0BD141EA00014FF015
:1057E00000004FF0004CB6E711F4801F04BF0143E6
:1057F0000020B4F1FD0C88BFBCF5E06F3FF6AFAE02
:10580000B5EB030C04BFB6EB020C5FEA500C50F191
:10581000000041EB045170BD0EF0004E4EEA113114
:1058200014EB5C04C2BFD4EB0C0541EA045170BD1B
:1058300041F480114FF0000E013C90E645EA060E5F
:105840008DE60CEA135594EA0C0F08BF95EA0C0F8D
:105850003FF43BAF94EA0C0F0AD150EA01347FF4D5
:1058600034AF95EA0C0F7FF425AF104619462CE7AC
:1058700095EA0C0F06D152EA03353FF4FDAE10460F
:10588000194622E750EA410618BF52EA43067FF460
:10589000C5AE50EA41047FF40DAF52EA43057FF4F0
:1058A000EBAE12E74FF0FF3C06E000BF4FF0010CFB
:1058B00002E000BF4FF0010C4DF804CD4FEA410C5F
:1058C0007FEA6C5C4FEA430C18BF7FEA6C5C1BD02C
:1058D00001B050EA410C0CBF52EA430C91EA030FAD
:1058E00002BF90EA020F0020704710F1000F91EA0A
:1058F000030F58BF994208BF90422CBFD8176FEAD8
:10590000E37040F0010070474FEA410C7FEA6C5CA5
:1059100002D150EA013C07D14FEA430C7FEA6C5CAC
:10592000D6D152EA033CD3D05DF8040B704700BFD8
:105930008446104662468C461946634600E000BF26
:1059400001B5FFF7B7FF002848BF10F1000F01BDF8
:105950004DF808EDFFF7F4FF0CBF012000205DF8C3
:1059600008FB00BF4DF808EDFFF7EAFF34BF012048
:1059700000205DF808FB00BF4DF808EDFFF7E0FFE1
:1059800094BF012000205DF808FB00BF4DF808ED32
:10599000FFF7CEFF94BF012000205DF808FB00BF99
:1059A0004DF808EDFFF7C4FF34BF012000205DF87B
:1059B00008FB00BF4FEA410212F5001215D211D5C3
:1059C0006FF47873B3EB625212D94FEAC12343F0FC
:1059D000004343EA505311F0004F23FA02F018BF7E
:1059E000404270474FF00000704750EA013005D147
:1059F00011F0004008BF6FF0004070474FF000000A
:105A0000704700BF844641EA000313F0030349D105
:105A1000403A23D30B6803604B6843608B68836014
:105A2000CB68C3600B6903614B6943618B69836118
:105A3000CB69C3610B6A03624B6A43628B6A836200
:105A4000CB6AC3620B6B03634B6B43638B6B8363E8
:105A5000CB6BC36340304031403ADBD230320BD3A2
:105A60000B6803604B6843608B688360CB68C360DE
:105A700010301031103AF3D20C3205D351F8043BF8
:105A800040F8043B043AF9D2043208D0D2071CBFD4
:105A900011F8013B00F8013B01D30B8803806046FD
:105AA000704700BF082A13D38B07B1D010F003034F
:105AB000AED0C3F10403D21ADB071CBF11F8013BBF
:105AC00000F8013BA4D331F8023B20F8023B9FE7EA
:105AD000043AD9D3013A11F8013B00F8013BF9D25D
:105AE0000B7803704B7843708B78837060467047F7
:105AF00040EA010C1CF0070F27D1BDF1100DCDE9D4
:105B00000245CDE900676FF000064FF0000700BFC7
:105B1000F0E80223F1E80245A242A2F1013C2CEA9E
:105B2000020C0CF0803C08BFBCF1000F40F0E58097
:105B3000AB42A3F1013C2CEA030C0CF0803C08BF03
:105B4000BCF1000F40F0D680E2E710F0030C21D04A
:105B500020F0030050F8042B5FEACC7C08D00FD271
:105B600011F801CB5FFA92F3B3EB0C0C10D17BB1BF
:105B700011F801CB5FFAA2F3B3EB0C0C08D13BB1E7
:105B800011F801CB5FFAB2F3B3EB0C0C00D10BB9F7
:105B900060467047BDF1100DCDE90245CDE90067C3
:105BA0006FF000064FF0000711F0030C33D110F036
:105BB000040F0FD050F8042B51F8044BA242A2F16D
:105BC000013C2CEA020C0CF0803C08BFBCF1000F39
:105BD00040F0938011F0040F99D051F8045B00BF9E
:105BE000F0E80223AA42A2F1013C2CEA020C0CF0DC
:105BF000803C08BFBCF1000F79D1F1E80245A34217
:105C0000A3F1013C2CEA030C0CF0803C08BFBCF172
:105C1000000F69D1E4E721F00301BCF1020F20D0AD
:105C20003FDA51F8045B00BF50F8043B4FEA1525FA
:105C3000A3F1013C2CEA030C0CF0803CB7EB0C2FD9
:105C400003EA162208BFAA4251D151F8045BBCF105
:105C5000000F82EA03034FEA056208BF934240D176
:105C6000E2E751F8045B00BF50F8043B4FEA1545EA
:105C7000A3F1013C2CEA030C0CF0803CB7EB0C4F79
:105C800003EA164208BFAA4231D151F8045BBCF1C5
:105C9000000F82EA03034FEA054208BF934220D176
:105CA000E2E751F8045B00BF50F8043B4FEA15658A
:105CB000A3F1013C2CEA030C0CF0803CB7EB0C6F19
:105CC00003EA166208BFAA4211D151F8045BBCF185
:105CD000000F82EA03034FEA052208BF934200D176
:105CE000E2E719BA12BA0AE019BA22BA07E011BA01
:105CF0002ABA04E019BA2ABA01E011BA22BA9CFA07
:105D00008CF0DDE90067DDE902451DF1100D38B1C9
:105D1000B0FA80F0C0F1180021FA00F122FA00F286
:105D20000120914298BF8041704700BF4BB942B9F2
:105D3000002908BF002802D04FF0FF31084600F0CC
:105D40003BB882B0EC462DE9005000F01DF8DDF8BC
:105D500004E002B00CBC70472DE9704F089E144659
:105D60001D468046894600F029F804FB01F3A4FB98
:105D700000AB00FB05329344B8EB0A0869EB0B0952
:105D8000C6E90089BDE8708F2DE9704F089E144662
:105D90001D468046894600F061F900FB05F5A0FB31
:105DA00004AB04FB0154A344B8EB0A0869EB0B09EC
:105DB000C6E90089BDE8708F704700BF00292DE952
:105DC000F00FC0F2A1800024002BC0F2988015468D
:105DD00006460F46002B3FD18A4258D9B2FA82F3C9
:105DE0004BB1C3F1200201FA03F720FA02F29D4001
:105DF00000FA03F61743290CB7FBF1F201FB127707
:105E0000A8B200FB02F34FEA164C4CEA0747BB422C
:105E100009D97F1902F1FF3C80F00581BB4240F2B5
:105E20000281023A2F44FF1AB7FBF1F301FB137111
:105E300000FB03F0B6B246EA0141884208D949198D
:105E400003F1FF3780F0F180884240F2EE80023BA0
:105E500043EA0242002303E08B420AD900231A4698
:105E60001046194614B1404261EB4101BDE8F00F04
:105E70007047B3FA83F8B8F1000F40F088808B4286
:105E800002D3824200F2E28000230122E8E712B945
:105E90000123B3FBF2F5B5FA85F2002A3AD17F1B54
:105EA000280C1FFA85FC0123B7FBF0F100FB1177EA
:105EB0000CFB01F24FEA164848EA0747BA4207D9F5
:105EC0007F1901F1FF3802D2BA4200F2C480414684
:105ED000BF1AB7FBF0F200FB12700CFB02FCB6B26B
:105EE00046EA0040844507D9401902F1FF3702D243
:105EF000844500F2AE803A4642EA0142B0E7E4430C
:105F0000524263EB430362E7404261EB41014FF0D1
:105F1000FF3459E79540C2F1200927FA09F126FA22
:105F200009F99740280CB1FBF0F800FB18111FFA93
:105F300085FC0CFB08F349EA07094FEA194747EAD1
:105F400001418B4206FA02F608D9491908F1FF32DD
:105F50007AD28B4278D9A8F102082944C91AB1FB38
:105F6000F0F300FB13170CFB03F21FFA89F949EA5F
:105F70000747BA4207D97F1903F1FF3160D2BA420D
:105F80005ED9023B2F44BF1A43EA08438CE7C8F1AD
:105F9000200225FA02F103FA08FC27FA02F320FA9C
:105FA00002F207FA08F741EA0C0C4FEA1C49B3FB6E
:105FB000F9F109FB11331FFA8CFA0AFB01FB1743B5
:105FC0003A0C42EA03439B4505FA08F008D913EB63
:105FD0000C0301F1FF3235D29B4533D902396344BA
:105FE000CBEB0303B3FBF9F209FB12330AFB02FA12
:105FF000BFB247EA0347BA4508D917EB0C0702F1CD
:10600000FF331BD2BA4519D9023A674442EA014527
:10601000A5FB0001CAEB07078F424FF000030AD32C
:1060200005D02A461CE76246FDE63B4610E706FA25
:1060300008F68642F5D26A1E002311E71A46E5E704
:106040000B46A0E71146CBE7904687E7434642461A
:1060500006E7023A50E702392F4439E72DE9F00FFD
:10606000144605460E46002B43D18A4253D9B2FA54
:1060700082F757B1C7F1200620FA06F601FA07F3B6
:1060800002FA07F400FA07F51E43210CB6FBF1F201
:1060900001FB1266A0B200FB02F32F0C47EA064692
:1060A000B34209D9361902F1FF3780F0FD80B342BF
:1060B00040F2FA80023A2644F61AB6FBF1F301FBED
:1060C000136100FB03F0ADB245EA0141884208D9F3
:1060D000091903F1FF3680F0E980884240F2E6803A
:1060E000023B43EA0242002310461946BDE8F00F86
:1060F00070478B424CD8B3FA83F6002E4FD18B42B7
:1061000002D3824200F2DD80BDE8F00F00230122BD
:1061100010461946704712B90124B4FBF2F4B4FAE0
:1061200084F2002A40F08280091B260CA7B20123CA
:10613000B1FBF6F006FB101107FB00F24FEA154C1D
:106140004CEA01418A4207D9091900F1FF3C02D209
:106150008A4200F2C8806046891AB1FBF6F206FB5B
:10616000121107FB02F7ADB245EA0145AF4208D96B
:106170002C1902F1FF3180F09B80A74240F29880F9
:10618000023A42EA004210461946BDE8F00F704755
:1061900000231A4610461946BDE8F00F7047C6F1B5
:1061A000200522FA05F703FA06F421FA05F301FAAD
:1061B00006FB20FA05F53C434FEA1448B3FBF8FC14
:1061C00008FB1C331FFA84F909FB0CFA45EA0B0B98
:1061D0004FEA1B4545EA03439A4502FA06F204D901
:1061E0001B190CF1FF356FD3AC46CAEB0303B3FBAD
:1061F000F8F508FB153309FB05F91FFA8BFB4BEA91
:106200000347B94504D93F1905F1FF3362D31D4651
:1062100045EA0C4CACFB0223C9EB07079F424FF049
:1062200000054AD346D062462B465DE79440C2F152
:10623000200921FA09FC914020FA09F9260CBCFB3F
:10624000F6F806FB18CCA7B207FB08F349EA0109E8
:106250004FEA194141EA0C4C634500FA02F509D9AD
:106260001CEB040C08F1FF323BD2634539D9A8F18D
:106270000208A444C3EB0C0CBCFBF6F306FB13C1F1
:1062800007FB03F21FFA89F949EA01418A4207D95B
:10629000091903F1FF3022D28A4220D9023B21445E
:1062A000891A43EA084343E73A4605E7334618E7C5
:1062B0000A4666E7B0409042B5D20CF1FF320023A7
:1062C00012E7334632460FE79A458DD9ACF1020CFE
:1062D00023448AE7B9459AD9023D274498E7034603
:1062E000DEE79046C6E70238214435E7014B0360FC
:1062F000704700BF806B010810B5034B0446036074
:1063000000F042FC204610BD806B0108F0B5012171
:1063100085B0054601F0C0FCA0F13006072E04460A
:1063200025D81649684601F03DFC2846694601F02B
:10633000A1FC0746684601F0F3FB0FB1B4B20EE0D2
:106340000F49684601F02EFC2846694601F092FC90
:106350000546684601F0E4FB65B1263CA4B2204640
:10636000032100F0A3FF204601F05CF804E04FF0A9
:10637000FF3001E06FF0010005B0F0BD609601084C
:1063800062960108F0B5012185B0044601F084FC55
:10639000A0F13006072E49D868462146032207237C
:1063A00001F07CFC6846264901F03AFC0546684647
:1063B00001F0B6FB7DB9684621460322062301F0B1
:1063C0006DFC68461F4901F02BFC0746684601F04A
:1063D000A7FB0FB92DE001251B49684601F0E2FB40
:1063E0002046694601F046FC0746684601F098FBE6
:1063F0001FB1B6B23046002110E01449684601F0E2
:10640000D1FB2046694601F035FC0446684601F0A0
:1064100087FB8CB10A36B6B23046394600F046FFEB
:106420003046294600F0BCFF012007E04FF0FF3066
:1064300004E06FF0010001E06FF0020005B0F0BD74
:106440006496010869960108609601086296010841
:10645000F0B5012185B0054601F01EFCA0F1300623
:10646000072E044625D81649684601F09BFB2846AE
:10647000694601F0FFFB0746684601F051FB0FB18A
:10648000B4B20EE00F49684601F08CFB284669461D
:1064900001F0F0FB0546684601F042FB65B1263C81
:1064A000A4B22046012100F001FF204601F02CF8A3
:1064B00004E04FF0FF3001E06FF0010005B0F0BDE7
:1064C0006096010862960108F0B5012189B0044682
:1064D00001F0E2FBA0F13007072F06463ED8032269
:1064E0006846214601F000FC1F4904A801F05AFB50
:1064F000204604A901F0BEFB054604A801F010FBEC
:1065000055B1BFB20021384600F0D0FE684601F018
:10651000F2FBC1B2384617E0144904A801F042FB6F
:10652000204604A901F0A6FB044604A801F0F8FAED
:1065300074B1263EB6B22946304600F0B7FE684632
:1065400001F0D9FBC1B2304601F038F8012401E076
:106550006FF00104684601F0E3FA01E04FF0FF3408
:10656000204609B0F0BD00BF6096010862960108A0
:1065700008B50948094900F00BFC0948094900F031
:1065800007FC0948094900F003FCBDE80840084839
:10659000084900F0FDBB00BF6D9601080D630008BF
:1065A0007996010885630008869601085164000801
:1065B00091960108C96400087047000013B5084CA3
:1065C000002100910A460B46204601F0A7F9054933
:1065D000054A204602B0BDE810400CF037BA00BFB3
:1065E000500B0020ED620008CC0C0020013101EBC3
:1065F000420291420BD0030F092B94BF3033373343
:1066000001F8013C0023000101F8023BF1E770476B
:10661000F8B5724B1A6812B11A68013A1A60704BD9
:10662000704D1B7833B1704B1B78E3B16F4B002B6F
:106630003AD118E06E4C236813B12368013B11E096
:106640002B7883B96B4B1B786BB96B4B1B7853B9A9
:106650006A4F6B4E3B7863B3E72005F01BF9337844
:106660002BB314232360674B674C1B7803F0FF02A6
:106670005BB122684EF65F239A4202D9012323714F
:1066800004E023680133236000E022602B785F4E32
:1066900003F0FF07002B33D1384605F0FBF940F635
:1066A000B73398421BD82BE000F0FEFCDBE7012358
:1066B000D8E733784BB14FF6FF7004F0FBFFE720CB
:1066C00005F074F801233B70CDE7E72005F09CF856
:1066D0004F4B1B780BB13223C4E76423C2E7384623
:1066E00005F0E0F93378C3B94A4B1B782BB1484B1E
:1066F000434A1B7812781A426BD001232B700CE0AE
:10670000002005F0C7F941F65733984205D900201B
:1067100005F0C8F9404B01221A703378002B36D1AE
:10672000A268394B1AB19A68013A9A602FE0314A4F
:10673000127802F0FF0042B1D96847F22F5291421D
:106740001FD8DA680132DA6021E02D4A127802F0AF
:10675000FF016AB1196947F22F52914204D91861B9
:106760002E4B01221A7012E01A6901321A610EE0F2
:10677000274A12785AB1586947F22F52904203D9EA
:10678000596101221A7102E05A6901325A61244B9F
:106790001A68B2F57A7F04D300221A6006F09AFBD9
:1067A00002E01A6801321A6023795BB1BFF34F8FA0
:1067B0001C4A1D4BD16801F4E0610B43D360BFF369
:1067C0004F8FFEE7154B1B783BB1BDE8F84000F05A
:1067D00011BD124B01221A708FE7F8BDC4230020AF
:1067E000D819002062190020000F0020A9700008AD
:1067F000C0230020661900206819002067190020B6
:1068000065190020541A0020580B0020761900202A
:1068100064190020631900206B1900206A190020F8
:10682000C823002000ED00E00400FA0508B5094B7C
:10683000186005F059FB002005F0A2FB064804F0A3
:10684000E9FD05F069FB05F087FBBDE8084007F0AE
:1068500095BB00BFCC010020A0860100074B1B6840
:10686000052B08D1064B1A7E012A04D1987E1B7F86
:10687000C01AC0B270470020704700BF181A00202D
:10688000580B00200D4B10B51B68052B13D10C4C79
:10689000237E012B0FD1628BA38BD31A012B04D142
:1068A00000230320237607F0C0FCA38B5A1CA2838D
:1068B0001C44A07F10BD4FF0FF3010BD181A0020FF
:1068C000580B0020084B1B68052B0CD1074B1A6E88
:1068D00099180132B2F5807F1A6608BF002281F84C
:1068E000640008BF1A667047181A0020580B002071
:1068F000F8B5234B93F86421012A3FD0D3F86821DF
:10690000196EB2F5807F04BF0022C3F86821D3F866
:1069100068411B4A8C4203D1002382F86431F8BDE0
:106920008CBFC4F58071C4EB0101C2F86C11D3F8BF
:106930006C61134D402EA2B207D94034403EC5F8D9
:106940006841C5F86C61402706E034440021B7B2C5
:10695000C5F86841C5F86C110A4801241044C021EB
:106960003A4683F8644107F0DBFB2046394607F0DE
:10697000DFFC2046BDE8F84007F044BCF8BD00BF8E
:10698000580B0020BC0B0020094B10B593E81400F5
:1069900008331B68D0180AD006490822FFF726FEE4
:1069A000204605490422BDE81040FFF71FBE10BD78
:1069B000E8F7FF1F7B0100208B0100201FB501209D
:1069C000014606F009FB4FF0804006F0E5FB01A808
:1069D00006F000FE48F6A0430024ADF8043001A9FB
:1069E00063234FF08040ADF80830ADF80A40ADF8B1
:1069F000064006F0A7FC01210A464FF0804006F051
:106A000016FE01214FF0804006F0F7FD1C238DF8A3
:106A100000300E238DF80130684601238DF80240C6
:106A20008DF8033005F0ECFE04B010BD10B54FF04A
:106A300000604FF4A04105F017FF0124264B2748C2
:106A400021461C7006F0EEF904F0DAFF04F0BAFCFF
:106A50002146402006F0A8FA6FF07F4004F02AFE9D
:106A6000E72004F0A3FE1E4B1C7004F0EBFC7D201D
:106A700006F0D6FA18B11B4B1C7006F0E5FA40F68A
:106A8000B83004F048FD05F089FA05F0C5FC164859
:106A900001F03CFC154B01221A70154B1B7813B901
:106AA00001F0C4FCF9E7FFF789FF124B1B78002BBC
:106AB000FBD1114C94F87031012B01D00F4B2BB945
:106AC0000F4B002BF1D0FFF777FDEEE7FFF750FDFE
:106AD000012384F87031F3E7F81900200004300036
:106AE00067190020BC230020197000087C190020C1
:106AF0006519002066190020580B002071650008F8
:106B0000B965000808B54FF08040012106F0C8FDC6
:106B100088B14FF08040012106F0CDFD064B93F87F
:106B20007121D2F1010238BF002283F87121BDE842
:106B3000084001F07BBC08BD580B002038B5044666
:106B40000D46AC4203D254F8043B9847F9E738BDF0
:106B500008B507480749FFF7F1FF07480749FFF75E
:106B6000EDFFBDE8084006480649FFF7E7BF00BF54
:106B7000209E0108209E0108209E0108689E0108B1
:106B8000689E0108689E01080CF0CCB807B5064B5A
:106B9000052000936E21054A002305F061FD0720C2
:106BA00005F0ACFDFEE700BF9D960108046B0108EF
:106BB00007B50C4A1368184410600B4A90420CD970
:106BC0000A4B052000938B21094A002305F048FD5C
:106BD000082005F093FD0BF067FF184603B05DF841
:106BE00004FB00BF0000002000480020A996010817
:106BF000146B01084FF0FF30704701207047FEE72B
:106C0000014B1868704700BFD00C0020064B0246AD
:106C1000582000FB013101F1080303CB10605160E3
:106C200018689060704700BFD00C0020014BD3F86B
:106C300064017047D00C0020064B0246142000FB74
:106C4000013101F5B67303CB106051601868906094
:106C5000704700BFD00C002038B50546064C28B15F
:106C600004F0CAFD012384F8303238BD04F072FD0F
:106C700084F8305238BD00BFD00C00200E4B2DE9F7
:106C8000F041D3F8647180460024BC4211DA142527
:106C90006543094E414606F5B67028440C220CF0B7
:106CA000B7FF20B93544D5F86801BDE8F08101345B
:106CB000EBE70020BDE8F081D00C0020044B01225E
:106CC0001A70044B00224FF4C0201A6005F0CCB9B2
:106CD00066190020640B0020034A00231370034A46
:106CE000136005F025BA00BF66190020640B002070
:106CF000024B00221A6005F0DDB900BF640B0020D2
:106D00002DE9F04788B0804668460D4600F04AFFFE
:106D10001E4B0024D3F800A054452DDA55B3582655
:106D200066431A4F414607F1080030440C2207F130
:106D300004090CF06DFFE8B928460CF039FF06F1A4
:106D40001003402834BF02464022294609EB0300C5
:106D5000FEF758FE3E44012386F85830694604A8E1
:106D6000746800F041FF04A8A047044604A800F09E
:106D7000D7FE03E00134CFE74FF0FF34684600F060
:106D8000CFFE204608B0BDE8F08700BFD00C002041
:106D90002DE9F84F0446894600293DD000283BD014
:106DA0001E4D2E68042E37D005F108074FF000085D
:106DB00005F1040AB0450DDA57F8043C4B4505D1FE
:106DC000384621460C220CF023FF28B308F10108B5
:106DD0005837EFE74FF0580808FB06F805EB0807AF
:106DE00008F1100000214022C7F8049050440CF034
:106DF00021FB0AEB0800002104300C220CF01AFBE6
:106E00002068616807F1080303C3A06801361860B1
:106E1000002387F858302E60BDE8F88FD00C002092
:106E200010B5064C206802F0EDFD2368013303D055
:106E3000431E5842584110BD012010BD04000020DF
:106E400070B50C4B06461B780D4683B90A4B1B7870
:106E50006BB9FFF7E5FF044648B9084B314618689F
:106E60002A46234603F060FD054B1C6070BD4FF0C1
:106E7000FF3070BD6A190020761900200400002040
:106E8000680B00202DE9F041274B86B01B78804627
:106E90000F46002B43D1254B1B78002B3FD1FFF72A
:106EA000BFFF044600283AD1214D8DF80C008DF823
:106EB0000D008DF80E008DF80F00286806AA46090F
:106EC00002EB8606012100F01F02914056F80C2CBF
:106ED00001300A4346F80C2C41F28832059204AA8C
:106EE000009203A922462346049403F0FFFB0028E6
:106EF00017DD2B6806AA590902EB810151F80C5CD9
:106F000003F01F02154115F001000AD01846414652
:106F100023463A4603F08AFC064B1C6001E04FF022
:106F2000FF3006B0BDE8F0816A1900207619002014
:106F300004000020680B002030B5204BADF5797DB2
:106F40001B7823B91E4807F05EFA002832D11D4B8A
:106F500015A804931C4B5FAD05931C4B039006933F
:106F60001B4B0CAC07931B4B029508931A4B0993D0
:106F70001A4B0A931A4B0B931A4B0C931A4B0D9303
:106F80001A4B0E931A4B0F931A4B10931A4B1193E3
:106F90001A4B12931A4B13931A4B149305F0DAF809
:106FA000284605F0DDF800940548174902AA04AB0D
:106FB00007F030FA0DF5797D30BD00BF7D19002056
:106FC000040F0020416E0008856E0008BD6C0008AB
:106FD000D96C000891C10008F16C0008596C0008D8
:106FE00025770008016C00080D6C0008016D000891
:106FF0002D6C0008396C0008557200087D6C000883
:107000006DC1000881C10008E8F7FF1F014808F0C2
:107010001AB800BF040F002030B502208DB0014621
:10702000112203F0E1FA051E28DB07A8144907F036
:107030000EFB0223ADF80C3016238DF80E303323EF
:107040008DF80F30E0238DF8103000238DF81130CB
:1070500001238DF81230BB238DF81330032403ABCA
:10706000009310230193284607A91322002303F05D
:1070700065FC013CF3D1284603F0E4FA0DB030BDC5
:10708000E8F7FF1F10B5074CFFF756FF204607F043
:10709000BDF9204607F02BFD0446FFF7BDFF204653
:1070A00010BD00BF040F002038B5114CD4F8445A6D
:1070B0002DB1D4F8443A013BC4F8443A38BDD4F871
:1070C000483A0C4A52F8230004F01CFBE72004F075
:1070D0006DFB6423084AC4F8443AD4F8483A52682D
:1070E00001339342C4F8483AA8BFC4F8485A38BD9F
:1070F000D00C0020286B0108040000207FB502207E
:107100000121062203F070FA041E24DB0223ADF8ED
:10711000003000238DF8023035238DF803304FF412
:10712000FA5008238DF804308DF805308DF80630BC
:107130008DF8073001F0E2F8694610220546204636
:1071400003F0A6FA0646284601F0D8F8204603F0D8
:1071500079FA304601E04FF0FF3004B070BD000016
:1071600010B5064C2068002805DB03F06BFA4FF0E1
:10717000FF33236010BD002010BD00BF04000020BD
:1071800070B5FFF7EDFF02200121062203F02CFA73
:10719000164D0028286026DB154C0223A4F84C3A33
:1071A000162384F84E3A332384F84F3A362384F872
:1071B000503AD02384F8513AE52384F8523A4FF4F8
:1071C000FA50042384F8533A01F098F804F64C215D
:1071D00006461022286803F05BFA0446304601F0A8
:1071E0008DF8204670BD4FF0FF3070BD04000020C8
:1071F000D00C0020044B012200215A801980D9862E
:10720000024B1A70704700BF4C1B00206A19002007
:107210000F4B2DE9F041D3F8647180460024BC4245
:1072200011DA142565430A4E414606F5B670284426
:107230000C220CF0EDFC20B9354495F87801BDE83E
:10724000F0810134EBE74FF0FF30BDE8F08100BF83
:10725000D00C002008B5FFF7DBFF0138082803D861
:10726000024B1844007F08BD022008BD286B0108AE
:1072700037B50B4C002104F65C250B4600910A46FD
:10728000284600F04BFB28460649074A0BF0DEFB78
:1072900004F50D7003B0BDE8304007F09FB800BFA3
:1072A000D00C0020ED620008CC0C002014282DE941
:1072B000F34104460E4669D8FF2967D000F0F8FB79
:1072C00020B1A4F10D039BB2022B5FD900F0BAFAF2
:1072D00008B1012C5AD900F0F9FD20B1A4F1120334
:1072E0009BB2012B52D92B4D24012B192F59B3F8E6
:1072F0000480294B9F4201D1042003E0274B9F4289
:1073000003D10820012105F05BFEADF80480062EB4
:1073100038D8DFE806F0040D13191F2831001023B8
:107320008DF8073003238DF806302C44002328E025
:1073300004238DF807302C44012322E048238DF8E4
:1073400007302C4402231CE028238DF807302C44FE
:10735000032316E018238DF8073003238DF8063039
:107360002C4404230DE01C238DF8073003238DF8F3
:1073700006302C44052304E000238DF807302C440C
:107380000623A373384601A905F0F4FC02B0BDE85A
:10739000F08100BF0C00002000080140000C0140FB
:1073A0001428F8B505460F4638D81D4E0401331988
:1073B0009B7B5A1ED2B2022A30D9062B2ED0FF2B2D
:1073C0002CD000F075FB28B1A5F10D039BB2022B68
:1073D00000D8F8BD00F036FA10B1012D00D8F8BD84
:1073E00000F074FD28B1A5F112039BB2012B00D867
:1073F000F8BD33199B7B042B03D128460021FFF7EE
:1074000055FF012F04D13219335992881A61F8BD02
:1074100027B93219335992885A61F8BDF8BD00BFB7
:107420000C000020142870B5044602D94FF0FF303C
:1074300070BD184E050173199B7B013BDBB2FD2B20
:10744000F4D800F035FB20B1A4F10D039BB2022B60
:10745000ECD900F0F7F908B1012CE7D900F036FDBE
:1074600020B1A4F112039BB2012BDFD973199B7BCE
:10747000062B09D1074B93F850114B1EDBB2FD2BA5
:10748000D4D82046FFF712FF73197059998805F078
:10749000BFFC70BD0C00002010B54FF4004086B05A
:1074A00005F05AFD01214FF4007005F089FD1548E3
:1074B00005F0E4F9012400234FF46022114801A9EA
:1074C00001938DF808308DF80930039204938DF8FC
:1074D000144005F001FA0B48214605F021FA09484D
:1074E00005F027FA074805F029FA0028FAD10548DF
:1074F00005F028FA034805F02AFA0028FAD106B068
:1075000010BD00BF00240140092870B504469CBF8F
:1075100000F10A04A4B200F0CBFA38B1A4F10D03D3
:107520009BB2022B02D84FF0FF3070BD00F08AF9F9
:1075300000F0CCFC20B1A4F112039BB2012BF2D9D4
:10754000142CF0D81B4D2601AB199A79FF2AEAD0EA
:1075500095F85111914206D09B7B2046062185F873
:107560005031FFF7A3FE95F85231012B05D1FFF7FB
:1075700093FF104B002283F852212E44B17995F8E5
:1075800051318B4208D0012204230B4805F0ECF95D
:10759000B279084B83F851210748012105F0DBF946
:1075A0000548022105F02BFA0028F9D0024805F021
:1075B00023FA70BD0C000020002401402DE9F043A7
:1075C000142889B00446884600F29E80504F060178
:1075D000BB199B68002B00F0978000F069FA28B176
:1075E000A4F10D039BB2022B40F28E8000F02AF929
:1075F00010B1012C40F2888000F068FC20B1A4F1A9
:1076000012039BB2012B7FD9BD19AB7B13F0FB0F8B
:107610007AD1404B01201A683F4B0146B2FBF3F987
:107620004BF6803303FB08F8FF2398FBF3F805F0D3
:10763000C7FC20460421FFF739FEAB6809F1FF398A
:10764000B3F1804F1FFA89F91FFA88F802D101209F
:10765000014609E0314A934208BF022003D0304A74
:10766000934203D10420012105F0B6FCBC1900258A
:107670004BF67F33A06801A9ADF80830ADF80A5089
:10768000ADF80650ADF8049005F05CFE6023ADF84F
:107690001850A589ADF810300123ADF81230ADF8BF
:1076A000168045B9A06804A905F096FEA0680821D7
:1076B00005F0D2FF1FE0042D08D1A06804A905F051
:1076C000CFFEA068082105F0CFFF14E0082D08D1F7
:1076D000A06804A905F008FFA068294605F0CEFFC0
:1076E00009E00C2D07D1A06804A905F03FFFA068B0
:1076F000082105F0CBFF3E44B068012105F0A0FF52
:10770000B068012105F079FF09B0BDE8F08300BF42
:107710000C000020BC02002000366E010004004076
:107720000008004004F06EBD13B5084C0021009124
:107730000A460B46204600F0F1F80549054A204666
:1077400002B0BDE810400BF081B900BF381700202F
:10775000ED620008CC0C0020024B18785B78C01A50
:10776000704700BF40170020064B5A7819789142A5
:1077700004D99918013288785A7070474FF0FF3059
:10778000704700BF40170020054B5A781978914286
:1077900002D91344987870474FF0FF30704700BF0C
:1077A0004017002070470000014B0360704700BF86
:1077B000986B010810B5034B04460360FFF7E4F92A
:1077C000204610BD986B0108F8B5094B054693F8A3
:1077D0002230164653B10C468F18BC4206D02B6897
:1077E00028469B6814F8011B9847F6E73046F8BD19
:1077F0004017002010B50C4B012293F822408CB1A9
:1078000093F823401F2C02D94260002010BD93F84A
:1078100024001C1884F82510411CC9B283F82410D8
:1078200083F82310104610BD40170020002242604C
:107830004FF47A728260014A02607047586B010807
:1078400070477047014B93F859007047401700206C
:1078500073B50E4C002104F164050D4E0B460091EA
:107860000A46284600F05AF86C3432460949284640
:107870000BF0ECF82046FFF7D9FF074920463246C7
:1078800002B0BDE870400BF0E1B800BF4017002027
:10789000CC0C0020ED620008A977000808B5034B66
:1078A00053F8203003B1984708BD00BFBC17002033
:1078B00013B5084C002100910A460B46204600F003
:1078C0002DF80549054A204602B0BDE810400BF0EE
:1078D000BDB800BFFC170020ED620008CC0C0020F2
:1078E0002DE9F041002407460E4625463B1919793B
:1078F0000A22304600F0AAF82E218046304600F0D9
:1079000076F801344044032C0544EFD13046F97930
:107910000A2200F09BF82844BDE8F08130B583715D
:10792000034D9DF80C30056001714271C37130BD8B
:10793000806B01080548064B06490360064A002390
:10794000037143718371C3710BF080B80418002078
:10795000806B0108ED620008CC0C002013B5084CC8
:10796000002100910A460B462046FFF7D7FF054944
:10797000054A204602B0BDE810400BF067B800BFD2
:107980000C180020ED620008CC0C0020014B0360B5
:10799000704700BF986B0108F8B506460C468F1873
:1079A0000025BC4207D0336830469B6814F8011BA1
:1079B00098470544F5E72846F8BD000010B5034B8D
:1079C00004460360FFF7E0F8204610BD986B0108FD
:1079D00038B505460C46084641B10CF0E9F82B686D
:1079E0000246DB6828462146984738BD38BD08B5B1
:1079F00003689B68984708BD30B500238BB08DF8AD
:107A00002430012A98BF0A220DF12304B1FBF2F3BE
:107A100003FB1211CDB2092D94BF30353735EDB2CD
:107A2000214604F801590BB11946EFE7FFF7D0FFE3
:107A30000BB030BD10B522B90268C9B29268904748
:107A400010BDD2B2BDE81040FFF7D6BFFFF7F2BFBE
:107A500013B5084C002100910A460B462046FFF75B
:107A60005DFF0549054A204602B0BDE810400AF016
:107A7000EDBF00BF18180020ED620008CC0C0020FC
:107A800013B5084C002100910A460B462046FFF72B
:107A900045FF0549054A204602B0BDE810400AF0FE
:107AA000D5BF00BF20180020ED620008CC0C0020DC
:107AB000014B587D704700BF281800207047000018
:107AC00013B5084C002100910A460B462046FFF7EB
:107AD00025FF0549054A204602B0BDE810400AF0DE
:107AE000B5BF00BF40180020ED620008CC0C00209C
:107AF00013B5084C002100910A460B462046FFF7BB
:107B00000DFF0549054A204602B0BDE810400AF0C5
:107B10009DBF00BF4C180020ED620008CC0C002077
:107B200010B5044600680BF0FDF8204610BD10B5F6
:107B30000446006808B10BF0F5F800232360A36049
:107B4000636010BD38B504460D46006801310BF086
:107B5000DFFC10B184E82100012038BD036810B5B6
:107B6000044613B143688B4207D22046FFF7EAFF71
:107B700020B1A3680BB922681370012010BD70B545
:107B80000E46114604461546FFF7E8FF18B9204691
:107B9000FFF7CDFF04E0A560206831460BF0AAFF97
:107BA000204670BD38B500230446036043608360FF
:107BB00003730D4639B108460BF0FAFF2946024619
:107BC0002046FFF7DCFF204638BD884210B50B4643
:107BD000044607D0096819B19A68FFF7D0FF01E0A1
:107BE000FFF7A5FF204610BD10B500230446036033
:107BF000436083600373FFF7E8FF204610BD38B58C
:107C000005460C4641B108460BF0D2FF214602461C
:107C10002846FFF7B4FF01E0FFF789FF284638BD8B
:107C2000826808B50B4612B919B9012008BD11B90F
:107C30000368187802E00068FDF75AFFD0F10100F0
:107C400038BF002008BD10B58B688468E41AA242D2
:107C50000CD8006868B1096851B110441A460BF09D
:107C6000D7FFD0F1010038BF002010BD002010BDAB
:107C7000084610BD82688B689A4202D30022FFF743
:107C8000E2BF002070478368994203D2006810B1B8
:107C9000405C704700207047FFF7F5BF9A422DE91E
:107CA000F04107460D4614461E4601D93446164695
:107CB00038460C49FFF776FFAB689C420FD89E42CE
:107CC00028BF1E462B68002213F806809A552968A3
:107CD00038462144FFF793FF2B6803F806803846A7
:107CE000BDE8F081C798010810B58B680446FFF71E
:107CF000D5FF204610BD006808B10AF0DDBE704710
:107D000013B5084C002100910A460B462046FFF7A8
:107D100005FE0549054A204602B0BDE810400AF0BC
:107D200095BE00BF54180020ED620008CC0C002066
:107D300013B5084C002100910A460B462046FFF778
:107D4000EDFD0549054A204602B0BDE810400AF0A5
:107D50007DBE00BF5C180020ED620008CC0C002046
:107D600013B5084C002100910A460B462046FFF748
:107D7000D5FD0549054A204602B0BDE810400AF08D
:107D800065BE00BF64180020ED620008CC0C002026
:107D9000014B0360704700BF986B01080369186CC2
:107DA0005B6CC01A00F03F0070470369196C5A6C95
:107DB000914202D05A6C985C70474FF0FF30704788
:107DC0000369196C5A6C914207D05A6C985C5A6CD2
:107DD000013202F03F025A6470474FF0FF307047A3
:107DE00010B5034B04460360FEF7CEFE204610BDDF
:107DF000986B0108436910B51A6C013202F03F021A
:107E00005C6CA242FCD01C6C1955436901241A64B5
:107E100040F2277104762246024805F050FC2046C5
:107E200010BD00BF0044004010B50446237E13B9C6
:107E30000023237610BD0348802105F060FC002854
:107E4000F6D1F3E70044004008B51E4840F2255142
:107E500005F05BFC78B11B4805F04DFC1A4BC0B235
:107E60005A6D996D013202F03F028A4203D0596D7A
:107E70005A6519440875134840F2277105F045FC0E
:107E8000F8B1114BD3F89C10D3F8A020914207D140
:107E9000BDE808400B4840F22771002205F00FBCF6
:107EA000D3F8A02007481A4492F85C10D3F8A02019
:107EB000013202F03F02C3F8A020BDE8084005F0FF
:107EC00016BC08BD004400406C180020014B187C13
:107ED000704700BF6C180020F7B5164C002504F160
:107EE000A406154F2B4629462A4600953046FFF733
:107EF00015FD3A46304611490AF0A8FD4FF47A7351
:107F0000C4F8B4300E4B0F49C4F8AC3004F114037C
:107F1000C4F8BC3004F1AC0004F15C033A46C4F888
:107F2000B050C4F8C03084F8C45003B0BDE8F0408D
:107F30000AF08CBD6C180020CC0C0020ED6200080B
:107F4000B06B0108917D000870474FF0FF3070471B
:107F5000014B0360704700BF986B010810B5034BDD
:107F600004460360FEF710FE204610BD986B010822
:107F7000FEF788BC08B5FEF771FC08BD08B50846D9
:107F8000FEF7A0FC012008BD002242604FF47A7287
:107F90008260014A02607047D86B01080846FEF70C
:107FA00045BC000037B50D4C00210D4D0B4600912E
:107FB0000A462046FFF7B2FC2A460A492046083402
:107FC0000AF044FD2046FFF7DFFF074920462A4616
:107FD00003B0BDE830400AF039BD00BF34190020BD
:107FE000CC0C0020ED620008517F000800230360E4
:107FF000184670470023036018467047002303604B
:10800000184670472DE9F0410B7886B0002B0C46DE
:1080100014BF90464FF0000806460BF0C9FD074616
:1080200020460BF0C5FD182301931E230125029362
:1080300002230393059000950494404631463A4646
:10804000002302F0AFFD034B18705D7006B0BDE871
:10805000F08100BF4C19002048F20202904210B596
:108060001ED006DC992851D048F20102904213D06C
:1080700010BD48F28002904207D0B0F5084F49D0B9
:1080800048F21002904259D12FE02D4B01229A70F4
:10809000DA7000221A7110BD294B01225A7110BDED
:1080A000274C637953B1274B00224FF47F401A705D
:1080B00003F000FBE72003F079FB06E0A37913B19E
:1080C000013BA37101E00123A37523795BB2013366
:1080D00002D11B4B01221A7100236371E3752376D1
:1080E0006376A376E376237710BD0A7D144B52B9ED
:1080F00001224FF47F40DA7503F0DCFABDE810404E
:10810000E72003F053BB0022DA7510BD0C4B0122AF
:108110005A7710BD0846002101F015F801210446E8
:1081200001F058F8084B1B689C4207D1044B002211
:108130009A76DA765A761A7601229A7710BD00BFBF
:108140004C190020D8190020040000201FB54FF45E
:1081500061504FF461610A2200238DE80F00064B45
:1081600044F620621A60684601A902AA03AB01F036
:1081700049FD05B05DF804FBD41900201FB50023AC
:10818000009301930293039301A8694602AA03ABEB
:1081900001F0FEFC05B05DF804FB000030B5514D68
:1081A00000249FB0FF20AC70EC706C706C71EC75AB
:1081B0006C772C766C76AC76EC7603F07BFAE72065
:1081C00003F0F4FA21462246204602F0C7FC2B4673
:1081D000012103F8074F0E200A4601F099FD6B7943
:1081E000012B05D1642003F009F901F00BF9F6E742
:1081F00010210C2001F0D8FD3B4802F09BF93B48D0
:1082000002F022FE012002F003FE6846384900F029
:1082100027FEAB786A78334C1A431AD1E37F002BE0
:1082200056D0FF2002F0A6FD002851D11A24013CAF
:1082300006D0E72003F0E8FA322003F0DFF8F6E793
:108240000E20012122462B4BAC7101F061FDEC7731
:10825000DFE7E72003F0AAFAA31D0E200121002288
:1082600001F028FDA37813B102F00EFE20702B78E8
:1082700001210133AB7100221E4B0E2001F048FD9D
:10828000002001240146012202F068FC214622461A
:10829000194B0E20EC7101F03BFD02F0E3FB642072
:1082A00003F0ACF8002002F0A7FB48F2442085F868
:1082B000204002F07BFD4FF47F4003F0FBF9E72004
:1082C00003F074FAFFF742FF0023AB751FB030BD17
:1082D000E72003F099FAFA2003F090F8684600F0DE
:1082E00013FE96E74C190020F86B0108600100208E
:1082F000058000085219002053190020024B1A680B
:1083000018601046704700BFD41900207FB53B4C61
:108310000025606203F018FD03F058FC384B394A21
:108320000093394B39490193394B3A4802933A4B00
:1083300003933A4B02F048FB642003F05FF80020FF
:1083400002F05AFB012348F24420E57684F82030FD
:1083500002F02CFD324B1A881E46012A2ED00E2028
:1083600010212A46A31D01F0A5FC102826D123794F
:10837000224D93B9AB7913B90123AB750DE0E879C0
:1083800058B90146012202F0E9FB01212B4603F80E
:10839000071F0E200A4601F0BBFC23795BB2002BBD
:1083A00023DC164B9B7D03B31E4801F0E3FCFFF773
:1083B000E5FE04B0BDE87040FFF7C8BEFF2002F044
:1083C000D9FC10210E2001F0EFFC002110221648EC
:1083D0000BF030F810210022134B0E2001F098FC16
:1083E0000023338003F0FCFDC1E74FF47F4003F02E
:1083F00061F9E72003F0DAF9D6E700BF4C19002055
:1084000085BC0008F57F000899BC0008ED7F0008D6
:1084100005BD0008598000082DBD0008FD7F00083B
:10842000AE02002074190020521900202DE9F341FA
:108430004FF08040012105F033F920B14FF080402A
:10844000012105F038F9B64C4FF08040002105F0CD
:10845000D4F8A37F13B994F82A303BB394F82030B2
:10846000AF4D6BB3002630466E71EE62EE75AE779F
:1084700085F820602E766E76AE76EE762E7703F057
:1084800055FC642002F0BAFFAB7D3BB1304602F0F0
:10849000B3FA012385F82030FFF780FE4FF47F40C8
:1084A00003F008F9E72003F081F909E094F820309F
:1084B00003F0FF0023B902F09FFA012384F8203073
:1084C000A37D974E13B1FFF769FE09E033795BB2E4
:1084D000002B05DDF37D03F0FF05002B00F09480F9
:1084E000E2788F4B012A13D1DA7D012A10D15B7912
:1084F000012B0DD103258B480BF05AFB013D82B2B5
:108500008849012002F026FA15F0FF05F3D1E57045
:1085100094F83030824D7BB92B7E002B40F08C805C
:108520006B7E002B40F088804FF08040012102B02C
:10853000BDE8F04105F061B87B4E3368002BF3D104
:10854000EB7D0BB395F82A30F3B92B7E002B00F0AE
:10855000828019E02B4603F8092F0E200121032207
:1085600001F0D6FB4FF6FF7003F0A4F8E72003F00C
:108570001DF9FEF705FE0028C0F296800122227642
:108580006A4A0023E3621360237E654D83B36B7EEA
:108590003BBBFEF777FD00281DD002DA4FF47F00C9
:1085A00007E0012801D1624803E0022803D14FF01F
:1085B000FF1003F07FF8E72003F0F8F894F831306B
:1085C00047F230520133DBB284F8313094F8313065
:1085D0005343336005E001236B76564B85F8310039
:1085E0001860FEF713FD18B9A076E0766076207665
:1085F0004FF08040012105F000F80120002102B079
:10860000BDE8F041FEF7CCBE29462A46284602F0D6
:10861000A5FA49480BF0CCFA484F804638460BF093
:10862000C7FA2B46019000970320791F424602F0BB
:108630002FFAFF23337153E7FEF792FD00234FF427
:108640007F40A376E3766376237603F033F8E72062
:1086500003F0ACF868E7642002F0D0FE05F13200C8
:1086600001F016FB2B7F002B3FF47CAF4FF47F0013
:1086700003F020F8237F2A4D03F0FF02002B3FF484
:1086800069AFE72003F092F84FF4FA7002F0B6FEFB
:10869000E72003F099F84FF4FA7002F0AFFE2B7F59
:1086A000013BDBB22B77E5E7A17F1D4A01F0FF0319
:1086B00000297FF439AFD16A01310229D1620AD190
:1086C000012090771E4A01910092042040F252212D
:1086D0001C4A03F0C5FFFEF711FD002813DAE36A18
:1086E0000133022BE3620CD10D4A01219177144A28
:1086F00004208DE80C004FF41771124A002303F098
:10870000AFFF022300E003232377237F0E20637251
:1087100001210D4B032201F0FBFA0023237633E7FE
:108720004C19002063010020600B00206C0B00201E
:108730000060FF00680B00206A0100206F0100202C
:10874000BE960108096C01085519002013B5084CA4
:10875000002100910A460B462046FFF7DFF8054945
:10876000054A204602B0BDE810400AF06FB900BFCC
:10877000B8190020ED620008CC0C00207047000002
:1087800007B5064B052000935221054A002303F04C
:1087900067FF012003F0B2FFFEE700BFF19601087A
:1087A000206C010807B5064B052000936221054A9D
:1087B000002303F055FF032003F0A0FFFEE700BFF6
:1087C000FB960108396C010807B5064B052000939C
:1087D0007221054A002303F043FF042003F08EFFBB
:1087E000FEE700BF05970108526C010807B5064B6C
:1087F000052000938221054A002303F031FF052064
:1088000003F07CFFFEE700BF0E9701086A6C0108C9
:1088100070477047704708B503F0ECFCBDE80840AE
:10882000FDF7F6BE08B5024B0BB1AFF3008008BDF3
:108830000000000008B5024B0BB1FFF705FB08BDB7
:10884000497E000808B5024B0BB1FEF7F9FF08BDE1
:108850004178000808B5024B0BB1FEF7F2FF08BDE6
:108860004378000808B5024B0BB1FFF727F908BDA4
:10887000BD7A000808B5012004F0EEF938B10120F6
:1088800004F0F8F9024B13B10020FFF707F808BD18
:108890009D78000808B5022004F0DEF938B1022006
:1088A00004F0E8F9024B13B10120FEF7F7FF08BD11
:1088B0009D78000808B5042004F0CEF978B10420B2
:1088C00004F0D8F90020064B0146188003F024F884
:1088D000BDE8084003481021012204F0A8BE08BDED
:1088E000F4190020002C014008B5082004F0B4F968
:1088F00038B1082004F0BEF9024B13B10320FEF793
:10890000CDFF08BD9D78000808B5102004F0A4F93B
:1089100038B1102004F0AEF9024B13B10420FEF779
:10892000BDFF08BD9D78000808B5202004F094F92B
:1089300038B1202004F09EF90E4B13B10520FEF74C
:10894000ADFF402004F088F938B1402004F092F9DE
:10895000084B13B10620FEF7A1FF802004F07CF93C
:1089600038B1802004F086F9024B13B10720FEF7DE
:1089700095FF08BD9D78000808B54FF4005004F03D
:108980006BF940B14FF4005004F074F9174B13B178
:108990000D20FEF783FF4FF4804004F05DF940B1F5
:1089A0004FF4804004F066F9104B13B10E20FEF72F
:1089B00075FF4FF4004004F04FF940B14FF4004010
:1089C00004F058F9094B13B10F20FEF767FF4FF47D
:1089D000006004F041F938B14FF4006004F04AF946
:1089E000BDE8084002F094BC08BD00BF9D780008B7
:1089F00008B51048102104F053FEC8B10D481021ED
:108A000004F059FE002003F035F830B90A4B1A88FB
:108A100092B20A3292B21A8008BD06481021002292
:108A200004F005FEBDE808400020012102F074BFFB
:108A300008BD00BF002C0140F419002008B501203A
:108A400004F050FB30B1012004F05CFBBDE80840AD
:108A500004F032BB08BD000008B5022004F042FB60
:108A6000B0B10C4B00224FF400301A7004F002F940
:108A7000012004F059FA10B1012004F05FFA04F06B
:108A80001BFB022004F03EFBBDE8084004F014BBD1
:108A900008BD00BF7619002002F0AEBB00F062B83E
:108AA00038B514490B78012B23D1134A13680BB93D
:108AB0000B7038BD114C402B206881B205D9403075
:108AC000403B20601360402504E09DB203442360D6
:108AD000002313600A482A460844C02105F020FB01
:108AE0000120294605F024FCBDE83840012005F0AE
:108AF00089BB38BDBC0C0020C40C0020C00C002079
:108B0000BC0B002008B5094B01221A70084B00224B
:108B100003201A8005F03CFC064B024618804FF4F7
:108B200088710548BDE8084005F012BB700B0020B5
:108B3000740B0020720B0020760B0020074B1B6883
:108B4000052B09D1064B1A68511C052A196003D15F
:108B500000221A60FDF7CCBE704700BF181A002033
:108B6000C019002070B52B4D2B4C2B682B4E9BB29F
:108B70002380228833881340990508D54FF6FF5388
:108B80002B60A3780133DBB2A370FFF7D7FF2288F5
:108B9000338813401A0401D505F00CFA2288338873
:108BA00013405B0505D54FF6FF332B601C4B5B680C
:108BB0009847228833881A40900444BF4DF6FF72CC
:108BC0002A6022881340D90405D54EF6FF732B6026
:108BD000002003F003FD2288338813401A050BD5CB
:108BE000104B1B7813B103F0D9FC02E0022003F014
:108BF000F5FC4FF2FF732B60228833881340DB05AE
:108C000007D54FF6FF632B600720BDE8704003F0E7
:108C1000E5BC70BD445C0040C4190020082400205D
:108C2000D4010020D0020020034B9B7A13B1034BE8
:108C300005221A60704700BFE4230020181A0020A4
:108C4000014B04221A607047181A0020034B1A784F
:108C5000202A04BF00221A70704700BFC8190020E4
:108C600070470000212810B508D1114B1B681B78F4
:108C700003F07F03212B10D0022010BD2028FBD150
:108C80000B4B0C4A1B681B78107003F07F03212BE1
:108C9000094B18BF00230BB9EEE7084B044A002428
:108CA00012682046936154829847204610BD00BF49
:108CB00004240020C81900200D8D0008F58C000840
:108CC000074B1B681B7803F07F03212B06D100F0B4
:108CD000DF00022814BF02200020704702207047E6
:108CE0000424002009B1022070470128FBD808465F
:108CF0007047000020B9034B08221B681A82704796
:108D00000148704704240020CC01002020B9034B07
:108D100008221B681A82704701487047042400200B
:108D2000CC01002010B5FDF72FFE054B00241B6879
:108D30009C7203F01BFC05F041FB024B1C6010BD54
:108D400004240020181A0020334B344A1B68D279BF
:108D500010B500245A729C72DC72204605F00AFAA3
:108D600020464FF4007105F00DFA2046102105F061
:108D700017FA2046402105F0AFFA8021204605F081
:108D80009BFA204605F064FA254B204693F83410F0
:108D900005F0DCFA204605F048FA0120214605F0EE
:108DA000F1F90120C02105F087FA0120202105F00A
:108DB000F7F90120214605F00CFA02204FF4C061BA
:108DC00005F0E0F902204FF4807105F075FA0220F9
:108DD000214605F0FEF90220202105F0E1F90320EB
:108DE000214605F0CFF903204FF4887105F074FA9D
:108DF0000320402105F0AAFA03204FF4405105F06A
:108E0000E8F90320214605F0CBF9204605F066F885
:108E1000044B01221A6010BD04240020E06C0108FC
:108E2000CC010020181A0020014904F053BE00BFF5
:108E300004020020014904F04DBE00BF0C020020D6
:108E4000054B1B68DB78042B04D8044901EBC301F4
:108E500004F040BE002070470424002014020020CB
:108E600038B504460D46FFF78FF8204625614FF4CC
:108E70001651FFF793F8204638BD70B506460D46EB
:108E8000002428460AF094FE844208D2295D304628
:108E9000FFF774F8012002F0B1FA0134F1E770BD78
:108EA0002DE9F84304460F4690460D46C7EB0509E9
:108EB0005FFA89F92046FFF75DF80028FADD2046C1
:108EC000FFF756F8C145C6B206D100232B702046E5
:108ED0000C49FFF7D2FF0AE00D2EF6D00A2EF4D08F
:108EE00020463146FFF74AF805F8016BDEE72046D9
:108EF000FFF740F8002803DD2046FFF739F8F6E7D2
:108F0000BDE8F883C5980108F0B585B00446FFF7C1
:108F100031F8002840F39D802046FFF729F8C0B2C1
:108F2000772868D104F1140600212122304604F18B
:108F300035050AF07FFA4122002128460AF07AFA24
:108F400004F17607002384F87630204642497B708E
:108F5000FFF793FF204631462022FFF7A1FF20466E
:108F60003E49FFF78AFF012220463946FFF798FF66
:108F700094F87630A3F13002D2B2032AEFD8312B25
:108F80000BD120463649FFF778FF20463549FFF7D9
:108F900074FF20463449FFF770FF94F87620B2F151
:108FA000300708D020463149FFF767FF20462946A1
:108FB0004022FFF775FF20462D49FFF75EFF23692A
:108FC0003A4630462946984720462A49FFF755FF3A
:108FD00020462949FFF751FF20462849FFF74DFF5A
:108FE00020462749FFF749FF20462649FFF745FF5E
:108FF0002046254928E069282BD1244B01AD93E870
:10900000070085E8070020462149FFF736FF0026C4
:10901000AF5D20463B0903F13001392984BF03F1DC
:109020005701C9B207F00F07FEF7A8FF07F130019B
:10903000392984BF5737F9B220460136FEF79EFF23
:109040000C2EE5D11349204605B0BDE8F040FFF7EE
:1090500014BF05B0F0BD00BF1997010820970108A3
:109060004D97010883970108AE970108F49701080E
:10907000FF97010842980108629801089598010835
:10908000C89801080799010838990108E8F7FF1FF7
:109090004E990108C598010813B5084C00210091AC
:1090A0000A460B462046FEF739FC0549054A20468C
:1090B00002B0BDE8104009F0C9BC00BFCC190020C7
:1090C000ED620008CC0C0020002100F004B80D4B2C
:1090D0005B58435004310C480C4B42189A42FFF441
:1090E000F6AF0B4A00F003B8002342F8043B094BEB
:1090F0009A42FFF4F9AF03F0BFF9FDF729FDFDF740
:1091000095FC7047689E010800000020500B00206D
:10911000500B002014240020FFF7FEBF0B0A017043
:1091200043700B0C090E8370C170043070470170DE
:10913000090A41700230704743185A78435C03EBC8
:10914000022080B2704710B543189A78DC78415CF1
:10915000120402EB046258780A4402EB002010BDAE
:1091600073B544790023022C01930FD0032C19D03E
:10917000012C2BD1164D2B692E4623B12B6901A84A
:1091800098470246B8B9B16801201BE0104DEB6862
:109190002E4623B1EB6801A89847024658B9B1683A
:1091A00002200FE00A4D6B692E464BB16B6901A896
:1091B0009847024620B1A9682046BDF8043003E074
:1091C000B16803200022134600F07EFC02B070BD9F
:1091D0004C1B0020072810B50BD8012909D8012401
:1091E000844001FA00F0034B1A6822EA04020243A9
:1091F0001A6010BD5C02002070B5012186B00546E2
:10920000FFF79AFF430404462AD5B0F5824F27D1D1
:1092100028460521FFF790FF05EB8000EE1D002496
:10922000C51DAE4206D030460221FFF785FF043649
:109230000444F6E7724B1A8E92B2224492B21A8616
:10924000DA6B1444DC63D96B9A6B914240F0CA80AC
:1092500093F84020002A00F0C5809B69992031E0F6
:1092600024F4FF4020F07F0080B2002800F09780B7
:1092700048F210039C4228D00CD8B4F5004F40F2BD
:10928000BC8048F202039C4215D948F204039C4278
:1092900011D0B2E048F280039C420CD004D848F2CE
:1092A00040039C424FD0A8E0B4F5024F03D0B4F580
:1092B000084F6BD0A1E0524B9A69002A00F09280CF
:1092C0009B69204600210A4667E00023EA1852798C
:1092D0000DF803200133042BF8D16B7A05F10D0052
:1092E0008DF80430AB7A8DF80530EB7A8DF80630C6
:1092F0002B7B8DF80730002300AA1A44C15C013390
:10930000042B1172F8D105F11100002300AA1A44B0
:10931000C15C0133042B1173F8D105F11500002352
:1093200000AA1A44C15C0133042B1174F8D12B79C3
:109330008DF81430324B9A69002A53D09B6920462D
:109340006946152229E0053500212846FFF7FBFE76
:10935000042100902846FFF7F6FE082101902846D8
:10936000FFF7F1FE0C2102902846FFF7ECFE1021DA
:1093700003902846FFF7E7FE214B04909A69002AE4
:1093800030D09B6920466946142206E01C4B9A693E
:1093900042B39B692046691D0122984722E041F2B1
:1093A00003039C4205D0A4F580530E3B9BB2012BD6
:1093B0001AD86C1D20460421FFF7C5FE39301CD198
:1093C0002A790F4B00212046DA62FFF7BCFE042108
:1093D00005462046FFF7B7FE393003D12846012164
:1093E000FFF7F8FE012009E0054B1B889BB29C4269
:1093F00004D0B4F5805FF5D100E0002006B070BD68
:109400004C1B0020F0B51F4E8DB07588ADB2002DFD
:1094100034D0746827783B1F5F425F4137B12046E4
:10942000FFF7EAFE003018BF012000E0384605468D
:1094300000BB1FB396F8413003BB134B04200093CD
:10944000237840F2133101936378104A0293A37892
:109450000393E37804932379059363790693A379BF
:109460000793E3790893237A0993637A0A932B4647
:1094700003F0F6F80023738001F0D4FD28460DB008
:10948000F0BD00BF4C1B00205F990108356D01083D
:109490002DE9F04F8BB004468A46914602F0B2FEA9
:1094A00000250790DFF83083B8F8023046469BB2BB
:1094B000002B40F0B78002F0A5FE0890089A079BA9
:1094C000D31A0993099B002B03DA079B089A1344CC
:1094D0000993BC4B1B68002BE4D0099A9A42E1D354
:1094E0000898B94D0799099A019002910392049343
:1094F0000420F821B54A0023009503F0B1F8338821
:10950000B34A9BB28DE80C000420B04A0023F92135
:1095100003F0A6F8338841F207029BB2934227D8A2
:1095200041F2060293426DD240F20222934269D088
:109530000FD80C2B08D8082B64D2002B4FD0062B49
:1095400088BF002366D85DE00D2B58D040F2012281
:109550000BE041F20202934257D8B3F5805F51D835
:10956000B3F5017F4BD940F20722934237D146E051
:1095700041F21102934242D014D841F20B029342BD
:1095800040D005D841F2090293423BD03DD836E0A5
:1095900041F20F02934238D034D841F20D02934287
:1095A00033D01CE042F20602934228D007D8B3F52C
:1095B000005F14D942F2040293422DD81FE0B3F5A4
:1095C000804F00F0158205D8A3F50053083B012B0E
:1095D00015D904E044F20B02934200F0098233886B
:1095E0007C4A9BB28DE80C00052040F20111774ABD
:1095F000002303F035F80B2003F080F8F8E1FF2397
:109600002370F5E14FF0FF3304E04FF0FF332360A8
:109610006360EDE12360EBE1204600213A2209F08E
:1096200009FFE5E1D8F804603278042A40F081812E
:1096300030460121FFF780FD05463046FFF7DCFD8F
:10964000002840F06B8141F207039D4206F10507B7
:1096500055D841F206039D4280F0AE8040F20223CD
:109660009D4200F0A98014D80C2D09D8082D80F057
:10967000A380002D00F05281062D00F2ED809BE0CA
:109680000D2D00F0968040F201239D4200F0918064
:1096900044E141F202039D4218D8B5F5805F00F223
:1096A0008B80B5F5017F40F2848040F207239D4214
:1096B00040F034813379384604F8013B0021FFF74C
:1096C00042FD01462046FFF729FD27E141F2040350
:1096D0009D4200F0978040F2AD8000213846FFF7B0
:1096E00032FD042120603846FFF72DFD083444F890
:1096F000040C06F10D03224606F11D017BE041F248
:1097000011039D4255D02BD841F20B039D4253D0FB
:109710001CD841F209039D424ED000F298800021EE
:109720003846FFF710FD042120603846FFF70BFD97
:10973000082160603846FFF706FD0C21A06038461E
:10974000FFF701FD04F10C0BE060E6E041F20F03CE
:109750009D426FD042D841F20D039D4252D0DDE0D0
:1097600042F206039D4224D00BD8B5F5005F40F2CB
:10977000D58042F204039D4288BF002300F290800E
:1097800017E042F208039D42C0F0C88042F209038C
:109790009D420ED944F20B039D4240F0BF80737985
:1097A00038460121A8F83030FFF7C6FCA8F832008F
:1097B000B4E033792370B1E038460021FFF7C3FCF1
:1097C0002060ABE0D4190020BB990108536D01085B
:1097D000FE990108379A01084C1B002000213846E9
:1097E000FFF7B1FCA3464BF8040B04213846FFF702
:1097F000AAFC606091E053F8040B8B4242F8040B22
:10980000F9D18BE000213846FFF79DFC0421206050
:109810003846FFF798FC082160603846FFF793FC54
:10982000E36804F1080B3933A06076D10121FFF71A
:10983000D1FC72E000213846FFF785FC042120604E
:109840003846FFF780FC083444F8040C66E03379AE
:1098500023713B68236061E000213846FFF773FC09
:10986000042120603846FFF76EFC0821606038460E
:10987000FFF762FC0A21A0603846FFF75DFC0C345C
:1098800044F8020C06F11103224606F1350153F8A3
:10989000040B8B4242F8040BF9D11B8813803DE086
:1098A000F2185279E2540133042BF9D106F1090080
:1098B0000023C15CE2180133042B1171F9D106F1C8
:1098C0000D000023C15CE2180133042B1172F9D1A1
:1098D00006F111000023C15CE2180133042B11735F
:1098E000F9D106F115000023C15CE2180133042B05
:1098F0001174F9D106F119000023C15CE21801339B
:10990000062B1175F9D106F11F000023C15CE21886
:109910000133202B9176F9D100E05C46B8F80020A5
:10992000354B92B2954249D100221A8083F84120EA
:1099300044E0B8F836309BB293B9B8F83600B8F8BE
:1099400000102E4F80B289B20192029003910097CD
:109950000495042040F20F21294A02F081FE2DE0F7
:109960003046032196F802B0FFF7E6FB0746BAF14E
:10997000000F0BD00421701DFFF7E5FB06F1150168
:109980000246C9F800005046FCF73CF8CBEB07074D
:109990007B1EB3F5806F07D20BF1050120463144E1
:1099A0003A46FCF72FF801E04FF0FF37B9F1000F0E
:1099B00001D0C9F800700023A8F836300023A8F8B9
:1099C000023001F02FFB3378042B05D1B5F5805F11
:1099D00002D13046FFF7C4FBB8F800309BB2002B31
:1099E0007FF460AD044BDB8E9BB2002B7FF45AAD4D
:1099F00000200BB0BDE8F08F4C1B0020479A0108F7
:109A0000536D010807284FF0010308D803FA00F04E
:109A1000044B1A6810420CBF002001207047184602
:109A2000704700BF5C020020034B188008460021ED
:109A30000A46FFF72DBD00BF4C1B002010B5034B9D
:109A40000124DC86BDE81040FFF722BD4C1B00203E
:109A500038B50346154601224A710C46881D194641
:109A6000FFF765FB291D0570204601F04BFB002028
:109A700038BD38B5BDF814500C462B44D518ADB2DE
:109A800002216171A071E271294604F10800FFF71B
:109A90004EFB691D204689B201F034FB002038BD21
:109AA00038B513440C469DB202216171A07129465C
:109AB000E27104F10800FFF73AFB691D204689B204
:109AC000BDE8384001F01EBB2DE9F84F1C4604F1FB
:109AD000020B032301F107091FFA8BFB88710D4666
:109AE0004B71484659461646FFF721FBB4F57A7F7D
:109AF000824605F10B0812D82146FFF718FB2146D4
:109B00005046FFF714FB314640462246FBF77AFFEA
:109B1000A11D284689B2BDE8F84F01F0F3BA4FF411
:109B20007A77B4FBF7F30BEB430189B2FFF7FFFA47
:109B300039465046FFF7FBFA314640463A46FBF7B6
:109B400061FFA4F57A74284640F2EE31A4B23E4497
:109B500001F0D8FAB4F57A7F84BFA4F57A74A7B27D
:109B6000A84688BF4FF47A74314628F8054F484616
:109B7000224698BF0027FBF745FFA11C404689B24B
:109B8000264401F0BFFA0FB13C46E3E7BDE8F88F89
:109B9000F7B51E46FF238DF80730194B00259C684A
:109BA000475D63190135042D5F72F9D100200D5C0A
:109BB0002318013004285D73F9D10021505C63182B
:109BC000013104295874F9D104F115000021FFF77F
:109BD000A5FA0022B35C83540132042AFAD121464B
:109BE000142242F20100FFF733FF42F201000DF1AF
:109BF0000701FFF719FF9DF9070003B0F0BD00BF93
:109C00004C1B00202DE9F3411F46FF238DF8073040
:109C10001E4B0646D3F8088033680C46013B122BD6
:109C20009CBF142333600B6808F10900013B122B21
:109C30009CBF14230B6013681546013B122B9CBF7D
:109C4000142313603B68013B122B9CBF14233B6021
:109C50003168FFF763FA2168FFF760FA2968FFF7B8
:109C60005DFA3968FFF75AFA4146142242F20900B8
:109C7000FFF7EEFE42F209000DF10701FFF7D4FEF7
:109C80009DF9070002B0BDE8F08100BF4C1B002029
:109C900010B5074B0446996842F205000022FFF711
:109CA000D7FE214642F20500BDE81040FFF7BCBEDA
:109CB0004C1B00202DE9F3411F4602ACFF2304F8A2
:109CC000053D124B86469D680E4605F1090071461A
:109CD0009046FFF723FA3146FFF720FA4146FFF797
:109CE0001DFA29460C2240F20120FFF7B1FE214661
:109CF00040F20120FFF798FE3846002101AAFFF745
:109D00009DFE019802B0BDE8F08100BF4C1B002011
:109D10002DE9F341984602AD4FF0FF3345F8043D7D
:109D2000134B86469E680C4606F10A00714617469C
:109D3000FFF7F4F90C21FFF7F1F92146FFF7EEF9EF
:109D40003946FFF7EBF94146224606F11A00FBF7C8
:109D500059FE31461022A3B29020FFF7A1FE40F237
:109D600002202946FFF760FE019802B0BDE8F081AD
:109D70004C1B002013B50B4B04469968002240F29F
:109D80000720FFF765FE40F207206946FFF74CFE0B
:109D90009DF803309DF8000023709DF80430637037
:109DA00002B010BD4C1B002037B50E4A0346946824
:109DB0000D4604F109001946FFF7B0F92946FFF7EF
:109DC000ADF92146082240F20320FFF741FE40F2A0
:109DD00003200DF10601FFF727FEBDF8060003B0D2
:109DE00030BD00BF4C1B00202DE9F0430023CA5CAE
:109DF000C2540133102BFAD10022344B467B991800
:109E000091F801800178847B88EA01089919C97A60
:109E100090F80CC088EA01081919CF7A417880F8C7
:109E200010804F40C17B47745D1895F80B90857882
:109E3000634489EA050593F80B90C378FFB289EA79
:109E4000030390F80490857488EA090890F8059057
:109E5000EDB287EA090790F80690C37485EA090510
:109E600090F80790DBB283EA090390F8089080F835
:109E700014805FFA88F888EA090890F80990477515
:109E8000FFB287EA090790F80A908575EDB285EA76
:109E9000090590F80B90C375DBB283EA0903013220
:109EA00088EA0C0C7E406C4059400A2A80F81880E1
:109EB00047768576C37680F81CC046778477C1776D
:109EC00000F1100099D1BDE8F08300BF656D010875
:109ED00010F0800F4FEA400018BF80F01B00C0B2A6
:109EE000704700002DE9F04F91F8A03090F800A0E5
:109EF00042788AEA030A80F800A091F8A13097B06E
:109F0000534043708278079391F8A23090F8049000
:109F100053408370C278059391F8A330467953403B
:109F2000C370069391F8A430827989EA030980F816
:109F3000049091F8A53090F808805E40467191F841
:109F4000A630477A53408371C279089391F8A730BD
:109F500004465340C3710C9391F8A8304FF0000BA6
:109F600088EA030880F8088091F8A9305F404772BA
:109F7000827A91F8AA30534083720993C07A91F89B
:109F8000AB3094F80CC04340E3720D9391F8AC30C1
:109F900094F80DE08CEA030C84F80CC091F8AD3015
:109FA000A57B8EEA030E84F80DE091F8AE30E27BDB
:109FB0005D40A57391F8AF305A40464BE2739A4426
:109FC0009AF80B0191F890A0994480EA0A00207059
:109FD00099F80BA191F8949098448AEA090984F8B9
:109FE000049098F80B9191F898809C4489EA0808AD
:109FF00084F808809CF80B8191F89CC09E4488EA04
:10A000000C0C84F80CC09EF80BC191F891E01F4431
:10A010008CEA0E0E97F80BC191F89D701E448CEAE5
:10A020000707677396F80B7191F899601D447E409D
:10A030006672079E0D981E4496F80B7191F8956014
:10A0400084F801E07E406671059E18441E4496F82F
:10A050000B7191F89A607740089E1E4496F80BE1C8
:10A0600091F89E608EEA0606DDF824E09E449EF894
:10A070000BC191F892E08CEA0E0E84F802E095F89C
:10A080000BE191F89650A7728EEA0505A571069D21
:10A09000A6731D4495F80B6191F89F5075400C9E76
:10A0A0001E4496F80B7191F8936013447E40E6705D
:10A0B00090F80B6191F897007040E07193F80B21D4
:10A0C00091F89B30CDF81CB05340E573E3720D4618
:10A0D00002E000BF656D0108A77894F80090103D7C
:10A0E00087EA0900FFF7F4FEFFF7F2FEE67894F83E
:10A0F00001B0824686EA0B00FFF7EAFEFFF7E8FEB2
:10A100002179A37980EA060880EA0B0B83EA010033
:10A1100003910293FFF7DCFEFFF7DAFE8AEA0909F2
:10A12000E6798AEA070A6779024686EA0700049216
:10A13000FFF7CEFEFFF7CCFE049A029B0399534033
:10A14000DBB294F808C00693A37A51404640C9B2E6
:10A150004740F6B283EA0C000293CDF804C00591A3
:10A160000896FFF7B5FEFFF7B3FE617AE67A02467E
:10A1700086EA010003910492FFF7AAFEFFF7A8FE0A
:10A18000049ADDF804C00399029B82EA0C0C534048
:10A190004140C9B25FFA8CFCDBB20A91CDF824C011
:10A1A0000B9394F80CC0A37B4640F6B283EA0C00F4
:10A1B0000293CDF804C00C96FFF78AFEFFF788FEE5
:10A1C000617BE67B024686EA010003910492FFF779
:10A1D0007FFEFFF77DFE049A029BDDF804C0039921
:10A1E000534082EA0C0C5FFA89F95FFA8BFB5FFA45
:10A1F0008AFA5FFA88F84140DBB24640C9B28BEA7E
:10A2000009005FFA8CFC0F93F6B288EA0A030E91FC
:10A210000293CDF834C0109683EA0006FFF758FE8B
:10A2200089EA000086EA000C5FFA8CFC84F800C022
:10A230008AEA0B00CDF804C0FFF74AFE8BEA000063
:10A24000029B86EA000B5FFA8BFB184684F801B08C
:10A25000CDF844B0FFF73CFE8AEA000086EA000A27
:10A260005FFA8AFA88EA090084F802A0CDF848A0CB
:10A27000FFF72EFE88EA0000059BDDF818B0DDF838
:10A2800020A04640FFB2F6B287EA03008AEA0B0834
:10A29000E670139688EA0006FFF71AFE0599484013
:10A2A0007040C0B2149020718BEA0700FFF710FED7
:10A2B000784086EA0007FFB2677140461597FFF7BE
:10A2C00007FE8BEA0000059A7040C0B20690A071AC
:10A2D0008AEA0200FFF7FCFD8AEA00000B990A9B5C
:10A2E000DDF824A0DDF830B04640F6B283EA0A007B
:10A2F0000596E6718BEA010686EA0007FFF7E8FD9E
:10A300008AEA00000A9B0B9A87EA00085FFA88F83D
:10A3100082EA030084F80880FFF7DAFDDDF828A060
:10A320008AEA000087EA00095FFA89F9304684F872
:10A330000990FFF7CDFDDDF82CB00C998BEA0000F9
:10A34000099A87EA000B5FFA8BFB81EA020084F826
:10A350000AB0FFF7BDFD0C9B0D99DDF838A0584001
:10A36000109A47408AEA0100DDF83CA0FFB282EA79
:10A370000A03E77283EA000A0293FFF7A9FD0D9929
:10A380000F9A48408AEA00060E99F6B282EA010066
:10A390002673FFF79DFD0E9A029B50408AEA00014A
:10A3A000C9B2617318460391FFF792FD0F9BDDF868
:10A3B00034E058408AEA0002109BD2B2A27383EACA
:10A3C0000E000492FFF784FD109BDDF804C0584096
:10A3D0008AEA000A494B5FFA8AFA84F80FA003EB75
:10A3E0000C0090F80BC195F890001E448CEA000018
:10A3F000207014981F44184490F80BC195F89400ED
:10A400008CEA0000207103EB080090F80BC195F86E
:10A4100098008CEA0000207295F89C0096F80B6179
:10A42000039970402073194491F80B0195F891102D
:10A43000049A414003EB090090F80B6195F89D00E8
:10A440001A44704060731598184490F80B6195F8A1
:10A450009900704060721198184490F80B6195F85B
:10A4600095006170129970406071194491F80B0168
:10A4700095F89A1048400699194491F80B6195F89F
:10A480009E10714003EB0B0696F80BC195F8926095
:10A490008CEA0606A67092F80B6195F89620A072D9
:10A4A0007240139EA1731E4496F80B11A271059E73
:10A4B00095F89F201E4496F80B014A4095F893109A
:10A4C00053444140E17095F8971097F80B01DDF87F
:10A4D0001CA04140E17193F80B1195F89B30AAF153
:10A4E000100A4B401AF1900FE372E273CDF81CA0F2
:10A4F0007FF4F2AD17B0BDE8F08F00BF656D0108C5
:10A5000038B5054C05462046FFF76EFC2846214627
:10A51000BDE83840FFF7E6BC551A002008B5102109
:10A52000034600220C20FFF7C5FB103818BF6FF060
:10A53000000008BD034610210C200022FFF7E8BBF5
:10A5400030B58BB0054601F05DFE0790224CE36A02
:10A550004BB108F0BFFAE36A03600023E36208F03E
:10A56000B9FA006835E02846FFF74CFA00282ED1EA
:10A5700001F048FE0890089A079BD31A0993099B9B
:10A58000002B03DA079B089A13440993134B099A8B
:10A590001B689A420FD30898114C0799099A0190A9
:10A5A0000291039204930094042091210D4A002308
:10A5B00002F056F80BE0228E074B92B2002AC5D06B
:10A5C0001A8E002092B2013A92B21A8601E04FF040
:10A5D000FF300BB030BD00BF4C1B0020D419002051
:10A5E000A49A0108706F0108F7B5174602AC4FF046
:10A5F000FF3244F8042D124A034695680E4605F1D1
:10A6000009001946FEF78AFD3146FEF787FD3946F7
:10A61000FEF784FD0C22294641F20100FFF718FAEB
:10A62000214641F20100FFF7FFF908F053FA019BC0
:10A63000002103601846FEF7CDFD019803B0F0BD80
:10A640004C1B002073B54FF0FF3302AC44F8043DBF
:10A650000E4B05469E68294606F10900FEF75EFD91
:10A660000422314641F20B00FFF7F2F9214641F294
:10A670000B00FFF7D9F908F02DFA019B01210360C7
:10A680002846FEF7A7FD019802B070BD4C1B0020C4
:10A6900037B54FF0FF320192134A034694680D46D6
:10A6A00004F109001946FEF739FD0821FEF736FDD1
:10A6B0000821FEF733FD0023EA5CC2540133082B66
:10A6C000FAD11422214641F20700FFF7C1F901A98E
:10A6D00041F20700FFF7A8F908F0FCF9019B0360BD
:10A6E000184603B030BD00BF4C1B00202DE9FF41D0
:10A6F0001D46314B8646D3F808800F4608F1090005
:10A70000714616460A9CFEF709FD1421FEF706FD68
:10A710001421FEF703FD1421FEF700FD1421FEF7BE
:10A72000FDFCD4F1010138BF0021FEF7F7FC0FB1A9
:10A73000396800E03946FEF7F1FC0EB1316800E0FF
:10A740003146FEF7EBFC0DB1296800E02946FEF723
:10A75000E5FC74B1216839B9636841F287329342EC
:10A76000DCBF41F288336360FEF7D8FC6168FEF716
:10A77000D5FC41462C2241F20800FFF769F941F26D
:10A7800008006946FFF750F9009B002B09DB0FB169
:10A79000019838600EB1029830604DB1039828607E
:10A7A00006E008F097F9009B03604FF0FF3000E0EF
:10A7B000184604B0BDE8F0814C1B00202DE9FF4194
:10A7C0009846194B86469E6815460F4606F10900C5
:10A7D00071460B9CFEF7A2FC2946FEF79FFC414602
:10A7E000FEF79CFCBDF8305031460C222846FFF79E
:10A7F0002FF9284601A9FFF717F9029B002B0ADD64
:10A8000038460A996A46FFF719F9009B04B123609C
:10A81000002BD8BF029308F05DF9029B0360184635
:10A8200004B0BDE8F08100BF4C1B00201FB5002420
:10A830000094019441F204040294FFF7BFFF04B0B6
:10A8400010BD00002DE9F04F89B017468A469B469F
:10A85000149C0390FFF774FEDDF80CC0024600283C
:10A860005DD1304B812C996B01F101019963D3F8D3
:10A87000088008F10A0007D0832C0CD107F10809E1
:10A8800008F12205182609E008F11A05914610265C
:10A890001392129202E01546914616466146FEF763
:10A8A0003DFC311FFEF73AFC3946FEF737FC5946AE
:10A8B000FEF734FC832C05D14946FEF72FFC082116
:10A8C000FEF72CFC2846421B12B2BA4204DA1AF8F0
:10A8D000022000F8012BF6E7832C01460FD0129BD3
:10A8E000E0B20093139B41469AB20192BBB232464A
:10A8F000FFF7BFF8832C0CD141F20F000BE0421A96
:10A90000139B12B29A42EADA129B9A5C00F8012B6E
:10A91000F5E741F2030005A9FFF786F8069809B0AC
:10A92000BDE8F08F4C1B00201FB50024009401945B
:10A9300081240294FFF786FF04B010BD1FB5069C6A
:10A940000094079C019483240294FFF77BFF04B0DA
:10A9500010BD0000202A73B503460E46144624D8C5
:10A96000144A1946956805F10900FEF7D7FB08213E
:10A97000FEF7D4FB2146FEF7D1FB03461A1A12B2AA
:10A98000A24203DAB25C03F8012BF7E704F10C02F0
:10A990002946D2B241F21100FFF75AF841F21100F4
:10A9A00001A9FFF741F8019801E04FF0FF3002B034
:10A9B00070BD00BF4C1B0020024B01225A80586022
:10A9C000FEF720BD4C1B002010B50A4CE16022614F
:10A9D0006361029BE361039B2362049B6362059BAB
:10A9E000A3620123A06184F84030002384F8413041
:10A9F00010BD00BF4C1B002070B5174B174D002435
:10AA000006461748AC63EC632C802C866C86AC86BB
:10AA1000EC86EC626C806C60AB6000F0CBFAA64216
:10AA2000A9680CBF234602234B7201224FF48040D9
:10AA3000FFF70EF821464FF48040FEF7F5FFA968B6
:10AA4000224644F20B00FFF703F8214644F20B00C4
:10AA5000BDE87040FEF7E8BFB81B00204C1B00208B
:10AA6000B9A9000838B5094C0020A36A98472546C3
:10AA7000EB69064C98470028FAD0A3680BB1002375
:10AA8000A360BDE8384000F0BDBA00BF4C1B0020F9
:10AA90002DE9F04F994685B04FF0FF3301932E4BCF
:10AAA0001546D3F808A00024834688460AF1090019
:10AAB0001C210F9E0E9F0294ADF80C40FEF72EFB5A
:10AAC0002946FEF72BFB5946FEF728FB05F110013E
:10AAD000FEF724FB3146FEF721FB2146FEF727FB5C
