:020000040800F2
:10500000005000201D7000085D6900085F690008FD
:1050100069690008736900087D69000800000000E4
:105020000000000000000000000000008769000888
:1050300089690008000000008B6900088D6900087C
:10504000717000087170000871700008B16B000881
:105050007170000871700008ED6900080D6A0008A1
:105060002D6A0008616A0008816A000871700008F2
:10507000717000087170000871700008196C0008E8
:1050800071700008717000089D6900087170000857
:105090001D6C00087170000871700008A16A00089A
:1050A000717000087170000871700008696B000869
:1050B000717000087170000871700008BD69000807
:1050C000CD6900087170000871700008DD69000882
:1050D0007170000871700008AD69000871700008F7
:1050E000F16A0008D96B0008717000080000000028
:1050F00000000000000000000000000000000000B0
:0C51000000000000000000005FF808F153
:10511000BFF34F8F054A064BD16801F4E06040EAC7
:105120000301D160BFF34F8FFEE700BF00ED00E049
:105130000400FA05014B0360704700BF40C8000837
:10514000034B10B50446036000F0B4FC204610BDCC
:1051500040C80008044A0549002313700B70044B33
:1051600001221A70704700BF781200201E12002022
:105170006401002008B5012000F0C2FC00210A46AD
:10518000402000F0CFFC0220002100F04FFD022063
:10519000002100F0CFFD06484FF4165101F092F9BE
:1051A00004484FF41651BDE8084001F095B800BF1F
:1051B000D4110020B011002038B500250C460D6038
:1051C0004D608D60CD600D61054907F0B7F830B1D5
:1051D000042DDCBF44F8250001350020F4E738BD7C
:1051E00038CA000813B50A4C00210B4600910A4644
:1051F000204600F0C1FE20460649074A05F0D6FFCA
:1052000004F1080002B0BDE81040FFF7A3BF00BFE3
:10521000240B002035510008AC0D002010B50548C6
:1052200001F040F90446044800F0B6FF2043C0B244
:1052300010BD00BFD4110020B011002008B50948EE
:1052400001F030F920B10748BDE8084001F02EB95F
:10525000054800F0A1FF20B10348BDE8084000F078
:10526000ADBF08BDD4110020B011002070B5094DAC
:105270000646094C3146284600F0E9FE31462046F4
:1052800000F0E5FE284601F0F3F82046BDE8704046
:1052900001F002B8D4110020B011002070B5094D02
:1052A0000646094C3146284600F0E6FE31462046C7
:1052B00000F0E2FE284601F0DBF82046BDE8704031
:1052C00000F0EABFD4110020B011002038B5054627
:1052D00040200C460022014600F024FC2CB122782C
:1052E000002A14BF0322002200E02246284621465D
:1052F00001F0B0F900200146402200F013FC024802
:10530000BDE83840FFF7CABF3BCA000870B5734B11
:105310007349DA68096886B08A4203DA9918087412
:10532000013200E000222028DA6002D10020D8609B
:10533000D1E03B2840F0CF80684C6A48FFF7AEFFD1
:105340006948FFF793FF04F11000FFF7A7FF6648D5
:10535000FFF78CFF04F11000FFF7A0FF04F110002D
:10536000624906F075FE054608B300236048E36015
:10537000FFF794FF01A92846FFF71EFF5D48FFF7DE
:105380008DFF0198FFF78AFF0298FFF787FF0398C8
:1053900008B1FFF783FF5848FFF780FF4F4901220C
:1053A000C1F8102102980021FFF790FF93E004F16B
:1053B0001000524906F04CFE0646F0B15048E56038
:1053C000FFF76CFF4E48FFF769FF642003F0D6F843
:1053D0004C48FFF763FF4C494C4801224FF6FF76DB
:1053E0000A70068003F0CAFE0420314604F0A2F9D8
:1053F0002820314604F09EF96BE004F11000444986
:1054000006F026FE0546D8B14248E660FFF746FFA3
:105410004048FFF743FF4FF4FA6003F0AFF83A4C0F
:105420003D4B01204AF6AA2520701D8003F0A6FE00
:10543000642003F0A3F8304603F06AFEFFF768FE2D
:1054400004F11000354906F003FE064698B13448D1
:10545000E560FFF723FF0F2003F0FEFEFF212A4641
:10546000284600F05FFBE72003F054FA2D48FFF7D1
:1054700015FF2C4819E004F110002B4906F0E8FD57
:105480000546A8B12948E660FFF708FF0F2003F0A2
:10549000C3FE31463246FF2000F044FBE72003F014
:1054A00039FA2348FFF7FAFE2148FFF7F7FE12E02A
:1054B00004F110001F4906F0CBFD60B11E48E56005
:1054C000FFF7ECFE1C48FFF7E9FE4FF47A7003F09B
:1054D00055F82846B0E706B070BD00BF240B002089
:1054E0000000002051CA000860CA0008C8C70008B0
:1054F00073CA000881CA00088ACA0008D1C7000818
:1055000098CA0008D4CA0008AC120020A8020020E3
:10551000D6C70008EDCA0008AC020020DDC70008AD
:1055200029CB000836CB0008E5C7000873CB00087C
:105530007ECB0008EBC70008B3CB000810B5254BA5
:10554000254C187818B1D4F8141104292FDDD4F89B
:105550001021214B7AB1D3F81801D0F1010138BFE5
:1055600000214020C3F818110246002914BFFF2172
:10557000002100F0D7FAFFF751FE002829D0164885
:10558000D0F81811D1F1010338BF0023C0F8183149
:1055900000204021834214BFFF22024600F0C2FADD
:1055A000FFF74CFEC0B2BDE81040FFF7AFBE0B489E
:1055B000FFF774FEFF200246002100F0B3FA02203C
:1055C000012100F0B7FBD4F814315A1CC4F814219F
:1055D000D1E710BDF8110020240B0020DACB000821
:1055E00010B50131002393420ED0040F092C01D8CD
:1055F000303400E0373401F8014C0133002400015D
:1056000001F8024BDBB2EEE710BD000010B54FF021
:1056100000604FF4A04104F083F8164B01241C7085
:1056200003F0A6FA02F08EFF2146402004F000FCB1
:105630006FF07F4003F0F2F8E72003F06BF90E48BB
:10564000047002F0C7FF7D2004F016FC18B10B496E
:105650000C7004F025FC40F6B83003F013F803F0AA
:1056600065FD03F05DFE064A0648012313700370D2
:1056700010BD00BFAC120020FC110020C41B002094
:10568000791200207812002010B5194B187810B14B
:10569000184801F011F8164C217809B101F0A6F86C
:1056A000227862B1144B187848B9144C217831B182
:1056B000134A13781BB913480478002CEBD0124915
:1056C0000A78002AE7D1114B18780028E3D10D4C55
:1056D0002178012905D00E4A1AB1FFF74BFD0123AD
:1056E00023700C480028D6D0FFF728FFD3E700BF6F
:1056F00079120020495B00082D120020781200204A
:10570000FA110020440C0020FB110020C41B0020D3
:10571000755100083D5500084D4B70B51A6812B11F
:105720001868411E19604B4B1A783AB14A4A1078F2
:10573000002829D0494900293FD125E0484C20685C
:1057400010B12368591E0FE046490B78E3B9464A69
:105750001078C8B945490B78B3B9454D2A782AB1B4
:10576000E72003F051F9142121600DE04148017850
:10577000002925D1E72003F0FBF83F48384B01789A
:1057800000292BD032221A603A4B1A7832B13B4DA5
:10579000287818B924E041684B1C436038490B68ED
:1057A000B3F57A7F05D300230B60BDE8704004F0A9
:1057B0009BBA0868421C0A6070BD00F0F5F9E3E787
:1057C000304B1A78002AD5D04FF6FF7003F026F838
:1057D000E72003F09FF801202870D5E76422D2E784
:1057E00021490B7893B1284847F22F5243689342DE
:1057F000D1D9BFF34F8F254C2548E56805F4E06605
:1058000046EA0002E260BFF34F8FFEE7154E3478A0
:1058100034B9204603F00CFA40F6B73290420DD866
:10582000002003F005FA41F657318842B6D900202E
:1058300003F006FA174B01201870AFE7204603F07B
:10584000FFF92A78002AA9D101213170A6E700BF0B
:10585000CC1B00208C120020EC0F0020A95B00085C
:10586000C81B00201E120020FB110020FD1100208B
:10587000FC11002079120020F91100202D120020C7
:10588000D01B0020FA110020440C002000ED00E0A5
:105890000400FA051C12002008B5094B186003F03B
:1058A000EFFB002003F034FC064802F06FFE03F02B
:1058B000FDFB03F01BFCBDE8084005F039BA00BF52
:1058C000C4010020A0860100074B1868052808D1F4
:1058D00006490A7A012A04D1887A0B7BC11AC8B218
:1058E00070470020704700BFD4120020440C0020F5
:1058F0000D4B10B51868052813D10C4C217A0129DD
:105900000FD16289A389D01A012804D10021032074
:10591000217205F078FBA389E218591C907BA181C4
:1059200010BD4FF0FF3010BDD4120020440C0020F9
:1059300008B50C4B1968052912D10B4B1A6D991833
:1059400081F85400501CB0F5807F08BF0020186516
:1059500003F066FA20B16420BDE8084002F016BEEC
:1059600008BD00BFD4120020440C002070B5234AAB
:1059700092F85431012B3FD0D2F85801B0F5807F16
:1059800002D10021C2F85811D2F85831126D1B48CB
:10599000934203D1002180F8541170BD8CBFC3F530
:1059A0008072C3EB0202154CC0F85C21D4F85C5144
:1059B00099B2402D07D94033403DC4F85831C4F85E
:1059C0005C51402606E0E8180023AEB2C4F8580146
:1059D000C4F85C310A4A01255018C021324684F8C7
:1059E000545105F087FA2846314605F08DFB2846CC
:1059F000BDE8704005F0F6BA70BD00BF440C002051
:105A0000980C0020094B10B593E81400083318686F
:105A100010180AD008220649FFF7E2FD0549204682
:105A20000422BDE81040FFF7DBBD10BDE8F7FF1F03
:105A3000720100208201002013B5084C0021009162
:105A40000A460B46204600F097FA0549054A2046CB
:105A500002B0BDE8104005F0A9BB00BFA40D0020B6
:105A600035510008AC0D002038B50D460446AC4257
:105A700003D254F8043B9847F9E738BD08B5074806
:105A80000749FFF7F1FF07480749FFF7EDFF074810
:105A90000749BDE80840FFF7E7BF00BF20CC00087A
:105AA00020CC000820CC000858CC000858CC0008B6
:105AB00058CC000805F0A0BB08B5072003F05AFD3C
:105AC000FEE70000074A08B513680749181888421E
:105AD000106004D9082003F04DFD05F06DFB184659
:105AE00008BD00BF04000020004800204FF0FF3038
:105AF00070470120704708B50C2003F03BFDFEE71E
:105B000038B5074B04461A781D46824206D010B1BC
:105B100002F026FF01E002F0D1FE2C7038BD00BF7C
:105B2000B00D002008B5074B1B7853B142EA0121A4
:105B300041EA004002F09AFEE720BDE8084002F08A
:105B4000E9BE08BDB00D002030B5022011228DB095
:105B5000014602F0CFF8051E24DB022316200024A4
:105B6000ADF80C308DF80E003321E0220123BB206C
:105B70008DF811408DF80F108DF810208DF812302F
:105B80008DF813000324102203A900910192002331
:105B90001322284607A902F071F9013CF3D12846E7
:105BA00002F0D6F80DB030BD38B5114CD4F83452EF
:105BB0002DB1D4F834124B1EC4F8343238BDD4F8A9
:105BC00038320C4A52F8230002F050FEE72002F06F
:105BD000A1FE094A6420D4F83812C4F8340250688F
:105BE0004B1C8342C4F83832A8BFC4F8385238BDC1
:105BF000B00D0020F4C700080800002013B5084CC1
:105C0000002100910A460B46204600F0B5F90549EF
:105C1000054A204602B0BDE8104005F0C7BA00BFF3
:105C20000010002035510008AC0D002014282DE98B
:105C3000F34104460E4675D8FF2973D000F06EFA82
:105C400028B10D2C6ED00F2C6CD00E2C6AD000F029
:105C500049F908B1012C65D900F0CCFB18B1A4F1C9
:105C60001203012B5ED9304D20012F582F492A18DD
:105C70008F42B2F8048001D1042003E02C4B9F42F4
:105C800003D10820012104F0DFF8ADF80480062ECE
:105C900044D8DFE806F00411181F26313C00224AE0
:105CA000102302EB041403200021A1738DF80730A8
:105CB0008DF80600083431E004218DF8071005EB5B
:105CC0000414012229E048228DF8072005EB041472
:105CD000022222E028208DF8070005EB041403229D
:105CE0001BE0114B182203218DF807208DF80610B8
:105CF00003EB0414042210E00B481C2103238DF84D
:105D000007108DF8063000EB0414052205E0002092
:105D10008DF8070005EB04140622A273384601A98A
:105D200003F05CFFBDE8FC8110000020000801408A
:105D3000000C0140142870B504460E463ED8204B96
:105D400003EB0010817B012938D0022936D00329CA
:105D500034D0062932D0FF2930D000F0DFF930B13D
:105D60000D2C2BD00F2C29D00E2C00D170BD00F0A3
:105D7000B9F810B1012C00D870BD00F03BFB20B188
:105D8000A4F11202012A00D870BD0D4D05EB0413D9
:105D9000987B042803D120460021FFF747FF012EFE
:105DA00005D124012819295983880B6170BD2EB9AA
:105DB000240129192B598A885A6170BD70BD00BF12
:105DC0001000002003F072BA13B5084C00210091B6
:105DD0000A460B46204600F0CFF80549054A204602
:105DE00002B0BDE8104005F0E1B900BF341000205A
:105DF00035510008AC0D0020024B18785978401A34
:105E0000704700BF3C100020064B5A781978914229
:105E100004D99818013280785A7070474FF0FF30DB
:105E2000704700BF3C100020054B5A78197891420A
:105E300002D99818807870474FF0FF30704700BF44
:105E40003C10002070470000014B0360704700BF0A
:105E500058C80008034B10B504460360FFF72AFE3C
:105E6000204610BD58C80008F8B5094B054693F800
:105E70002200164650B10C468F18BC4206D0296845
:105E800028468A6814F8011B9047F6E73046F8BDAB
:105E90003C10002010B50C4B012293F822408CB12D
:105EA00093F823401F2C02D94260002010BD93F8C4
:105EB00024001C1884F82510411CC8B283F8240063
:105EC00083F82300104610BD3C10002000224260E1
:105ED000024A4FF47A7181600260704718C8000866
:105EE00070477047014B93F8590070473C100020F1
:105EF00073B50E4C002104F164050D4E0B46009164
:105F00000A46284600F038F86C34324609492846DB
:105F100005F04CF92046FFF7D9FF074920463246E5
:105F200002B0BDE8704005F041B900BF3C10002050
:105F3000AC0D002035510008495E00082DE9F04104
:105F4000002407460E4625463B1919790A22304699
:105F500000F0C9F82E218046304600F07CF801346C
:105F60004044032C0544EFD13046F9790A2200F071
:105F7000BAF82818BDE8F08130B58371044D9DF85A
:105F80000C300446056001714271C37130BD00BF21
:105F900040C8000805480021054B0171417181711D
:105FA000C171044A0449036005F000B9B81000202B
:105FB00040C80008AC0D00203551000813B5084C4E
:105FC000002100910A460B462046FFF7D5FF054900
:105FD000054A204602B0BDE8104005F0E7B800BF12
:105FE000C010002035510008AC0D0020014B0360AB
:105FF000704700BF58C80008F8B506460C468F1811
:106000000025BC4207D0336830469A6814F8011B5B
:1060100090472D18F5E72846F8BD0000034B10B552
:1060200004460360FFF746FD204610BD58C800082F
:1060300038B505460C46084641B105F0FBFD2B6816
:106040000246DB6828462146984738BD38BD08B56A
:10605000FFF7EEFF08BD08B503689A68904708BDD2
:1060600038B50D210546FFF7F6FF0A2104462846FC
:10607000FFF7F1FF001938BD38B50446FFF7D8FF28
:1060800005462046FFF7ECFF281838BD70B5002301
:106090008AB08DF82430012A98BF0A220DF123031B
:1060A000B1FBF2F505FB1211CCB2092C1E4601D84A
:1060B000303400E03734E4B203F801492946002DBA
:1060C000EED13146FFF7B4FF0AB070BD10B50446FB
:1060D00022B90268C9B29268904710BDD2B2BDE839
:1060E0001040FFF7D3BFFFF7F1BF000013B5084C16
:1060F000002100910A460B462046FFF73DFF054967
:10610000054A204602B0BDE8104005F04FB800BF78
:10611000D010002035510008AC0D0020014B587DF7
:10612000704700BFD81000207047000013B5084C1E
:10613000002100910A460B462046FFF71DFF054946
:10614000054A204602B0BDE8104005F02FB800BF58
:10615000F010002035510008AC0D002013B5084C9C
:10616000002100910A460B462046FFF705FF05492E
:10617000054A204602B0BDE8104005F017B800BF40
:10618000FC10002035510008AC0D0020014B0360CD
:10619000704700BF58C800080369186C596C421A50
:1061A00002F03F0070470369196C5A6C914202D0AB
:1061B000586C185C70474FF0FF3070470369196CDA
:1061C0005A6C914207D0586C596C185C4A1C02F00A
:1061D0003F01596470474FF0FF30704770B5044677
:1061E0000E462C4840F2277104F054F920B9636937
:1061F0001A6C586C824211D161690D6C6B1C03F0F2
:106200003F056069426C95420FD0EFF31081CA07D9
:1062100032D5036C426C934207D12DE01D4840F209
:106220002771012204F00EF9E6E71A4840F22771BF
:1062300004F030F90028E4D01648802104F024F955
:106240000028DED00022134840F2277104F0FAF84B
:1062500063695A6C501C995C58640E4804F00CF940
:1062600061690C484B6C03F03F024A6440F22771AD
:10627000012204F0E7F8C4E7016C4654606940F27B
:10628000277105640125257602482A4604F0DAF8CC
:10629000284670BD00440040436910B50446196C9F
:1062A0005A6C9142FBD1207E10B90023237610BD99
:1062B0000348402104F0E8F80028F4D0F5E700BFD7
:1062C00000440040034B10B504460360FFF7F2FBA7
:1062D000204610BD58C800082DE9F34107460120AB
:1062E0008846014603F0B0FD01214FF4003003F071
:1062F000B7FD07202623002601258DF8050001A8FB
:10630000194C8DF804308DF806608DF8075003F0B5
:10631000D3F912202946FFF789FC13200421FFF747
:1063200085FCC4F80080A680B046E6802681A68160
:106330000E4E0C2161813046214604F01FF8304694
:1063400040F225512A4604F07DF8304640F227718C
:106350002A4604F077F83046294604F067F8257499
:1063600087F81880BDE8FC8104110020004400403B
:1063700010B51E4840F2255104F08CF878B11B4846
:1063800004F07EF81A4BC0B25A6D511C01F03F0266
:10639000996D8A4203D0596D5A655918087513488A
:1063A00040F2277104F076F8F8B1114CD4F89C0053
:1063B000D4F8A030984207D10C4840F2277100224F
:1063C000BDE8104004F03EB8D4F8A0002218431CE9
:1063D00092F85C100548C4F8A03004F04DF8D4F8E9
:1063E000A01001F03F00C4F8A00010BD0044004020
:1063F00004110020014B187C704700BF04110020DD
:10640000F7B5164C002504F1A406154F2B46294676
:106410002A4600953046FFF7AFFD3A46304611490F
:1064200004F0C4FE04F114010F4804F15C02C4F846
:10643000BC100E494FF47A73C4F8AC00C4F8C02005
:1064400004F1AC003A46C4F8B050C4F8B43084F853
:10645000C45003B0BDE8F04004F0A8BE0411002011
:10646000AC0D00203551000870C800088D6100088F
:1064700070474FF0FF307047014B0360704700BF1B
:1064800058C80008034B10B504460360FFF712FB21
:10649000204610BD58C80008084608B5FFF748FA5E
:1064A000012008BD08B5FFF70FFA08BDFFF720BAB5
:1064B00000224260024A4FF47A71816002607047A4
:1064C00098C800080846FFF7E7B9000037B50D4C3B
:1064D00000210D4D0B4600910A462046FFF74CFD6A
:1064E0002A460A492046083404F060FE2046FFF799
:1064F000DFFF074920462A4603B0BDE8304004F0DC
:1065000055BE00BFCC110020AC0D00203551000855
:10651000796400087047000037B50B4C00210B4D23
:106520000B4600910A462046FFF726FD2A462046E4
:10653000074904F03BFE074904F108002A4603B06E
:10654000BDE8304004F032BEE4110020AC0D002064
:106550003551000815650008002303601846704790
:1065600000230360184670470023036018467047F5
:1065700048F20202904210B523D00EDC99284DD08B
:10658000511E88425FD1304C0123A370FFF71AFCE3
:1065900000F5EA403030606010BD48F28003984258
:1065A00007D0B0F5084F3DD048F2100290424AD1D2
:1065B00021E02548254B01210022017041701A700D
:1065C00010BD214CA07860B1FFF7FCFB00F5EA415B
:1065D00030314FF47F40616002F020F9E72002F093
:1065E00099F9194B00229A701A725A729A72DA72D9
:1065F0001A735A7310BD087D134960B901224860AF
:106600004FF47F400A720A7302F008F9E720BDE8F0
:10661000104002F07FB900230B7210BD0A4901221D
:106620008A7310BD0846002100F039FD012104469F
:1066300000F07CFD064801688C4204D1024B002228
:10664000DA729A725A7210BDF011002064010020B3
:1066500008000020034B58610348996142700122F1
:1066600002707047F0110020640100201FB54FF048
:10667000000C0A234FF461514FF461628DE80E1053
:10668000054B44F620621A60684601A902AA03ABD2
:1066900001F006FA05B000BD881200201FB50023E6
:1066A000009301930293039301A8694602AA03ABE6
:1066B00001F0BEF905B000BD30B53F4C85B0206398
:1066C00002F010FC02F050FB3C4B3D483D493E4A75
:1066D000009301903D4B029103923D493D4A3E4853
:1066E00001F0E0FB642001F049FF0125002001F0EA
:1066F000F1FB84F82D5048F244200025257301F069
:10670000D7FC364B1888012832D00E2010212A469B
:1067100004F11C0301F01AFA102829D1304B187823
:10672000A0B9254C217F19B9012284F82E200DE053
:10673000607F58B90146012201F07CFC012123460B
:1067400003F81D1F0E200A4601F02CFA244B18787E
:10675000002829D1184991F82E202AB3214801F0A8
:1067600053FAFFF79BFF05B0BDE83040FFF77EBF4F
:10677000FF2001F083FC00210E2001F05FFA1021C0
:106780000E2001F05BFA00211022174805F0DEF818
:10679000102100220E20144B01F004FA0F4A0021B0
:1067A000118002F0EBFCB9E74FF47F4002F036F8BD
:1067B000E72002F0AFF8D1E7F0110020218E0008A9
:1067C000358E0008A18E0008C98E00086965000892
:1067D000596500086165000871650008A60200207F
:1067E00064010020241200200C1200202DE9F74340
:1067F0004C4C03F079FA0023A36394F83C0048B9A9
:1068000094F83D1031B962686AB3FFF7DBFA666845
:10681000B04228D3434C94F82D00002840D00025E6
:10682000A57065602572256484F83C50012684F8C3
:106830002D506572A572E572657301F081FB6FF0F2
:106840007F40267301F0EAFFE72002F063F864203E
:1068500001F094FE94F82E1011B3284601F03AFB93
:1068600084F82D601CE02F4C94F82D30C3B92E48CD
:10687000017829B9FFF7A6FA00F5EA4230326260E2
:106880000020284E01F026FB012400234FF47F4016
:1068900086F82D40337301F0C1FFE72002F03AF88B
:1068A000214E327822B11F4D2F7A0FB96B6953B93F
:1068B0001C4C207A002831D094F83D20002A2DD19C
:1068C000637ADBB12AE039463A4638466F6001F018
:1068D000B1FBD5F81480404605F0ACF9AD698146AE
:1068E000284605F0A7F971784A46019000950846B8
:1068F0003B46414601F03AFB3770D9E7642001F08E
:106900003DFE04F1440001F00FF9617B31B14FF419
:106910007F0003B0BDE8F04301F080BF03B0BDE8E5
:10692000F08300BFF01100206401002013B5084C73
:10693000002100910A460B462046FFF71DFB054942
:10694000054A204602B0BDE8104004F02FBC00BF4D
:106950007012002035510008AC0D0020704708B5BA
:10696000012002F007FEFEE708B5032002F002FE58
:10697000FEE708B5042002F0FDFDFEE708B505209E
:1069800002F0F8FDFEE770477047704708B502F067
:1069900085FCBDE80840FEF7BFBE000008B5024B0D
:1069A0000BB1AFF3008008BD0000000008B5024B3A
:1069B0000BB1FFF7DDFC08BD7163000808B5024BA1
:1069C0000BB1FFF78DFA08BDE15E000808B5024B78
:1069D0000BB1FFF786FA08BDE35E000808B5024B6D
:1069E0000BB1FFF7A1FB08BD2961000808B5012024
:1069F00002F0C4FF38B1012002F0D0FF024B13B106
:106A00000020AFF3008008BD0000000008B50220A0
:106A100002F0B4FF38B1022002F0C0FF024B13B104
:106A20000120AFF3008008BD0000000008B504207D
:106A300002F0A4FF78B1042002F0B0FF0020064B62
:106A40000146188002F022F8044810210122BDE816
:106A5000084003F04ABC08BDA8120020002C0140E9
:106A600008B5082002F08AFF38B1082002F096FF2E
:106A7000024B13B10320AFF3008008BD00000000FB
:106A800008B5102002F07AFF38B1102002F086FF1E
:106A9000024B13B10420AFF3008008BD00000000DA
:106AA00008B5202002F06AFF38B1202002F076FFFE
:106AB0000E4B13B10520AFF30080402002F05EFFC3
:106AC00038B1402002F06AFF084810B10620AFF349
:106AD0000080802002F052FF38B1802002F05EFF7B
:106AE000024911B10720AFF3008008BD000000008B
:106AF00008B54FF4005002F041FF40B14FF4005090
:106B000002F04CFF174B13B10D20AFF300804FF490
:106B1000804002F033FF40B14FF4804002F03EFF6E
:106B2000104810B10E20AFF300804FF4004002F087
:106B300025FF40B14FF4004002F030FF094911B188
:106B40000F20AFF300804FF4006002F017FF38B160
:106B50004FF4006002F022FFBDE8084001F098BC4D
:106B600008BD00BF0000000008B50F48102103F069
:106B7000F5FBC0B10C48102103F0FBFB002002F034
:106B800047F828B9094B1A880A3290B2188008BD14
:106B900010210548002203F0A8FB00200121BDE8D8
:106BA000084001F073BF08BD002C0140A81200206E
:106BB00008B5012003F0C8F950B1012003F0D6F95F
:106BC000044B0BB1AFF30080BDE8084003F0A0B95F
:106BD00008BD00BF0000000008B5022003F0B4F9B2
:106BE000B0B10C4B00224FF400301A7002F0D6FE08
:106BF000012003F0A3F810B1012003F0A9F803F07D
:106C000087F9022003F0B2F9BDE8084003F080B92B
:106C100008BD00BF2D12002001F0CABB00F062B811
:106C200038B514490B78012B23D1134A13680BB9DB
:106C30000B7038BD114C402B206881B205D9403013
:106C4000403B20601360402504E09DB2C318002043
:106C5000236010600A4A5018C0212A4604F04AF9FD
:106C60000120294604F050FA0120BDE8384004F024
:106C7000B9B938BD980D0020A00D00209C0D002052
:106C8000980C0020094908B50020094B0122088012
:106C900003201A7004F064FA064B02461880064876
:106CA0004FF48871BDE8084004F03BB9500C002057
:106CB0004C0C00204E0C0020520C0020074B186892
:106CC000052809D1064B1A68511C052A196003D101
:106CD00000201860FEF74ABE704700BFD4120020A3
:106CE0007C1200203A4A38B511683A4B88B23A4DC6
:106CF00018801C882988214001F4007084B244B1B6
:106D00004FF6FF5515609A78511CC8B29870FFF77E
:106D1000D5FF304C304B25881A882A4002F40041B8
:106D200088B225461C4608B104F01EF82A8823883C
:106D3000134003F4806188B230B1254B27494FF6E8
:106D4000FF321A6048688047224A234B11881B880B
:106D5000194001F4005081B219B11D494DF6FF7080
:106D600008601288134003F4805398B230B1184A77
:106D70004EF6FF711160002002F0B8FB154B16496A
:106D800018880A88024002F4006398B260B114497E
:106D90000A7812B102F08AFB02E0022002F0A6FBA0
:106DA0000B4B4FF2FF7018600A490B480A880388A2
:106DB000134003F480718AB242B1054B4FF6FF6075
:106DC00018600720BDE8384002F090BB38BD00BF16
:106DD000445C004080120020101C0020FC010020B8
:106DE000CC020020034B987A10B1034905220A60B7
:106DF000704700BFEC1B0020D4120020014B04227E
:106E00001A607047D4120020034B1A78202A01D14F
:106E100000201870704700BF8412002070470000E7
:106E2000212810B508D111480368197801F07F02B4
:106E3000212A11D0022010BD2028FBD10B4B19684C
:106E40000A780B4902F07F030A4A212B0CBF0B463C
:106E5000002310700BB9EDE7074B044C20680024A9
:106E60008361448220469847204610BD0C1C0020B8
:106E7000C96E000884120020B16E0008074B196823
:106E80000A7802F07F03212B05D1022801D10020CE
:106E900070472228FBD00220704700BF0C1C002046
:106EA00009B1022070470128FBD80846704700004E
:106EB00020B9034B082219680A82704701487047BD
:106EC0000C1C0020C401002020B9034B08221968C3
:106ED0000A827047014870470C1C0020C401002042
:106EE000054B1968CA78042A04D8044B03EBC20185
:106EF00003F0BABC002070470C1C0020CC0100201D
:106F0000014903F0B1BC00BFEC010020014903F0CE
:106F1000ABBC00BFF4010020334A344BD179186870
:106F200010B5002441728472C472204604F00CF83B
:106F300020464FF4007104F00FF81021204604F0B1
:106F400017F84021204604F0B3F88021204604F0D1
:106F50009FF8204604F068F8254B204693F864100B
:106F600004F0E0F8204604F04EF80120214603F03A
:106F7000F3FF0120C02104F08BF80120202103F051
:106F8000F7FF0120214604F010F802204FF4C06101
:106F900003F0E2FF02204FF4807104F079F8022040
:106FA000214604F002F80220202103F0E1FF032033
:106FB000214603F0D1FF03204FF4887104F078F8E4
:106FC0000320402104F0AEF803204FF4405103F0B9
:106FD000ECFF0320214603F0CBFF204603F056FED2
:106FE000044A0120106010BD14C900080C1C0020C8
:106FF000C4010020D412002010B5FEF703FD054B9C
:1070000000241868847202F039FA04F0BFF80249CB
:107010000C6010BD0C1C0020D4120020002100F0D8
:1070200004B80E4B5B58435004310D480D4B4218C9
:107030009A42FFF4F6AF0C4A00F003B8002342F87E
:10704000043B0A4B9A42FFF4F9AF02F099F9FEF7BC
:10705000DDFAFEF713FDFEF717FB704758CC00086A
:1070600000000020240B0020240B00201C1C00200A
:10707000FFF7FEBF01700B0A0A0C090E4370827005
:10708000C170043070470170090A417002307047C6
:1070900043185A78405C00EB022188B2704710B563
:1070A00043189A78DC78415C120402EB0462587849
:1070B000521802EB002010BD73B544790023022C56
:1070C00001930FD0032C19D0012C2BD1164D286918
:1070D0002E4620B1296901A888470246B8B9B1688F
:1070E00001201BE0104DE8682E4620B1E96801A898
:1070F0008847024658B9B16802200FE00A4D6A6914
:107100002E464AB16B6901A89847024620B1A9688A
:107110002046BDF8043003E0B16803200022134686
:1071200000F022FC7CBD00BF54130020072830B5BE
:1071300012D8012910D8EFF3108472B6012505FA90
:1071400000F501FA00F0054B1A6822EA0502024335
:107150001A60E30700D462B630BD00BF54020020BD
:10716000F0B5012187B00546FFF792FF00F4804398
:10717000044698B250B3B4F5824F27D12846052172
:10718000FFF786FF0026074607353446BE4208D083
:1071900028460221FFF77CFF013624180435B6B2D9
:1071A000F4E7744B188E21188AB21A86D86B24180B
:1071B000DC63D96B9A6B914240F0CE8093F840002B
:1071C000002800F0C9809B69992033E024F4FF4136
:1071D00021F07F0290B2002800F09B8048F210025C
:1071E00094422AD00CD8B4F5004F40F2C08048F247
:1071F00002039C4217D9991C8C4240F0B88012E0DF
:1072000048F2800084420ED005D848F240029442F1
:1072100040F0AD8051E0B4F5024F04D0B4F5084F12
:1072200040F0A5806CE053498869002800F0948004
:107230008B69204600210A4669E00023EA1851794B
:107240000DF803100133042BF8D1687A2B7BAA7A4E
:10725000E97A8DF804008DF807308DF805208DF857
:10726000061005F10D00002306AAD218C15C0133F7
:10727000042B02F8101CF7D105F11100002306AA17
:10728000D218C15C0133042B02F80C1CF7D105F1B4
:107290001500002300AAD218C15C0133042B11741D
:1072A000F8D1344928798A698DF81400002A53D01E
:1072B0008B6920466946152229E0053500212846BC
:1072C000FFF7EDFE042100902846FFF7E8FE0821B5
:1072D00001902846FFF7E3FE0C2102902846FFF7B5
:1072E000DEFE102103902846FFF7D9FE214B0490C3
:1072F0009969002930D09B6920466946142206E02E
:107300001C48826942B38369691D2046012298475F
:1073100022E041F203039C4205D00C339C4202D090
:10732000591E8C421AD16C1D04212046FFF7B7FE6E
:1073300039301CD12D790F480021C5622046FFF756
:10734000AEFE042105462046FFF7A9FE393003D1E1
:1073500028460121FFF7EAFE012009E0054A1388CB
:1073600099B28C4204D0B4F5805FF5D100E00020E2
:1073700007B0F0BD5413002038B5104B5D88ADB296
:10738000CDB158680478221F514251EB02042CB150
:10739000FFF7E6FE003018BF012000E0204605465A
:1073A00020B944B1054B93F8412022B9034800218C
:1073B000418000F015FF284638BD00BF541300205F
:1073C0002DE9FF4704468946904601F06FFF0025EE
:1073D0000190BB4B5A8890B2002840F0928002F096
:1073E00083FC01F063FF02900298019BC21A039292
:1073F0000399002903DA0198029B1A180392B149F4
:1074000008680028E5D0039B8342E2D3AC4A41F2EE
:107410000703118888B2984224D85A1E90425FD23E
:1074200040F2022188425BD00DD80C2806D80828EB
:1074300056D200284DD0062852D959E00D284CD0FC
:1074400040F201220BE041F2020398424BD8B0F522
:10745000805F45D8B0F5017F3FD940F207229042C6
:1074600037D13AE041F21101884236D014D841F2C6
:107470000B03984234D005D841F2090290422FD034
:1074800031D82AE041F20F0188422CD028D841F2AD
:107490000D0398421DD126E042F2060290421CD014
:1074A00007D8B0F5005F14D942F20401884214D91C
:1074B00021E0B0F5804F00F0E88105D8A0F5005339
:1074C000083B012B05D808E044F20B02904200F083
:1074D000DC810B2002F04EF8D7E1FF202070D4E1D0
:1074E0004FF0FF3005E04FF0FF3020606060CCE1EE
:1074F00000202060C9E1204600213A2204F026FA4B
:10750000C3E15E683178042940F07581304601217D
:10751000FFF7BEFD05463046FFF722FE002840F08B
:10752000608141F20702771D954253D8511E8D426A
:1075300080F0AC8040F20220854200F0A78014D891
:107540000C2D09D8082D80F0A180002D00F0498174
:10755000062D40F29B80E1E00D2D00F0948040F27A
:1075600001239D4240F03D818DE041F202029542AF
:1075700018D8B5F5805F00F28980B5F5017F40F23B
:10758000828040F207218D4240F02B81307900212A
:1075900004F8010B3846FFF782FD01462046FFF74D
:1075A00069FD1EE141F204039D4200F08D8040F22E
:1075B000A48038460021FFF772FD04212060384680
:1075C000FFF76DFD6060083406F10D07224606F1F5
:1075D0001D016EE041F211039D4254D02CD841F2BE
:1075E0000B02954252D01CD841F209018D424DD078
:1075F00000F28F8000213846FFF751FD0421206002
:107600003846FFF74CFD082160603846FFF747FD1C
:107610000C21A0603846FFF742FD04F10C0AE0603F
:10762000DEE041F20F039D4267D035D841F20D02F2
:10763000954240F0D68047E042F206018D4222D0CA
:1076400008D8B5F5005F40F2CC8042F204008542D4
:1076500019D987E042F208029542C0F0C280501C5E
:10766000854210D944F20B018D4240F0BA80737903
:10767000DFF84CA038460121AAF83030FFF708FDAA
:10768000AAF83200ADE037792770AAE03846002129
:10769000FFF705FD2060A4E000213846FFF7FFFC5E
:1076A000A2464AF8040B04213846FFF7F8FC606054
:1076B00096E057F8040B8F4242F8040BF9D190E0A2
:1076C000541300208812002000213846FFF7E7FC01
:1076D000042120603846FFF7E2FC0821606038464C
:1076E000FFF7DDFC04F1080AA060E46814F1390337
:1076F00076D10121FFF71AFD72E000213846FFF72D
:10770000CEFC042120603846FFF7C9FC60600834D5
:1077100067E0307920713F68276062E038460021D9
:10772000FFF7BDFC042120603846FFF7B8FC0821B4
:1077300060603846FFF7ACFC0A21A0603846FFF7CE
:10774000A7FCC4F80A000C3406F11103274606F121
:10775000350253F8041B934247F8041BF9D11888EB
:1077600038803EE00023F7187A79E2540133042B85
:10777000F9D106F109000022815CA7180132042A20
:107780003971F9D106F10D000023C15CE71801330E
:10779000042B3972F9D106F111000027C15DE219FD
:1077A0000137042F1173F9D106F115000023C15CD4
:1077B000E2180133042B1174F9D106F119070022E4
:1077C000B85CA1180132062A0875F9D106F11F0725
:1077D0000023F85CE1180133202B8876F9D100E012
:1077E00054462C48028891B28D4235D10023038043
:1077F00080F8413030E0DF8EBBB26BB330460321FE
:1078000096F802A0FFF744FC0746B9F1000F0BD031
:107810000421701DFFF743FC06F115010246C8F86C
:107820000000484603F0E4FFCAEB07077A1EB2F5F2
:10783000806F07D20AF10501204671183A4603F01D
:10784000D7FF01E04FF0FF37B8F1000F01D0C8F8C3
:107850000070104B0020D8860E4F0020788000F07A
:10786000BFFC3278042A05D1B5F5805F02D13046DD
:10787000FFF722FC39888BB2002B7FF4AAAD0548B4
:10788000C28E91B200297FF4A4AD002004B0BDE8FF
:10789000F08700BF5413002007284FF001030ED8D3
:1078A000EFF3108272B603FA00F006490B68184233
:1078B0000CBF00200120D10702D462B670471846E1
:1078C000704700BF54020020034B18800846002177
:1078D0000A46FFF775BD00BF5413002010B5034BD7
:1078E0000124DC86BDE81040FFF76ABD5413002078
:1078F00038B50346154601224A710C46881D1946C3
:10790000FFF7C1FB291D0570204600F0D7FC0020C1
:1079100038BD38B5BDF814500C469B18A071E81856
:1079200085B202216171E271294604F10800FFF776
:10793000AAFB6A1D204691B200F0C0FC002038BDB1
:1079400038B59B180C469DB202216171A071E2719D
:10795000294604F10800FFF796FB6A1D204691B204
:10796000BDE8384000F0AABC2DE9F0471D4605F1FE
:10797000020A032301F107091FFA8AFA88714B7181
:107980000C46484651461746FFF77DFBB5F57A7F12
:10799000804613D82946FFF776FB29464046FFF775
:1079A00072FB394604F10B002A4603F021FFA91DA2
:1079B000204689B2BDE8F04700F080BC4FF47A76EB
:1079C000B5FBF6F10AEB410291B2FFF75CFB3146E1
:1079D0004046FFF758FB394604F10B00324603F0EE
:1079E00007FFA5F57A75204640F2EE31ADB2BF191A
:1079F00000F064FCB5F57A7F05D9A5F57A7085B2FB
:107A00004FF47A7601E02E460025A046394628F844
:107A1000056F4846324603F0EBFEB31C404699B270
:107A2000BF1900F04BFC002DE4D1BDE8F087000049
:107A3000F7B51A4C1E46A468FF238DF807300025C1
:107A4000475D63190135042D5F72F9D100200D5C8B
:107A50002318013004285D73F9D10021505C6318AC
:107A6000013104295874F9D104F115000021FFF700
:107A700001FB0022B35C83540132042AFAD121466F
:107A8000142242F20100FFF733FF42F201000DF130
:107A90000701FFF719FF9DF90700FEBD54130020F1
:107AA0002DE9F34106460C461E4831681546D0F8CC
:107AB00008804A1E1F46FF23122A8DF8073008F15E
:107AC000090001D81423336021684A1E122A01D804
:107AD0001423236029684A1E122A01D814232B601C
:107AE00039684A1E122A01D814233B603168FFF717
:107AF000C1FA2168FFF7BEFA2968FFF7BBFA3968B7
:107B0000FFF7B8FA4146142242F20900FFF7F0FEEF
:107B100042F209000DF10701FFF7D6FE9DF90700BB
:107B2000BDE8FC815413002038B5074B42F2050430
:107B30000546996820460022FFF7DAFE20462946CE
:107B4000BDE83840FFF7C0BE541300202DE9F341D3
:107B5000864613480D46866871461F4602ACFF23D1
:107B600006F1090004F8053D9046FFF783FA29461F
:107B7000FFF780FA40F201254146FFF77BFA0C221D
:107B800031462846FFF7B4FE28462146FFF79CFE03
:107B90003846002101AAFFF7A1FE0198BDE8FC814B
:107BA000541300202DE9F341864616480C4686689A
:107BB0007146984602AD4FF0FF3306F10A0045F8D2
:107BC000043D1746FFF756FA0C21FFF753FA2146FA
:107BD000FFF750FA3946FFF74DFA4146224606F1C3
:107BE0001A0003F005FE902031461022A3B2FFF7E1
:107BF000A7FE40F202202946FFF766FE0198BDE885
:107C0000FC8100BF5413002037B50B4B40F2072511
:107C10000446996800222846FFF76AFE284669460E
:107C2000FFF752FE9DF803009DF80410207061706C
:107C30009DF800003EBD00BF5413002037B50D4A2B
:107C4000034695680C4605F109001946FFF712FA3C
:107C5000214640F20324FFF70DFA29460822204668
:107C6000FFF746FE20460DF10601FFF72DFEBDF899
:107C700006003EBD5413002030B585B0054601F026
:107C800015FB0190194CE36A4BB103F0A7FAE16AC6
:107C900000220160E26203F0A1FA006823E02846B6
:107CA000FFF7FAFD10B14FF0FF301CE001F0FEFAD3
:107CB0000290029A0198111A0391039B002B03DA98
:107CC0000198029A11180391094B03981A6890427F
:107CD000E9D20649088E83B2002BD3D00A8E501EFB
:107CE00083B20B86002005B030BD00BF54130020C6
:107CF00088120020F7B5034614480D4686681946D9
:107D0000174602AC4FF0FF3206F1090044F8042D8B
:107D1000FFF7B0F92946FFF7ADF941F20105394601
:107D2000FFF7A8F90C2231462846FFF7E1FD21466E
:107D30002846FFF7C9FD03F051FA01990160084692
:107D40000021FFF7F3F90198FEBD00BF5413002096
:107D5000F7B5054610484FF0FF33876802AC294657
:107D600041F20B0607F1090044F8043DFFF782F9E0
:107D7000042239463046FFF7BBFD21463046FFF767
:107D8000A3FD03F02BFA0199016028460121FFF7BA
:107D9000CDF90198FEBD00BF541300202DE9F04F2E
:107DA00089B08A4616469B46149C0390FFF764FFF1
:107DB000DDF80CC000285CD12F4B9A6B511C9963E5
:107DC000D3F80880812C08F10A0307D0832C0CD14A
:107DD00006F1080908F12205182709E008F11A053B
:107DE000814610271390129002E00546814607460F
:107DF00061461846FFF73EF9391FFFF73BF9314658
:107E0000FFF738F95946FFF735F9832C05D1494674
:107E1000FFF730F90821FFF72DF90023B34204DA08
:107E20001AF80300E8540133F8E7002EA8BFAD1993
:107E3000832C0FD0139B129998B200910190414668
:107E4000E0B23A46B3B2FFF764FD832C0BD141F2A6
:107E50000F000AE00020139A9042EBDA129A115CAC
:107E600029540130F7E741F2030005A9FFF72CFD83
:107E7000069809B0BDE8F08F541300201FB5069C8A
:107E80000094079C019483240294FFF787FF04B0B9
:107E900010BD0000024B01225A805860FFF76CBAF7
:107EA0005413002010B50A4CE16022616361029B0B
:107EB0000399E361049A059B216262620021A36237
:107EC000A061012084F8400084F8411010BD00BF7B
:107ED0005413002070B5174B174D00240646174861
:107EE000AC63EC632C802C866C86AC86EC86EC62F2
:107EF0006C806C60AB6000F03BF9A968A64214BFCF
:107F00000226264601224E724FF48040FFF7F0FC15
:107F100021464FF48040FFF7D7FCA968224644F27F
:107F20000B00FFF7E5FC44F20B002146BDE8704072
:107F3000FFF7CABCC013002054130020957E000830
:107F400038B5094C0020A36A98472546E869064CD5
:107F500080470028FAD0A16809B10022A260BDE8DC
:107F6000384000F02DB900BF541300202DE9F04F28
:107F700083462F4885B0D0F80890144600259A46CD
:107F800088464FF0FF331C2109F1090001930F9E31
:107F90000E9F0295ADF80C50FFF76CF82146FFF7E5
:107FA00069F85946FFF766F804F11001FFF762F827
:107FB0003146FFF75FF82946FFF765F8BAF1000F81
:107FC00008D01AF8052042550135062DF9D10630A2
:107FD000002207E0534602AA995CC1540133062BE4
:107FE000F9D1F4E7A24204DA18F802108154013200
:107FF000F8E7002CA8BF00193EB100232FB1B3420F
:1080000003DAFA5CC2540133F9E71C34A319DAB27B
:1080100049460120FFF76CFC01A90120FFF754FC41
:1080200003F0DCF801990160084605B0BDE8F08F67
:1080300054130020F7B503460F480E4685681946CD
:10804000174602AC4FF0FF3205F1090044F8042D49
:10805000FFF710F83146FFF70DF83946FFF70AF839
:1080600029460C220420FFF743FC04202146FFF799
:108070002BFC0198FEBD00BF5413002037B50B4BFD
:1080800001469D6802AC05F10900FEF7F3FF4FF0D1
:10809000FF3044F8040D294604220620FFF728FC8F
:1080A00006202146FFF710FC01983EBD5413002026
:1080B00037B548F2080248F2080102408A420346F6
:1080C00013490BD10020934281F840001FD023F4C4
:1080D000004424F0080545F4004302E0012081F843
:1080E00040000B494FF0FF328D6802AC194605F194
:1080F000090044F8042DFEF7BDFF2946042208209C
:10810000FFF7F6FB08202146FFF7DEFB01983EBD96
:108110005413002000F0010383F0010003B962B69C
:1081200070470000F8B50446EFF3108772B60E4EA4
:10813000337A9C4209D0052C01D0012506E00B487A
:10814000C16988470028F8D1347200253846FFF706
:10815000E1FF054B15B15A69002AE5D05869D0F105
:10816000010038BF0020F8BDA813002054130020E0
:108170000F4B10B500220F490F4C1A721961DA80AB
:10818000DA609A801860A36A104698470B4800F09E
:10819000FDF9206A80474FF47A7000F0F7F901206A
:1081A000A26A90470120BDE81040FFF7BBBF00BFA7
:1081B000A8130020C017002054130020E0930400EF
:1081C00010B5054C636A98470020A16A88470348A8
:1081D0000022026110BD00BF54130020A81300202C
:1081E000024B4FF480725A60704700BF00E100E01C
:1081F0002DE9F84307460E4614461D46EFF310805E
:1082000072B6DFF88080A4B298F80890FFF782FF7A
:10821000002000F0EDFD012037B93146224600F084
:108220006FFD3846154906E0D8F81010224600F0D8
:1082300067FD00203146224600F062FD1048022111
:10824000012201F038FB012000F0D2FD9DB1EFF3D7
:10825000108072B60B4C257AFFF75CFFA9452346C8
:1082600002D16269002AF2D05869D0F1010038BF0A
:108270000020BDE8F8832846BDE8F88358020020B6
:1082800058000240A8130020CB074CBF0B464B1CE4
:1082900010B5C3F3072444700024C4700471054C66
:1082A00001220270837084F84120034AD0609180DB
:1082B000581D10BD54130020A81300202DE9F041D3
:1082C00004460D46EFF3108072B6384E377AFFF74A
:1082D00021FF17B1012F2AD104E00120FFF722FF6F
:1082E00000285FD0EFF3108872B60321377A31721D
:1082F00000F0A8FE4046FFF70DFF20462946FFF795
:10830000C3FF0646002F4DD0322000F03FF9012078
:10831000214604220346FFF76BFF002842D032209B
:10832000B5B200F033F90120211D2A1F30E00220F0
:10833000FFF7F8FE002835D0EFF3108772B61B4B1D
:108340001E7AB21E504250EB020656B1EFF310886F
:1083500072B604211A7A197200F074FE4046FFF7D3
:10836000D9FE3846FFF7D6FE104B16B95A69002AD7
:10837000E2D05869B0B920462946FFF785FF064686
:108380000520FFF7CFFE68B1B5B2012021462A468D
:108390000346FFF72DFF002814BF28464FF0FF309B
:1083A000BDE8F0814FF0FF30BDE8F081A813002058
:1083B00070B54FF4003001F087FA324C05464FF4A7
:1083C000005001F081FA237AD91E052954D8DFE83C
:1083D00001F03D533D53032A002D52D0002850D0C8
:1083E0004FF4083001F07EFA082020722469B4F8B6
:1083F0000320C2F3072343EA02218CB2002C40D0B1
:10840000E10701D4601C84B2B4F5806F02D90A2060
:1084100001F0B0F81B4A0020116903462246BDE86E
:108420007040FFF7E5BE00282BD04FF4083001F074
:1084300059FA154B02204FF480722072C3F8842041
:1084400000F0E6FC21682069884770BDCDB10F4877
:10845000802101F0CEFD0028F9D10A4C4FF40830FC
:1084600001F040FA237A032B01D1052102E000F04C
:10847000CFFC0221217270BD0B20BDE8704001F0DD
:1084800079B870BDA813002000E100E0003800407A
:108490000E4B70B5D86980470546B0B90C4C217AAF
:1084A000022904D004290ED079B901220CE0072357
:1084B000237200F0C7FD2169284605222B46BDE83E
:1084C0007040FFF795BE0522227270BD5413002044
:1084D000A8130020BFF34F8F054A064BD16801F463
:1084E000E06040EA0301D160BFF34F8FFEE700BFB9
:1084F00000ED00E00400FA050D4B0E4A197839B979
:10850000D88881B21187188981B291879B8806E04B
:10851000D88981B21187188A81B291879B890648D0
:108520009BB29386FF21632202704170704700BFA7
:108530008C120020002C0140600200204FF440709B
:1085400001F0B0B80A4B4FF47A701A68094BB2FBCD
:10855000F0F109484A1EF0215A6080F823100022E9
:1085600007219A601960D02380F82330704700BF3C
:10857000B802002010E000E000ED00E0024B1860BF
:108580001A68002AFCD17047CC1B002007B50E4B9F
:108590000E4A59680E4B009111684FF0FF32B1FB43
:1085A000F3F1B2FBF1F3984228BF18464143019121
:1085B00005484168009A019B881A984202D201F04E
:1085C00093FBF5E70EBD00BF001000E0B8020020ED
:1085D00040420F007FB54FF4003001F0DFF9082072
:1085E0004FF40033002501248DF80D0068440293F8
:1085F0008DF80C508DF80E4001F07EF904210DEB42
:10860000010003268DF805108DF804608DF80650E2
:108610008DF8074001F050F8292201A88DF80420B8
:108620008DF805608DF806508DF8074001F044F88C
:10863000022001F083FB28B1022001F089FB01F048
:1086400071FC18E0204601F091FB412001F014FC80
:108650000028FAD04FF4807001F098FB012001F05F
:108660009DFB01F05FFC01F053FC47F6FF7001F049
:108670003FFC01F04DFC0320012101F019FC01F049
:1086800047FC7FBD10B5044645F2555001F01AFB7A
:10869000062001F01DFB2820604340F6FF73010A0D
:1086A000994228BF194688B201F018FB01F01CFB63
:1086B000BDE8104001F020BB082814D8012908D1DA
:1086C0000B490C4A01EB8003596832F8100008612D
:1086D0000BE051B9064B074A03EB80014B6832F8B7
:1086E0001000586101E0FF2300E0002358B27047FA
:1086F000600200206CC9000873B50E4E8500731926
:1087000004460121186901F09FFB0B4B36F8140059
:1087100010215D19ADF804008DF807100322686878
:1087200001A98DF8062001F059FA20460021FFF733
:10873000C3FF7CBD6CC900086002002070B5012138
:1087400088B04FF4006001F07FFB314B31481C686A
:108750006026B4FBF0F1304C01A88DB201F098FD19
:1087600001A801F095FD42F20F7201A9ADF8045085
:1087700020460025ADF80820ADF80A50ADF80650A7
:1087800001F03EFC04A801F08CFD0223ADF810605E
:108790002046012604A9ADF81830ADF81260ADF8F6
:1087A0001650ADF81C5001F075FC2046294601F02A
:1087B000B1FD204604A901F0B1FC2046294601F094
:1087C000B1FD204604A901F0EDFC2046294601F048
:1087D000B3FD204604A9ADF81050ADF81260ADF815
:1087E0001650ADF8185001F01FFD2046294601F043
:1087F000ABFD2046314601F081FD2046314601F0B7
:108800005AFD2046314601F062FD08B070BD00BF40
:10881000B802002040420F00002C014030B5104942
:10882000104A8C8D92F82420A5B26C1C5443C0F3DE
:1088300007456C430C4B240CDC808D8D5861ACB229
:1088400001345443C0F307256C43240C1C81898DEB
:10885000C0B289B2013148434243120C9A8030BD04
:10886000002C0140600200208C12002030B510491D
:10887000104A8C8D92F82420A5B26C1C5443C0F38E
:1088800007456C430C4B240CDC818D8D9861ACB298
:1088900001345443C0F307256C43240C1C82898D9A
:1088A000C0B289B2013148434243120C9A8130BDB3
:1088B000002C0140600200208C120020024B00229C
:1088C0001A70FFF719BE00BF8C12002037B50F4D8C
:1088D000044605EB8003186B012105EB440501F00C
:1088E000B3FAB5F84000ADF804000CB9102100E06F
:1088F0001821074B8DF8071003EB84040322A06AAC
:1089000001A98DF8062001F069F93EBD6CC9000887
:108910006002002018B1E72807D1FFF7EDBD034B37
:108920004FF40052986A026170477047600200205D
:1089300058B1E7280FD1084A0023084813879387C6
:10894000938601220370427005E0044B4FF40050FF
:10895000996A486170477047002C0140600200200E
:10896000024B0122E7201A70FFF7E2BF8C120020B1
:1089700010B1E72840D106E020498B6ADA6882F41A
:108980000050D86070471E4A1E4B1178C1B9188F2D
:1089900080B208B1198702E0D1888AB21A879B8F0A
:1089A000184899B209B1002102E0154A138999B219
:1089B00081871449888E82B2C2B9114B988819E018
:1089C000188F81B209B1002001E0D28990B21887D6
:1089D0009B8F0C499AB20AB1002202E00848038A30
:1089E0009AB28A870749888E83B20BB1002002E0D1
:1089F000034A908980B28886704700BF60020020D9
:108A00008C120020002C014010B51D4A13780BB9C0
:108A1000012102E0632B01D1FF2151705178E72839
:108A20000B44DBB2137029D1164A6320147816491F
:108A30007CB9D488A4B25C43B4FBF0F4A4B20C8734
:108A40001489A4B25C43B4FBF0F4A4B28C8792887E
:108A50000EE0D489A4B25C43B4FBF0F4A4B20C875A
:108A6000148AA4B25C43B4FBF0F4A4B28C8792895C
:108A700092B25343B3FBF0F398B2888610BD00BFA7
:108A8000600200208C120020002C014073B5104CB5
:108A90000E4604EB400494F84C10054694F8480048
:108AA00001F0F6F8B4F85040204600F061FF0948A4
:108AB0000023451995F83810684600948DF8043065
:108AC0008DF805108DF8066000F016FF7CBD00BF24
:108AD0006CC9000860020020F7B5224E8700F31928
:108AE0000546586D0C4640F00100012101F0ACF93B
:108AF0001D4B06EB45065A1992F83A10B6F85C0081
:108B000002AADF198DF8031022F8080D6946F86BE8
:108B100001F064F8012C24D11021002213481B27F6
:108B200001F0E3FB05238DF8047001A800278DF800
:108B300005308DF806708DF8074000F0BDFDB6F8E1
:108B4000601006208DF8050001A88DF804108DF83E
:108B500006708DF8074000F0AFFD28462146FFF76C
:108B600095FFFEBD6CC9000860020020002C01408A
:108B7000012110B54FF0C05001F072F9012001F051
:108B8000C3F8242000F0E4FD4AF2A553984207D12F
:108B900024204FF6FF7100F0CDFD01F0BBF8FEE799
:108BA0001848194C426842F440714160E368174923
:108BB00043F08070E06000244C600A6842F00103DA
:108BC0000B60FFF7BBFC0120014601F03DF9E0B26C
:108BD0000134FFF791FD082CF9D1FFF7AFFD00201C
:108BE000FFF774FE0120FFF771FE0220FFF76EFE13
:108BF0000320FFF76BFE00200121BDE81040FFF7C6
:108C00006BBF00BF002004E0F0ED00E0001000E0CA
:108C1000054A064B02EB800103EB4002C86BB2F839
:108C20005C1001F02BB800BF600200206CC9000886
:108C3000024B03EB4000818B88B270478C120020FE
:108C4000024B002203EB4000828370478C1200200D
:108C500010B5082086B0012101F0F6F8264C4FF43B
:108C60008040012101F0FCF8032018214FF400534B
:108C70008DF802008DF8031020466946ADF80030EB
:108C800000F0ACFF4FF4004220466946ADF80020EA
:108C900000F0A4FF04204FF480438DF803006946E0
:108CA0002046ADF8003000F099FF0021ADF8041027
:108CB0004FF48272ADF80810ADF80A104FF400704E
:108CC000ADF81210A4F5544407210123ADF8062095
:108CD000ADF80E000822ADF81410204601A9ADF839
:108CE0000C30ADF8102001F04BF92388034A98B2FC
:108CF000108006B010BD00BF000C0140DA1B002040
:108D000070B5044601208CB00E460146154601F0B0
:108D10008FF8124B002080224FF44051012C019318
:108D20000296059006920790089009900A910B9080
:108D300006D103900A48049500F01AFD084807E0A0
:108D40004CB9102307480393049500F011FD054822
:108D500001A900F085FD0CB070BD00BF0C380040CB
:108D6000440002405800024073B50F23012400253F
:108D700001A88DF804308DF805508DF80650174E77
:108D80008DF8074000F098FCFFF762FF20462A4666
:108D90001349FFF7B5FF28462A461249124DFFF73F
:108DA000AFFF30460221224600F085FD28462146CD
:108DB000224601F010F922462846022101F00BF963
:108DC0002846214601F0FBF82146084800F068FDDE
:108DD0003046214600F064FD7CBD00BF58000240D3
:108DE000C0170020C013002000380040440002409B
:108DF00010B504462146044800F052FD03482146C0
:108E0000BDE8104000F04CBD440002405800024054
:108E100002484FF4805100F037BF00BF000C014002
:108E200008B54FF40061024800F028FF08BD00BFFC
:108E3000000C014030B5092085B0012101F004F893
:108E40004FF400644823694614488DF80330ADF8A8
:108E5000004000F0C3FE0B21012000F019FF204666
:108E600000F086FD0C200294002501248DF80D00F1
:108E700002A88DF80C508DF80E4000F03DFD282121
:108E800001A88DF804108DF805408DF806508DF876
:108E9000074000F011FC05B030BD00BF000C0140E0
:108EA0001FB52823002401A88DF804308DF8074051
:108EB00000F002FC4FF40060029002A88DF80E4012
:108EC00000F01AFD1FBD000020B105484FF480716D
:108ED00000F0DABE02484FF4807100F0D7BE00BF48
:108EE000000C014013B5082001210F4C00F0ACFF2D
:108EF000032010214FF480538DF806008DF80710E1
:108F0000204601A9ADF8043000F068FEFFF780FFAD
:108F10004FF48072204601A9ADF8042000F05EFEF7
:108F20000020FFF7D1FF1CBD000C014010B50B4C19
:108F3000238823F0400001040A0C2280FFF768FF19
:108F4000074B188881B2074841F040024FF4007186
:108F50002280BDE8104000F099BE00BF00380040FC
:108F6000D81B0020000C014002484FF4007100F0B3
:108F70008BBE00BF000C014070B5082086B00121F7
:108F800000F062FF2D4C01214FF4804000F068FF9B
:108F900018204FF4005303268DF80300694620463D
:108FA000ADF800308DF8026000F018FE4FF400417B
:108FB000ADF800102046694600F010FE04254FF47D
:108FC000804220466946ADF800208DF8035000F03D
:108FD00005FE4FF400751023204669468DF80330D6
:108FE000A4F55444ADF800508DF8026000F0F6FD91
:108FF000FFF7BAFF00204FF48271ADF80400ADF81E
:109000000610ADF80800ADF80A00ADF80C00ADF898
:109010001000ADF812000722204601A9ADF80E504D
:10902000ADF8142000F0ACFF2388054998B2088001
:109030002046012100F0C3FF06B070BD000C0140C6
:10904000D81B002010B50B4C238823F040000104EE
:109050000A0C2280FFF788FF074B188881B2074867
:1090600041F040024FF480512280BDE8104000F0F2
:109070000DBE00BF00380040DA1B0020000C01408C
:1090800007B50820012100F0DFFE032014214FF472
:1090900080638DF806008DF80710034801A9ADF82C
:1090A000043000F09BFD0EBD000C0140002008B50F
:1090B00000F056FE4FF400000121BDE8084000F02A
:1090C000CFBE0000014B03221A607047D41200206B
:1090D000044B05489A7A0AB1052100E0012101609C
:1090E000704700BFEC1B0020D412002007B50220FF
:1090F00014238DF805000021012201A88DF8043009
:109100008DF806108DF8072000F0D6FA0EBD00008D
:1091100020B105484FF4806100F0B8BD02484FF41B
:10912000806100F0B1BD00BF000C01400C4B93F812
:109130002000A0B10B490C4B0A880C48A3F844202E
:1091400001880B4AA3F8461010880A49A3F8480082
:109150000A880948A3F84A200188A3F84C107047F0
:109160008C120020004C000860020020024C000815
:10917000044C0008064C0008084C000810B51F4BB2
:1091800093F82000002837D000F00EFC342000F0C7
:109190002DFC1B4800F004FD04282CD1194C184864
:1091A000B4F8441000F0A0FC042823D11648B4F809
:1091B000461000F099FC04281BD11448B4F848105C
:1091C00000F092FC042813D11148B4F84A1000F0C2
:1091D0008BFC04280BD10F48B4F84C1000F084FC31
:1091E000042803D1BDE8104000F0EABBFEE7FEE72B
:1091F000FEE7FEE7FEE7FEE710BD00BF8C12002091
:10920000004C000860020020024C0008044C0008DA
:10921000064C0008084C000870B5054600F0D8FB65
:109220000B4C2065C04300EA0503AB420FD0094E4A
:109230000543756200F0B8FB00F072FC84F854003E
:10924000706A00F0FFFB84F85400FFF743F970BD2B
:10925000600200208C12002070B5064600F0B8FBBA
:109260000C4C60EA06020132206512D040EA060387
:10927000094DD843686200F097FB00F051FC84F878
:109280005400686A18B100F0DDFB84F85400FFF761
:1092900021F970BD600200208C120020024B1A6C74
:1092A000501C1864704700BF8C120020014B186CD2
:1092B000704700BF8C12002010B504460A480221F6
:1092C00000F097FE0028F9D00748214600F08CFEF8
:1092D0000548012100F08DFE0028F9D0024800F079
:1092E00085FEC0B210BD00BF0038004070B5FFF76A
:1092F0001DFE9F20FFF7E0FFFF20FFF7DDFF044684
:10930000FF20FFF7D9FF0546FF20FFF7D5FF2D020D
:109310000646FFF729FE45EA0440304370BD0000D1
:1093200008B5FFF729FEFFF701FE0420FFF7C4FF91
:10933000FFF71AFEFFF7DAFF104B984202D04C3BC2
:10934000984219D1FFF7F2FD8020FFF7B5FFFFF734
:109350000BFEFFF7EBFD5020FFF7AEFFFFF704FE1B
:10936000FFF7E4FD0120FFF7A7FF0020FFF7A4FFB0
:10937000BDE80840FFF7F8BD08BD00BF8D25BF0060
:109380003A4B82B01A6842F0010018605968384AB6
:109390000A405A60186820F0847121F480321A6003
:1093A000186820F4802119605A684FF41F0122F4D4
:1093B000FE0000225860996000920192186840F403
:1093C00080311960294B1A6802F40030019000992D
:1093D0004A1C0092019818B90099B1F5A06FF1D11B
:1093E0001B6813F4003218BF012201920198012872
:1093F00005D0204B4FF000629A6002B070471E49C2
:109400000B6843F010020A60086820F003030B6049
:109410000A68A1F5805342F002000860596859605B
:109420005A685A60586840F4806159605A6822F45A
:109430007C105860596841F4E8125A60186840F08E
:10944000807119601868094A8101FBD5536823F0BF
:1094500003015160506840F002035360034A5168B1
:1094600001F00C000828F9D1C3E700BF001002404A
:109470000000FFF800ED00E00020024008B50120E8
:10948000FFF746FE064B0749012200201A601860CC
:10949000086005494FF4E0520A801A6008BD00BF19
:1094A000405C0040445C0040101C0020064B1A68E1
:1094B00090B240F0080119601A6890B240F00401BF
:1094C0001960FFF7FFBD00BF405C004010B5064CBF
:1094D0004FF6FB73226813402360FFF7F9FD4FF44A
:1094E0003F40206010BD00BF405C00401F4B07287C
:1094F00010B518BF18701A781C4C052A33D8DFE84D
:1095000002F003070C101823FFF7E0FF062202E029
:10951000FFF7DCFF0422227010BD022159700320E6
:1095200022E059784A1ED0B258705B78EBB904201B
:1095300017E00F4B186881B241F010021A600A2040
:1095400005232370607010BD5878411ECAB25A704E
:109550005B7853B906484FF6EF7201680A40026023
:109560000620024B00E00620187010BDDC1B002016
:10957000405C0040F8B5074672B6404B53F83040A7
:109580004FF47F00FFF74AF9E720FFF7C3F93C48A3
:1095900010B13C48AFF30080E720FFF7C9F902267D
:1095A00000F0A2FB03252046FFF738F9E720FFF77C
:1095B000B1F93548FEF7EAFFE720FFF7B9F933487C
:1095C000FEF7E4FF691E8DB2002DECD12F48FEF7A7
:1095D000DDFF03252046FFF721F9E720FFF79AF981
:1095E0002B48FEF7D3FFE720FFF7A2F92748FEF745
:1095F000CDFF6A1E95B2002DECD12448FEF7C6FFC0
:1096000003252046FFF70AF9E720FFF783F91E48F4
:10961000FEF7BCFFE720FFF78BF91C48FEF7B6FF0B
:109620006B1E9DB2002DECD11A48FEF7AFFFA8B219
:10963000874210D02046FFF7F1F8E720FFF76AF9DC
:109640001348FEF7A3FFE720FFF772F91048FEF773
:109650009DFF0135EBE71048FEF798FF013E9FD1D3
:10966000BFF34F8F0D4C0E4AE76807F4E06141EA03
:109670000205E560BFF34F8FFEE700BFD0C90008C9
:10968000000000000CCC0008F0490200A086010098
:10969000E0930400A0BB0D0000350C0000ED00E0DD
:1096A0000400FA0540F0BF60024B40F40031D9607D
:1096B000704700BF00ED00E0C37810B503B3164C4F
:1096C000E168CB43C3F302244178C4F1040201FAF8
:1096D00002F10F2222FA04F28478037822400A432E
:1096E000110103F16043CAB203F5614181F800231F
:1096F0000078012200F01F03410902FA03F007E09D
:109700000078012200F01F03410902FA03F0203122
:10971000024B43F8210010BD00ED00E000E100E045
:1097200021F0604121F07F02014B104398607047A7
:1097300000ED00E0054A82B0002301930192019BF5
:10974000C0180190019A116002B07047006C00408F
:10975000064982B0002301930191019A801801907B
:10976000019B198888B202B0704700BF006C0040AE
:1097700002684FF6FE73134003602D4B00219842A0
:10978000016041608160C16022D02A49884229D0AD
:10979000294B984230D02949884237D0284B9842EB
:1097A0003ED0284B984206D153F8681C41F4700013
:1097B00043F8680C70472449884206D151F87C0C64
:1097C00040F0706241F87C2C7047204B984206D1E3
:1097D00053F8042C42F00F0143F8041C70471C4955
:1097E000884206D151F8183C43F0F00041F8180CBB
:1097F0007047184B984206D153F82C2C42F47061F4
:1098000043F82C1C70471449884206D151F8403C5B
:1098100043F4704041F8400C7047104B984205D11A
:1098200053F8542C42F4702143F8541C704700BF85
:10983000080002401C000240300002404400024088
:10984000580002406C0002408000024008040240C0
:109850001C04024030040240440402405804024008
:1098600070B506688C680D6A26F4FF4222F0700617
:109870000A6945EA04034C6913438A692343CC69A6
:1098800013431C434B6A44EA03028B6A1A43324374
:109890000260CB680A68496843608260C16070BD3D
:1098A00019B1016841F0010303E002684FF6FE734D
:1098B00013400360704703680AB1194301E023EACB
:1098C0000101016070470000C3004CBF034B044B13
:1098D000196801420CBF00200120704700040240BB
:1098E00000000240C2004CBF014B024B5860704761
:1098F0000004024000000240837910B5002B29D0FB
:109900001A4B01681C68CA4314401C605C68224002
:109910005A60027902F1804404F5823214682143CE
:10992000116002689C68D1430C409C60DC684079FF
:1099300021401028D96006D1986810439860D968F2
:109940000A43DA6010BD00F1804303F582331968E1
:109950000A4308E00179006801F1804202F5823390
:109960001A6822EA00021A6010BD00BF000401401C
:10997000014B5861704700BF00040140064B1A6854
:10998000596910EA010304D010420CBF00200120E5
:1099900070471846704700BF00040140014B5861F2
:1099A000704700BF00040140034A044B02F18830B5
:1099B0005A605860704700BF23016745002002408D
:1099C000024B1A6942F08000186170470020024083
:1099D000014B186A704700BF00200240024BD86953
:1099E000C0F34000704700BF00200240014BD86028
:1099F000704700BF00200240084BDA68D20709D444
:109A0000D868400708D4D96811F0100F0CBF0420A3
:109A10000320704701207047022070470020024059
:109A200010B50446FFF7E8FF012806D11CB1FFF787
:109A3000E3FF013CF8E7052010BD002C08BF05201E
:109A400010BD000010B504464FF40050FFF7E8FFCA
:109A5000042842D12149224B01F188309960986055
:109A6000E4431969E2B241F01000FF2A186104D101
:109A7000C4F30721FF2909D110E01A4B4FF400501D
:109A80001A81FFF7CDFF04281FD1F1E7154A4FF4E3
:109A900000505181FFF7C4FF042816D1C4F30740DA
:109AA000FF2807D00F4B98814FF40050FFF7B8FF05
:109AB00004280AD1240EFF2C01D1042007E0094913
:109AC0004FF40050CC81FFF7ABFF052805D0044AC6
:109AD00041F6EF7311690B40136110BD2301674517
:109AE0000020024000F8FF1F70B505464FF40050FB
:109AF0000E46FFF795FF04280ED1084C236943F06A
:109B0000010020612E804FF40050FFF789FF226989
:109B100041F6FE711140216170BD00BF002002407E
:109B200038B5FFF75BFF00280CBFA52500254FF4D3
:109B30003020FFF775FF04282BD1164B164C03F18C
:109B40008830A360A060216941F02002226123696E
:109B500043F0400020614FF43020FFF761FF0428FC
:109B60000ED1216941F6DF720A40226123690B4957
:109B700043F0100020610D804FF40050FFF750FFBC
:109B8000052801D1052038BD226941F6EF73134045
:109B9000236138BD230167450020024000F8FF1F04
:109BA00038B505464FF43020FFF73AFF042812D1AC
:109BB000094C236943F002002061656121694FF47B
:109BC000302041F040022261FFF72AFF216941F66F
:109BD000FD730B40236138BD00200240CB78F0B507
:109BE000DA0648BF8A78098803F00F0548BF154395
:109BF00011F0FF0F1ED004680022012707FA02F7B8
:109C000007EA0106BE4211D197004FF00F0C0CFA83
:109C100007FC05FA07F724EA0C04282B44EA07049A
:109C200001D1466102E0482B08BF06610132082AD3
:109C3000E3D10460FF2920D94468002202F108061C
:109C4000012707FA06F707EA0106BE4211D197007D
:109C50004FF00F0C0CFA07FC05FA07F724EA0C0486
:109C6000282B44EA070401D1466102E0482B08BFD3
:109C700006610132082AE1D14460F0BD83681942CF
:109C80000CBF00200120704701617047416170479F
:109C900001F0030230B592000F2404FA02F400FA36
:109CA00002F0074B8908023153F8215025EA0404D9
:109CB00043F8214053F82140044343F8214030BD8C
:109CC00000000140014B1860704700BF00300040A9
:109CD000014B5860704700BF00300040014B986056
:109CE000704700BF00300040024B4AF6AA221A60BB
:109CF000704700BF00300040024B4CF6CC421A6067
:109D0000704700BF00300040014B1860704700BF33
:109D100020000E42074B1A6842F0040018601968D0
:109D200041F002021A60044B186940F00401196105
:109D300030BF70470070004000ED00E0034B5968F1
:109D400008420CBF00200120704700BF0070004097
:109D5000024B1A6842EA80001860704700700040A9
:109D6000014B1860704700BFD8004242064B0022EA
:109D700001281A701A7004D0042804D10520187024
:109D800001E018707047704720100240024B1A6AB9
:109D900010431862704700BF00100240014B18606A
:109DA000704700BF3C0442421D4B10B55A6802F098
:109DB0000C01042901D0082902D01A4A02600EE0E1
:109DC0005C685968C4F38342941CC90302D55B687C
:109DD0009B0301D5144900E012494C430460104A2A
:109DE000124B5468C4F303115C5C016821FA04F15E
:109DF00041605468C4F302241C5D21FA04F48460B9
:109E00005468C4F3C2241C5D21FA04F1C160526895
:109E1000C2F381329B181A7CB1FBF2F1016110BDD3
:109E20000010024000127A0000093D00CD0200201F
:109E3000044B5A6909B1104301E022EA000058615D
:109E4000704700BF00100240044B9A6909B11043EB
:109E500001E022EA00009861704700BF0010024054
:109E6000044BDA6909B1104301E022EA0000D8612D
:109E7000704700BF001002404309012B074A01D17F
:109E8000136803E0022B0CBF136A536A00F01F0033
:109E900023FA00F101F00100704700BF00100240FA
:109EA000024B5A6A42F080705862704700100240BC
:109EB000044B1A8892B209B1104301E022EA000073
:109EC0001880704700280040034B9A8890B240F0F9
:109ED00010019980704700BF00280040034A938812
:109EE00023F0100001040B0C938070470028004001
:109EF00010B50446FFF7E8FF044BC4F30342A4B2D5
:109F00001A819C81BDE81040FFF7E8BF002800409F
:109F1000034B988800F020018AB2002AF8D07047DD
:109F200000280040074A938823F0080001040B0C26
:109F30009380044A908800F008018BB2002BF8D07F
:109F4000704700BF00280040074B9A881B8891B2D9
:109F500010EA030206D0084010F0FF0F0CBF0020EB
:109F6000012070471046704700280040034B9A8834
:109F700091B221EA00009880704700BF002800409D
:109F80000B8810B54C88028823438C8802F4415218
:109F90002343CC8823430C8923434C8923438C8956
:109FA0002343CC89098A23431A4393B20380828BCB
:109FB00022F400631A04130C8383018210BD03880A
:109FC00019B199B241F0400303E023F040010A04C3
:109FD000130C0380704783889BB20AB1194301E0D8
:109FE00023EA01018180704781817047808980B2B6
:109FF0007047038919420CBF002001207047000000
:10A00000224A038890429BB212D002F5006290422D
:10A010000ED0B0F1804F0BD0A2F59832904207D00D
:10A0200002F58062904203D002F58062904203D133
:10A030004A8823F070031343154A904208D002F572
:10A040008062904204D023F44073CA889BB21343C9
:10A0500003808B880A8883850C4B028598420FD039
:10A0600003F5006290420BD002F54063984207D09E
:10A0700003F58062904203D002F58063984201D1DB
:10A08000097A018601228282704700BF002C0140BC
:10A0900000100040038C70B523F001021404250C5D
:10A0A0000584068C8388028B9CB222F073052B04F6
:10A0B0000D881A0C26F0020633042A434E880D89B7
:10A0C0001B0C3543ADB22B43134DA8420FD005F501
:10A0D0000065A8420BD005F54065A84207D005F5FC
:10A0E0008065A84203D005F58065A8420ED123F013
:10A0F00008064B898D881E4326F004032B43CE8926
:10A100008D8924F440743543ADB22C43C9888480D2
:10A1100002838186038470BD002C0140038C30B51E
:10A1200023F010021404250C0584038C8288048B10
:10A1300023F0200324F4E6452C040D88240C44EA83
:10A1400005241D042B0C0D8992B243EA05134D889A
:10A15000A4B243EA0513124D9BB2A84203D005F501
:10A160000065A84215D14D8923F080039BB243EAD4
:10A1700005134FF6BF751D408B8822F4406245EAF7
:10A180000315ABB28D8942EA8502CD8942EA850288
:10A1900092B2C988828004830187038430BD00BFE6
:10A1A000002C0140038C30B523F480721404250C7C
:10A1B0000584038C8288848B23F4007324F0730558
:10A1C0002C040D88240C2C431D042B0C0D8992B2F9
:10A1D00043EA05234D8843EA0523124D9BB2A8426A
:10A1E00003D005F50065A84215D14D8923F400631D
:10A1F0009BB243EA05234FF6FF351D408B8822F4BE
:10A20000405245EA0325ABB28D8942EA0512CD8959
:10A2100042EA051292B2C9888280848381870384CE
:10A2200030BD00BF002C0140038C30B523F48052B8
:10A230001404250C0584038C8288858B94B225F444
:10A24000E64215042A0C0D8823F4005342EA052245
:10A250001D042B0C0D8992B243EA05334D8843EA65
:10A2600005330A4D9BB2A84203D005F50065A8420C
:10A2700005D18D8924F4804444EA8514A4B2C988A8
:10A2800084808283A0F84010038430BD002C0140FC
:10A2900000214FF6FF7383800180C18041800172ED
:10A2A00070470023038043808380C3800381438100
:10A2B0008381C3817047038819B199B241F00103CA
:10A2C00003E023F001010A04130C03807047B0F887
:10A2D000443029B16FEA43436FEA53418AB201E047
:10A2E00059044A0CA0F84420704783899BB20AB1F4
:10A2F000194301E023EA010181817047038819B104
:10A3000099B241F0800303E023F080010A04130CAA
:10A3100003807047038B23F0080213041A0C1143C7
:10A3200001837047038B23F4006213041A0C42EA82
:10A3300001218BB203837047838B23F0080213043F
:10A340001A0C114381837047838B23F4006213043A
:10A350001A0C42EA01218BB283837047038A8289F7
:10A3600011EA030092B203D011420CBF0020012079
:10A370007047C9438AB2028270470000038A30B531
:10A380000D460446EA8898B220F4405111432182D8
:10A39000A3892889A98823F4B05340EA0102688977
:10A3A00023F00C0102430804030C1A4391B2A1816B
:10A3B000A08AAA8983B223F4407187B01143A18295
:10A3C00001A8FFF7F1FC1848A38984420CBF049848
:10A3D000039819B200294FF019032A6803FB00F013
:10A3E00001DA510000E09100B0FBF1F16423B1FB10
:10A3F000F3F21201100903FB1011A08900B200282A
:10A4000006DAC9003231B1FBF3F303F0070005E0CF
:10A4100009013231B1FBF3F303F00F00024390B2B4
:10A42000208107B030BD00BF00380140838919B1D9
:10A4300099B241F4005303E023F400510A04130CD1
:10A4400083817047C1F3421310B5012401F01F014D
:10A45000A34204FA01F101D10C3004E0022B01D136
:10A46000103000E01430036812B143EA010201E049
:10A4700023EA0102026010BDC905CA0D828070473F
:10A480008088C105C80D7047038819420CBF0020A1
:10A490000120704710B5C1F34214012201F01F03DF
:10A4A000012C02FA03F201D1838903E0022C0CBFD4
:10A4B000038A838A9BB20088134082B243B1090A9F
:10A4C000012303FA01F010420CBF0020012010BD4F
:10A4D000184610BD10B5064C18B9236801221A821F
:10A4E00010BD044B18680168884720680A3010BD09
:10A4F0000C1C0020081C002010B5064C18B923685D
:10A5000001221A8210BD044B1868816888472068B0
:10A510000C3010BD0C1C0020081C002008B5234A7C
:10A5200018B9136802221A8208BD214B0020126854
:10A530001880117811F07F0113D1507A00F02002B9
:10A54000D1B209B102221A7000F04003D8B2184B00
:10A5500018B11A7842F001011EE0197821F00101CA
:10A560001AE001291FD002291ED1507900F00F02F4
:10A570004FEA820110F0800F01F1804000F5B842EF
:10A58000116803D001F03002102A03E001F44050BA
:10A59000B0F5805F01D101211970064B186801697F
:10A5A0008847034808BD184608BD00BF0C1C0020A2
:10A5B000DE1B0020081C0020F8B5224B1C68238AF3
:10A5C000267AABB9042E13D11F48017801291F49FF
:10A5D0000AD11F4C226894B21E4AA218520013607E
:10A5E00030220A80037028E010260E80072624E01F
:10A5F000A58AA169AB428CBF022604269D4228BFD2
:10A600001D46284688470746002000F061FD2A467F
:10A610000146384600F06EFC2946002000F074FD2B
:10A62000208A638A421BED1808480B4B2282302196
:10A630004FF44052018065821A80024B18680672FE
:10A64000F8BD00BF0C1C0020D8120020141C0020F4
:10A65000505C004002300020121C002010B50A4B54
:10A660000A4918684B78C27893420AD3817841B975
:10A67000848834B982720648026853689847204635
:10A6800010BD022010BD00BF0C1C00205002002095
:10A69000081C002038B50E4A0E4C106823688269E9
:10A6A000D9785879904721688B7A7BB170B908794D
:10A6B00060B98D7855B9084A1168CB689847206809
:10A6C0004279C178C2720173284638BD022038BD74
:10A6D000E41B00200C1C0020081C002010B5324B8D
:10A6E0001B68187810F07F0004D15A7A22F02001FC
:10A6F000597210BD022855D15A88002A53D11979B0
:10A70000002950D15A7922F080004FEA800404F1E8
:10A71000804101F5B8442168244C12F0800F247860
:10A7200014BF01F0300101F44051A0423AD2002997
:10A7300038D09B7A002B35D0840002F0800204F1DF
:10A740008043D1B203F5B844226861B102F030020F
:10A75000102A21D1C4B2204600F087FC20463021C7
:10A7600000F006FC18E002F44051B1F5805F13D10F
:10A7700028B90F4B93F82C1000F0D4FC01E000F046
:10A7800062FC20684BF68F72024082F4405141F423
:10A79000004343F08000206006490B6858698047F9
:10A7A000002010BD022010BD0C1C00205002002013
:10A7B000FC010020081C002010B51F4B19684A79C5
:10A7C00022F080034FEA830000F1804404F5B84092
:10A7D0001A4C0068247812F0800F14BF00F030008B
:10A7E00000F44050A34224D24C8814BB08B3897AA9
:10A7F000F9B19B0003F1804102F0800201F5B843FA
:10A80000D0B2196828B148F6BF720A4082F0100031
:10A8100004E04BF68F720A4082F4805040F400410D
:10A8200041F080001860064B1A6891698847002043
:10A8300010BD022010BD00BF0C1C002050020020E3
:10A84000081C002008B5064B1868064B427A42F0F7
:10A85000200141721868C2699047002008BD00BFFE
:10A860000C1C0020081C0020054B1A68538A18B9DC
:10A870008988CB1A138270470868C018704700BFD8
:10A880000C1C002008B50B4B002093F82C1000F096
:10A8900049FC09480168087A082806D1074B4FF49B
:10A8A00080521A80064A10211180B0F109035842E3
:10A8B000584108BDFC0100200C1C0020121C002087
:10A8C000141C002070B52E4B1C68207A02284FD033
:10A8D00004284DD0032801D0052843D1A169208A3E
:10A8E000A9B1A0B1A58A854228BF05462846884758
:10A8F000228A0646608A531B29186182238200201F
:10A9000000F0F4FB2A460146304600F00AFB228A9A
:10A9100052B11C4B4FF4405018800020014600F00B
:10A92000F3FB194A30211180208AA38A14498342FB
:10A9300002D80B68032202E018B10B6805221A72D4
:10A940000CE00A680623114913720A68104993B291
:10A950005A1853000C4918603020088008480168D4
:10A960000B7A06E0072803D10A490A68D36898479A
:10A970000823034A10680372BDE87040FFF782BFE6
:10A980000C1C0020121C0020141C0020505C0040F5
:10A9900002300020E41B0020944B73B51A689449E0
:10A9A00090B24418934E65002A6835682B7A092BBB
:10A9B00015D090B2410001F1804404F5C0442278E2
:10A9C0002A7063786B70A08800F0DAFB68802089B9
:10A9D000356800F0D5FBA880A0893168C880854D16
:10A9E00001242B68DA881C725C78002A64D11878FC
:10A9F00010F07F0238D1092C02D1FFF72FFE45E07D
:10AA0000052C0FD193F90320002A01DA08214FE029
:10AA100099780029FAD198880028F7D19B7A002BE1
:10AA200038D0F3E7032C10D1D878012807D0724A28
:10AA3000204611684B699847032829D137E09B8845
:10AA4000002BF4D1FFF7FEFE20E0012CEFD1D978E6
:10AA50000129ECD198880028E9D15B7A03F0200223
:10AA6000D1B20029E3D00AE0012A04D10B2CDED1B7
:10AA7000FFF710FE0AE0022AD9D1012C02D1FFF71C
:10AA80002DFE03E0032CD2D1FFF796FE10B1CEE7E6
:10AA90000028BBD15548594B026891B2C818584B91
:10AAA0004100002230200A601880062100E00921C0
:10AAB000504A10680172D3E0062C13D11C7861064D
:10AAC0007AD19A784C4B012A02D11C68E36969E07B
:10AAD000022A02D11868036A64E0032A6CD119685B
