:020000040800F2
:10500000005000208D720008CD6B0008CF6B0008A7
:10501000D96B0008E36B0008ED6B0008000000008E
:10502000000000000000000000000000F76B000816
:10503000F96B000800000000FB6B0008FD6B000826
:10504000E1720008E1720008E1720008216E0008B8
:10505000E1720008E17200085D6C00087D6C0008D8
:105060009D6C0008D16C0008F16C0008E17200082A
:10507000E1720008E1720008E1720008896E000820
:10508000E1720008E17200080D6C0008E17200088E
:105090008D6E0008E1720008E1720008116D0008D1
:1050A000E1720008E1720008E1720008D96D0008A1
:1050B000E1720008E1720008E17200082D6C00083E
:1050C0003D6C0008E1720008E17200084D6C0008B8
:1050D000E1720008E17200081D6C0008E17200082E
:1050E000616D0008496E0008E172000800000000D0
:1050F00000000000000000000000000000000000B0
:0C51000000000000000000005FF808F153
:10511000BFF34F8F054A064BD16801F4E06040EAC7
:105120000301D160BFF34F8FFEE700BF00ED00E049
:105130000400FA05014B0360704700BFA0CC0008D3
:10514000034B10B50446036000F07CFC204610BD04
:10515000A0CC0008044A0549002313700B70044BCF
:1051600001221A70704700BF2C1200201612002076
:105170006401002008B5012000F08AFC00210A46E5
:10518000402000F097FC0220002100F0D5FD022015
:10519000002100F055FE06484FF4165101F018FAB0
:1051A00004484FF41651BDE8084001F01BB900BF98
:1051B000CC110020A811002010B504462146044857
:1051C00000F0E0FF03482146BDE8104000F0DABFE0
:1051D000CC110020A811002010B504462146044837
:1051E00000F0BBFF03482146BDE8104000F0B5BF0A
:1051F000CC110020A811002038B50D46084907F051
:10520000CFFA002450B1042CD8BF45F8240004493B
:10521000D8BF0134002007F0C3FAF3E738BD00BF60
:1052200098CE000838B50546402000220C460146BD
:1052300000F040FC2846214601F092FA0020014689
:10524000402200F037FC0248BDE83840FFF7B4BF09
:105250009BCE0008F0B5604B60491A68096887B0BA
:105260008A4203DA99180871013200E000222028EE
:105270001A6002D100221A60ACE03B2840F0AA80FC
:105280005748554CFFF798FF5648FFF7A5FF201DDC
:10529000FFF792FF201D544907F00CF90546F8B1BD
:1052A000002152482160FFF787FF01A92846FFF738
:1052B000A3FF4F48FFF780FF0198FFF77DFF02989B
:1052C000FFF77AFF0398FFF777FF4A48FFF774FF6D
:1052D0000120C4F8040103990298FFF7A3FF79E0C5
:1052E000201D454907F0E6F80746F8B14348256018
:1052F000FFF762FF4148FFF75FFF642003F006FB02
:105300003F48FFF759FF3F4B3F4A4FF6FF740127D5
:105310001F70148004F0F4F80420214604F016FCF9
:105320002820214604F012FC284621E0201D3749A0
:1053300007F0C0F80646F8B135482760FFF73CFF94
:105340003348FFF739FF4FF655744FF47A7003F086
:10535000DDFA2C4D214628202B4E04F0F7FB0120CE
:105360002870348004F0CCF8642003F0CFFA38467B
:1053700004F096F8FFF7CCFE201D264907F09AF8B6
:10538000054680B124482660FFF716FF0F2004F081
:105390001BF93046FF21324600F08CFBE72003F07A
:1053A00091FC1E4814E0201D1D4907F083F888B1C8
:1053B0001C482560FFF700FF0F2004F0E5F8FF20F0
:1053C00029462A4600F076FBE72003F07BFC1648CE
:1053D000FFF7F2FE07B0F0BD1C0B0020000000201C
:1053E000B1CE0008C0CE00082CCC0008D3CE0008F7
:1053F000E1CE0008EACE000835CC0008F8CE00085F
:1054000034CF0008A4120020A80200203ACC0008E3
:105410004DCF000841CC000889CF000896CF000886
:1054200049CC0008D3CF0008DECF000837B50B4CBD
:10543000002104F584750B4600910A46284600F0C9
:1054400021FE28460649074A06F0BCF804F5887094
:1054500003B0BDE83040FFF77DBE00BF1C0B00204D
:1054600035510008A40D002010B5054801F0A0F842
:105470000446044800F016FF2043C0B210BD00BF30
:10548000CC110020A811002008B5094801F090F8BF
:1054900020B10748BDE8084001F08EB8054800F08B
:1054A00001FF20B10348BDE8084000F00DBF08BD72
:1054B000CC110020A811002010B5284B284C1878DA
:1054C00018B1D4F8141163292FDDD4F80421244B2A
:1054D0007AB1D3F81801D0F1010138BF0021402082
:1054E000C3F818110246002914BFFF21002100F063
:1054F000E1FAFFF7B9FF00282ED01948D0F81811AB
:10550000D1F1010338BF0023C0F818310020402139
:10551000834214BFFF22024600F0CCFAFFF7B4FF2B
:10552000C0B2BDE81040FFF795BE0E490E4800F02E
:1055300029FE0C490D4800F025FEFF2002460021FF
:1055400000F0B8FA0220012100F07AFCD4F81431FE
:105550005A1CC4F81421CCE710BD00BFF011002084
:105560001C0B002013D00008CC110020A811002033
:1055700010B50131002393420ED0040F092C01D83D
:10558000303400E0373401F8014C013300240001CD
:1055900001F8024BDBB2EEE710BD000010B54FF092
:1055A00000604FF4A04104F0C7FA164B01241C70B0
:1055B00003F0B6FC03F08EF92146402004F044FECF
:1055C0006FF07F4003F002FBE72003F07BFB0E4807
:1055D000047003F0C7F97D2004F05AFE18B10B499E
:1055E0000C7004F069FE40F6B83003F023FA03F0C3
:1055F00065FF04F0A1F8064A064801231370037002
:1056000010BD00BFA4120020F4110020B81B002020
:10561000701200202C12002010B5194B187810B110
:10562000184801F0D7F8164C217809B101F06CF94F
:10563000227862B1144B187848B9144C217831B1F2
:10564000134A13781BB913480478002CEBD0124985
:105650000A78002AE7D1114B18780028E3D10D4CC5
:105660002178012905D00E4A1AB1FFF783FD0123E5
:1056700023700C480028D6D0FFF71EFFD3E700BFE9
:1056800070120020DD5A0008251200202C12002084
:10569000F21100203C0C0020F3110020B81B002068
:1056A00075510008B95400084D4B70B51A6812B115
:1056B0001868411E19604B4B1A783AB14A4A107863
:1056C000002829D0494900293FD125E0484C2068CD
:1056D00010B12368591E0FE046490B78E3B9464ADA
:1056E0001078C8B945490B78B3B9454D2A782AB125
:1056F000E72003F061FB142121600DE041480178AF
:10570000002925D1E72003F00BFB3F48384B0178F7
:1057100000292BD032221A603A4B1A7832B13B4D15
:10572000287818B924E041684B1C436038490B685D
:10573000B3F57A7F05D300230B60BDE8704004F019
:10574000DFBC0868421C0A6070BD00F0F7F9E3E7AF
:10575000304B1A78002AD5D04FF6FF7003F036FA96
:10576000E72003F0AFFA01202870D5E76422D2E7E2
:1057700021490B7893B1284847F22F52436893424E
:10578000D1D9BFF34F8F254C2548E56805F4E06675
:1057900046EA0002E260BFF34F8FFEE7154E347811
:1057A00034B9204603F00CFC40F6B73290420DD8D5
:1057B000002003F005FC41F657318842B6D900209D
:1057C00003F006FC174B01201870AFE7204603F0EA
:1057D000FFFB2A78002AA9D101213170A6E700BF7A
:1057E000C01B002084120020E40F00203D5B000855
:1057F000BC1B002016120020F3110020F511002020
:10580000F411002070120020F11100202512002058
:10581000C41B0020F21100203C0C002000ED00E031
:105820000400FA051412002008B5094B186003F0B3
:10583000EFFD002003F034FE064803F06FF803F09C
:10584000FDFD03F01BFEBDE8084005F07DBC00BF78
:10585000C4010020A0860100074B1868052808D164
:1058600006490A7A012A04D1887A0B7BC11AC8B288
:1058700070470020704700BFC81200203C0C002079
:105880000D4B10B51868052813D10C4C217A01294D
:105890000FD16289A389D01A012804D100210320E5
:1058A000217205F0BCFDA389E218591C907BA181EF
:1058B00010BD4FF0FF3010BDC81200203C0C00207E
:1058C00008B50C4B1968052912D10B4B1A6D9918A4
:1058D00081F85400501CB0F5807F08BF0020186587
:1058E00003F066FC20B16420BDE8084003F016B860
:1058F00008BD00BFC81200203C0C002070B5234A30
:1059000092F85431012B3FD0D2F85801B0F5807F86
:1059100002D10021C2F85811D2F85831126D1B483B
:10592000934203D1002180F8541170BD8CBFC3F5A0
:105930008072C3EB0202154CC0F85C21D4F85C51B4
:1059400099B2402D07D94033403DC4F85831C4F8CE
:105950005C51402606E0E8180023AEB2C4F85801B6
:10596000C4F85C310A4A01255018C021324684F837
:10597000545105F0CBFC2846314605F0D1FD2846B0
:10598000BDE8704005F03ABD70BD00BF3C0C002082
:10599000900C0020094B10B593E8140008331868E8
:1059A00010180AD008220649FFF7E2FD05492046F3
:1059B0000422BDE81040FFF7DBBD10BDE8F7FF1F74
:1059C000720100208201002013B5084C00210091D3
:1059D0000A460B46204600F055FB0549054A20467D
:1059E00002B0BDE8104005F0EDBD00BF9C0D0020E9
:1059F00035510008A40D002038B50D460446AC42D0
:105A000003D254F8043B9847F9E738BD08B5074876
:105A10000749FFF7F1FF07480749FFF7EDFF074880
:105A20000749BDE80840FFF7E7BF00BF44D00008C2
:105A300044D0000844D000087CD000087CD0000886
:105A40007CD0000805F0E4BD08B5072003F09EFFF8
:105A5000FEE70000074A08B513680749181888428E
:105A6000106004D9082003F091FF05F0B1FD18463D
:105A700008BD00BF04000020004800204FF0FF30A8
:105A800070470120704708B50C2003F07FFFFEE748
:105A900038B5074B04461A781D46824206D010B12D
:105AA00003F036F901E003F0E1F82C7038BD00BFD7
:105AB000A80D002008B5074B1B7853B142EA01211D
:105AC00041EA004003F0AAF8E720BDE8084003F0EF
:105AD000F9B808BDA80D00200020704730B502209D
:105AE00011228DB0014602F03DFA051E24DB02238F
:105AF00016200024ADF80C308DF80E003321E02282
:105B00000123BB208DF811408DF80F108DF8102067
:105B10008DF812308DF813000324102203A9009190
:105B2000019200231322284607A902F041FB013C01
:105B3000F3D1284602F044FA0DB030BD38B5114C0F
:105B4000D4F834522DB1D4F834124B1EC4F8343288
:105B500038BDD4F838320C4A52F8230003F05EF80E
:105B6000E72003F0AFF8094A6420D4F83812C4F8EB
:105B7000340250684B1C8342C4F83832A8BFC4F8C2
:105B8000385238BDA80D002050CC00080800002075
:105B90007FB502200121062202F0E4F9041E23DB76
:105BA00000200822022335218DF802004FF4FA501C
:105BB000ADF800308DF803108DF804208DF8052025
:105BC0008DF806208DF8072000F0FCFD694606469A
:105BD0001022204602F050FA0546304600F0F2FD51
:105BE000204602F0EDF901E04FF0FF35284604B001
:105BF00070BD000010B5064C2068002805DB02F0DF
:105C0000DFF94FF0FF33236010BD002010BD00BF4F
:105C10000800002030B5A7B0FFF7ECFF02200121FB
:105C2000062202F09FF9334B0028186051DB3248FE
:105C3000022216213324A0F83E2280F8401280F878
:105C4000414205A803F0E2FC9DF8143000250095C0
:105C500033B1012B17D0294B01A803F1100502E045
:105C6000069A009214E0024659681868083303C285
:105C7000AB421046F7D101A906AC0FC907C424F8FE
:105C8000023B1B0C23700A24009D0DB9013C23D15B
:105C9000009808B91A490091009D174B280A2A0C50
:105CA0002C0E83F844024FF4FA5083F8424283F8F2
:105CB000432283F8455200F085FD0E490546102227
:105CC0000868104902F0D8F90446284600F07AFD29
:105CD0000CE04FF0FF3409E07E2106A806F0E6F95B
:105CE0006A4681B206A802F091F9CDE7204627B0B6
:105CF00030BD00BF08000020A80D002024D00008FF
:105D000004E5D036E60F002013B5084C00210091C1
:105D10000A460B46204600F0B5F90549054A2046DB
:105D200002B0BDE8104005F04DBC00BFF80F0020E8
:105D300035510008A40D002014282DE9F341044634
:105D40000E4675D8FF2973D000F06EFA28B10D2CDD
:105D50006ED00F2C6CD00E2C6AD000F049F908B12F
:105D6000012C65D900F0CCFB18B1A4F11203012B72
:105D70005ED9304D20012F582F492A188F42B2F892
:105D8000048001D1042003E02C4B9F4203D1082062
:105D9000012104F065FAADF80480062E44D8DFE84E
:105DA00006F00411181F26313C00224A102302EB92
:105DB000041403200021A1738DF807308DF806002C
:105DC000083431E004218DF8071005EB041401229A
:105DD00029E048228DF8072005EB0414022222E076
:105DE00028208DF8070005EB041403221BE0114B5B
:105DF000182203218DF807208DF8061003EB0414F8
:105E0000042210E00B481C2103238DF807108DF8A5
:105E1000063000EB0414052205E000208DF8070091
:105E200005EB04140622A273384601A904F0E2F837
:105E3000BDE8FC811000002000080140000C01407A
:105E4000142870B504460E463ED8204B03EB0010D4
:105E5000817B012938D0022936D0032934D0062984
:105E600032D0FF2930D000F0DFF930B10D2C2BD02B
:105E70000F2C29D00E2C00D170BD00F0B9F810B154
:105E8000012C00D870BD00F03BFB20B1A4F1120240
:105E9000012A00D870BD0D4D05EB0413987B042832
:105EA00003D120460021FFF747FF012E05D1240131
:105EB0002819295983880B6170BD2EB9240129192D
:105EC0002B598A885A6170BD70BD00BF1000002038
:105ED00003F0D8BB13B5084C002100910A460B46CD
:105EE000204600F0CFF80549054A204602B0BDE83B
:105EF000104005F067BB00BF2C1000203551000892
:105F0000A40D0020024B18785978401A704700BF42
:105F100034100020064B5A781978914204D9981809
:105F2000013280785A7070474FF0FF30704700BFE1
:105F300034100020054B5A781978914202D99818EC
:105F4000807870474FF0FF30704700BF341000205A
:105F500070470000014B0360704700BFB8CC0008D9
:105F6000034B10B504460360FFF76CFD204610BDDF
:105F7000B8CC0008F8B5094B054693F82200164640
:105F800050B10C468F18BC4206D0296828468A6852
:105F900014F8011B9047F6E73046F8BD3410002096
:105FA00010B50C4B012293F822408CB193F823409A
:105FB0001F2C02D94260002010BD93F824001C1849
:105FC00084F82510411CC8B283F8240083F823000C
:105FD000104610BD3410002000224260024A4FF4E7
:105FE0007A7181600260704778CC00087047704712
:105FF000014B93F8590070473410002073B50E4CD4
:10600000002104F164050D4E0B4600910A46284616
:1060100000F038F86C3432460949284605F0D2FAC7
:106020002046FFF7D9FF07492046324602B0BDE8B7
:10603000704005F0C7BA00BF34100020A40D002046
:1060400035510008555F00082DE9F041002407464E
:106050000E4625463B1919790A22304600F0C9F848
:106060002E218046304600F07CF801344044032C59
:106070000544EFD13046F9790A2200F0BAF8281821
:10608000BDE8F08130B58371044D9DF80C300446B5
:10609000056001714271C37130BD00BFA0CC000822
:1060A00005480021054B017141718171C171044A9C
:1060B0000449036005F086BAB0100020A0CC0008A7
:1060C000A40D00203551000813B5084C00210091A3
:1060D0000A460B462046FFF7D5FF0549054A2046EC
:1060E00002B0BDE8104005F06DBA00BFB810002046
:1060F00035510008A40D0020014B0360704700BF1C
:10610000B8CC0008F8B506460C468F180025BC42EE
:1061100007D0336830469A6814F8011B90472D1851
:10612000F5E72846F8BD0000034B10B504460360B0
:10613000FFF788FC204610BDB8CC000838B50546EE
:106140000C46084641B105F081FF2B680246DB682A
:1061500028462146984738BD38BD08B5FFF7EEFF01
:1061600008BD08B503689A68904708BD38B50D2189
:106170000546FFF7F6FF0A2104462846FFF7F1FF20
:10618000001938BD38B50446FFF7D8FF054620464C
:10619000FFF7ECFF281838BD70B500238AB08DF8E2
:1061A0002430012A98BF0A220DF12303B1FBF2F536
:1061B00005FB1211CCB2092C1E4601D8303400E088
:1061C0003734E4B203F801492946002DEED13146B7
:1061D000FFF7B4FF0AB070BD10B5044622B90268DB
:1061E000C9B29268904710BDD2B2BDE81040FFF727
:1061F000D3BFFFF7F1BF000013B5084C0021009199
:106200000A460B462046FFF73DFF0549054A204652
:1062100002B0BDE8104005F0D5B900BFC81000209D
:1062200035510008A40D0020014B587D704700BF78
:10623000D01000207047000013B5084C00210091D9
:106240000A460B462046FFF71DFF0549054A204632
:1062500002B0BDE8104005F0B5B900BFE81000205D
:1062600035510008A40D002013B5084C0021009101
:106270000A460B462046FFF705FF0549054A20461A
:1062800002B0BDE8104005F09DB900BFF410002039
:1062900035510008A40D0020014B0360704700BF7A
:1062A000B8CC00080369186C596C421A02F03F0020
:1062B00070470369196C5A6C914202D0586C185C93
:1062C00070474FF0FF3070470369196C5A6C914268
:1062D00007D0586C596C185C4A1C02F03F01596495
:1062E00070474FF0FF30704770B504460E462C489B
:1062F00040F2277104F0DAFA20B963691A6C586C1D
:10630000824211D161690D6C6B1C03F03F0560691D
:10631000426C95420FD0EFF31081CA0732D5036C5F
:10632000426C934207D12DE01D4840F227710122B3
:1063300004F094FAE6E71A4840F2277104F0B6FA3E
:106340000028E4D01648802104F0AAFA0028DED004
:106350000022134840F2277104F080FA63695A6CF6
:10636000501C995C58640E4804F092FA61690C481C
:106370004B6C03F03F024A6440F22771012204F0A3
:106380006DFAC4E7016C4654606940F227710564F8
:106390000125257602482A4604F060FA284670BD99
:1063A00000440040436910B50446196C5A6C914290
:1063B000FBD1207E10B90023237610BD0348402175
:1063C00004F06EFA0028F4D0F5E700BF0044004066
:1063D000034B10B504460360FFF734FB204610BDA5
:1063E000B8CC00082DE9F341074601208846014654
:1063F00003F036FF01214FF4003003F03DFF07208A
:106400002623002601258DF8050001A8194C8DF8DA
:1064100004308DF806608DF8075003F059FB122008
:106420002946FFF789FC13200421FFF785FCC4F8F7
:106430000080A680B046E6802681A6810E4E0C2103
:1064400061813046214604F0A5F9304640F22551DD
:106450002A4604F003FA304640F227712A4604F037
:10646000FDF93046294604F0EDF9257487F81880C7
:10647000BDE8FC81FC1000200044004010B51E481F
:1064800040F2255104F012FA78B11B4804F004FAE6
:106490001A4BC0B25A6D511C01F03F02996D8A42ED
:1064A00003D0596D5A6559180875134840F2277181
:1064B00004F0FCF9F8B1114CD4F89C00D4F8A030E9
:1064C000984207D10C4840F227710022BDE81040E5
:1064D00004F0C4B9D4F8A0002218431C92F85C1050
:1064E0000548C4F8A03004F0D3F9D4F8A01001F0A6
:1064F0003F00C4F8A00010BD00440040FC10002084
:10650000014B187C704700BFFC100020F7B5164CFB
:10651000002504F1A406154F2B4629462A4600956E
:106520003046FFF7AFFD3A463046114905F04AF8CC
:1065300004F114010F4804F15C02C4F8BC100E49C8
:106540004FF47A73C4F8AC00C4F8C02004F1AC0076
:106550003A46C4F8B050C4F8B43084F8C45003B01C
:10656000BDE8F04005F02EB8FC100020A40D00207E
:1065700035510008D0CC00089962000870474FF0F0
:10658000FF307047014B0360704700BFB8CC000874
:10659000034B10B504460360FFF754FA204610BDC4
:1065A000B8CC0008084608B5FFF78AF9012008BDF5
:1065B00008B5FFF751F908BDFFF762B90022426044
:1065C000024A4FF47A71816002607047F8CC00088B
:1065D0000846FFF729B9000037B50D4C00210D4DD5
:1065E0000B4600910A462046FFF74CFD2A460A4911
:1065F0002046083404F0E6FF2046FFF7DFFF074996
:1066000020462A4603B0BDE8304004F0DBBF00BF9F
:10661000C4110020A40D0020355100088565000834
:106620007047000037B50B4C00210B4D0B46009115
:106630000A462046FFF726FD2A462046074904F071
:10664000C1FF074904F108002A4603B0BDE8304005
:1066500004F0B8BFDC110020A40D00203551000863
:10666000216600080023036018467047002303607A
:1066700018467047002303601846704748F202022C
:10668000904210B523D00EDC99284DD0511E88427F
:106690005FD1304C0123A370FFF71AFC00F5EA40EC
:1066A0003030606010BD48F28003984207D0B0F5EA
:1066B000084F3DD048F2100290424AD121E02548CF
:1066C000254B01210022017041701A7010BD214C30
:1066D000A07860B1FFF7FCFB00F5EA4130314FF4E0
:1066E0007F40616002F072FAE72002F0EBFA194B8A
:1066F00000229A701A725A729A72DA721A735A7364
:1067000010BD087D134960B9012248604FF47F40F5
:106710000A720A7302F05AFAE720BDE8104002F04C
:10672000D1BA00230B7210BD0A4901228A7310BD31
:106730000846002100F0EBFD0121044600F02EFE8A
:10674000064801688C4204D1024B0022DA729A7228
:106750005A7210BDE81100206401002008000020DA
:10676000034B01225861034899610270704700BFD2
:10677000E8110020640100201FB54FF0000C0A232F
:106780004FF461514FF461628DE80E10054B44F6F1
:1067900020621A60684601A902AA03AB01F0B8FAA8
:1067A00005B000BD801200201FB5002300930193A7
:1067B0000293039301A8694602AA03AB01F070FAA1
:1067C00005B000BD024B1A6818601046704700BF44
:1067D0008012002030B53F4C85B0206302F04AFDA6
:1067E00002F08AFC3C4B3D483D493E4A00930190F3
:1067F0003D4B029103923D493D4A3E4801F01AFD4E
:10680000642002F083F80125002001F02BFD84F8BC
:106810002D5048F244200025257301F011FE364B1F
:106820001888012832D00E2010212A4604F11C03BA
:1068300001F0C4FA102829D1304B1878A0B9254CA2
:10684000217F19B9012284F82E200DE0607F58B90C
:106850000146012201F0B6FD0121234603F81D1F68
:106860000E200A4601F0D6FA244B1878002829D1C8
:10687000184991F82E202AB3214801F0FDFAFFF7BC
:1068800093FF05B0BDE83040FFF776BFFF2001F071
:10689000BDFD00210E2001F009FB10210E2001F0AA
:1068A00005FB00211022174805F05CFA1021002298
:1068B0000E20144B01F0AEFA0F4A0021118002F0B5
:1068C0001FFEB9E74FF47F4002F080F9E72002F0A5
:1068D000F9F9D1E7E8110020B1910008C59100084D
:1068E0003192000859920008756600086566000834
:1068F0006D6600087D660008A60200206401002085
:106900001C120020041200202DE9F7439F4C03F0D5
:10691000F7FB0023A36394F83C0048B994F83D10BA
:1069200031B962686AB3FFF7D3FA6768B84228D30F
:10693000964F97F82D00002840D00025BD707D604F
:106940003D723D6487F83C50012687F82D507D72DA
:10695000BD72FD727D7301F0BBFC6FF07F403E7332
:1069600002F034F9E72002F0ADF9642001F0CEFF27
:1069700097F82E1011B3284601F074FC87F82D60AB
:106980001CE0824C94F82D30C3B98148017829B9B4
:10699000FFF79EFA00F5EA423032626000207B4F3A
:1069A00001F060FC012400234FF47F4087F82D4064
:1069B0003B7302F00BF9E72002F084F9744F3A7848
:1069C0002AB1724D2E7A16B96B69002B69D16F48C6
:1069D0004178012914D1027A012A11D18478012C3D
:1069E0000ED103246B4805F031FB6A4982B20120C5
:1069F00001F0EAFB631E13F0FF04F3D16348447017
:106A0000624C94F8441031B9617A002963D1A27ABA
:106A1000002A60D1B6E0227AFAB194F83D30E3B9A9
:106A2000607A002861D018E0234603F81F1F0E206B
:106A30000121032201F0EEF9544C00254FF6FF70BE
:106A4000257302F0C3F8E72002F03CF9FFF7E2F803
:106A5000A8426FDB2564012363724C4C607A0028E6
:106A600000F09080A17A002940F08C80FFF734F884
:106A7000002813D002DA4FF47F0007E0012801D18B
:106A8000454803E0022803D14FF0FF1002F09EF8C2
:106A9000E72003B0BDE8F04302F014B90122A2726E
:106AA00070E03146324630466E6001F08BFCD5F81E
:106AB0001480404605F0CAFAAD698146284605F0C3
:106AC000C5FA00950190414603204A46334601F03D
:106AD00015FC3E707BE7FFF78DF82C4B0020D87239
:106AE000987258724FF47F40D0E7642001F00EFF97
:106AF00004F1450001F050F9657B002D9CD04FF466
:106B00007F0002F063F8214C617B00298CD0E720E4
:106B100002F0D8F84FF4FA7001F0F8FEE72002F026
:106B2000DFF84FF4FA7001F0F1FE657B6B1ED8B20E
:106B30006073E8E794F83C2022BB236C581C0228C1
:106B4000206402D1012184F83C10FFF721F80028CD
:106B50000E4C09DA236C581C0228206402D1012152
:106B600084F83C10022200E003226273074C0E20DE
:106B7000627B234603F81F2F0121032201F04AF90B
:106B8000002369E703B0BDE8F08300BFE8110020EF
:106B900064010020680100200060FF0013B5084C6C
:106BA000002100910A460B462046FFF76BFA054983
:106BB000054A204602B0BDE8104004F003BD00BF06
:106BC0006812002035510008A40D0020704708B558
:106BD000012002F0DBFEFEE708B5032002F0D6FE3E
:106BE000FEE708B5042002F0D1FEFEE708B5052057
:106BF00002F0CCFEFEE770477047704708B502F020
:106C000039FDBDE80840FEF74FBD000008B5024B56
:106C10000BB1AFF3008008BD0000000008B5024BC7
:106C20000BB1FFF72BFC08BD7D64000808B5024BD3
:106C30000BB1FFF7DBF908BDED5F000808B5024BAB
:106C40000BB1FFF7D4F908BDEF5F000808B5024BA0
:106C50000BB1FFF7EFFA08BD3562000808B5012057
:106C600003F098F838B1012003F0A4F8024B13B1F7
:106C70000020AFF3008008BD0000000008B502202E
:106C800003F088F838B1022003F094F8024B13B1F6
:106C90000120AFF3008008BD0000000008B504200B
:106CA00003F078F878B1042003F084F80020064B54
:106CB0000146188002F0C2F8044810210122BDE804
:106CC000084003F01EBD08BDA0120020002C0140AA
:106CD00008B5082003F05EF838B1082003F06AF820
:106CE000024B13B10320AFF3008008BD0000000089
:106CF00008B5102003F04EF838B1102003F05AF810
:106D0000024B13B10420AFF3008008BD0000000067
:106D100008B5202003F03EF838B1202003F04AF8EF
:106D20000E4B13B10520AFF30080402003F032F882
:106D300038B1402003F03EF8084810B10620AFF308
:106D40000080802003F026F838B1802003F032F86C
:106D5000024911B10720AFF3008008BD0000000018
:106D600008B54FF4005003F015F840B14FF400504F
:106D700003F020F8174B13B10D20AFF300804FF450
:106D8000804003F007F840B14FF4804003F012F860
:106D9000104810B10E20AFF300804FF4004002F015
:106DA000F9FF40B14FF4004003F004F8094911B174
:106DB0000F20AFF300804FF4006002F0EBFF38B11A
:106DC0004FF4006002F0F6FFBDE8084001F028BD76
:106DD00008BD00BF0000000008B50F48102103F0F7
:106DE000C9FCC0B10C48102103F0CFFC002002F018
:106DF000D7F828B9094B1A880A3290B2188008BD12
:106E000010210548002203F07CFC00200121BDE890
:106E1000084002F013B808BD002C0140A012002069
:106E200008B5012003F09CFA50B1012003F0AAFA42
:106E3000044B0BB1AFF30080BDE8084003F074BA17
:106E400008BD00BF0000000008B5022003F088FA6A
:106E5000B0B10C4B00224FF400301A7002F0AAFFC0
:106E6000012003F077F910B1012003F07DF903F060
:106E70005BFA022003F086FABDE8084003F054BA3A
:106E800008BD00BF2512002001F05ABC00F062B816
:106E900038B514490B78012B23D1134A13680BB969
:106EA0000B7038BD114C402B206881B205D94030A1
:106EB000403B20601360402504E09DB2C3180020D1
:106EC000236010600A4A5018C0212A4604F01EFAB6
:106ED0000120294604F024FB0120BDE8384004F0DD
:106EE0008DBA38BD900D0020980D0020940D002023
:106EF000900C0020094908B50020094B01220880A8
:106F000003201A7004F038FB064B0246188006482E
:106F10004FF48871BDE8084004F00FBA480C002017
:106F2000440C0020460C00204A0C0020074B186837
:106F3000052809D1064B1A68511C052A196003D18E
:106F400000201860FEF7DABC704700BFC8120020AE
:106F5000741200203A4A38B511683A4B88B23A4D5B
:106F600018801C882988214001F4007084B244B143
:106F70004FF6FF5515609A78511CC8B29870FFF70C
:106F8000D5FF304C304B25881A882A4002F4004146
:106F900088B225461C4608B104F0F2F82A882388F6
:106FA000134003F4806188B230B1254B27494FF676
:106FB000FF321A6048688047224A234B11881B8899
:106FC000194001F4005081B219B11D494DF6FF700E
:106FD00008601288134003F4805398B230B1184A05
:106FE0004EF6FF711160002002F08CFC154B164923
:106FF00018880A88024002F4006398B260B114490C
:107000000A7812B102F05EFC02E0022002F07AFC83
:107010000B4B4FF2FF7018600A490B480A8803882F
:10702000134003F480718AB242B1054B4FF6FF6002
:1070300018600720BDE8384002F064BC38BD00BFCE
:10704000445C004078120020041C0020FC01002059
:10705000C8020020034B987A10B1034905220A6048
:10706000704700BFE01B0020C8120020014B042223
:107070001A607047C8120020034B1A78202A01D1E9
:1070800000201870704700BF7C120020704700007D
:10709000212810B508D111480368197801F07F0242
:1070A000212A11D0022010BD2028FBD10B4B1968DA
:1070B0000A780B4902F07F030A4A212B0CBF0B46CA
:1070C000002310700BB9EDE7074B044C2068002437
:1070D0008361448220469847204610BD001C002052
:1070E000397100087C12002021710008074B1968D3
:1070F0000A7802F07F03212B05D1022801D100205C
:1071000070472228FBD00220704700BF001C0020DF
:1071100009B1022070470128FBD8084670470000DB
:1071200020B9034B082219680A827047014870474A
:10713000001C0020C401002020B9034B082219685C
:107140000A82704701487047001C0020C4010020DB
:10715000054B1968CA78042A04D8044B03EBC20112
:1071600003F08EBD00207047001C0020CC010020E1
:10717000014903F085BD00BFEC010020014903F087
:107180007FBD00BFF4010020334A344BD179186829
:1071900010B5002441728472C472204604F0E0F8F5
:1071A00020464FF4007104F0E3F81021204604F06B
:1071B000EBF84021204604F087F98021204604F0B6
:1071C00073F9204604F03CF9254B204693F86410EF
:1071D00004F0B4F9204604F022F90120214604F01D
:1071E000C7F80120C02104F05FF90120202104F03C
:1071F000CBF80120214604F0E4F802204FF4C061EE
:1072000004F0B6F802204FF4807104F04DF902202A
:10721000214604F0D6F80220202104F0B5F803201E
:10722000214604F0A5F803204FF4887104F04CF9CE
:107230000320402104F082F903204FF4405104F070
:10724000C0F80320214604F09FF8204603F02AFFEF
:10725000044A0120106010BD74CD0008001C0020FD
:10726000C4010020C812002010B5FEF793FB054BA7
:1072700000241868847202F00DFB04F093F90249AF
:107280000C6010BD001C0020C8120020002100F07E
:1072900004B80E4B5B58435004310D480D4B421857
:1072A0009A42FFF4F6AF0C4A00F003B8002342F80C
:1072B000043B0A4B9A42FFF4F9AF02F06DFAFEF775
:1072C0006DF9FEF7A3FBFEF7A7F970477CD0000825
:1072D000000000201C0B00201C0B0020101C0020B4
:1072E000FFF7FEBF01700B0A0A0C090E4370827093
:1072F000C170043070470170090A41700230704754
:1073000043185A78405C00EB022188B2704710B5F0
:1073100043189A78DC78415C120402EB04625878D6
:10732000521802EB002010BD73B544790023022CE3
:1073300001930FD0032C19D0012C2BD1164D2869A5
:107340002E4620B1296901A888470246B8B9B1681C
:1073500001201BE0104DE8682E4620B1E96801A825
:107360008847024658B9B16802200FE00A4D6A69A1
:107370002E464AB16B6901A89847024620B1A96818
:107380002046BDF8043003E0B16803200022134614
:1073900000F022FC7CBD00BF48130020072830B558
:1073A00012D8012910D8EFF3108472B6012505FA1E
:1073B00000F501FA00F0054B1A6822EA05020243C3
:1073C0001A60E30700D462B630BD00BF540200204B
:1073D000F0B5012187B00546FFF792FF00F4804326
:1073E000044698B250B3B4F5824F27D12846052100
:1073F000FFF786FF0026074607353446BE4208D011
:1074000028460221FFF77CFF013624180435B6B266
:10741000F4E7744B188E21188AB21A86D86B241898
:10742000DC63D96B9A6B914240F0CE8093F84000B8
:10743000002800F0C9809B69992033E024F4FF41C3
:1074400021F07F0290B2002800F09B8048F21002E9
:1074500094422AD00CD8B4F5004F40F2C08048F2D4
:1074600002039C4217D9991C8C4240F0B88012E06C
:1074700048F2800084420ED005D848F2400294427F
:1074800040F0AD8051E0B4F5024F04D0B4F5084FA0
:1074900040F0A5806CE053498869002800F0948092
:1074A0008B69204600210A4669E00023EA185179D9
:1074B0000DF803100133042BF8D1687A2B7BAA7ADC
:1074C000E97A8DF804008DF807308DF805208DF8E5
:1074D000061005F10D00002306AAD218C15C013385
:1074E000042B02F8101CF7D105F11100002306AAA5
:1074F000D218C15C0133042B02F80C1CF7D105F142
:107500001500002300AAD218C15C0133042B1174AA
:10751000F8D1344928798A698DF81400002A53D0AB
:107520008B6920466946152229E005350021284649
:10753000FFF7EDFE042100902846FFF7E8FE082142
:1075400001902846FFF7E3FE0C2102902846FFF742
:10755000DEFE102103902846FFF7D9FE214B049050
:107560009969002930D09B6920466946142206E0BB
:107570001C48826942B38369691D204601229847ED
:1075800022E041F203039C4205D00C339C4202D01E
:10759000591E8C421AD16C1D04212046FFF7B7FEFC
:1075A00039301CD12D790F480021C5622046FFF7E4
:1075B000AEFE042105462046FFF7A9FE393003D16F
:1075C00028460121FFF7EAFE012009E0054A138859
:1075D00099B28C4204D0B4F5805FF5D100E0002070
:1075E00007B0F0BD4813002038B5104B5D88ADB230
:1075F000CDB158680478221F514251EB02042CB1DE
:10760000FFF7E6FE003018BF012000E020460546E7
:1076100020B944B1054B93F8412022B90348002119
:10762000418000F0A5FF284638BD00BF4813002068
:107630002DE9FF4704468946904602F023F80025CD
:107640000190BB4B5A8890B2002840F0928002F023
:1076500057FD02F017F802900298019BC21A03929C
:107660000399002903DA0198029B1A180392B14981
:1076700008680028E5D0039B8342E2D3AC4A41F27C
:107680000703118888B2984224D85A1E90425FD2CC
:1076900040F2022188425BD00DD80C2806D8082879
:1076A00056D200284DD0062852D959E00D284CD08A
:1076B00040F201220BE041F2020398424BD8B0F5B0
:1076C000805F45D8B0F5017F3FD940F20722904254
:1076D00037D13AE041F21101884236D014D841F254
:1076E0000B03984234D005D841F2090290422FD0C2
:1076F00031D82AE041F20F0188422CD028D841F23B
:107700000D0398421DD126E042F2060290421CD0A1
:1077100007D8B0F5005F14D942F20401884214D9A9
:1077200021E0B0F5804F00F0E88105D8A0F50053C6
:10773000083B012B05D808E044F20B02904200F010
:10774000DC810B2002F022F9D7E1FF202070D4E188
:107750004FF0FF3005E04FF0FF3020606060CCE17B
:1077600000202060C9E1204600213A2204F0FAFA04
:10777000C3E15E683178042940F07581304601210B
:10778000FFF7BEFD05463046FFF722FE002840F019
:10779000608141F20702771D954253D8511E8D42F8
:1077A00080F0AC8040F20220854200F0A78014D81F
:1077B0000C2D09D8082D80F0A180002D00F0498102
:1077C000062D40F29B80E1E00D2D00F0948040F208
:1077D00001239D4240F03D818DE041F2020295423D
:1077E00018D8B5F5805F00F28980B5F5017F40F2C9
:1077F000828040F207218D4240F02B8130790021B8
:1078000004F8010B3846FFF782FD01462046FFF7DA
:1078100069FD1EE141F204039D4200F08D8040F2BB
:10782000A48038460021FFF772FD0421206038460D
:10783000FFF76DFD6060083406F10D07224606F182
:107840001D016EE041F211039D4254D02CD841F24B
:107850000B02954252D01CD841F209018D424DD005
:1078600000F28F8000213846FFF751FD042120608F
:107870003846FFF74CFD082160603846FFF747FDAA
:107880000C21A0603846FFF742FD04F10C0AE060CD
:10789000DEE041F20F039D4267D035D841F20D0280
:1078A000954240F0D68047E042F206018D4222D058
:1078B00008D8B5F5005F40F2CC8042F20400854262
:1078C00019D987E042F208029542C0F0C280501CEC
:1078D000854210D944F20B018D4240F0BA80737991
:1078E000DFF84CA038460121AAF83030FFF708FD38
:1078F000AAF83200ADE037792770AAE038460021B7
:10790000FFF705FD2060A4E000213846FFF7FFFCEB
:10791000A2464AF8040B04213846FFF7F8FC6060E1
:1079200096E057F8040B8F4242F8040BF9D190E02F
:10793000481300208012002000213846FFF7E7FCA2
:10794000042120603846FFF7E2FC082160603846D9
:10795000FFF7DDFC04F1080AA060E46814F13903C4
:1079600076D10121FFF71AFD72E000213846FFF7BA
:10797000CEFC042120603846FFF7C9FC6060083463
:1079800067E0307920713F68276062E03846002167
:10799000FFF7BDFC042120603846FFF7B8FC082142
:1079A00060603846FFF7ACFC0A21A0603846FFF75C
:1079B000A7FCC4F80A000C3406F11103274606F1AF
:1079C000350253F8041B934247F8041BF9D1188879
:1079D00038803EE00023F7187A79E2540133042B13
:1079E000F9D106F109000022815CA7180132042AAE
:1079F0003971F9D106F10D000023C15CE71801339C
:107A0000042B3972F9D106F111000027C15DE2198A
:107A10000137042F1173F9D106F115000023C15C61
:107A2000E2180133042B1174F9D106F11907002271
:107A3000B85CA1180132062A0875F9D106F11F07B2
:107A40000023F85CE1180133202B8876F9D100E09F
:107A500054462C48028891B28D4235D100230380D0
:107A600080F8413030E0DF8EBBB26BB3304603218B
:107A700096F802A0FFF744FC0746B9F1000F0BD0BF
:107A80000421701DFFF743FC06F115010246C8F8FA
:107A90000000484604F0B8F8CAEB07077A1EB2F5B2
:107AA000806F07D20AF10501204671183A4604F0AA
:107AB000ABF801E04FF0FF37B8F1000F01D0C8F884
:107AC0000070104B0020D8860E4F0020788000F008
:107AD0004FFD3278042A05D1B5F5805F02D13046DA
:107AE000FFF722FC39888BB2002B7FF4AAAD054842
:107AF000C28E91B200297FF4A4AD002004B0BDE88D
:107B0000F08700BF4813002007284FF001030ED86C
:107B1000EFF3108272B603FA00F006490B681842C0
:107B20000CBF00200120D10702D462B6704718466E
:107B3000704700BF54020020034B18800846002104
:107B40000A46FFF775BD00BF4813002010B5034B70
:107B50000124DC86BDE81040FFF76ABD4813002011
:107B600038B50346154601224A710C46881D194650
:107B7000FFF7C1FB291D0570204600F067FD0020BE
:107B800038BD38B5BDF814500C469B18A071E818E4
:107B900085B202216171E271294604F10800FFF704
:107BA000AAFB6A1D204691B200F050FD002038BDAE
:107BB00038B59B180C469DB202216171A071E2712B
:107BC000294604F10800FFF796FB6A1D204691B292
:107BD000BDE8384000F03ABD2DE9F0471D4605F1FB
:107BE000020A032301F107091FFA8AFA88714B710F
:107BF0000C46484651461746FFF77DFBB5F57A7FA0
:107C0000804613D82946FFF776FB29464046FFF702
:107C100072FB394604F10B002A4603F0F5FFA91D5B
:107C2000204689B2BDE8F04700F010BD4FF47A76E7
:107C3000B5FBF6F10AEB410291B2FFF75CFB31466E
:107C40004046FFF758FB394604F10B00324603F07B
:107C5000DBFFA5F57A75204640F2EE31ADB2BF19D3
:107C600000F0F4FCB5F57A7F05D9A5F57A7085B2F8
:107C70004FF47A7601E02E460025A046394628F8D2
:107C8000056F4846324603F0BFFFB31C404699B229
:107C9000BF1900F0DBFC002DE4D1BDE8F087000047
:107CA000F7B51A4C1E46A468FF238DF8073000254F
:107CB000475D63190135042D5F72F9D100200D5C19
:107CC0002318013004285D73F9D10021505C63183A
:107CD000013104295874F9D104F115000021FFF78E
:107CE00001FB0022B35C83540132042AFAD12146FD
:107CF000142242F20100FFF733FF42F201000DF1BE
:107D00000701FFF719FF9DF90700FEBD481300208A
:107D10002DE9F34106460C461E4831681546D0F859
:107D200008804A1E1F46FF23122A8DF8073008F1EB
:107D3000090001D81423336021684A1E122A01D891
:107D40001423236029684A1E122A01D814232B60A9
:107D500039684A1E122A01D814233B603168FFF7A4
:107D6000C1FA2168FFF7BEFA2968FFF7BBFA396844
:107D7000FFF7B8FA4146142242F20900FFF7F0FE7D
:107D800042F209000DF10701FFF7D6FE9DF9070049
:107D9000BDE8FC814813002038B5074B42F20504CA
:107DA0000546996820460022FFF7DAFE204629465C
:107DB000BDE83840FFF7C0BE481300202DE9F3416D
:107DC000864613480D46866871461F4602ACFF235F
:107DD00006F1090004F8053D9046FFF783FA2946AD
:107DE000FFF780FA40F201254146FFF77BFA0C22AB
:107DF00031462846FFF7B4FE28462146FFF79CFE91
:107E00003846002101AAFFF7A1FE0198BDE8FC81D8
:107E1000481300202DE9F341864616480C46866833
:107E20007146984602AD4FF0FF3306F10A0045F85F
:107E3000043D1746FFF756FA0C21FFF753FA214687
:107E4000FFF750FA3946FFF74DFA4146224606F150
:107E50001A0003F0D9FE902031461022A3B2FFF79A
:107E6000A7FE40F202202946FFF766FE0198BDE812
:107E7000FC8100BF4813002037B50B4B40F20725AB
:107E80000446996800222846FFF76AFE284669469C
:107E9000FFF752FE9DF803009DF8041020706170FA
:107EA0009DF800003EBD00BF4813002037B50D4AC5
:107EB000034695680C4605F109001946FFF712FACA
:107EC000214640F20324FFF70DFA294608222046F6
:107ED000FFF746FE20460DF10601FFF72DFEBDF827
:107EE00006003EBD4813002030B585B0054601F0C0
:107EF000C9FB0190194CE36A4BB103F07BFBE16ACB
:107F000000220160E26203F075FB006823E028466E
:107F1000FFF7FAFD10B14FF0FF301CE001F0B2FBAB
:107F20000290029A0198111A0391039B002B03DA25
:107F30000198029A11180391094B03981A6890420C
:107F4000E9D20649088E83B2002BD3D00A8E501E88
:107F500083B20B86002005B030BD00BF481300205F
:107F600080120020F7B5034614480D46866819466E
:107F7000174602AC4FF0FF3206F1090044F8042D19
:107F8000FFF7B0F92946FFF7ADF941F2010539468F
:107F9000FFF7A8F90C2231462846FFF7E1FD2146FC
:107FA0002846FFF7C9FD03F025FB0199016008464B
:107FB0000021FFF7F3F90198FEBD00BF4813002030
:107FC000F7B5054610484FF0FF33876802AC2946E5
:107FD00041F20B0607F1090044F8043DFFF782F96E
:107FE000042239463046FFF7BBFD21463046FFF7F5
:107FF000A3FD03F0FFFA0199016028460121FFF774
:10800000CDF90198FEBD00BF48130020F7B50C461E
:108010000746164603F0EEFA4FF0FF33E62C0360F6
:1080200023D814480821856805F10900FFF75AF99B
:108030002146FFF757F90021A14203DA7A5C425446
:108040000131F9E704F10802D2B2294641F21000E9
:10805000FFF786FD694641F21000FFF76DFD03F062
:10806000C9FA0099019B0160336003F0C3FA00680C
:10807000FEBD00BF4813002037B5034613484FF03C
:10808000FF3284680D4604F1090019460192FFF79A
:1080900029F90821FFF726F90821FFF723F9002322
:1080A000E95CC1540133082BFAD11422214641F274
:1080B0000700FFF755FD01A941F20700FFF73CFD5E
:1080C00003F098FA019A026010463EBD4813002062
:1080D0002DE9F04F89B08A4616469B46149C0390C2
:1080E000FFF702FFDDF80CC000285CD12F4B9A6B24
:1080F000511C9963D3F80880812C08F10A0307D03A
:10810000832C0CD106F1080908F12205182709E093
:1081100008F11A05814610271390129002E00546D7
:108120008146074661461846FFF7DCF8391FFFF71E
:10813000D9F83146FFF7D6F85946FFF7D3F8832C24
:1081400005D14946FFF7CEF80821FFF7CBF8002309
:10815000B34204DA1AF80300E8540133F8E7002EBA
:10816000A8BFAD19832C0FD0139B129998B2009120
:1081700001904146E0B23A46B3B2FFF702FD832CCC
:108180000BD141F20F000AE00020139A9042EBDA83
:10819000129A115C29540130F7E741F2030005A956
:1081A000FFF7CAFC069809B0BDE8F08F481300201D
:1081B0001FB5069C0094079C019483240294FFF74A
:1081C00087FF04B010BD0000202A73B503460E4699
:1081D000144622D8124A1946956805F10900FFF79E
:1081E00081F80821FFF77EF82146FFF77BF800228F
:1081F000A24203DAB15C81540132F9E704F10C03C5
:108200002946DAB241F21100FFF7AAFC41F211004F
:1082100001A9FFF791FC019801E04FF0FF307CBD10
:1082200048130020024B01225A805860FFF7DCB946
:108230004813002010B50A4CE16022616361029B83
:108240000399E361049A059B216262620021A362A3
:10825000A061012084F8400084F8411010BD00BFE7
:108260004813002070B5174B174D002406461748D9
:10827000AC63EC632C802C866C86AC86EC86EC625E
:108280006C806C60AB6000F03BF9A968A64214BF3B
:108290000226264601224E724FF48040FFF760FC12
:1082A00021464FF48040FFF747FCA968224644F27C
:1082B0000B00FFF755FC44F20B002146BDE870406F
:1082C000FFF73ABCB41300204813002025820008B1
:1082D00038B5094C0020A36A98472546E869064C42
:1082E00080470028FAD0A16809B10022A260BDE849
:1082F000384000F02DB900BF481300202DE9F04FA1
:1083000083462F4885B0D0F80890144600259A4639
:1083100088464FF0FF331C2109F1090001930F9E9D
:108320000E9F0295ADF80C50FEF7DCFF2146FEF7DC
:10833000D9FF5946FEF7D6FF04F11001FEF7D2FF30
:108340003146FEF7CFFF2946FEF7D5FFBAF1000F01
:1083500008D01AF8052042550135062DF9D106300E
:10836000002207E0534602AA995CC1540133062B50
:10837000F9D1F4E7A24204DA18F80210815401326C
:10838000F8E7002CA8BF00193EB100232FB1B3427B
:1083900003DAFA5CC2540133F9E71C34A319DAB2E8
:1083A00049460120FFF7DCFB01A90120FFF7C4FBD0
:1083B00003F020F901990160084605B0BDE8F08F8F
:1083C00048130020F7B503460F480E468568194646
:1083D000174602AC4FF0FF3205F1090044F8042DB6
:1083E000FEF780FF3146FEF77DFF3946FEF77AFF44
:1083F00029460C220420FFF7B3FB04202146FFF797
:108400009BFB0198FEBD00BF4813002037B50B4B06
:1084100001469D6802AC05F10900FEF763FF4FF0CD
:10842000FF3044F8040D294604220620FFF798FB8C
:1084300006202146FFF780FB01983EBD481300202F
:1084400037B548F2080248F2080102408A42034662
:1084500013490BD10020934281F840001FD023F430
:10846000004424F0080545F4004302E0012081F8AF
:1084700040000B494FF0FF328D6802AC194605F100
:10848000090044F8042DFEF72DFF29460422082098
:10849000FFF766FB08202146FFF74EFB01983EBD23
:1084A0004813002000F0010383F0010003B962B615
:1084B00070470000F8B50446EFF3108772B60E4E11
:1084C000337A9C4209D0052C01D0012506E00B48E7
:1084D000C16988470028F8D1347200253846FFF773
:1084E000E1FF054B15B15A69002AE5D05869D0F172
:1084F000010038BF0020F8BD9C1300204813002065
:108500000F4B10B500220F490F4C1A721961DA8017
:10851000DA609A801860A36A104698470B4800F00A
:10852000FDF9206A80474FF47A7000F0F7F90120D6
:10853000A26A90470120BDE81040FFF7BBBF00BF13
:108540009C130020B417002048130020E09304007F
:1085500010B5054C636A98470020A16A8847034814
:108560000022026110BD00BF481300209C130020B0
:10857000024B4FF480725A60704700BF00E100E088
:108580002DE9F84307460E4614461D46EFF31080CA
:1085900072B6DFF88080A4B298F80890FFF782FFE7
:1085A000002000F0EDFD012037B93146224600F0F1
:1085B0006FFD3846154906E0D8F81010224600F045
:1085C00067FD00203146224600F062FD104802217E
:1085D000012201F07CFB012000F0D2FD9DB1EFF300
:1085E000108072B60B4C257AFFF75CFFA945234635
:1085F00002D16269002AF2D05869D0F1010038BF77
:108600000020BDE8F8832846BDE8F8835802002022
:10861000580002409C130020CB074CBF0B464B1C5C
:1086200010B5C3F3072444700024C4700471054CD2
:1086300001220270837084F84120034AD060918047
:10864000581D10BD481300209C1300202DE9F04157
:1086500004460D46EFF3108072B6384E377AFFF7B6
:1086600021FF17B1012F2AD104E00120FFF722FFDB
:1086700000285FD0EFF3108872B60321377A317289
:1086800000F0A8FE4046FFF70DFF20462946FFF701
:10869000C3FF0646002F4DD0322000F03FF90120E5
:1086A000214604220346FFF76BFF002842D0322008
:1086B000B5B200F033F90120211D2A1F30E002205D
:1086C000FFF7F8FE002835D0EFF3108772B61B4B8A
:1086D0001E7AB21E504250EB020656B1EFF31088DC
:1086E00072B604211A7A197200F074FE4046FFF740
:1086F000D9FE3846FFF7D6FE104B16B95A69002A44
:10870000E2D05869B0B920462946FFF785FF0646F2
:108710000520FFF7CFFE68B1B5B2012021462A46F9
:108720000346FFF72DFF002814BF28464FF0FF3007
:10873000BDE8F0814FF0FF30BDE8F0819C130020D0
:1087400070B54FF4003001F0CBFA324C05464FF4CF
:10875000005001F0C5FA237AD91E052954D8DFE864
:1087600001F03D533D53032A002D52D0002850D034
:108770004FF4083001F0C2FA082020722469B4F8DE
:108780000320C2F3072343EA02218CB2002C40D01D
:10879000E10701D4601C84B2B4F5806F02D90A20CD
:1087A00001F0F4F81B4A0020116903462246BDE897
:1087B0007040FFF7E5BE00282BD04FF4083001F0E1
:1087C0009DFA154B02204FF480722072C3F884206A
:1087D00000F0E6FC21682069884770BDCDB10F48E4
:1087E000802101F012FE0028F9D10A4C4FF4083024
:1087F00001F084FA237A032B01D1052102E000F075
:10880000CFFC0221217270BD0B20BDE8704001F049
:10881000BDB870BD9C13002000E100E000380040AE
:108820000E4B70B5D86980470546B0B90C4C217A1B
:10883000022904D004290ED079B901220CE00723C3
:10884000237200F0C7FD2169284605222B46BDE8AA
:108850007040FFF795BE0522227270BD48130020BC
:108860009C130020BFF34F8F054A064BD16801F4DB
:10887000E06040EA0301D160BFF34F8FFEE700BF25
:1088800000ED00E00400FA050D4B0E4A197839B9E5
:10889000D88881B21187188981B291879B8806E0B8
:1088A000D88981B21187188A81B291879B8906483D
:1088B0009BB29386FF21632202704170704700BF14
:1088C00084120020002C0140600200204FF4407010
:1088D00001F0F4B80A4B4FF47A701A68094BB2FBF6
:1088E000F0F109484A1EF0215A6080F82310002256
:1088F00007219A601960D02380F82330704700BFA9
:10890000B402002010E000E000ED00E0024B18602F
:108910001A68002AFCD17047C01B002007B50E4B17
:108920000E4A59680E4B009111684FF0FF32B1FBAF
:10893000F3F1B2FBF1F3984228BF1846414301918D
:1089400005484168009A019B881A984202D201F0BA
:10895000D7FBF5E70EBD00BF001000E0B402002019
:1089600040420F0030B54FF4003085B001F022FADC
:1089700008204FF40033002501248DF80D006844D1
:1089800002938DF80C508DF80E4001F0C1F90321CF
:1089900001A88DF804108DF805108DF806508DF89B
:1089A000074001F095F8042329220DEB03008DF810
:1089B00004208DF805308DF806508DF8074001F041
:1089C00087F8022001F0C6FB50B1022001F0CCFB79
:1089D00001F0B4FC24204FF6FF7101F0B7F827E056
:1089E000242001F0C1F84AF2A551884201D101F0DA
:1089F0009DFB012001F0C6FB412001F049FC00284D
:108A0000FAD04FF4807001F0CDFB012001F0D2FBD1
:108A100001F094FC01F088FC0320012101F054FCDA
:108A200001F082FC47F6FF7001F06EFC01F07CFC67
:108A300005B030BD10B5044645F2555001F04EFB6F
:108A4000062001F051FB2820604340F6FF73010A25
:108A5000994228BF194688B201F04CFB01F050FB47
:108A6000BDE8104001F054BB082814D8012908D1F2
:108A70000B490C4A01EB8003596832F81000086179
:108A80000BE051B9064B074A03EB80014B6832F803
:108A90001000586101E0FF2300E0002358B2704746
:108AA00060020020CCCD000873B50E4E850073190E
:108AB00004460121186901F0D3FB0B4B36F8140072
:108AC00010215D19ADF804008DF8071003226868C5
:108AD00001A98DF8062001F08DFA20460021FFF74C
:108AE000C3FF7CBDCCCD00086002002070B5012121
:108AF00088B04FF4006001F0B3FB314B31481C6883
:108B00006026B4FBF0F1304C01A88DB201F0CCFD31
:108B100001A801F0C9FD42F20F7201A9ADF804509D
:108B200020460025ADF80820ADF80A50ADF80650F3
:108B300001F072FC04A801F0C0FD0223ADF8106042
:108B40002046012604A9ADF81830ADF81260ADF842
:108B50001650ADF81C5001F0A9FC2046294601F042
:108B6000E5FD204604A901F0E5FC2046294601F078
:108B7000E5FD204604A901F021FD2046294601F02B
:108B8000E7FD204604A9ADF81050ADF81260ADF82D
:108B90001650ADF8185001F053FD2046294601F05B
:108BA000DFFD2046314601F0B5FD2046314601F09B
:108BB0008EFD2046314601F096FD08B070BD00BF25
:108BC000B402002040420F00002C014030B5104993
:108BD000104A8C8D92F82420A5B26C1C5443C0F32B
:108BE00007456C430C4B240CDC808D8D5861ACB276
:108BF00001345443C0F307256C43240C1C81898D38
:108C0000C0B289B2013148434243120C9A8030BD50
:108C1000002C0140600200208412002030B5104971
:108C2000104A8C8D92F82420A5B26C1C5443C0F3DA
:108C300007456C430C4B240CDC818D8D9861ACB2E4
:108C400001345443C0F307256C43240C1C82898DE6
:108C5000C0B289B2013148434243120C9A8130BDFF
:108C6000002C01406002002084120020024B0022F0
:108C70001A70FFF709BE00BF8412002037B50F4DF0
:108C8000044605EB8003186B012105EB440501F058
:108C9000E7FAB5F84000ADF804000CB9102100E087
:108CA0001821074B8DF8071003EB84040322A06AF8
:108CB00001A98DF8062001F09DF93EBDCCCD00083C
:108CC0006002002018B1E72807D1FFF7DDBD034B94
:108CD0004FF40052986A02617047704760020020AA
:108CE00058B1E7280FD1084A002308481387938713
:108CF000938601220370427005E0044B4FF400504C
:108D0000996A486170477047002C0140600200205A
:108D1000024B0122E7201A70FFF7E2BF8412002005
:108D200010B1E72840D106E020498B6ADA6882F466
:108D30000050D86070471E4A1E4B1178C1B9188F79
:108D400080B208B1198702E0D1888AB21A879B8F56
:108D5000184899B209B1002102E0154A138999B265
:108D600081871449888E82B2C2B9114B988819E064
:108D7000188F81B209B1002001E0D28990B2188722
:108D80009B8F0C499AB20AB1002202E00848038A7C
:108D90009AB28A870749888E83B20BB1002002E01D
:108DA000034A908980B28886704700BF6002002025
:108DB00084120020002C014010B51D4A13780BB915
:108DC000012102E0632B01D1FF2151705178E72886
:108DD0000B44DBB2137029D1164A6320147816496C
:108DE0007CB9D488A4B25C43B4FBF0F4A4B20C8781
:108DF0001489A4B25C43B4FBF0F4A4B28C879288CB
:108E00000EE0D489A4B25C43B4FBF0F4A4B20C87A6
:108E1000148AA4B25C43B4FBF0F4A4B28C879289A8
:108E200092B25343B3FBF0F398B2888610BD00BFF3
:108E30006002002084120020002C014073B5104C09
:108E40000E4604EB400494F84C10054694F8480094
:108E500001F02AF9B4F85040204600F095FF094887
:108E60000023451995F83810684600948DF80430B1
:108E70008DF805108DF8066000F04AFF7CBD00BF3C
:108E8000CCCD000860020020F7B5224E8700F31910
:108E90000546586D0C4640F00100012101F0E0F953
:108EA0001D4B06EB45065A1992F83A10B6F85C00CD
:108EB00002AADF198DF8031022F8080D6946F86B35
:108EC00001F098F8012C24D11021002213481B270F
:108ED00001F017FC05238DF8047001A800278DF818
:108EE00005308DF806708DF8074000F0F1FDB6F8FA
:108EF000601006208DF8050001A88DF804108DF88B
:108F000006708DF8074000F0E3FD28462146FFF784
:108F100095FFFEBDCCCD000860020020002C014072
:108F20001C4B1D495A6810B542F440705860CC681B
:108F30001A4844F080730024CB604460026842F019
:108F40000101016001214FF0C05001F095F90120AD
:108F500001F0E6F8FFF7BAFC0120014601F080F9C4
:108F6000E0B20134FFF7A0FD082CF9D1FFF7BEFDF8
:108F70000020FFF783FE0120FFF780FE0220FFF7AD
:108F80007DFE0320FFF77AFE00200121BDE810409E
:108F9000FFF77ABF002004E0F0ED00E0001000E0F1
:108FA000054A064B02EB800103EB4002C86BB2F8A6
:108FB0005C1001F06FB800BF60020020CCCD00084B
:108FC000024B03EB4000818B88B270478412002073
:108FD000024B002203EB4000828370478412002082
:108FE00010B5082086B0012101F03AF9264C4FF463
:108FF0008040012101F040F9032018214FF4005373
:109000008DF802008DF8031020466946ADF8003057
:1090100000F0F0FF4FF4004220466946ADF8002012
:1090200000F0E8FF04204FF480438DF80300694608
:109030002046ADF8003000F0DDFF0021ADF804104F
:109040004FF48272ADF80810ADF80A104FF40070BA
:10905000ADF81210A4F5544407210123ADF8062001
:10906000ADF80E000822ADF81410204601A9ADF8A5
:109070000C30ADF8102001F08FF92388034A98B224
:10908000108006B010BD00BF000C0140CE1B0020B8
:1090900070B5044601208CB00E460146154601F01D
:1090A000D3F8124B002080224FF44051012C019341
:1090B0000296059006920790089009900A910B90ED
:1090C00006D103900A48049500F05EFD084807E0C9
:1090D0004CB9102307480393049500F055FD05484B
:1090E00001A900F0C9FD0CB070BD00BF0C380040F4
:1090F000440002405800024073B50F2301240025AC
:1091000001A88DF804308DF805508DF80650174EE3
:109110008DF8074000F0DCFCFFF762FF20462A468E
:109120001349FFF7B5FF28462A461249124DFFF7AB
:10913000AFFF30460221224600F0C9FD28462146F5
:10914000224601F054F922462846022101F04FF947
:109150002846214601F03FF92146084800F0ACFDC1
:109160003046214600F0A8FD7CBD00BF58000240FB
:10917000B4170020B413002000380040440002401F
:1091800010B504462146044800F096FD03482146E8
:10919000BDE8104000F090BD44000240580002407D
:1091A00002484FF4805100F07BBF00BF000C01402B
:1091B00008B54FF40061024800F06CFF08BD00BF25
:1091C000000C014030B5092085B0012101F048F8BC
:1091D0004FF400644823694614488DF80330ADF815
:1091E000004000F007FF0B21012000F05DFF20464A
:1091F00000F0CAFD0C200294002501248DF80D001A
:1092000002A88DF80C508DF80E4000F081FD282149
:1092100001A88DF804108DF805408DF806508DF8E2
:10922000074000F055FC05B030BD00BF000C014008
:109230001FB52823002401A88DF804308DF80740BD
:1092400000F046FC4FF40060029002A88DF80E403A
:1092500000F05EFD1FBD000020B105484FF4807195
:1092600000F01EBF02484FF4807100F01BBF00BF2A
:10927000000C014013B5082001210F4C00F0F0FF55
:10928000032010214FF480538DF806008DF807104D
:10929000204601A9ADF8043000F0ACFEFFF780FFD6
:1092A0004FF48072204601A9ADF8042000F0A2FE20
:1092B0000020FFF7D1FF1CBD000C014010B50B4C86
:1092C000238823F0400001040A0C2280FFF768FF86
:1092D000074B188881B2074841F040024FF40071F3
:1092E0002280BDE8104000F0DDBE00BF0038004025
:1092F000CC1B0020000C014002484FF4007100F02C
:10930000CFBE00BF000C014070B5082086B001211F
:1093100000F0A6FF2D4C01214FF4804000F0ACFF7F
:1093200018204FF4005303268DF8030069462046A9
:10933000ADF800308DF8026000F05CFE4FF40041A3
:10934000ADF800102046694600F054FE04254FF4A5
:10935000804220466946ADF800208DF8035000F0A9
:1093600049FE4FF400751023204669468DF80330FE
:10937000A4F55444ADF800508DF8026000F03AFEB8
:10938000FFF7BAFF00204FF48271ADF80400ADF88A
:109390000610ADF80800ADF80A00ADF80C00ADF805
:1093A0001000ADF812000722204601A9ADF80E50BA
:1093B000ADF8142000F0F0FF2388054998B208802A
:1093C0002046012101F007F806B070BD000C0140F5
:1093D000CC1B002010B50B4C238823F04000010467
:1093E0000A0C2280FFF788FF074B188881B20748D4
:1093F00041F040024FF480512280BDE8104000F05F
:1094000051BE00BF00380040CE1B0020000C0140C0
:1094100007B50820012100F023FF032014214FF499
:1094200080638DF806008DF80710034801A9ADF898
:10943000043000F0DFFD0EBD000C0140002008B537
:1094400000F09AFE4FF400000121BDE8084000F052
:1094500013BF0000014B03221A607047C81200209E
:10946000044B05489A7A0AB1052100E00121016008
:10947000704700BFE01B0020C812002007B5022083
:1094800014238DF805000021012201A88DF8043075
:109490008DF806108DF8072000F01AFB0EBD0000B5
:1094A00020B105484FF4806100F0FCBD02484FF444
:1094B000806100F0F5BD00BF000C01400A4B93F83D
:1094C000200080B109490A4B0A880A48A3F84420C1
:1094D0000188094AA3F8461010880849A3F84800F3
:1094E0000A88A3F84A20704784120020004C000824
:1094F00060020020024C0008044C0008064C0008E2
:1095000010B51B4B93F8200000282FD000F058FC1A
:10951000342000F077FC174800F04EFD042824D1D9
:10952000154C1448B4F8441000F0EAFC04281BD190
:109530001248B4F8461000F0E3FC042813D1104898
:10954000B4F8481000F0DCFC04280BD10D48B4F846
:109550004A1000F0D5FC042803D1BDE8104000F00B
:109560003BBCFEE7FEE7FEE7FEE7FEE710BD00BFFF
:1095700084120020004C000860020020024C000809
:10958000044C0008064C000870B5054600F02CFCA1
:109590000B4CE064C04300EA0503AB420FD0094E18
:1095A0000543756200F00CFC00F0C6FC84F8500026
:1095B000706A00F053FC84F85000FFF753F970BD57
:1095C000600200208412002070B5064600F00CFCFA
:1095D0000C4C60EA06020132E06412D040EA060355
:1095E000094DD843686200F0EBFB00F0A5FC84F85D
:1095F0005000686A18B100F031FC84F85000FFF7A1
:1096000031F970BD600200208412002030B5A1B095
:1096100004464FF48C516846802200F053F89DF8C0
:10962000003013B1012B21D110E023709DF80330DD
:109630009DF80220180440EA02619DF805209DF87B
:109640000430114341EA0320606011E09DF80150AD
:109650007E2D0BD820460DF1020100F8043B2A466E
:1096600002F0D2FA64190021217101E0FF2020707C
:1096700021B030BD024BDA6B501CD863704700BF7D
:1096800084120020014BD86B704700BF8412002069
:1096900010B504460A48022100F0B7FE0028F9D0B0
:1096A0000748214600F0ACFE0548012100F0ADFE60
:1096B0000028F9D0024800F0A5FEC0B210BD00BFDE
:1096C0000038004070B50D4616460446FFF7F6FD1B
:1096D0000320FFF7DDFFC5F30740FFF7D9FFC5F310
:1096E0000720FFF7D5FFE8B2FFF7D2FFA519AC427C
:1096F00005D0FF20FFF7CCFF04F8010BF7E7BDE82A
:109700007040FFF7F9BD70B5FFF7D8FD9F20FFF758
:10971000BFFFFF20FFF7BCFF0446FF20FFF7B8FFA5
:109720000546FF20FFF7B4FF2D020646FFF7E4FDD4
:1097300045EA0440304370BD08B5FFF7E5FDFFF78B
:10974000BDFD0420FFF7A4FFFFF7D6FDFFF7DBFF09
:10975000104B984202D04C3B984219D1FFF7AEFD16
:109760008020FFF795FFFFF7C7FDFFF7A7FD50200B
:10977000FFF78EFFFFF7C0FDFFF7A0FD0120FFF709
:1097800087FF0020FFF784FFBDE80840FFF7B4BD66
:1097900008BD00BF8D25BF003A4B82B01A6842F069
:1097A000010018605968384A0A405A60186820F069
:1097B000847121F480321A60186820F480211960C5
:1097C0005A684FF41F0122F4FE000022586099608D
:1097D00000920192186840F480311960294B1A6890
:1097E00002F40030019000994A1C0092019818B9C7
:1097F0000099B1F5A06FF1D11B6813F4003218BFC6
:10980000012201920198012805D0204B4FF00062FF
:109810009A6002B070471E490B6843F010020A605C
:10982000086820F003030B600A68A1F5805342F03A
:1098300002000860596859605A685A60586840F4D4
:10984000806159605A6822F47C105860596841F46C
:10985000E8125A60186840F0807119601868094A67
:109860008101FBD5536823F003015160506840F03B
:1098700002035360034A516801F00C000828F9D133
:10988000C3E700BF001002400000FFF800ED00E059
:109890000020024008B50120FFF702FE064B0749F1
:1098A000012200201A601860086005494FF4E05258
:1098B0000A801A6008BD00BF405C0040445C004064
:1098C000041C0020064B1A6890B240F00801196091
:1098D0001A6890B240F004011960FFF7BBBD00BFE9
:1098E000405C004010B5064C4FF6FB7322681340F5
:1098F0002360FFF7B5FD4FF43F40206010BD00BF6F
:10990000405C00401F4B072810B518BF18701A782C
:109910001C4C052A33D8DFE802F003070C1018238B
:10992000FFF7E0FF062202E0FFF7DCFF04222270CF
:1099300010BD02215970032022E059784A1ED0B28E
:1099400058705B78EBB9042017E00F4B186881B2B0
:1099500041F010021A600A2005232370607010BDC8
:109960005878411ECAB25A705B7853B906484FF610
:10997000EF7201680A4002600620024B00E00620F8
:10998000187010BDD01B0020405C0040F8B50746A1
:1099900072B6404B53F830404FF47F00FFF716F992
:1099A000E720FFF78FF93C4810B13C48AFF3008047
:1099B000E720FFF795F9022600F0A2FB03252046D9
:1099C000FFF704F9E720FFF77DF93548FEF7A6FF1A
:1099D000E720FFF785F93348FEF7A0FF691E8DB237
:1099E000002DECD12F48FEF799FF03252046FFF705
:1099F000EDF8E720FFF766F92B48FEF78FFFE72029
:109A0000FFF76EF92748FEF789FF6A1E95B2002D11
:109A1000ECD12448FEF782FF03252046FFF7D6F855
:109A2000E720FFF74FF91E48FEF778FFE720FFF722
:109A300057F91C48FEF772FF6B1E9DB2002DECD14A
:109A40001A48FEF76BFFA8B2874210D02046FFF7F6
:109A5000BDF8E720FFF736F91348FEF75FFFE72070
:109A6000FFF73EF91048FEF759FF0135EBE71048C4
:109A7000FEF754FF013E9FD1BFF34F8F0D4C0E4AAE
:109A8000E76807F4E06141EA0205E560BFF34F8F44
:109A9000FEE700BF30CE00080000000022D0000822
:109AA000F0490200A0860100E0930400A0BB0D0075
:109AB00000350C0000ED00E00400FA0540F0BF6046
:109AC000024B40F40031D960704700BF00ED00E068
:109AD000C37810B503B3164CE168CB43C3F302243B
:109AE0004178C4F1040201FA02F10F2222FA04F2D1
:109AF0008478037822400A43110103F16043CAB21B
:109B000003F5614181F800230078012200F01F0372
:109B1000410902FA03F007E00078012200F01F0378
:109B2000410902FA03F02031024B43F8210010BD35
:109B300000ED00E000E100E021F0604121F07F0253
:109B4000014B10439860704700ED00E0054A82B079
:109B5000002301930192019BC0180190019A1160AA
:109B600002B07047006C0040064982B000230193A8
:109B70000191019A80180190019B198888B202B066
:109B8000704700BF006C004002684FF6FE73134040
:109B900003602D4B00219842016041608160C160EB
:109BA00022D02A49884229D0294B984230D02949CD
:109BB000884237D0284B98423ED0284B984206D155
:109BC00053F8681C41F4700043F8680C704724494E
:109BD000884206D151F87C0C40F0706241F87C2C30
:109BE0007047204B984206D153F8042C42F00F01E5
:109BF00043F8041C70471C49884206D151F8183CB0
:109C000043F0F00041F8180C7047184B984206D109
:109C100053F82C2C42F4706143F82C1C7047144903
:109C2000884206D151F8403C43F4704041F8400C62
:109C30007047104B984205D153F8542C42F47021D0
:109C400043F8541C704700BF080002401C0002404B
:109C50003000024044000240580002406C000240C4
:109C600080000240080402401C040240300402400C
:109C7000440402405804024070B506688C680D6ABE
:109C800026F4FF4222F070060A6945EA04034C6993
:109C900013438A692343CC6913431C434B6A44EA48
:109CA00003028B6A1A4332430260CB680A68496830
:109CB00043608260C16070BD19B1016841F0010369
:109CC00003E002684FF6FE731340036070470368B9
:109CD0000AB1194301E023EA010101607047000065
:109CE000C3004CBF034B044B196801420CBF00205A
:109CF000012070470004024000000240C2004CBF37
:109D0000014B024B586070470004024000000240C3
:109D1000837910B5002B29D01A4B01681C68CA43FF
:109D200014401C605C6822405A60027902F1804451
:109D300004F5823214682143116002689C68D143A3
:109D40000C409C60DC68407921401028D96006D125
:109D5000986810439860D9680A43DA6010BD00F132
:109D6000804303F5823319680A4308E001790068EB
:109D700001F1804202F582331A6822EA00021A6079
:109D800010BD00BF00040140014B5861704700BF87
:109D900000040140064B1A68596910EA010304D017
:109DA00010420CBF0020012070471846704700BFCA
:109DB00000040140014B5861704700BF000401409E
:109DC000034A044B02F188305A605860704700BF64
:109DD0002301674500200240024B1A6942F08000CF
:109DE0001861704700200240014B186A704700BF9D
:109DF00000200240024BD869C0F34000704700BF0A
:109E000000200240014BD860704700BF0020024094
:109E1000084BDA68D20709D4D868400708D4D96853
:109E200011F0100F0CBF0420032070470120704771
:109E3000022070470020024010B50446FFF7E8FFFB
:109E4000012806D11CB1FFF7E3FF013CF8E705202C
:109E500010BD002C08BF052010BD000010B5044641
:109E60004FF40050FFF7E8FF042842D12149224B6C
:109E700001F1883099609860E4431969E2B241F0D9
:109E80001000FF2A186104D1C4F30721FF2909D16A
:109E900010E01A4B4FF400501A81FFF7CDFF042851
:109EA0001FD1F1E7154A4FF400505181FFF7C4FF6D
:109EB000042816D1C4F30740FF2807D00F4B988120
:109EC0004FF40050FFF7B8FF04280AD1240EFF2CEE
:109ED00001D1042007E009494FF40050CC81FFF77D
:109EE000ABFF052805D0044A41F6EF7311690B401A
:109EF000136110BD230167450020024000F8FF1FD9
:109F000070B505464FF400500E46FFF795FF042844
:109F10000ED1084C236943F0010020612E804FF4DC
:109F20000050FFF789FF226941F6FE71114021615F
:109F300070BD00BF0020024038B5FFF75BFF00286E
:109F40000CBFA52500254FF43020FFF775FF04282E
:109F50002BD1164B164C03F18830A360A060216909
:109F600041F020022261236943F0400020614FF458
:109F70003020FFF761FF04280ED1216941F6DF721E
:109F80000A40226123690B4943F0100020610D80D3
:109F90004FF40050FFF750FF052801D1052038BDD0
:109FA000226941F6EF731340236138BD23016745F1
:109FB0000020024000F8FF1F38B505464FF430205E
:109FC000FFF73AFF042812D1094C236943F002003D
:109FD0002061656121694FF4302041F04002226127
:109FE000FFF72AFF216941F6FD730B40236138BD5D
:109FF00000200240CB78F0B5DA0648BF8A7809889D
:10A0000003F00F0548BF154311F0FF0F1ED0046881
:10A010000022012707FA02F707EA0106BE4211D122
:10A0200097004FF00F0C0CFA07FC05FA07F724EA2B
:10A030000C04282B44EA070401D1466102E0482BB6
:10A0400008BF06610132082AE3D10460FF2920D944
:10A050004468002202F10806012707FA06F707EA1A
:10A060000106BE4211D197004FF00F0C0CFA07FC0D
:10A0700005FA07F724EA0C04282B44EA070401D167
:10A08000466102E0482B08BF06610132082AE1D18F
:10A090004460F0BD836819420CBF00200120704766
:10A0A000016170474161704701F0030230B59200D1
:10A0B0000F2404FA02F400FA02F0074B8908023177
:10A0C00053F8215025EA040443F8214053F8214075
:10A0D000044343F8214030BD00000140014B1860AB
:10A0E000704700BF00300040014B5860704700BF10
:10A0F00000300040014B9860704700BF00300040C6
:10A10000024B4AF6AA221A60704700BF0030004096
:10A11000024B4CF6CC421A60704700BF0030004042
:10A12000014B1860704700BF20000E42074B1A68B1
:10A1300042F004001860196841F002021A60044BF2
:10A14000186940F00401196130BF70470070004089
:10A1500000ED00E0034B596808420CBF00200120CD
:10A16000704700BF00700040024B1A6842EA80004E
:10A170001860704700700040014B1860704700BFC6
:10A18000D8004242064B002201281A701A7004D0EF
:10A19000042804D10520187001E01870704770473A
:10A1A00020100240024B1A6A10431862704700BF29
:10A1B00000100240014B1860704700BF3C0442424F
:10A1C0001D4B10B55A6802F00C01042901D0082972
:10A1D00002D01A4A02600EE05C685968C4F38342F8
:10A1E000941CC90302D55B689B0301D5144900E0A8
:10A1F00012494C430460104A124B5468C4F30311D3
:10A200005C5C016821FA04F141605468C4F30224E3
:10A210001C5D21FA04F484605468C4F3C2241C5DFC
:10A2200021FA04F1C1605268C2F381329B181A7C92
:10A23000B1FBF2F1016110BD0010024000127A0082
:10A2400000093D00C9020020044B5A6909B11043BE
:10A2500001E022EA00005861704700BF0010024090
:10A26000044B9A6909B1104301E022EA00009861A9
:10A27000704700BF00100240044BDA6909B1104377
:10A2800001E022EA0000D861704700BF00100240E0
:10A290004309012B074A01D1136803E0022B0CBFCD
:10A2A000136A536A00F01F0023FA00F101F0010065
:10A2B000704700BF00100240024B5A6A42F08070A3
:10A2C0005862704700100240044B1A8892B209B1DC
:10A2D000104301E022EA0000188070470028004087
:10A2E000034B9A8890B240F010019980704700BFEC
:10A2F00000280040034A938823F0100001040B0C4F
:10A30000938070470028004010B50446FFF7E8FF2F
:10A31000044BC4F30342A4B21A819C81BDE81040EF
:10A32000FFF7E8BF00280040034B988800F02001A9
:10A330008AB2002AF8D0704700280040074A938864
:10A3400023F0080001040B0C9380044A908800F06D
:10A3500008018BB2002BF8D0704700BF00280040E6
:10A36000074B9A881B8891B210EA030206D0084076
:10A3700010F0FF0F0CBF00200120704710467047FF
:10A3800000280040034B9A8891B221EA000098808F
:10A39000704700BF002800400B8810B54C88028829
:10A3A00023438C8802F441522343CC8823430C89F5
:10A3B00023434C8923438C892343CC89098A234333
:10A3C0001A4393B20380828B22F400631A04130CA5
:10A3D0008383018210BD038819B199B241F0400313
:10A3E00003E023F040010A04130C038070478388C4
:10A3F0009BB20AB1194301E023EA01018180704751
:10A4000081817047808980B27047038919420CBFEF
:10A410000020012070470000224A038890429BB22E
:10A4200012D002F5006290420ED0B0F1804F0BD0F6
:10A43000A2F59832904207D002F58062904203D094
:10A4400002F58062904203D14A8823F070031343DF
:10A45000154A904208D002F58062904204D023F45D
:10A460004073CA889BB2134303808B880A88838514
:10A470000C4B028598420FD003F5006290420BD03E
:10A4800002F54063984207D003F58062904203D002
:10A4900002F58063984201D1097A01860122828205
:10A4A000704700BF002C014000100040038C70B5C5
:10A4B00023F001021404250C0584068C8388028B8A
:10A4C0009CB222F073052B040D881A0C26F00206AC
:10A4D00033042A434E880D891B0C3543ADB22B4300
:10A4E000134DA8420FD005F50065A8420BD005F525
:10A4F0004065A84207D005F58065A84203D005F560
:10A500008065A8420ED123F008064B898D881E4332
:10A5100026F004032B43CE898D8924F440743543FF
:10A52000ADB22C43C988848002838186038470BDC8
:10A53000002C0140038C30B523F010021404250CCC
:10A540000584038C8288048B23F0200324F4E645E1
:10A550002C040D88240C44EA05241D042B0C0D89C1
:10A5600092B243EA05134D88A4B243EA0513124D93
:10A570009BB2A84203D005F50065A84215D14D89CC
:10A5800023F080039BB243EA05134FF6BF751D40CD
:10A590008B8822F4406245EA0315ABB28D8942EA0A
:10A5A0008502CD8942EA850292B2C98882800483FD
:10A5B0000187038430BD00BF002C0140038C30B5FF
:10A5C00023F480721404250C0584038C8288848B08
:10A5D00023F4007324F073052C040D88240C2C4301
:10A5E0001D042B0C0D8992B243EA05234D8843EAE2
:10A5F0000523124D9BB2A84203D005F50065A84281
:10A6000015D14D8923F400639BB243EA05234FF62D
:10A61000FF351D408B8822F4405245EA0325ABB23A
:10A620008D8942EA0512CD8942EA051292B2C988A3
:10A63000828084838187038430BD00BF002C014069
:10A64000038C30B523F480521404250C0584038C4C
:10A650008288858B94B225F4E64215042A0C0D8875
:10A6600023F4005342EA05221D042B0C0D8992B2FB
:10A6700043EA05334D8843EA05330A4D9BB2A842AD
:10A6800003D005F50065A84205D18D8924F48044E6
:10A6900044EA8514A4B2C98884808283A0F840105B
:10A6A000038430BD002C014000214FF6FF738380EE
:10A6B0000180C18041800172704700230380438084
:10A6C0008380C380038143818381C3817047038872
:10A6D00019B199B241F0010303E023F001010A042A
:10A6E000130C03807047B0F8443029B16FEA43433C
:10A6F0006FEA53418AB201E059044A0CA0F84420A1
:10A70000704783899BB20AB1194301E023EA010132
:10A7100081817047038819B199B241F0800303E049
:10A7200023F080010A04130C03807047038B23F08D
:10A73000080213041A0C114301837047038B23F49E
:10A74000006213041A0C42EA01218BB203837047A2
:10A75000838B23F0080213041A0C11438183704782
:10A76000838B23F4006213041A0C42EA01218BB29A
:10A7700083837047038A828911EA030092B203D06F
:10A7800011420CBF002001207047C9438AB20282E7
:10A7900070470000038A30B50D460446EA8898B237
:10A7A00020F4405111432182A3892889A98823F4E8
:10A7B000B05340EA0102688923F00C010243080407
:10A7C000030C1A4391B2A181A08AAA8983B223F40F
:10A7D000407187B01143A18201A8FFF7F1FC18482E
:10A7E000A38984420CBF0498039819B200294FF042
:10A7F00019032A6803FB00F001DA510000E0910020
:10A80000B0FBF1F16423B1FBF3F21201100903FB79
:10A810001011A08900B2002806DAC9003231B1FB5C
:10A82000F3F303F0070005E009013231B1FBF3F364
:10A8300003F00F00024390B2208107B030BD00BF8B
:10A8400000380140838919B199B241F4005303E003
:10A8500023F400510A04130C83817047C1F342139F
:10A8600010B5012401F01F01A34204FA01F101D146
:10A870000C3004E0022B01D1103000E014300368EA
:10A8800012B143EA010201E023EA0102026010BDB5
:10A89000C905CA0D828070478088C105C80D704700
:10A8A000038819420CBF00200120704710B5C1F386
:10A8B0004214012201F01F03012C02FA03F201D11C
:10A8C000838903E0022C0CBF038A838A9BB2008831
:10A8D000134082B243B1090A012303FA01F0104286
:10A8E0000CBF0020012010BD184610BD10B5064C4D
:10A8F00018B9236801221A8210BD044B1868016838
:10A90000884720680A3010BD001C0020FC1B002076
:10A9100010B5064C18B9236801221A8210BD044BE9
:10A9200018688168884720680C3010BD001C002022
:10A93000FC1B002008B5234A18B9136802221A82AA
:10A9400008BD214B002012681880117811F07F019A
:10A9500013D1507A00F02002D1B209B102221A704C
:10A9600000F04003D8B2184B18B11A7842F0010138
:10A970001EE0197821F001011AE001291FD00229F7
:10A980001ED1507900F00F024FEA820110F0800FC3
:10A9900001F1804000F5B842116803D001F03002A7
:10A9A000102A03E001F44050B0F5805F01D101218D
:10A9B0001970064B186801698847034808BD184696
:10A9C00008BD00BF001C0020D21B0020FC1B002083
:10A9D000F8B5224B1C68238A267AABB9042E13D112
:10A9E0001F48017801291F490AD11F4C226894B2DF
:10A9F0001E4AA2185200136030220A80037028E019
:10AA000010260E80072624E0A58AA169AB428CBFE0
:10AA1000022604269D4228BF1D4628468847074631
:10AA2000002000F061FD2A460146384600F06EFC29
:10AA30002946002000F074FD208A638A421BED182D
:10AA400008480B4B228230214FF44052018065822E
:10AA50001A80024B18680672F8BD00BF001C002067
:10AA6000CC120020081C0020505C00400230002066
:10AA7000061C002010B50A4B0A4918684B78C278AA
:10AA800093420AD3817841B9848834B982720648E6
:10AA9000026853689847204610BD022010BD00BFD1
:10AAA000001C002050020020FC1B002038B50E4A7C
:10AAB0000E4C106823688269D978587990472168CC
:10AAC0008B7A7BB170B9087960B98D7855B9084A2D
:10AAD0001168CB68984720684279C178C2720173C7
