:020000040800F2
:1050000000500020E9780008F9710008FB710008E1
:10501000057200080F7200081972000800000000F5
:1050200000000000000000000000000023720008E3
:10503000257200080000000027720008297200088D
:105040003D7900083D7900083D7900084D7400085D
:105050003D7900083D79000889720008A9720008AE
:10506000C9720008FD7200081D7300083D79000830
:105070003D7900083D7900083D790008B5740008C5
:105080003D7900083D790008397200083D79000833
:10509000B97400083D7900083D7900083D730008A7
:1050A0003D7900083D7900083D7900080574000845
:1050B0003D7900083D7900083D79000859720008E3
:1050C000697200083D7900083D790008797200088E
:1050D0003D7900083D790008497200083D790008D3
:1050E0008D730008757400083D7900080000000009
:1050F00000000000000000000000000000000000B0
:0C51000000000000000000005FF808F153
:10511000014B0360704700BFA8220108034B10B584
:105120000446036000F00EFC204610BDA8220108D2
:10513000044A0549002313700B70044B01221A70B6
:10514000704700BFD41A0020BE1A0020640100205E
:1051500008B5012000F0E4FC00210A46402000F0E0
:10516000F3FC0220002100F06BFF0220002100F080
:10517000EBFF06484FF4165101F034FD04484FF49C
:105180001651BDE8084001F037BC00BF741A00207A
:10519000501A002010B504462146044801F0DCF9FD
:1051A00003482146BDE8104001F0D6B9741A00202A
:1051B000501A002010B504462146044801F0B7F902
:1051C00003482146BDE8104001F0B1B9741A00202F
:1051D000501A002038B50D4608490CF0A1FF0024F4
:1051E00050B1042CD8BF45F824000449D8BF01347D
:1051F00000200CF095FFF3E738BD00BF844A01089A
:1052000038B50546402000220C46014600F09CFCC3
:105210002846214601F0AEFD00200146402200F064
:1052200093FC0248BDE83840FFF7B4BF874A010845
:1052300030B5214B21491A68096887B08A4203DAE0
:1052400099180871013200E0002220281A6002D16A
:1052500000221A602DE03B282BD11948164CFFF78D
:1052600099FF1848FFF7A6FF201DFFF793FF201DA9
:1052700015490CF0DFFD0546D8B100202060134829
:10528000FFF788FF01A92846FFF7A4FF1048FFF7A2
:1052900081FF0198FFF77EFF0298FFF77BFF0398DD
:1052A000FFF778FF0B48FFF775FF02980399FFF7A8
:1052B000A7FF07B030BD00BF1C0B0020000000207E
:1052C0009D4A0108AC4A010840220108BF4A010872
:1052D000CD4A0108D64A010837B50B4C002104F528
:1052E00082750B4600910A46284601F0B5F828461B
:1052F0000649074A0BF084F804F5867003B0BDE850
:105300003040FFF715BF00BF1C0B002011510008F3
:105310009C0D002010B5054801F054FC04460448DB
:1053200001F0CAFA2043C0B210BD00BF741A0020B9
:10533000501A002008B5094801F044FC20B1074884
:10534000BDE8084001F042BC054801F0B5FA20B1C3
:105350000348BDE8084001F0C1BA08BD741A002036
:10536000501A002008B51A4B1878A8B119491A48E4
:1053700001F0F2F81749194801F0EEF8FF20024653
:10538000002100F0E1FB0220012100F0DDFE4FF4DE
:105390007A7000F023FF10E0114AD2F81011D1F119
:1053A000010338BF00234020C2F81031002B14BF86
:1053B000FF210021024600F0C7FBFFF7ABFF30B131
:1053C000FFF7B8FFC0B2BDE80840FFF731BF08BD26
:1053D000981A0020E44A0108741A0020501A00208C
:1053E0001C0B002010B50131002393420ED0040F96
:1053F000092C01D8303400E0373401F8014C013376
:105400000024000101F8024BDBB2EEE710BD000002
:105410001D4B10B51A88032A04D8042001461880B1
:1054200005F0ACF84FF4A0414FF0006005F09CF897
:1054300016480124047004F057F903F02FFE2146AA
:10544000402005F07FFB6FF07F4003F0A3FFE720D3
:1054500004F01CF80E490C7003F068FE7D2005F086
:1054600095FB18B10B4B1C7005F0A4FB40F6B8304F
:1054700003F0C4FE04F006FC04F076FE064A074979
:1054800001201070087010BD741B0020541B0020F8
:105490009C1A002068240020181B0020D41A002029
:1054A000304B10B51A88042A04D80521042019802D
:1054B00005F064F82C48017811B12C4801F094FCF7
:1054C000294C237853B127480288052A04D806219D
:1054D0000180042005F052F801F020FD217861B12F
:1054E000234C23784BB92348027832B122490C78F7
:1054F0001CB9224B18780028E2D0214A11780029E3
:10550000DED1204C2378002BDAD11C480278012A06
:105510000FD01D4969B1134C2388062B04D80721ED
:105520000420218005F02AF8FFF712FE134A01201B
:10553000107016490029C3D00A4C2388072B04D8C1
:1055400008210420218005F019F8FFF70BFF2088BF
:105550000828B5D8034A09210420118005F00EF867
:10556000AEE700BF741B0020181B00204D5D000833
:10557000CD1A0020D41A00209A1A0020340C0020E2
:105580009B1A002068240020515100086553000830
:10559000524B70B51A6812B11868411E1960504B11
:1055A0001A783AB14F4A1078002829D04E4900297C
:1055B00049D125E04D4C206810B12368591E0FE0F9
:1055C0004B490B78E3B94B4A1078C8B94A490B7874
:1055D000B3B94A4D2A782AB1E72003F0D1FF14214C
:1055E00021600DE04648017800292FD1E72003F023
:1055F0007BFF44483D4B0178002935D032221A60A8
:105600003F4B1A7832B1404D287818B92EE04168E6
:105610004B1C43603D490B68B3F57A7F0FD30023E1
:105620000B6005F0EBF93A484FF6FF7102888A42A9
:1056300053D001800420BDE8704004F09FBF08688B
:10564000421C0A6070BD00F0C9FBD9E7314B1A78E3
:10565000002ACBD04FF6FF7003F09CFEE72003F04A
:1056600015FF01202870CBE76422C8E721490B7899
:1056700093B1294847F22F5243689342C7D9BFF3E9
:105680004F8F264C2648E56805F4E06646EA00029E
:10569000E260BFF34F8FFEE7154E347834B92046F1
:1056A00004F072F840F6B73290420DD8002004F0B2
:1056B0006BF841F657318842ACD9002004F06CF801
:1056C000184B01201870A5E7204604F065F82A78E9
:1056D000002A9FD1012131709CE770BD7024002009
:1056E000341B0020D00F0020DD5D00086C2400205A
:1056F000BE1A00209B1A00209D1A00209C1A002030
:10570000181B0020991A0020CD1A002074240020B4
:10571000741B00209A1A0020340C002000ED00E0D9
:105720000400FA05BC1A002008B5094B186004F003
:1057300053FA002004F098FA064803F0D3FC04F072
:1057400061FA04F07FFABDE8084006F09FB900BF97
:10575000C4010020A0860100074B1868052808D165
:1057600006490A7A012A04D1887A0B7BC11AC8B289
:1057700070470020704700BF781B0020340C0020C9
:105780000D4B10B51868052813D10C4C217A01294E
:105790000FD16289A389D01A012804D100210320E6
:1057A000217206F0DEFAA389E218591C907BA181D0
:1057B00010BD4FF0FF3010BD781B0020340C0020CE
:1057C00008B50C4B1968052912D10B4B1A6D9918A5
:1057D00081F85400501CB0F5807F08BF0020186588
:1057E00004F0CAF820B16420BDE8084003F07ABC98
:1057F00008BD00BF781B0020340C002070B5234A80
:1058000092F85431012B3FD0D2F85801B0F5807F87
:1058100002D10021C2F85811D2F85831126D1B483C
:10582000934203D1002180F8541170BD8CBFC3F5A1
:105830008072C3EB0202154CC0F85C21D4F85C51B5
:1058400099B2402D07D94033403DC4F85831C4F8CF
:105850005C51402606E0E8180023AEB2C4F85801B7
:10586000C4F85C310A4A01255018C021324684F838
:10587000545106F0EDF92846314606F0F3FA284671
:10588000BDE8704006F05CBA70BD00BF340C00206B
:10589000880C0020094B10B593E8140008331868F1
:1058A00010180AD008220649FFF79CFD054920463A
:1058B0000422BDE81040FFF795BD10BDE8F7FF1FBB
:1058C000720100208201002013B5084C00210091D4
:1058D0000A460B46204600F0BFFD0549054A204612
:1058E00002B0BDE810400AF08BBD00BF940D00204F
:1058F000115100089C0D002038B50D460446AC42FD
:1059000003D254F8043B9847F9E738BD08B5074877
:105910000749FFF7F1FF07480749FFF7EDFF074881
:105920000749BDE80840FFF7E7BF00BF304B01085B
:10593000304B0108304B0108844B0108844B0108AF
:10594000844B01080AF098BE08B5072004F036FD24
:10595000FEE70000074A08B513680749181888428F
:10596000106004D9082004F029FD0AF04FFD184604
:1059700008BD00BF04000020004800204FF0FF30A9
:1059800070470120704708B50C2004F017FDFEE7B2
:10599000014B1868704700BFA00D0020064B02465F
:1059A000582000FB013101F1080303CB1060516066
:1059B00018689060704700BFA00D0020014BD3F81D
:1059C00064017047A00D0020064B0246142000FB26
:1059D000013101F5B67303CB106051601868906017
:1059E000704700BFA00D00200E4B2DE9F041D3F809
:1059F000647180460024BC4211DA14256543094EC7
:105A00004146701900F5B6700C220BF07FFF20B9EB
:105A10007519D5F86801BDE8F0810134EBE7002085
:105A2000BDE8F081A00D00202DE9F04788B0814647
:105A300068460D4600F074FE1E4B0024D3F800A00B
:105A400054452DDA55B3582666431A4F494607F197
:105A5000040808EB060004300C220BF057FFE8B9ED
:105A600028460BF023FF06F11001402834BF024600
:105A7000402208EB010029460BF09AF9BE190122D9
:105A800086F85820694604A8746800F06BFE04A8E4
:105A9000A047044604A800F001FE03E00134CFE76C
:105AA0004FF0FF34684600F0F9FD204608B0BDE82D
:105AB000F08700BFA00D002038B50546064C28B180
:105AC00003F00AFD012384F8303238BD03F0B2FC44
:105AD00084F8305238BD00BFA00D0020024B0022D8
:105AE0001A6004F05BB900BF380C0020034A044878
:105AF00000231370036004F08FB900BF9B1A0020CD
:105B0000380C0020044B0549002001221A7008605F
:105B10004FF4C02004F01CB99B1A0020380C002060
:105B200038B5084B044693F831221D46824207D00F
:105B300010B103F0D1FC01E003F07CFC85F83142A8
:105B400038BD00BFA00D002008B5084B93F83132D6
:105B500053B142EA012141EA004003F043FCE7204F
:105B6000BDE8084003F092BC08BD00BFA00D0020B6
:105B700010B5064C206802F0F5FA2368013303D013
:105B8000411E4842484110BD012010BD08000020C0
:105B9000F0B5274B0646187887B00F46002843D14A
:105BA00024490A78002A3FD1FFF7E2FF0446002883
:105BB0003AD1214D8DF80C002B688DF80D008DF831
:105BC0000E008DF80F0006A9580901EB800203F0C2
:105BD0001F01012000FA01F052F80C1C049401434B
:105BE00042F80C1C04A841F288320592009003A9E7
:105BF000581C2246234602F099FD002816DD2B682A
:105C000006A95D0901EB850050F80C5C03F01F024A
:105C100045FA02F515F0010008D0184631463A461B
:105C2000234602F023FE01E04FF0FF3007B0F0BD45
:105C3000CC1A0020CD1A00200800002070B50B4BB4
:105C4000054618780C4670B909490A785AB9FFF721
:105C50008FFF034638B90748294600682246BDE849
:105C6000704002F07FBE4FF0FF3070BDCC1A0020B4
:105C7000CD1A00200800002030B51E48ADF5797D12
:105C800006F060F9002832D11B4B1C481C4D0493D0
:105C90001C491D4A1D4B059009951D481D4D069137
:105CA00007920A931C491D4A1D4B0B900E951D48E7
:105CB0001D4D1E4C0C910D921D491E4A0F931E4BFB
:105CC0001090139515A85FAD11911292149308943A
:105CD00003900CAC029504F0E5F8284604F0E8F8CF
:105CE00000940448154902AA04AB06F032F90DF5F8
:105CF000797D30BDD40F00203D5C0008915B000829
:105D0000DD5A0008055B0008ED5A0008B95A000882
:105D1000D9610008295A0008915900089D590008C6
:105D2000BD590008C9590008BD9E0008E19E000841
:105D3000ED5F0008E9590008D19E0008E8F7FF1F51
:105D4000014806F016BF00BFD40F002030B5022076
:105D500011228DB0014602F033FC051E28DB1549E7
:105D600007A806F009FA022316200024ADF80C302B
:105D70008DF80E003321E0220123BB208DF8114065
:105D80008DF80F108DF810208DF812308DF813005B
:105D90000324102203A90091019200231322284614
:105DA00007A902F0E9FD013CF3D1284602F036FCD8
:105DB0000DB030BDE8F7FF1F10B5074CFFF75CFFD3
:105DC000204606F0C2F8204606F01EFC0446FFF707
:105DD000BDFF204610BD00BFD40F002038B5114CC8
:105DE000D4F8445A2DB1D4F8441A4B1EC4F8443A9E
:105DF00038BDD4F8483A0C4A52F8230003F0F2FABE
:105E0000E72003F043FB094A6420D4F8481AC4F899
:105E1000440A50684B1C8342C4F8483AA8BFC4F8EF
:105E2000485A38BDA00D00204C220108080000206F
:105E30007FB502200121062202F0C2FB041E23DBF3
:105E400000200822022335218DF802004FF4FA5079
:105E5000ADF800308DF803108DF804208DF8052082
:105E60008DF806208DF8072000F0B6FF694606463B
:105E70001022204602F02EFC0546304600F0ACFF12
:105E8000204602F0CBFB01E04FF0FF35284604B07E
:105E900070BD000010B5064C2068002805DB02F03C
:105EA000BDFB4FF0FF33236010BD002010BD00BFCD
:105EB0000800002030B5A7B0FFF7ECFF0220012159
:105EC000062202F07DFB334B0028186051DB32487C
:105ED000022216213324A0F84C2A80F84E1A80F8AA
:105EE0004F4A05A803F0AAFF9DF81430002500953D
:105EF00033B1012B17D0294B01A803F1100502E0A3
:105F0000069A009214E0024659681868083303C2E2
:105F1000AB421046F7D101A906AC0FC907C424F85B
:105F2000023B1B0C23700A24009D0DB9013C23D1B8
:105F3000009808B91A490091009D174B280A2A0CAD
:105F40002C0E83F8520A4FF4FA5083F8504A83F823
:105F5000512A83F8535A00F03FFF0E49054610229C
:105F60000868104902F0B6FB0446284600F034FFEA
:105F70000CE04FF0FF3409E07E2106A80BF056FD3F
:105F80006A4681B206A802F06FFBCDE7204627B033
:105F900030BD00BF08000020A00D0020F54A010818
:105FA00004E5D036EC1700200F4B2DE9F041D3F873
:105FB000647180460024BC4211DA142565430A4E00
:105FC0004146701900F5B6700C220BF09FFC20B909
:105FD000751995F87801BDE8F0810134EBE74FF0D1
:105FE000FF30BDE8F08100BFA00D002008B5FFF72D
:105FF000DBFF0138082803D8024B1918087F08BDB9
:10600000022008BD4C22010813B5094C00210B46A3
:1060100000910A46204600F01FFA20460549064A2C
:106020000AF0EEF9054802B0BDE8104005F07ABF6D
:10603000FC170020115100089C0D0020D40F0020F7
:1060400014282DE9F34104460E4675D8FF2973D074
:1060500000F0ECFA28B10D2C6ED00F2C6CD00E2C69
:106060006AD000F08DF908B1012C65D900F052FD1D
:1060700018B1A4F11203012B5ED9304D20012F5825
:106080002F492A188F42B2F8048001D1042003E07E
:106090002C4B9F4203D10820012104F05FFDADF895
:1060A0000480062E44D8DFE806F00411181F2631BC
:1060B0003C00224A102302EB041403200021A173A8
:1060C0008DF807308DF80600083431E004218DF892
:1060D000071005EB0414012229E048228DF807205F
:1060E00005EB0414022222E028208DF8070005EBBE
:1060F000041403221BE0114B182203218DF8072002
:106100008DF8061003EB0414042210E00B481C2148
:1061100003238DF807108DF8063000EB04140522D8
:1061200005E000208DF8070005EB04140622A27399
:10613000384601A904F0DCFBBDE8FC81100000201A
:1061400000080140000C0140142870B504460E46BA
:106150003ED8204B03EB0010817B012938D0022967
:1061600036D0032934D0062932D0FF2930D000F0B0
:106170005DFA30B10D2C2BD00F2C29D00E2C00D174
:1061800070BD00F0FDF810B1012C00D870BD00F01A
:10619000C1FC20B1A4F11202012A00D870BD0D4D3E
:1061A00005EB0413987B042803D120460021FFF758
:1061B00047FF012E05D124012819295983880B6135
:1061C00070BD2EB9240129192B598A885A6170BDD6
:1061D00070BD00BF1000002003F0BCBE1FB5044618
:1061E0004FF47A731B4800930268A118016003F012
:1061F000B1FE019004F002FC03F0ACFE02900298A4
:10620000019BC21A03920399002903DA0198029BA9
:106210001A1803920399A1421BD20F480378002B4E
:10622000E8D00E4A11780029E4D10398009B9842E7
:1062300004D2084A1168B1F57A7FDBD3039800F5E0
:106240007A73009300F06AFE054A11780029F9D1AB
:10625000D0E71FBDC81A0020181B0020CD1A00204F
:106260009B1A002013B5084C002100910A460B46EA
:10627000204600F0F1F80549054A204602B0BDE885
:1062800010400AF0BDB800BF3018002011510008BE
:106290009C0D0020024B18785978401A704700BFB7
:1062A00038180020064B5A781978914204D998186A
:1062B000013280785A7070474FF0FF30704700BF4E
:1062C00038180020054B5A781978914202D998184D
:1062D000807870474FF0FF30704700BF38180020BB
:1062E00070470000014B0360704700BFC0220108E7
:1062F000034B10B504460360FFF724FB204610BD96
:10630000C0220108F8B5094B054693F8220016464D
:1063100050B10C468F18BC4206D0296828468A68BE
:1063200014F8011B9047F6E73046F8BD38180020F6
:1063300010B50C4B012293F822408CB193F8234006
:106340001F2C02D94260002010BD93F824001C18B5
:1063500084F82510411CC8B283F8240083F8230078
:10636000104610BD3818002000224260024A4FF447
:106370007A7181600260704780220108704770471F
:10638000014B93F8590070473818002073B50E4C34
:10639000002104F164050D4E0B4600910A46284683
:1063A00000F05AF86C343246094928460AF028F8B9
:1063B0002046FFF7D9FF07492046324602B0BDE824
:1063C00070400AF01DB800BF381800209C0D002056
:1063D00011510008E562000808B5034B53F820008E
:1063E00000B1804708BD00BFB418002013B5084CA9
:1063F000002100910A460B46204600F02DF8054981
:10640000054A204602B0BDE8104009F0F9BF00BFC0
:10641000F4180020115100089C0D00202DE9F041D6
:10642000002407460E4625463B1919790A223046B4
:1064300000F0C9F82E218046304600F07CF8013487
:106440004044032C0544EFD13046F9790A2200F08C
:10645000BAF82818BDE8F08130B58371044D9DF875
:106460000C300446056001714271C37130BD00BF3C
:10647000A822010805480021054B01714171817175
:10648000C171044A0449036009F0BABFFC18002036
:10649000A82201089C0D00201151000813B5084CDA
:1064A000002100910A460B462046FFF7D5FF05491B
:1064B000054A204602B0BDE8104009F0A1BF00BF68
:1064C00004190020115100089C0D0020014B0360AD
:1064D000704700BFC0220108F8B506460C468F1869
:1064E0000025BC4207D0336830469A6814F8011B77
:1064F00090472D18F5E72846F8BD0000034B10B56E
:1065000004460360FFF71EFA204610BDC0220108B2
:1065100038B505460C46084641B10BF0C7F92B6863
:106520000246DB6828462146984738BD38BD08B585
:10653000FFF7EEFF08BD08B503689A68904708BDED
:1065400038B50D210546FFF7F6FF0A210446284617
:10655000FFF7F1FF001938BD38B50446FFF7D8FF43
:1065600005462046FFF7ECFF281838BD70B500231C
:106570008AB08DF82430012A98BF0A220DF1230336
:10658000B1FBF2F505FB1211CCB2092C1E4601D865
:10659000303400E03734E4B203F801492946002DD5
:1065A000EED13146FFF7B4FF0AB070BD10B5044616
:1065B00022B90268C9B29268904710BDD2B2BDE854
:1065C0001040FFF7D3BFFFF7F1BF000013B5084C31
:1065D000002100910A460B462046FFF73DFF054982
:1065E000054A204602B0BDE8104009F009BF00BFCF
:1065F00014190020115100089C0D002013B5084CFF
:10660000002100910A460B462046FFF725FF054969
:10661000054A204602B0BDE8104009F0F1BE00BFB7
:106620001C190020115100089C0D0020014B587DC1
:10663000704700BF241900207047000013B5084CB4
:10664000002100910A460B462046FFF705FF054949
:10665000054A204602B0BDE8104009F0D1BE00BF97
:106660003C190020115100089C0D002013B5084C66
:10667000002100910A460B462046FFF7EDFE054932
:10668000054A204602B0BDE8104009F0B9BE00BF7F
:1066900048190020115100089C0D002010B5044637
:1066A000006809F0E9FF204610BD10B504460068F7
:1066B00008B109F0E1FF00232360A360636010BD0F
:1066C00038B504460D46006801310AF0B5FD10B139
:1066D00084E82100012038BD036810B5044613B1D9
:1066E0004068884207D22046FFF7EAFF20B1A16840
:1066F00009B922681170012010BD70B50E4611460F
:1067000004461546FFF7E8FF18B92046FFF7CDFF0E
:1067100004E0A560206831460BF06AF8204670BDA1
:1067200038B50023044603604360836003730D465D
:1067300039B108460BF0BAF8294602462046FFF761
:10674000DCFF204638BD884210B50B46044607D012
:10675000096819B19A68FFF7D0FF01E0FFF7A5FFBC
:10676000204610BD002310B50446036043608360DB
:106770000373FFF7E8FF204610BD000013B5084C77
:10678000002100910A460B462046FFF765FE0549A9
:10679000054A204602B0BDE8104009F031BE00BFF6
:1067A00050190020115100089C0D002013B5084C11
:1067B000002100910A460B462046FFF74DFE054991
:1067C000054A204602B0BDE8104009F019BE00BFDE
:1067D00058190020115100089C0D002038B51A4CA2
:1067E00094F92C30002B2DD094F82D00002829D0BE
:1067F00004F008FA94F82C2094F82D5051B2002996
:1068000095FBF1F306DD012B0BDC511E84F82C10F7
:10681000002407E0591C04DB013284F82C200224F8
:1068200000E00124084B041993F82D20511E83F831
:106830002D1004F01BFA204604F0F8F9BDE83840AA
:1068400004F014BA38BD00BF6019002013B5084C1D
:10685000002100910A460B462046FFF7FDFD054941
:10686000054A204602B0BDE8104009F0C9BD00BF8E
:1068700090190020115100089C0D002013B5084C00
:10688000002100910A460B462046FFF7E5FD054929
:10689000054A204602B0BDE8104009F0B1BD00BF76
:1068A0009C190020115100089C0D0020014B036031
:1068B000704700BFC02201080369186C596C421A66
:1068C00002F03F0070470369196C5A6C914202D084
:1068D000586C185C70474FF0FF3070470369196CB3
:1068E0005A6C914207D0586C596C185C4A1C02F0E3
:1068F0003F01596470474FF0FF30704770B5044650
:106900000E462C4840F2277104F072FC20B96369EE
:106910001A6C586C824211D161690D6C6B1C03F0CA
:106920003F056069426C95420FD0EFF31081CA07B2
:1069300032D5036C426C934207D12DE01D4840F2E2
:106940002771012204F02CFCE6E71A4840F2277177
:1069500004F04EFC0028E4D01648802104F042FCEC
:106960000028DED00022134840F2277104F018FC02
:1069700063695A6C501C995C58640E4804F02AFCF8
:1069800061690C484B6C03F03F024A6440F2277186
:10699000012204F005FCC4E7016C4654606940F232
:1069A000277105640125257602482A4604F0F8FB84
:1069B000284670BD00440040436910B50446196C78
:1069C0005A6C9142FBD1207E10B90023237610BD72
:1069D0000348402104F006FC0028F4D0F5E700BF8E
:1069E00000440040034B10B504460360FEF7AAFFC5
:1069F000204610BDC02201082DE9F34107460120C1
:106A00008846014604F0AAF801214FF4003004F052
:106A1000B1F807202623002601258DF8050001A8DE
:106A2000194C8DF804308DF806608DF8075003F08E
:106A300067FD12202946FFF703FB13200421FFF70F
:106A4000FFFAC4F80080A680B046E6802681A681C1
:106A50000E4E0C2161813046214604F03DFB30464C
:106A600040F225512A4604F09BFB304640F2277144
:106A70002A4604F095FB3046294604F085FB257430
:106A800087F81880BDE8FC81A4190020004400406C
:106A900010B51E4840F2255104F0AAFB78B11B48FE
:106AA00004F09CFB1A4BC0B25A6D511C01F03F021E
:106AB000996D8A4203D0596D5A6559180875134863
:106AC00040F2277104F094FBF8B1114CD4F89C000B
:106AD000D4F8A030984207D10C4840F22771002228
:106AE000BDE8104004F05CBBD4F8A0002218431CA1
:106AF00092F85C100548C4F8A03004F06BFBD4F8A1
:106B0000A01001F03F00C4F8A00010BD00440040F8
:106B1000A4190020014B187C704700BFA419002065
:106B2000F7B5164C002504F1A406154F2B4629464F
:106B30002A4600953046FFF78FFC3A463046114909
:106B400009F05EFC04F114010F4804F15C02C4F882
:106B5000BC100E494FF47A73C4F8AC00C4F8C020DE
:106B600004F1AC003A46C4F8B050C4F8B43084F82C
:106B7000C45003B0BDE8F04009F042BCA4190020A5
:106B80009C0D002011510008D8220108AD680008B2
:106B900070474FF0FF307047014B0360704700BFF4
:106BA000C0220108034B10B504460360FEF7CAFE7D
:106BB000204610BDC0220108084608B5FEF700FEB9
:106BC000012008BD08B5FEF7C7FD08BDFEF7D8BD1A
:106BD00000224260024A4FF47A718160026070477D
:106BE000002301080846FEF79FBD000037B50D4C95
:106BF00000210D4D0B4600910A462046FFF72CFC64
:106C00002A460A492046083409F0FAFB2046FFF7D5
:106C1000DFFF074920462A4603B0BDE8304009F0AF
:106C2000EFBB00BF6C1A00209C0D00201151000822
:106C3000996B00087047000037B50B4C00210B4DD5
:106C40000B4600910A462046FFF706FC2A462046DE
:106C5000074909F0D5FB074904F108002A4603B0AB
:106C6000BDE8304009F0CCBB841A00209C0D002008
:106C700011510008356C0008002303601846704766
:106C800000230360184670470023036018467047CE
:106C900048F20202904210B523D00EDC99284DD064
:106CA000511E88425FD1304C0123A370FFF794FA44
:106CB00000F5EA403030606010BD48F28003984231
:106CC00007D0B0F5084F3DD048F2100290424AD1AB
:106CD00021E02548254B01210022017041701A70E6
:106CE00010BD214CA07860B1FFF776FA00F5EA41BB
:106CF00030314FF47F40616002F04CFBE72002F03E
:106D0000C5FB194B00229A701A725A729A72DA7283
:106D10001A735A7310BD087D134960B90122486087
:106D20004FF47F400A720A7302F034FBE720BDE89B
:106D3000104002F0ABBB00230B7210BD0A490122C8
:106D40008A7310BD0846002100F00FFE01210446A1
:106D500000F052FE064801688C4204D1024B00222A
:106D6000DA729A725A7210BD901A002064010020E3
:106D700008000020034B012258610348996102700A
:106D8000704700BF901A0020640100201FB54FF02B
:106D9000000C0A234FF461514FF461628DE80E102C
:106DA000054B44F620621A60684601A902AA03ABAB
:106DB00001F0DCFA05B000BD301B00201FB5002338
:106DC000009301930293039301A8694602AA03ABBF
:106DD00001F094FA05B000BD024B1A681860104625
:106DE000704700BF301B002030B53F4C85B020639A
:106DF00002F024FE02F064FD3C4B3D483D493E4A12
:106E0000009301903D4B029103923D493D4A3E481B
:106E100001F0F4FD642002F05DF90125002001F08D
:106E200005FE84F82D5048F244200025257301F01A
:106E3000EBFE364B1888012832D00E2010212A464E
:106E400004F11C0301F0E8FA102829D1304B18781E
:106E5000A0B9254C217F19B9012284F82E200DE01C
:106E6000607F58B90146012201F090FE01212346BE
:106E700003F81D1F0E200A4601F0FAFA244B187879
:106E8000002829D1184991F82E202AB3214801F071
:106E900021FBFFF793FF05B0BDE83040FFF776BF59
:106EA000FF2001F097FE00210E2001F02DFB1021A4
:106EB0000E2001F029FB0021102217480AF0FEF8ED
:106EC000102100220E20144B01F0D2FA0F4A0021AB
:106ED000118002F0F9FEB9E74FF47F4002F05AFA50
:106EE000E72002F0D3FAD1E7901A00207999000840
:106EF0008D990008F9990008219A0008896C00080A
:106F0000796C0008816C0008916C0008A6020020D2
:106F100064010020C41A0020AC1A00202DE9F743B8
:106F2000A34C03F06BFD0023A36394F83C0048B925
:106F300094F83D1031B962686AB3FFF74DF967689C
:106F4000B84228D39A4F97F82D00002840D000254A
:106F5000BD707D603D723D6487F83C50012687F826
:106F60002D507D72BD72FD727D7301F095FD6FF045
:106F70007F403E7302F00EFAE72002F087FA6420A9
:106F800002F0A8F897F82E1011B3284601F04EFD34
:106F900087F82D601CE0864C94F82D30C3B98548E5
:106FA000017829B9FFF718F900F5EA42303262603A
:106FB00000207F4F01F03AFD012400234FF47F4071
:106FC00087F82D403B7302F0E5F9E72002F05EFA06
:106FD000784F3A782AB1764D2E7A16B96B69002B24
:106FE0006ED173484178012914D1027A012A11D156
:106FF0008478012C0ED103246F480AF057FC6E49A7
:1070000082B2012001F0C4FC631E13F0FF04F3D12F
:1070100067484470664C94F8441031B9627A002A8B
:1070200068D1A37A002B65D1CAE0227AFAB194F82C
:107030003D30E3B9607A00286DD018E0234603F8AC
:107040001F1F0E200121032201F012FA584C0025C7
:107050004FF6FF70257302F09DF9E72002F016FA53
:10706000FEF728FFA8427BDB256401236372504CA6
:10707000607A002800F0A480A17AB9B9FEF79CFEDE
:10708000002811D002DA4FF47F0007E0012801D177
:107090004A4803E0022803D14FF0FF1002F07AF9CA
:1070A000E72002F0F3F901E00122A272FEF748FEA8
:1070B000002840F085803E4BD872987258727FE06D
:1070C0003146324630466E6001F060FDD5F81480DE
:1070D00040460AF0EBFBAD69814628460AF0E6FB24
:1070E00000950190414603204A46334601F0EAFCF0
:1070F0003E7076E7FEF7CEFE2D480021C172817208
:1071000041724FF47F4002F045F9E72003B0BDE83B
:10711000F04302F0BBB9642001F0DCFF04F145004C
:1071200001F068F9657B002D90D04FF47F0002F0EC
:1071300031F91F4C617B002980D0E72002F0A6F9CD
:107140004FF4FA7001F0C6FFE72002F0ADF94FF4FA
:10715000FA7001F0BFFF657B681EC1B26173E8E79A
:1071600094F83C2062BB236C581C0228206402D196
:10717000012184F83C10FEF75BFE00280C4C09DA74
:10718000236C581C0228206402D1012184F83C1091
:10719000022200E003226273054C0E20627B23462C
:1071A00003F81F2F0121032201F062F900235DE79C
:1071B000901A002064010020680100200060FF0098
:1071C00003B0BDE8F08300BF13B5084C0021009167
:1071D0000A460B462046FFF73FF90549054A204677
:1071E00002B0BDE8104009F00BB900BF101B002031
:1071F000115100089C0D0020704708B5012003F0D4
:10720000DDF8FEE708B5032003F0D8F8FEE708B57F
:10721000042003F0D3F8FEE708B5052003F0CEF80C
:10722000FEE770477047704708B502F08BFEBDE877
:107230000840FEF7ADB9000008B5024B0BB1AFF343
:10724000008008BD0000000008B5024B0BB1FFF73D
:107250001FFC08BD916A000808B5024B0BB1FFF78F
:107260008DF808BD7D63000808B5024B0BB1FFF730
:1072700086F808BD7F63000808B5024B0BB1FFF725
:10728000DBF908BD3966000808B5012003F0A0FA53
:1072900038B1012003F0ACFA024B13B10020FFF724
:1072A0009BF808BDD963000808B5022003F090FAE6
:1072B00038B1022003F09CFA024B13B10120FFF712
:1072C0008BF808BDD963000808B5042003F080FAE4
:1072D00078B1042003F08CFA0020064B0146188098
:1072E00002F090F9044810210122BDE8084003F0A3
:1072F000AABE08BD501B0020002C014008B5082084
:1073000003F066FA38B1082003F072FA024B13B1A9
:107310000320FFF761F808BDD963000808B5102005
:1073200003F056FA38B1102003F062FA024B13B1A1
:107330000420FFF751F808BDD963000808B52020E4
:1073400003F046FA38B1202003F052FA0E4B13B185
:107350000520FFF741F8402003F03AFA38B1402009
:1073600003F046FA084810B10620FFF735F88020F0
:1073700003F02EFA38B1802003F03AFA024911B135
:107380000720FFF729F808BDD963000808B54FF4B6
:10739000005003F01DFA40B14FF4005003F028FAFA
:1073A000174B13B10D20FFF717F84FF4804003F08F
:1073B0000FFA40B14FF4804003F01AFA104810B1B0
:1073C0000E20FFF709F84FF4004003F001FA40B136
:1073D0004FF4004003F00CFA094911B10F20FEF7F9
:1073E000FBFF4FF4006003F0F3F938B14FF4006095
:1073F00003F0FEF9BDE8084001F0F6BD08BD00BF8E
:10740000D963000808B50F48102103F055FEC0B13C
:107410000C48102103F05BFE002002F0A5F928B90A
:10742000094B1A880A3290B2188008BD102105480D
:10743000002203F008FE00200121BDE8084002F010
:10744000E1B808BD002C0140501B002008B5012008
:1074500003F028FC50B1012003F036FC044B0BB1C3
:10746000FFF7BCF9BDE8084003F000BC08BD00BF51
:10747000DD67000808B5022003F014FCB0B10C4B26
:1074800000224FF400301A7003F0B2F9012003F02B
:10749000DFFA10B1012003F0E5FA03F0E7FB022068
:1074A00003F012FCBDE8084003F0E0BB08BD00BFDC
:1074B000CD1A002001F028BD00F062B838B514499B
:1074C0000B78012B23D1134A13680BB90B7038BD0D
:1074D000114C402B206881B205D94030403B2060E0
:1074E0001360402504E09DB2C318002023601060A3
:1074F0000A4A5018C0212A4604F0AAFB0120294656
:1075000004F0B0FC0120BDE8384004F019BC38BDDF
:10751000880D0020900D00208C0D0020880C00208C
:10752000094908B50020094B0122088003201A7080
:1075300004F0C4FC064B0246188006484FF48871DC
:10754000BDE8084004F09BBB400C00203C0C002030
:107550003E0C0020420C0020074B1868052809D17A
:10756000064B1A68511C052A196003D100201860C7
:10757000FEF744B9704700BF781B00201C1B002099
:107580003A4A38B511683A4B88B23A4D18801C888F
:107590002988214001F4007084B244B14FF6FF55B0
:1075A00015609A78511CC8B29870FFF7D5FF304C1F
:1075B000304B25881A882A4002F4004188B22546BB
:1075C0001C4608B104F07EFA2A882388134003F48D
:1075D000806188B230B1254B27494FF6FF321A60DF
:1075E00048688047224A234B11881B88194001F4C0
:1075F000005081B219B11D494DF6FF700860128824
:10760000134003F4805398B230B1184A4EF6FF711C
:107610001160002002F08EFE154B164918880A886A
:10762000024002F4006398B260B114490A7812B1C2
:1076300002F060FE02E0022002F07CFE0B4B4FF2F3
:10764000FF7018600A490B480A880388134003F446
:1076500080718AB242B1054B4FF6FF601860072077
:10766000BDE8384002F066BE38BD00BF445C004053
:10767000201B0020B4240020FC010020C8020020B0
:10768000034B987A10B1034905220A60704700BF86
:1076900090240020781B0020014B04221A607047C0
:1076A000781B0020034B1A78202A01D10020187083
:1076B000704700BF241B002070470000212810B530
:1076C00008D111480368197801F07F02212A11D0EE
:1076D000022010BD2028FBD10B4B19680A780B49FA
:1076E00002F07F030A4A212B0CBF0B4600231070C7
:1076F0000BB9EDE7074B044C2068002483614482FA
:1077000020469847204610BDB02400206577000829
:10771000241B00204D770008074B19680A7802F0F7
:107720007F03212B05D1022801D100207047222898
:10773000FBD00220704700BFB024002009B1022016
:1077400070470128FBD808467047000020B9034B5A
:10775000082219680A82704701487047B024002047
:10776000C401002020B9034B082219680A8270471F
:1077700001487047B0240020C4010020054B19685F
:10778000CA78042A04D8044B03EBC20103F01ABFE1
:1077900000207047B0240020CC010020014903F0F4
:1077A00011BF00BFEC010020014903F00BBF00BF77
:1077B000F4010020334A344BD179186810B5002405
:1077C00041728472C472204604F06CFA20464FF471
:1077D000007104F06FFA1021204604F077FA40217E
:1077E000204604F013FB8021204604F0FFFA2046D7
:1077F00004F0C8FA254B204693F8641004F040FBCF
:10780000204604F0AEFA0120214604F053FA01208C
:10781000C02104F0EBFA0120202104F057FA0120E6
:10782000214604F070FA02204FF4C06104F042FADD
:1078300002204FF4807104F0D9FA0220214604F0AE
:1078400062FA0220202104F041FA0320214604F0CC
:1078500031FA03204FF4887104F0D8FA0320402154
:1078600004F00EFB03204FF4405104F04CFA0320C7
:10787000214604F02BFA204604F0B6F8044A012011
:10788000106010BD7C230108B0240020C40100203A
:10789000781B002010B5FDF7FDFF054B002418688C
:1078A000847202F00FFD04F01FFB02490C6010BD52
:1078B000B0240020781B002013B5084C0021009153
:1078C0000A460B462046FEF7C7FD0549054A2046F5
:1078D00002B0BDE8104008F093BD00BF281B002097
:1078E000115100089C0D0020002100F004B80E4B3F
:1078F0005B58435004310D480D4B42189A42FFF437
:10790000F6AF0C4A00F003B8002342F8043B0A4BE0
:107910009A42FFF4F9AF02F057FCFDF779FDFDF74D
:10792000F5FFFDF7BDFD7047844B01080000002006
:107930001C0B00201C0B0020C0240020FFF7FEBF02
:1079400001700B0A0A0C090E43708270C17004307A
:1079500070470170090A41700230704743185A7825
:10796000405C00EB022188B2704710B543189A784A
:10797000DC78415C120402EB04625878521802EB86
:10798000002010BD73B544790023022C01930FD061
:10799000032C19D0012C2BD1164D28692E4620B16D
:1079A000296901A888470246B8B9B16801201BE0DF
:1079B000104DE8682E4620B1E96801A888470246C4
:1079C00058B9B16802200FE00A4D6A692E464AB1E3
:1079D0006B6901A89847024620B1A9682046BDF806
:1079E000043003E0B16803200022134600F022FCBB
:1079F0007CBD00BFF81B0020072830B512D8012934
:107A000010D8EFF3108472B6012505FA00F501FADB
:107A100000F0054B1A6822EA050202431A60E307E8
:107A200000D462B630BD00BF54020020F0B5012181
:107A300087B00546FFF792FF00F48043044698B2F2
:107A400050B3B4F5824F27D128460521FFF786FFB2
:107A50000026074607353446BE4208D02846022194
:107A6000FFF77CFF013624180435B6B2F4E7744BF7
:107A7000188E21188AB21A86D86B2418DC63D96B49
:107A80009A6B914240F0CE8093F84000002800F0BD
:107A9000C9809B69992033E024F4FF4121F07F02E3
:107AA00090B2002800F09B8048F2100294422AD045
:107AB0000CD8B4F5004F40F2C08048F202039C425B
:107AC00017D9991C8C4240F0B88012E048F280002F
:107AD00084420ED005D848F24002944240F0AD8076
:107AE00051E0B4F5024F04D0B4F5084F40F0A58042
:107AF0006CE053498869002800F094808B69204627
:107B000000210A4669E00023EA1851790DF80310B4
:107B10000133042BF8D1687A2B7BAA7AE97A8DF8A5
:107B200004008DF807308DF805208DF8061005F15A
:107B30000D00002306AAD218C15C0133042B02F801
:107B4000101CF7D105F11100002306AAD218C15C60
:107B50000133042B02F80C1CF7D105F115000023AA
:107B600000AAD218C15C0133042B1174F8D1344936
:107B700028798A698DF81400002A53D08B69204631
:107B80006946152229E0053500212846FFF7EDFE5C
:107B9000042100902846FFF7E8FE082101902846BE
:107BA000FFF7E3FE0C2102902846FFF7DEFE1021CE
:107BB00003902846FFF7D9FE214B049099690029CC
:107BC00030D09B6920466946142206E01C48826931
:107BD00042B38369691D20460122984722E041F2A1
:107BE00003039C4205D00C339C4202D0591E8C42A8
:107BF0001AD16C1D04212046FFF7B7FE39301CD185
:107C00002D790F480021C5622046FFF7AEFE042102
:107C100005462046FFF7A9FE393003D12846012149
:107C2000FFF7EAFE012009E0054A138899B28C4269
:107C300004D0B4F5805FF5D100E0002007B0F0BDBE
:107C4000F81B002038B5104B5D88ADB2CDB1586837
:107C50000478221F514251EB02042CB1FFF7E6FEDB
:107C6000003018BF012000E02046054620B944B18D
:107C7000054B93F8412022B903480021418001F0CF
:107C80005BF8284638BD00BFF81B00202DE9FF47F0
:107C900004468946904602F05DF900250190BB4BF1
:107CA0005A8890B2002840F0928002F0A7FE02F0BD
:107CB00051F902900298019BC21A0392039900297C
:107CC00003DA0198029B1A180392B1490868002848
:107CD000E5D0039B8342E2D3AC4A41F2070311880B
:107CE00088B2984224D85A1E90425FD240F20221B4
:107CF00088425BD00DD80C2806D8082856D2002818
:107D00004DD0062852D959E00D284CD040F201221E
:107D10000BE041F2020398424BD8B0F5805F45D8A2
:107D2000B0F5017F3FD940F20722904237D13AE0C7
:107D300041F21101884236D014D841F20B03984227
:107D400034D005D841F2090290422FD031D82AE030
:107D500041F20F0188422CD028D841F20D039842FD
:107D60001DD126E042F2060290421CD007D8B0F5A1
:107D7000005F14D942F20401884214D921E0B0F521
:107D8000804F00F0E88105D8A0F50053083B012B97
:107D900005D808E044F20B02904200F0DC810B2091
:107DA00002F00CFBD7E1FF202070D4E14FF0FF3050
:107DB00005E04FF0FF3020606060CCE100202060E3
:107DC000C9E1204600213A2209F078F9C3E15E6852
:107DD0003178042940F0758130460121FFF7BEFD5E
:107DE00005463046FFF722FE002840F0608141F250
:107DF0000702771D954253D8511E8D4280F0AC800A
:107E000040F20220854200F0A78014D80C2D09D83A
:107E1000082D80F0A180002D00F04981062D40F250
:107E20009B80E1E00D2D00F0948040F201239D4203
:107E300040F03D818DE041F20202954218D8B5F53F
:107E4000805F00F28980B5F5017F40F2828040F2C8
:107E500007218D4240F02B813079002104F8010B7D
:107E60003846FFF782FD01462046FFF769FD1EE117
:107E700041F204039D4200F08D8040F2A480384618
:107E80000021FFF772FD042120603846FFF76DFDE9
:107E90006060083406F10D07224606F11D016EE010
:107EA00041F211039D4254D02CD841F20B0295426D
:107EB00052D01CD841F209018D424DD000F28F8082
:107EC00000213846FFF751FD042120603846FFF7B6
:107ED0004CFD082160603846FFF747FD0C21A0608B
:107EE0003846FFF742FD04F10C0AE060DEE041F2A3
:107EF0000F039D4267D035D841F20D02954240F004
:107F0000D68047E042F206018D4222D008D8B5F56E
:107F1000005F40F2CC8042F20400854219D987E02C
:107F200042F208029542C0F0C280501C854210D92E
:107F300044F20B018D4240F0BA807379DFF84CA017
:107F400038460121AAF83030FFF708FDAAF83200C0
:107F5000ADE037792770AAE038460021FFF705FD2C
:107F60002060A4E000213846FFF7FFFCA2464AF853
:107F7000040B04213846FFF7F8FC606096E057F8E0
:107F8000040B8F4242F8040BF9D190E0F81B00205B
:107F9000301B002000213846FFF7E7FC0421206059
:107FA0003846FFF7E2FC082160603846FFF7DDFC49
:107FB00004F1080AA060E46814F1390376D10121C4
:107FC000FFF71AFD72E000213846FFF7CEFC0421CE
:107FD00020603846FFF7C9FC6060083467E03079FC
:107FE00020713F68276062E038460021FFF7BDFC42
:107FF000042120603846FFF7B8FC0821606038464D
:10800000FFF7ACFC0A21A0603846FFF7A7FCC4F8D4
:108010000A000C3406F11103274606F1350253F825
:10802000041B934247F8041BF9D1188838803EE0BE
:108030000023F7187A79E2540133042BF9D106F1C1
:1080400009000022815CA7180132042A3971F9D194
:1080500006F10D000023C15CE7180133042B3972CF
:10806000F9D106F111000027C15DE2190137042F93
:108070001173F9D106F115000023C15CE218013338
:10808000042B1174F9D106F119070022B85CA1186C
:108090000132062A0875F9D106F11F070023F85CA2
:1080A000E1180133202B8876F9D100E054462C48A2
:1080B000028891B28D4235D10023038080F841308F
:1080C00030E0DF8EBBB26BB33046032196F802A0DE
:1080D000FFF744FC0746B9F1000F0BD00421701DD7
:1080E000FFF743FC06F115010246C8F800004846B8
:1080F00008F05EFECAEB07077A1EB2F5806F07D262
:108100000AF10501204671183A4608F051FE01E0D7
:108110004FF0FF37B8F1000F01D0C8F80070104BD6
:108120000020D8860E4F0020788000F005FE3278BF
:10813000042A05D1B5F5805F02D13046FFF722FC55
:1081400039888BB2002B7FF4AAAD0548C28E91B25C
:1081500000297FF4A4AD002004B0BDE8F08700BF83
:10816000F81B002007284FF001030ED8EFF3108210
:1081700072B603FA00F006490B6818420CBF0020E3
:108180000120D10702D462B670471846704700BF7D
:1081900054020020034B1880084600210A46FFF7CE
:1081A00075BD00BFF81B002010B5034B0124DC8611
:1081B000BDE81040FFF76ABDF81B002038B5034644
:1081C000154601224A710C46881D1946FFF7C1FB6E
:1081D000291D0570204600F01DFE002038BD38B571
:1081E000BDF814500C469B18A071E81885B2022106
:1081F0006171E271294604F10800FFF7AAFB6A1DCC
:10820000204691B200F006FE002038BD38B59B181C
:108210000C469DB202216171A071E271294604F100
:108220000800FFF796FB6A1D204691B2BDE8384072
:1082300000F0F0BD2DE9F0471D4605F1020A0323C9
:1082400001F107091FFA8AFA88714B710C464846FA
:1082500051461746FFF77DFBB5F57A7F804613D868
:108260002946FFF776FB29464046FFF772FB394661
:1082700004F10B002A4608F09BFDA91D204689B297
:10828000BDE8F04700F0C6BD4FF47A76B5FBF6F1D5
:108290000AEB410291B2FFF75CFB31464046FFF723
:1082A00058FB394604F10B00324608F081FDA5F574
:1082B0007A75204640F2EE31ADB2BF1900F0AAFD4A
:1082C000B5F57A7F05D9A5F57A7085B24FF47A763F
:1082D00001E02E460025A046394628F8056F48469D
:1082E000324608F065FDB31C404699B2BF1900F054
:1082F00091FD002DE4D1BDE8F0870000F7B51A4CE0
:108300001E46A468FF238DF807300025475D6319DA
:108310000135042D5F72F9D100200D5C2318013066
:1083200004285D73F9D10021505C631801310429E0
:108330005874F9D104F115000021FFF701FB002268
:10834000B35C83540132042AFAD12146142242F24A
:108350000100FFF733FF42F201000DF10701FFF7C3
:1083600019FF9DF90700FEBDF81B00202DE9F34120
:1083700006460C461E4831681546D0F808804A1E4D
:108380001F46FF23122A8DF8073008F1090001D893
:108390001423336021684A1E122A01D81423236053
:1083A00029684A1E122A01D814232B6039684A1EF4
:1083B000122A01D814233B603168FFF7C1FA216803
:1083C000FFF7BEFA2968FFF7BBFA3968FFF7B8FA7A
:1083D0004146142242F20900FFF7F0FE42F2090082
:1083E0000DF10701FFF7D6FE9DF90700BDE8FC81FE
:1083F000F81B002038B5074B42F205040546996882
:1084000020460022FFF7DAFE20462946BDE8384024
:10841000FFF7C0BEF81B00202DE9F3418646134844
:108420000D46866871461F4602ACFF2306F109001F
:1084300004F8053D9046FFF783FA2946FFF780FAD6
:1084400040F201254146FFF77BFA0C2231462846CF
:10845000FFF7B4FE28462146FFF79CFE3846002170
:1084600001AAFFF7A1FE0198BDE8FC81F81B0020DE
:108470002DE9F341864616480C46866871469846B3
:1084800002AD4FF0FF3306F10A0045F8043D1746F0
:10849000FFF756FA0C21FFF753FA2146FFF750FA7F
:1084A0003946FFF74DFA4146224606F11A0008F018
:1084B0007FFC902031461022A3B2FFF7A7FE40F2C6
:1084C00002202946FFF766FE0198BDE8FC8100BF47
:1084D000F81B002037B50B4B40F20725044699687E
:1084E00000222846FFF76AFE28466946FFF752FE3B
:1084F0009DF803009DF80410207061709DF8000045
:108500003EBD00BFF81B002037B50D4A03469568F5
:108510000C4605F109001946FFF712FA214640F210
:108520000324FFF70DFA294608222046FFF746FEEE
:1085300020460DF10601FFF72DFEBDF806003EBDF9
:10854000F81B002030B585B0054601F003FD019011
:10855000194CE36A4BB107F06BFFE16A002201603E
:10856000E26207F065FF006823E02846FFF7FAFDA6
:1085700010B14FF0FF301CE001F0ECFC0290029AC9
:108580000198111A0391039B002B03DA0198029AB8
:1085900011180391094B03981A689042E9D20649D1
:1085A000088E83B2002BD3D00A8E501E83B20B8666
:1085B000002005B030BD00BFF81B0020301B00209C
:1085C000F7B5034614480D4686681946174602ACAF
:1085D0004FF0FF3206F1090044F8042DFFF7B0F91F
:1085E0002946FFF7ADF941F201053946FFF7A8F931
:1085F0000C2231462846FFF7E1FD21462846FFF7C9
:10860000C9FD07F015FF0199016008460021FFF739
:10861000F3F90198FEBD00BFF81B0020F7B5054631
:1086200010484FF0FF33876802AC294641F20B0631
:1086300007F1090044F8043DFFF782F904223946A6
:108640003046FFF7BBFD21463046FFF7A3FD07F09C
:10865000EFFE0199016028460121FFF7CDF901984D
:10866000FEBD00BFF81B0020F7B50C4607461646B6
:1086700007F0DEFE4FF0FF33E62C036023D81448EA
:108680000821856805F10900FFF75AF92146FFF72F
:1086900057F90021A14203DA7A5C42540131F9E72B
:1086A00004F10802D2B2294641F21000FFF786FD1C
:1086B000694641F21000FFF76DFD07F0B9FE009921
:1086C000019B0160336007F0B3FE0068FEBD00BF90
:1086D000F81B002037B5034613484FF0FF3284687B
:1086E0000D4604F1090019460192FFF729F9082106
:1086F000FFF726F90821FFF723F90023E95CC154AD
:108700000133082BFAD11422214641F20700FFF76A
:1087100055FD01A941F20700FFF73CFD07F088FE77
:10872000019A026010463EBDF81B00202DE9FF4172
:108730001D46314B8646D3F808800F4608F10900E4
:10874000714616460A9CFFF7FBF81421FFF7F8F86C
:108750001421FFF7F5F81421FFF7F2F81421FFF7C1
:10876000EFF8D4F1010138BF0021FFF7E9F80FB1AC
:10877000396800E03946FFF7E3F80EB1316800E0F0
:108780003146FFF7DDF80DB1296800E02946FFF713
:10879000D7F874B1216839B9636841F287329342DE
:1087A000DCBF41F288336360FFF7CAF86168FFF706
:1087B000C7F82C22414641F20800FFF7FFFC41F2C6
:1087C00008006946FFF7E6FC009B002B09DB0FB1B0
:1087D000019838600EB1029A326045B10399296060
:1087E00005E007F025FE00994FF0FF3301601846C1
:1087F00004B0BDE8F08100BFF81B00202DE9FF4167
:108800009846194B86469E6815460F4606F10900A4
:1088100071460B9CFFF794F82946FFF791F8414603
:10882000FFF78EF8BDF830500C2231462846FFF78E
:10883000C5FC284601A9FFF7ADFC029800280ADD17
:108840000A9938466A46FFF7AFFC009904B12160E7
:108850000029D8BF029107F0EBFD029A0260104692
:1088600004B0BDE8F08100BFF81B00201FB5002454
:108870000094019441F204040294FFF7BFFF04B096
:1088800010BD00002DE9F04F89B08A4616469B4680
:10889000149C0390FFF756FEDDF80CC000285CD155
:1088A0002F4B9A6B511C9963D3F80880812C08F1E7
:1088B0000A0307D0832C0CD106F1080908F1220520
:1088C000182709E008F11A05814610271390129025
:1088D00002E005468146074661461846FFF730F834
:1088E000391FFFF72DF83146FFF72AF85946FFF7F1
:1088F00027F8832C05D14946FFF722F80821FFF716
:108900001FF80023B34204DA1AF80300E8540133D5
:10891000F8E7002EA8BFAD19832C0FD0139B129936
:1089200098B2009101904146E0B23A46B3B2FFF7E7
:1089300056FC832C0BD141F20F000AE00020139A61
:108940009042EBDA129A115C29540130F7E741F2B8
:10895000030005A9FFF71EFC069809B0BDE8F08FDB
:10896000F81B00201FB50024009401948124029478
:10897000FFF788FF04B010BD1FB5069C0094079C4C
:10898000019483240294FFF77DFF04B010BD000022
:10899000202A73B503460E46144622D8124A1946B9
:1089A000956805F10900FEF7CBFF0821FEF7C8FF27
:1089B0002146FEF7C5FF0022A24203DAB15C8154D2
:1089C0000132F9E704F10C032946DAB241F2110051
:1089D000FFF7F4FB41F2110001A9FFF7DBFB01985F
:1089E00001E04FF0FF307CBDF81B0020024B01225C
:1089F0005A805860FFF726B9F81B002010B50A4CC2
:108A0000E16022616361029B0399E361049A059B23
:108A1000216262620021A362A061012084F840000B
:108A200084F8411010BD00BFF81B002070B5174B33
:108A3000174D002406461748AC63EC632C802C8647
:108A40006C86AC86EC86EC626C806C60AB6000F08F
:108A50003BF9A968A64214BF0226264601224E729F
:108A60004FF48040FFF7AAFB21464FF48040FFF708
:108A700091FBA968224644F20B00FFF79FFB44F2EA
:108A80000B002146BDE87040FFF784BB641C00204A
:108A9000F81B0020ED89000838B5094C0020A36AB6
:108AA00098472546E869064C80470028FAD0A16817
:108AB00009B10022A260BDE8384000F02DB900BF26
:108AC000F81B00202DE9F04F83462F4885B0D0F8E1
:108AD0000890144600259A4688464FF0FF331C2123
:108AE00009F1090001930F9E0E9F0295ADF80C50FD
:108AF000FEF726FF2146FEF723FF5946FEF720FF2B
:108B000004F11001FEF71CFF3146FEF719FF29465C
:108B1000FEF71FFFBAF1000F08D01AF805204255E2
:108B20000135062DF9D10630002207E0534602AA8E
:108B3000995CC1540133062BF9D1F4E7A24204DA5F
:108B400018F8021081540132F8E7002CA8BF001970
:108B50003EB100232FB1B34203DAFA5CC2540133B1
:108B6000F9E71C34A319DAB249460120FFF726FBC6
:108B700001A90120FFF70EFB07F05AFC01990160E3
:108B8000084605B0BDE8F08FF81B0020F7B5034696
:108B90000F480E4685681946174602AC4FF0FF3263
:108BA00005F1090044F8042DFEF7CAFE3146FEF730
:108BB000C7FE3946FEF7C4FE29460C220420FFF703
:108BC000FDFA04202146FFF7E5FA0198FEBD00BF3B
:108BD000F81B002037B50B4B01469D6802AC05F130
:108BE0000900FEF7ADFE4FF0FF3044F8040D2946B2
:108BF00004220620FFF7E2FA06202146FFF7CAFA10
:108C000001983EBDF81B002037B548F2080248F233
:108C1000080102408A42034613490BD100209342C7
:108C200081F840001FD023F4004424F0080545F4E7
:108C3000004302E0012081F840000B494FF0FF3271
:108C40008D6802AC194605F1090044F8042DFEF7C1
:108C500077FE294604220820FFF7B0FA08202146B3
:108C6000FFF798FA01983EBDF81B002000F00103C1
:108C700083F0010003B962B670470000F8B50446FE
:108C8000EFF3108772B60E4E337A9C4209D0052C52
:108C900001D0012506E00B48C16988470028F8D1BA
:108CA000347200253846FFF7E1FF054B15B15A69CC
:108CB000002AE5D05869D0F1010038BF0020F8BD86
:108CC0004C1C0020F81B00200F4B10B500220F4950
:108CD0000F4C1A721961DA80DA609A801860A36A00
:108CE000104698470B4800F0FDF9206A80474FF482
:108CF0007A7000F0F7F90120A26A90470120BDE8E0
:108D00001040FFF7BBBF00BF4C1C002064200020B8
:108D1000F81B0020E093040010B5054C636A9847E7
:108D20000020A16A884703480022026110BD00BFED
:108D3000F81B00204C1C0020024B4FF480725A603C
:108D4000704700BF00E100E02DE9F84307460E46FA
:108D500014461D46EFF3108072B6DFF88080A4B28F
:108D600098F80890FFF782FF002000F0EDFD012049
:108D700037B93146224600F06FFD3846154906E006
:108D8000D8F81010224600F067FD00203146224638
:108D900000F062FD10480221012201F0B6FC012022
:108DA00000F0D2FD9DB1EFF3108072B60B4C257A26
:108DB000FFF75CFFA945234602D16269002AF2D081
:108DC0005869D0F1010038BF0020BDE8F88328467B
:108DD000BDE8F88358020020580002404C1C0020D7
:108DE000CB074CBF0B464B1C10B5C3F30724447094
:108DF0000024C4700471054C01220270837084F851
:108E00004120034AD0609180581D10BDF81B0020FE
:108E10004C1C00202DE9F04104460D46EFF3108074
:108E200072B6384E377AFFF721FF17B1012F2AD1DA
:108E300004E00120FFF722FF00285FD0EFF3108845
:108E400072B60321377A317200F0A8FE4046FFF770
:108E50000DFF20462946FFF7C3FF0646002F4DD0E1
:108E6000322000F03FF90120214604220346FFF79B
:108E70006BFF002842D03220B5B200F033F9012058
:108E8000211D2A1F30E00220FFF7F8FE002835D010
:108E9000EFF3108772B61B4B1E7AB21E504250EB96
:108EA000020656B1EFF3108872B604211A7A1972CD
:108EB00000F074FE4046FFF7D9FE3846FFF7D6FEB5
:108EC000104B16B95A69002AE2D05869B0B9204649
:108ED0002946FFF785FF06460520FFF7CFFE68B15C
:108EE000B5B2012021462A460346FFF72DFF002890
:108EF00014BF28464FF0FF30BDE8F0814FF0FF303F
:108F0000BDE8F0814C1C002070B54FF4003001F03A
:108F100005FC324C05464FF4005001F0FFFB237A6C
:108F2000D91E052954D8DFE801F03D533D53032AEB
:108F3000002D52D0002850D04FF4083001F0FCFB37
:108F4000082020722469B4F80320C2F3072343EAFF
:108F500002218CB2002C40D0E10701D4601C84B205
:108F6000B4F5806F02D90A2001F028FA1B4A0020CC
:108F7000116903462246BDE87040FFF7E5BE0028B0
:108F80002BD04FF4083001F0D7FB154B02204FF4E3
:108F900080722072C3F8842000F0E6FC216820690A
:108FA000884770BDCDB10F48802101F0D0FE002868
:108FB000F9D10A4C4FF4083001F0BEFB237A032BA1
:108FC00001D1052102E000F0CFFC0221217270BD29
:108FD0000B20BDE8704001F0F1B970BD4C1C0020C1
:108FE00000E100E0003800400E4B70B5D8698047C2
:108FF0000546B0B90C4C217A022904D004290ED0C0
:1090000079B901220CE00723237200F0C7FD216922
:10901000284605222B46BDE87040FFF795BE052285
:10902000227270BDF81B00204C1C0020BFF34F8F34
:10903000054A064BD16801F4E06040EA0301D160C3
:10904000BFF34F8FFEE700BF00ED00E00400FA051C
:109050000D4B0E4A197839B9D88881B21187188911
:1090600081B291879B8806E0D88981B21187188ADE
:1090700081B291879B8906489BB29386FF21632228
:1090800002704170704700BF341B0020002C01406B
:10909000600200204FF4407001F028BA0A4B4FF4F0
:1090A0007A701A68094BB2FBF0F109484A1EF021A8
:1090B0005A6080F82310002207219A601960D0239B
:1090C00080F82330704700BFB402002010E000E0B9
:1090D00000ED00E0024B18601A68002AFCD17047CE
:1090E0007024002007B50E4B0E4A59680E4B0091B4
:1090F00011684FF0FF32B1FBF3F1B2FBF1F398428C
:1091000028BF18464143019105484168009A019BD8
:10911000881A984202D201F071FCF5E70EBD00BF3B
:10912000001000E0B402002040420F0030B54FF4C0
:10913000003085B001F05CFB08204FF400330025BF
:1091400001248DF80D00684402938DF80C508DF8C1
:109150000E4001F0FBFA032101A88DF804108DF8F0
:1091600005108DF806508DF8074001F0C9F9042369
:1091700029220DEB03008DF804208DF805308DF8C1
:1091800006508DF8074001F0BBF9022001F060FCA9
:1091900050B1022001F066FC01F072FD24204FF670
:1091A000FF7101F0EBF927E0242001F0F5F94AF214
:1091B000A551884201D101F037FC012001F060FC8B
:1091C000412001F0E3FC0028FAD04FF4807001F058
:1091D00067FC012001F06CFC01F052FD01F046FD3E
:1091E0000320012101F0EEFC01F040FD47F6FF7085
:1091F00001F02CFD01F03AFD05B030BD10B504467C
:1092000045F2555001F0E8FB062001F0EBFB282069
:10921000604340F6FF73010A994228BF194688B29D
:1092200001F0E6FB01F0EAFBBDE8104001F0EEBB07
:10923000082814D8012908D10B490C4A01EB8003F6
:10924000596832F8100008610BE051B9064B074A23
:1092500003EB80014B6832F81000586101E0FF23F6
:1092600000E0002358B2704760020020D4230108B8
:1092700073B50E4E8500731904460121186901F07B
:109280006DFC0B4B36F8140010215D19ADF804008D
:109290008DF807100322686801A98DF8062001F0F7
:1092A00027FB20460021FFF7C3FF7CBDD423010824
:1092B0006002002070B5012188B04FF4006001F019
:1092C0004DFC314B31481C686026B4FBF0F1304C4A
:1092D00001A88DB201F08AFE01A801F087FE42F2DA
:1092E0000F7201A9ADF8045020460025ADF8082002
:1092F000ADF80A50ADF8065001F030FD04A801F0B9
:109300007EFE0223ADF810602046012604A9ADF8C8
:109310001830ADF81260ADF81650ADF81C5001F0E1
:1093200067FD2046294601F0A3FE204604A901F06E
:10933000A3FD2046294601F0A3FE204604A901F022
:10934000DFFD2046294601F0A5FE204604A9ADF820
:109350001050ADF81260ADF81650ADF8185001F08D
:1093600011FE2046294601F09DFE2046314601F0BF
:1093700073FE2046314601F04CFE2046314601F096
:1093800054FE08B070BD00BFB402002040420F0080
:10939000002C014030B51049104A8C8D92F82420E1
:1093A000A5B26C1C5443C0F307456C430C4B240C12
:1093B000DC808D8D5861ACB201345443C0F3072575
:1093C0006C43240C1C81898DC0B289B201314843A1
:1093D0004243120C9A8030BD002C014060020020F4
:1093E000341B002030B51049104A8C8D92F824208F
:1093F000A5B26C1C5443C0F307456C430C4B240CC2
:10940000DC818D8D9861ACB201345443C0F30725E3
:109410006C43240C1C82898DC0B289B2013148434F
:109420004243120C9A8130BD002C014060020020A2
:10943000341B0020024B00221A70FFF709BE00BF48
:10944000341B002037B50F4D044605EB8003186B25
:10945000012105EB440501F081FBB5F84000ADF8B2
:1094600004000CB9102100E01821074B8DF80710FB
:1094700003EB84040322A06A01A98DF8062001F001
:1094800037FA3EBDD42301086002002018B1E72856
:1094900007D1FFF7DDBD034B4FF40052986A02611C
:1094A000704770476002002058B1E7280FD1084A82
:1094B0000023084813879387938601220370427024
:1094C00005E0044B4FF40050996A486170477047BB
:1094D000002C014060020020024B0122E7201A709C
:1094E000FFF7E2BF341B002010B1E72840D106E0AF
:1094F00020498B6ADA6882F40050D86070471E4AAF
:109500001E4B1178C1B9188F80B208B1198702E0DB
:10951000D1888AB21A879B8F184899B209B1002165
:1095200002E0154A138999B281871449888E82B264
:10953000C2B9114B988819E0188F81B209B1002087
:1095400001E0D28990B218879B8F0C499AB20AB178
:10955000002202E00848038A9AB28A870749888E67
:1095600083B20BB1002002E0034A908980B2888662
:10957000704700BF60020020341B0020002C014017
:1095800010B51D4A13780BB9012102E0632B01D1FC
:10959000FF2151705178E7280B44DBB2137029D1B9
:1095A000164A6320147816497CB9D488A4B25C4367
:1095B000B4FBF0F4A4B20C871489A4B25C43B4FBEE
:1095C000F0F4A4B28C8792880EE0D489A4B25C43F4
:1095D000B4FBF0F4A4B20C87148AA4B25C43B4FBCD
:1095E000F0F4A4B28C87928992B25343B3FBF0F3A8
:1095F00098B2888610BD00BF60020020341B002096
:10960000002C014073B5104C0E4604EB400494F856
:109610004C10054694F8480001F0C4F9B4F85040E5
:10962000204601F0CFF809480023451995F8381075
:10963000684600948DF804308DF805108DF80660AA
:1096400001F084F87CBD00BFD42301086002002033
:10965000F7B5224E8700F3190546586D0C4640F0C9
:109660000100012101F07AFA1D4B06EB45065A195B
:1096700092F83A10B6F85C0002AADF198DF80310D0
:1096800022F8080D6946F86B01F032F9012C24D15B
:109690001021002213481B2701F0D5FC05238DF86B
:1096A000047001A800278DF805308DF806708DF83C
:1096B000074000F025FFB6F8601006208DF8050081
:1096C00001A88DF804108DF806708DF8074000F0A1
:1096D00017FF28462146FFF795FFFEBDD42301085A
:1096E00060020020002C01401C4B1D495A6810B537
:1096F00042F440705860CC681A4844F080730024EB
:10970000CB604460026842F00101016001214FF02A
:10971000C05001F02FFA012001F080F9FFF7BAFCE8
:109720000120014601F01AFAE0B20134FFF7A0FD72
:10973000082CF9D1FFF7BEFD0020FFF783FE0120C2
:10974000FFF780FE0220FFF77DFE0320FFF77AFE81
:1097500000200121BDE81040FFF77ABF002004E09F
:10976000F0ED00E0001000E0054A064B02EB80013E
:1097700003EB4002C86BB2F85C1001F009B900BFFE
:1097800060020020D4230108024B03EB4000818BD0
:1097900088B27047341B0020024B002203EB4000CC
:1097A00082837047341B002010B5082086B0012149
:1097B00001F0D4F9264C4FF48040012101F0DAF990
:1097C000032018214FF400538DF802008DF8031088
:1097D00020466946ADF8003001F08AF84FF40042A7
:1097E00020466946ADF8002001F082F804204FF4CD
:1097F00080438DF8030069462046ADF8003001F043
:1098000077F80021ADF804104FF48272ADF808101B
:10981000ADF80A104FF40070ADF81210A4F55444DE
:1098200007210123ADF80620ADF80E000822ADF89F
:109830001410204601A9ADF80C30ADF8102001F04D
:109840004DFA2388034A98B2108006B010BD00BFBD
:10985000000C01407E24002070B5044601208CB02D
:109860000E460146154601F06DF9124B002080228C
:109870004FF44051012C01930296059006920790F7
:10988000089009900A910B9006D103900A4804951C
:1098900000F098FE084807E04CB9102307480393EE
:1098A000049500F08FFE054801A900F003FF0CB0FD
:1098B00070BD00BF0C380040440002405800024018
:1098C00073B50F230124002501A88DF804308DF80D
:1098D00005508DF80650174E8DF8074000F010FE29
:1098E000FFF762FF20462A461349FFF7B5FF2846D7
:1098F0002A461249124DFFF7AFFF30460221224699
:1099000000F003FF28462146224601F012FA2246C3
:109910002846022101F00DFA2846214601F0FDF902
:109920002146084800F0E6FE3046214600F0E2FEFF
:109930007CBD00BF5800024064200020641C002051
:10994000003800404400024010B504462146044857
:1099500000F0D0FE03482146BDE8104000F0CABE2A
:10996000440002405800024002484FF4805101F088
:1099700015B800BF000C014008B54FF40061024863
:1099800001F006F808BD00BF000C014030B5092009
:1099900085B0012101F0E2F84FF4006448236946E4
:1099A00014488DF80330ADF8004000F0A1FF0B2102
:1099B000012000F0F7FF204600F004FF0C20029485
:1099C000002501248DF80D0002A88DF80C508DF8AB
:1099D0000E4000F0BBFE282101A88DF804108DF880
:1099E00005408DF806508DF8074000F089FD05B060
:1099F00030BD00BF000C01401FB52823002401A882
:109A00008DF804308DF8074000F07AFD4FF40060C7
:109A1000029002A88DF80E4000F098FE1FBD0000D5
:109A200020B105484FF4807100F0B8BF02484FF4F0
:109A3000807100F0B5BF00BF000C014013B50820D5
:109A400001210F4C01F08AF8032010214FF48053BC
:109A50008DF806008DF80710204601A9ADF80430F6
:109A600000F046FFFFF780FF4FF48072204601A907
:109A7000ADF8042000F03CFF0020FFF7D1FF1CBD33
:109A8000000C014010B50B4C238823F0400001046A
:109A90000A0C2280FFF768FF074B188881B207483D
:109AA00041F040024FF400712280BDE8104000F008
:109AB00077BF00BF003800407C240020000C01402C
:109AC00002484FF4007100F069BF00BF000C014074
:109AD00070B5082086B0012101F040F82D4C01211D
:109AE0004FF4804001F046F818204FF4005303264D
:109AF0008DF8030069462046ADF800308DF802600D
:109B000000F0F6FE4FF40041ADF800102046694623
:109B100000F0EEFE04254FF4804220466946ADF881
:109B200000208DF8035000F0E3FE4FF40075102381
:109B3000204669468DF80330A4F55444ADF8005032
:109B40008DF8026000F0D4FEFFF7BAFF00204FF45A
:109B50008271ADF80400ADF80610ADF80800ADF85C
:109B60000A00ADF80C00ADF81000ADF812000722A5
:109B7000204601A9ADF80E50ADF8142001F0AEF862
:109B80002388054998B208802046012101F0C5F8D4
:109B900006B070BD000C01407C24002010B50B4CB9
:109BA000238823F0400001040A0C2280FFF788FF7D
:109BB000074B188881B2074841F040024FF48051AA
:109BC0002280BDE8104000F0EBBE00BF003800402E
:109BD0007E240020000C014007B50820012100F080
:109BE000BDFF032014214FF480638DF806008DF82B
:109BF0000710034801A9ADF8043000F079FE0EBD4E
:109C0000000C0140002008B500F034FF4FF40000C4
:109C10000121BDE8084000F0ADBF0000014B032268
:109C20001A607047781B0020044B05489A7A0AB1E5
:109C3000052100E001210160704700BF9024002051
:109C4000781B002007B5022014238DF805000021A1
:109C5000012201A88DF804308DF806108DF8072038
:109C600000F04EFC0EBD000020B105484FF48061AD
:109C700000F096BE02484FF4806100F08FBE00BF36
:109C8000000C01400A4B93F8200080B109490A4BAF
:109C90000A880A48A3F844200188094AA3F8461014
:109CA00010880849A3F848000A88A3F84A2070479A
:109CB000341B0020004C000860020020024C000809
:109CC000044C0008064C000810B51B4B93F820000C
:109CD00000282FD000F092FD342000F0A3FD17489B
:109CE00000F0E8FD042824D1154C1448B4F84410C1
:109CF00000F0C4FD04281BD11248B4F8461000F04F
:109D0000BDFD042813D11048B4F8481000F0B6FD8A
:109D100004280BD10D48B4F84A1000F0AFFD042818
:109D200003D1BDE8104000F075BDFEE7FEE7FEE799
:109D3000FEE7FEE710BD00BF341B0020004C00080A
:109D400060020020024C0008044C0008064C000889
:109D500038B505464FF0FF10FFF71CFBFFF778F909
:109D60000C4B0024A3F84A40FFF7AEFF0A4820221C
:109D700045638262C462084CE16AA36A994207D2D1
:109D800005EB013000F03DF9E06A421CE262F2E7C7
:109D900038BD00BF60020020341B00202DE9F041D7
:109DA00006460F464FEA91080024444516D056F85F
:109DB00024201748174D0270C2F30721C2F307434E
:109DC000AA63120E4170C270696B0422837000F0A6
:109DD00032F9686B0134011D6963E6E7BB0711D0F6
:109DE00056F824300A480B4AC3F307214170C3F3E5
:109DF00007419363037081701B0E516B0422C37083
:109E000000F019F9E720BDE8F041FFF76DBB00BF96
:109E100078240020341B002008B5074B0524A3F844
:109E20004840FFF751FF2820214600F0A7FB002003
:109E3000FFF71AFFFFF7FAF86002002030B5A1B073
:109E400004464FF48C516846802200F052F99DF888
:109E5000003013B1012B21D110E023709DF80330A5
:109E60009DF80220180440EA02619DF805209DF843
:109E70000430114341EA0320606011E09DF8015075
:109E80007E2D0BD820460DF1020100F8043B2A4636
:109E900006F08EFF64190021217101E0FF2020707F
:109EA00021B030BD4FF480514FF4937200F021B9CE
:109EB0004FF400514FF4197200F01BB9034BB3F883
:109EC0004A00421E514251EB0200704760020020DE
:109ED000024B0022A3F84A20FFF7F6BE60020020E2
:109EE00070B50E46054600F067FBB3082C461A46CF
:109EF000013A0434511C114905D054F8040C90FA6D
:109F0000A0F00860F4E705EB8303086890FAA0F17D
:109F100006F003069E19B3420ED013F8014B082237
:109F2000614011F0010F4FEA510416BF0449214668
:109F30006140013AF5D1EEE7C84370BD0030024000
:109F40002083B8ED024BDA6B501CD863704700BF1A
:109F5000341B0020014BD86B704700BF341B00201E
:109F600010B504460A48022100F0F1FE0028F9D09D
:109F70000748214600F0E6FE0548012100F0E7FE13
:109F80000028F9D0024800F0DFFEC0B210BD00BFCB
:109F90000038004008B5FFF775FD0620FFF7E0FF29
:109FA000BDE80840FFF78CBD08B5FFF76BFD052045
:109FB000FFF7D6FFFF20FFF7D3FFC307FAD4BDE8B2
:109FC0000840FFF77DBD38B50D460446FFF7E2FFB8
:109FD000FFF758FD0220FFF7C3FFC4F30740FFF768
:109FE000BFFFC4F30720FFF7BBFFE0B2FFF7B8FFE6
:109FF0002846FFF7B5FFFFF763FDBDE83840FFF7E0
:10A00000D3BF10B50446FFF7C5FFFFF73BFD202087
:10A01000FFF7A6FFC4F30740FFF7A2FFC4F3072032
:10A02000FFF79EFFE0B2FFF79BFFFFF749FDBDE89A
:10A030001040FFF7B9BF2DE9F8431546CA07064699
:10A040000C4606D5084616F8011BFFF7BCFF013485
:10A05000013D35F0010841D0FFF79CFFFFF712FDED
:10A06000AD20FFF77DFFC4F30740FFF779FFC4F38E
:10A070000720FFF775FFE0B2FFF772FF3078FFF7B8
:10A080006FFF7078FFF76CFFFFF71AFDFFF78CFF8B
:10A0900006F102094F460237C7EB090303EB08003C
:10A0A00088B1FFF7EFFCAD20FFF75AFF17F8020C5D
:10A0B000FFF756FF17F8010CFFF752FFFFF700FDFF
:10A0C000FFF772FFE7E7FFF7FBFCFFF7DBFC04207D
:10A0D000FFF746FFFFF7F4FCC8EB05053DB116F8A6
:10A0E000081008EB0400BDE8F843FFF76CBFBDE8BB
:10A0F000F88370B50D4616460446FFF7C3FC0320EF
:10A10000FFF72EFFC5F30740FFF72AFFC5F307202F
:10A11000FFF726FFE8B2FFF723FFA519AC4205D0F1
:10A12000FF20FFF71DFF04F8010BF7E7BDE87040C3
:10A13000FFF7C6BC70B5FFF7A5FC9F20FFF710FF27
:10A14000FF20FFF70DFF0446FF20FFF709FF05463C
:10A15000FF20FFF705FF2D020646FFF7B1FC45EA99
:10A160000440304370BD000008B5FFF7B1FCFFF7B5
:10A1700089FC0420FFF7F4FEFFF7A2FCFFF7DAFFEB
:10A18000104B984202D04C3B984219D1FFF77AFC11
:10A190008020FFF7E5FEFFF793FCFFF773FC5020EC
:10A1A000FFF7DEFEFFF78CFCFFF76CFC0120FFF7EA
:10A1B000D7FE0020FFF7D4FEBDE80840FFF780BCC3
:10A1C00008BD00BF8D25BF003A4B82B01A6842F02F
:10A1D000010018605968384A0A405A60186820F02F
:10A1E000847121F480321A60186820F4802119608B
:10A1F0005A684FF41F0122F4FE0000225860996053
:10A2000000920192186840F480311960294B1A6855
:10A2100002F40030019000994A1C0092019818B98C
:10A220000099B1F5A06FF1D11B6813F4003218BF8B
:10A23000012201920198012805D0204B4FF00062C5
:10A240009A6002B070471E490B6843F010020A6022
:10A25000086820F003030B600A68A1F5805342F000
:10A2600002000860596859605A685A60586840F49A
:10A27000806159605A6822F47C105860596841F432
:10A28000E8125A60186840F0807119601868094A2D
:10A290008101FBD5536823F003015160506840F001
:10A2A00002035360034A516801F00C000828F9D1F9
:10A2B000C3E700BF001002400000FFF800ED00E01F
:10A2C0000020024008B50120FFF7CEFC064B0749ED
:10A2D000012200201A601860086005494FF4E0521E
:10A2E0000A801A6008BD00BF405C0040445C00402A
:10A2F000B4240020064B1A6890B240F0080119609F
:10A300001A6890B240F004011960FFF787BC00BFE3
:10A31000405C004010B5064C4FF6FB7322681340BA
:10A320002360FFF781FC4FF43F40206010BD00BF69
:10A33000405C00401F4B072810B518BF18701A78F2
:10A340001C4C052A33D8DFE802F003070C10182351
:10A35000FFF7E0FF062202E0FFF7DCFF0422227095
:10A3600010BD02215970032022E059784A1ED0B254
:10A3700058705B78EBB9042017E00F4B186881B276
:10A3800041F010021A600A2005232370607010BD8E
:10A390005878411ECAB25A705B7853B906484FF6D6
:10A3A000EF7201680A4002600620024B00E00620BE
:10A3B000187010BD80240020405C0040F8B50746AE
:10A3C00072B6404B53F830404FF47F00FEF7E2FF87
:10A3D000E720FFF75BF83C4810B13C48AFF3008042
:10A3E000E720FFF761F8022600F008FB032520466E
:10A3F000FEF7D0FFE720FFF749F83548FEF772FE79
:10A40000E720FFF751F83348FEF76CFE691E8DB266
:10A41000002DECD12F48FEF765FE03252046FEF700
:10A42000B9FFE720FFF732F82B48FEF75BFEE72085
:10A43000FFF73AF82748FEF755FE6A1E95B2002D41
:10A44000ECD12448FEF74EFE03252046FEF7A2FF7E
:10A45000E720FFF71BF81E48FEF744FEE720FFF752
:10A4600023F81C48FEF73EFE6B1E9DB2002DECD17A
:10A470001A48FEF737FEA8B2874210D02046FEF7F2
:10A4800089FFE720FFF702F81348FEF72BFEE720CD
:10A49000FFF70AF81048FEF725FE0135EBE71048F4
:10A4A000FEF720FE013E9FD1BFF34F8F0D4C0E4AA9
:10A4B000E76807F4E06141EA0205E560BFF34F8F0A
:10A4C000FEE700BF3824010800000000F34A01083D
:10A4D000F0490200A0860100E0930400A0BB0D003B
:10A4E00000350C0000ED00E00400FA0540F0BF600C
:10A4F000024B40F40031D960704700BF00ED00E02E
:10A50000C37810B503B3164CE168CB43C3F3022400
:10A510004178C4F1040201FA02F10F2222FA04F296
:10A520008478037822400A43110103F16043CAB2E0
:10A5300003F5614181F800230078012200F01F0338
:10A54000410902FA03F007E00078012200F01F033E
:10A55000410902FA03F02031024B43F8210010BDFB
:10A5600000ED00E000E100E021F0604121F07F0219
:10A57000014B10439860704700ED00E0054A82B03F
:10A58000002301930192019BC0180190019A116070
:10A5900002B07047006C0040064982B0002301936E
:10A5A0000191019A80180190019B198888B202B02C
:10A5B000704700BF006C0040014B01229A60704759
:10A5C0000030024002684FF6FE73134003602D4BCB
:10A5D00000219842016041608160C16022D02A4917
:10A5E000884229D0294B984230D02949884237D017
:10A5F000284B98423ED0284B984206D153F8681C0D
:10A6000041F4700043F8680C70472449884206D131
:10A6100051F87C0C40F0706241F87C2C7047204B64
:10A62000984206D153F8042C42F00F0143F8041C61
:10A6300070471C49884206D151F8183C43F0F0009D
:10A6400041F8180C7047184B984206D153F82C2C3F
:10A6500042F4706143F82C1C70471449884206D1BB
:10A6600051F8403C43F4704041F8400C7047104BA7
:10A67000984205D153F8542C42F4702143F8541CED
:10A68000704700BF080002401C000240300002403A
:10A6900044000240580002406C000240800002402A
:10A6A000080402401C0402403004024044040240FA
:10A6B0005804024070B506688C680D6A26F4FF42A3
:10A6C00022F070060A6945EA04034C6913438A695B
:10A6D0002343CC6913431C434B6A44EA03028B6A4D
:10A6E0001A4332430260CB680A684968436082605B
:10A6F000C16070BD19B1016841F0010303E0026857
:10A700004FF6FE7313400360704703680AB11943A4
:10A7100001E023EA0101016070470000C3004CBF63
:10A72000034B044B196801420CBF00200120704705
:10A730000004024000000240C2004CBF014B024B2B
:10A74000586070470004024000000240837910B551
:10A75000002B29D01A4B01681C68CA4314401C60A6
:10A760005C6822405A60027902F1804404F582322A
:10A7700014682143116002689C68D1430C409C60BE
:10A78000DC68407921401028D96006D198681043D0
:10A790009860D9680A43DA6010BD00F1804303F580
:10A7A000823319680A4308E00179006801F18042A8
:10A7B00002F582331A6822EA00021A6010BD00BF57
:10A7C00000040140014B5861704700BF0004014084
:10A7D000064B1A68596910EA010304D010420CBFF5
:10A7E0000020012070471846704700BF0004014058
:10A7F000014B5861704700BF00040140034A044BFD
:10A8000002F188305A605860704700BF23016745E5
:10A8100000200240024B1A6942F080001861704724
:10A8200000200240014BD860704700BF002002406A
:10A83000084BDA68D20709D4D868400708D4D96829
:10A8400011F0100F0CBF0420032070470120704747
:10A85000022070470020024010B50446FFF7E8FFD1
:10A86000012806D11CB1FFF7E3FF013CF8E7052002
:10A8700010BD002C08BF052010BD000070B50546B6
:10A880004FF400500E46FFF7E7FF04280ED1084CA6
:10A89000236943F0010020612E804FF40050FFF740
:10A8A000DBFF226941F6FE711140216170BD00BFDE
:10A8B0000020024038B505464FF43020FFF7CCFFAA
:10A8C000042812D1094C236943F00200206165611C
:10A8D00021694FF4302041F040022261FFF7BCFFB4
:10A8E000216941F6FD730B40236138BD0020024011
:10A8F000CB78F0B5DA0648BF8A78098803F00F05EF
:10A9000048BF154311F0FF0F1ED004680022012735
:10A9100007FA02F707EA0106BE4211D197004FF08D
:10A920000F0C0CFA07FC05FA07F724EA0C04282B95
:10A9300044EA070401D1466102E0482B08BF0661E2
:10A940000132082AE3D10460FF2920D9446800229B
:10A9500002F10806012707FA06F707EA0106BE42D8
:10A9600011D197004FF00F0C0CFA07FC05FA07F70E
:10A9700024EA0C04282B44EA070401D1466102E0D2
:10A98000482B08BF06610132082AE1D14460F0BDBE
:10A99000836819420CBF0020012070470161704795
:10A9A0004161704701F0030230B592000F2404FAB0
:10A9B00002F400FA02F0074B8908023153F82150E3
:10A9C00025EA040443F8214053F82140044343F8A6
:10A9D000214030BD00000140014B1860704700BFAE
:10A9E00000300040014B5860704700BF003000400D
:10A9F000014B9860704700BF00300040024B4AF6A0
:10AA0000AA221A60704700BF00300040024B4CF68B
:10AA1000CC421A60704700BF00300040014B186004
:10AA2000704700BF20000E42074B1A6842F0040036
:10AA30001860196841F002021A60044B186940F06E
:10AA40000401196130BF70470070004000ED00E064
:10AA5000034B596808420CBF00200120704700BF1B
:10AA600000700040024B1A6842EA8000186070478C
:10AA700000700040014B1860704700BFD800424290
:10AA8000064B002201281A701A7004D0042804D141
:10AA90000520187001E018707047704720100240C0
:10AAA000024B1A6A10431862704700BF0010024040
:10AAB000014B1860704700BF3C0442421D4B10B56B
:10AAC0005A6802F00C01042901D0082902D01A4A60
:10AAD00002600EE05C685968C4F38342941CC903A9
