:020000040800F2
:1050000000500020ED7C0008B9730008BB73000855
:10501000C5730008CF730008D973000800000000B2
:10502000000000000000000000000000E373000822
:10503000E573000800000000E7730008E97300084A
:10504000417D0008417D0008417D00080D76000883
:10505000417D0008417D000849740008697400081A
:1050600089740008BD740008DD740008417D0008E3
:10507000417D0008417D0008417D000875760008EB
:10508000417D0008417D0008F9730008417D00085A
:1050900079760008417D0008417D0008FD74000814
:1050A000417D0008417D0008417D0008C57500086C
:1050B000417D0008417D0008417D00081974000809
:1050C00029740008417D0008417D000839740008FA
:1050D000417D0008417D000809740008417D0008F9
:1050E0004D75000835760008417D0008000000007D
:1050F00000000000000000000000000000000000B0
:0C51000000000000000000005FF808F153
:10511000014B0360704700BF30310108034B10B5ED
:105120000446036000F00EFC204610BD303101083B
:10513000044A0549002313700B70044B01221A70B6
:10514000704700BFD41A0020BE1A0020921A002017
:1051500008B5012000F0E4FC00210A46402000F0E0
:10516000F3FC0220002100F06BFF0220002100F080
:10517000EBFF06484FF4165101F034FD04484FF49C
:105180001651BDE8084001F037BC00BF741A00207A
:10519000501A002010B504462146044801F0DCF9FD
:1051A00003482146BDE8104001F0D6B9741A00202A
:1051B000501A002010B504462146044801F0B7F902
:1051C00003482146BDE8104001F0B1B9741A00202F
:1051D000501A002038B50D4608490DF0E7FE0024AE
:1051E00050B1042CD8BF45F824000449D8BF01347D
:1051F00000200DF0DBFEF3E738BD00BF285B01089F
:1052000038B50546402000220C46014600F09CFCC3
:105210002846214601F0D8FD00200146402200F03A
:1052200093FC0248BDE83840FFF7B4BF2B5B010890
:1052300030B5214B21491A68096887B08A4203DAE0
:1052400099180871013200E0002220281A6002D16A
:1052500000221A602DE03B282BD11948164CFFF78D
:1052600099FF1848FFF7A6FF201DFFF793FF201DA9
:1052700015490DF025FD0546D8B1002020601348E2
:10528000FFF788FF01A92846FFF7A4FF1048FFF7A2
:1052900081FF0198FFF77EFF0298FFF77BFF0398DD
:1052A000FFF778FF0B48FFF775FF02980399FFF7A8
:1052B000A7FF07B030BD00BF1C0B0020000000207E
:1052C000415B0108505B0108CC300108635B0108B9
:1052D000715B01087A5B010837B50B4C002104F5BE
:1052E00082750B4600910A46284601F0B5F828461B
:1052F0000649074A0BF0CAFF04F5867003B0BDE803
:105300003040FFF715BF00BF1C0B002011510008F3
:105310009C0D002010B5054801F054FC04460448DB
:1053200001F0CAFA2043C0B210BD00BF741A0020B9
:10533000501A002008B5094801F044FC20B1074884
:10534000BDE8084001F042BC054801F0B5FA20B1C3
:105350000348BDE8084001F0C1BA08BD741A002036
:10536000501A002008B51A4B1878A8B119491A48E4
:1053700001F0F2F81749194801F0EEF8FF20024653
:10538000002100F0E1FB0220012100F0DDFE4FF4DE
:105390007A7000F023FF10E0114AD2F81011D1F119
:1053A000010338BF00234020C2F81031002B14BF86
:1053B000FF210021024600F0C7FBFFF7ABFF30B131
:1053C000FFF7B8FFC0B2BDE80840FFF731BF08BD26
:1053D000981A0020885B0108741A0020501A0020D7
:1053E0001C0B002010B50131002393420ED0040F96
:1053F000092C01D8303400E0373401F8014C013376
:105400000024000101F8024BDBB2EEE710BD000002
:105410001D4B10B51A88032A04D8042001461880B1
:1054200005F0F2FF4FF4A0414FF0006005F0E2FFFD
:1054300016480124047005F09DF804F075FD21461E
:10544000402006F0C5FA6FF07F4004F0E9FEE72047
:1054500004F062FF0E490C7004F0AEFD7D2006F0F2
:10546000DBFA18B10B4B1C7006F0EAFA40F6B830C4
:1054700004F00AFE05F04CFB05F0BCFD064A0749A6
:1054800001201070087010BD741B0020541B0020F8
:105490009C1A002018250020181B0020D41A002078
:1054A000304B10B51A88042A04D80521042019802D
:1054B00005F0AAFF2C48017811B12C4801F072FDCB
:1054C000294C237853B127480288052A04D806219D
:1054D0000180042005F098FF01F0FAFD217861B108
:1054E000234C23784BB92348027832B122490C78F7
:1054F0001CB9224B18780028E2D0214A11780029E3
:10550000DED1204C2378002BDAD11C480278012A06
:105510000FD01D4969B1134C2388062B04D80721ED
:105520000420218005F070FFFFF712FE134A0120CE
:10553000107016490029C3D00A4C2388072B04D8C1
:1055400008210420218005F05FFFFFF70BFF208872
:105550000828B5D8034A09210420118005F054FF1A
:10556000AEE700BF741B0020181B00204D5D000833
:10557000CD1A0020D41A00209A1A0020340C0020E2
:105580009B1A00201825002051510008655300087F
:10559000524B70B51A6812B11868411E1960504B11
:1055A0001A783AB14F4A1078002829D04E4900297C
:1055B00049D125E04D4C206810B12368591E0FE0F9
:1055C0004B490B78E3B94B4A1078C8B94A490B7874
:1055D000B3B94A4D2A782AB1E72004F017FF142105
:1055E00021600DE04648017800292FD1E72004F022
:1055F000C1FE44483D4B0178002935D032221A6063
:105600003F4B1A7832B1404D287818B92EE04168E6
:105610004B1C43603D490B68B3F57A7F0FD30023E1
:105620000B6006F031F93A484FF6FF7102888A4262
:1056300053D001800420BDE8704005F0E5BE086845
:10564000421C0A6070BD00F0C9FBD9E7314B1A78E3
:10565000002ACBD04FF6FF7004F0E2FDE72004F003
:105660005BFE01202870CBE76422C8E721490B7854
:1056700093B1294847F22F5243689342C7D9BFF3E9
:105680004F8F264C2648E56805F4E06646EA00029E
:10569000E260BFF34F8FFEE7154E347834B92046F1
:1056A00004F0B8FF40F6B73290420DD8002004F065
:1056B000B1FF41F657318842ACD9002004F0B2FF67
:1056C000184B01201870A5E7204604F0ABFF2A789C
:1056D000002A9FD1012131709CE770BD2025002058
:1056E000341B0020D00F0020DD5D00081C250020A9
:1056F000BE1A00209B1A00209D1A00209C1A002030
:10570000181B0020991A0020CD1A00202425002003
:10571000741B00209A1A0020340C002000ED00E0D9
:105720000400FA05BC1A002008B5094B186005F002
:1057300099F9002005F0DEF9064804F019FC05F09F
:10574000A7F905F0C5F9BDE8084007F0E5B800BFC6
:10575000C4010020A0860100074B1868052808D165
:1057600006490A7A012A04D1887A0B7BC11AC8B289
:1057700070470020704700BF781B0020340C0020C9
:105780000D4B10B51868052813D10C4C217A01294E
:105790000FD16289A389D01A012804D100210320E6
:1057A000217207F024FAA389E218591C907BA18189
:1057B00010BD4FF0FF3010BD781B0020340C0020CE
:1057C00008B50C4B1968052912D10B4B1A6D9918A5
:1057D00081F85400501CB0F5807F08BF0020186588
:1057E00005F010F820B16420BDE8084004F0C0BB0B
:1057F00008BD00BF781B0020340C002070B5234A80
:1058000092F85431012B3FD0D2F85801B0F5807F87
:1058100002D10021C2F85811D2F85831126D1B483C
:10582000934203D1002180F8541170BD8CBFC3F5A1
:105830008072C3EB0202154CC0F85C21D4F85C51B5
:1058400099B2402D07D94033403DC4F85831C4F8CF
:105850005C51402606E0E8180023AEB2C4F85801B7
:10586000C4F85C310A4A01255018C021324684F838
:10587000545107F033F92846314607F039FA2846E3
:10588000BDE8704007F0A2B970BD00BF340C002025
:10589000880C0020094B10B593E8140008331868F1
:1058A00010180AD008220649FFF79CFD054920463A
:1058B0000422BDE81040FFF795BD10BDE8F7FF1FBB
:1058C000710100208101002013B5084C00210091D6
:1058D0000A460B46204600F0BFFD0549054A204612
:1058E00002B0BDE810400BF0D1BC00BF940D002009
:1058F000115100089C0D002038B50D460446AC42FD
:1059000003D254F8043B9847F9E738BD08B5074877
:105910000749FFF7F1FF07480749FFF7EDFF074881
:105920000749BDE80840FFF7E7BF00BF1C5E01085C
:105930001C5E01081C5E0108705E0108705E0108B3
:10594000705E01080BF0DEBD08B5072005F07CFC99
:10595000FEE70000074A08B513680749181888428F
:10596000106004D9082005F06FFC0BF095FC184678
:1059700008BD00BF04000020004800204FF0FF30A9
:1059800070470120704708B50C2005F05DFCFEE76C
:10599000014B1868704700BFA00D0020064B02465F
:1059A000582000FB013101F1080303CB1060516066
:1059B00018689060704700BFA00D0020014BD3F81D
:1059C00064017047A00D0020064B0246142000FB26
:1059D000013101F5B67303CB106051601868906017
:1059E000704700BFA00D00200E4B2DE9F041D3F809
:1059F000647180460024BC4211DA14256543094EC7
:105A00004146701900F5B6700C220CF0C5FE20B9A5
:105A10007519D5F86801BDE8F0810134EBE7002085
:105A2000BDE8F081A00D00202DE9F04788B0814647
:105A300068460D4600F074FE1E4B0024D3F800A00B
:105A400054452DDA55B3582666431A4F494607F197
:105A5000040808EB060004300C220CF09DFEE8B9A7
:105A600028460CF069FE06F11001402834BF0246BA
:105A7000402208EB010029460CF0E0F8BE19012293
:105A800086F85820694604A8746800F06BFE04A8E4
:105A9000A047044604A800F001FE03E00134CFE76C
:105AA0004FF0FF34684600F0F9FD204608B0BDE82D
:105AB000F08700BFA00D002038B50546064C28B180
:105AC00004F050FC012384F8303238BD04F0F8FBB8
:105AD00084F8305238BD00BFA00D0020024B0022D8
:105AE0001A6005F0A1B800BF380C0020034A044832
:105AF00000231370036005F0D5B800BF9B1A002087
:105B0000380C0020044B0549002001221A7008605F
:105B10004FF4C02005F062B89B1A0020380C00201A
:105B200038B5084B044693F831221D46824207D00F
:105B300010B104F017FC01E004F0C2FB85F831421B
:105B400038BD00BFA00D002008B5084B93F83132D6
:105B500053B142EA012141EA004004F089FBE72009
:105B6000BDE8084004F0D8BB08BD00BFA00D002070
:105B700010B5064C206802F0F7FC2368013303D00F
:105B8000411E4842484110BD012010BD08000020C0
:105B9000F0B5274B0646187887B00F46002843D14A
:105BA00024490A78002A3FD1FFF7E2FF0446002883
:105BB0003AD1214D8DF80C002B688DF80D008DF831
:105BC0000E008DF80F0006A9580901EB800203F0C2
:105BD0001F01012000FA01F052F80C1C049401434B
:105BE00042F80C1C04A841F288320592009003A9E7
:105BF000581C2246234603F055FB002816DD2B686F
:105C000006A95D0901EB850050F80C5C03F01F024A
:105C100045FA02F515F0010008D0184631463A461B
:105C2000234603F0DFFB01E04FF0FF3007B0F0BD8B
:105C3000CC1A0020CD1A00200800002070B50B4BB4
:105C4000054618780C4670B909490A785AB9FFF721
:105C50008FFF034638B90748294600682246BDE849
:105C6000704003F03BBC4FF0FF3070BDCC1A0020F9
:105C7000CD1A00200800002030B51E48ADF5797D12
:105C800007F0A6F8002832D11B4B1C481C4D04938A
:105C90001C491D4A1D4B059009951D481D4D069137
:105CA00007920A931C491D4A1D4B0B900E951D48E7
:105CB0001D4D1E4C0C910D921D491E4A0F931E4BFB
:105CC0001090139515A85FAD11911292149308943A
:105CD00003900CAC029505F02BF8284605F02EF841
:105CE00000940448154902AA04AB07F078F80DF5B2
:105CF000797D30BDD40F00203D5C0008915B000829
:105D0000DD5A0008055B0008ED5A0008B95A000882
:105D1000D9610008295A0008915900089D590008C6
:105D2000BD590008C959000849AD00086DAD00080B
:105D3000ED5F0008E95900085DAD0008E8F7FF1FB6
:105D4000014807F05CBE00BFD40F002030B5022030
:105D500011228DB0014603F0EFF9051E28DB15492D
:105D600007A807F04FF9022316200024ADF80C30E5
:105D70008DF80E003321E0220123BB208DF8114065
:105D80008DF80F108DF810208DF812308DF813005B
:105D90000324102203A90091019200231322284614
:105DA00007A903F0A5FB013CF3D1284603F0F2F963
:105DB0000DB030BDE8F7FF1F10B5074CFFF75CFFD3
:105DC000204607F008F8204607F064FB0446FFF77A
:105DD000BDFF204610BD00BFD40F002038B5114CC8
:105DE000D4F8445A2DB1D4F8441A4B1EC4F8443A9E
:105DF00038BDD4F8483A0C4A52F8230004F038FA77
:105E0000E72004F089FA094A6420D4F8481AC4F853
:105E1000440A50684B1C8342C4F8483AA8BFC4F8EF
:105E2000485A38BDA00D0020D830010808000020D5
:105E30007FB502200121062203F07EF9041E23DB38
:105E400000200822022335218DF802004FF4FA5079
:105E5000ADF800308DF803108DF804208DF8052082
:105E60008DF806208DF8072001F094F86946064663
:105E70001022204603F0EAF90546304601F08AF880
:105E8000204603F087F901E04FF0FF35284604B0C3
:105E900070BD000010B5064C2068002805DB03F03B
:105EA00079F94FF0FF33236010BD002010BD00BF13
:105EB0000800002030B5A7B0FFF7ECFF0220012159
:105EC000062203F039F9334B0028186051DB3248C1
:105ED000022216213324A0F84C2A80F84E1A80F8AA
:105EE0004F4A05A804F0F0FE9DF8143000250095F7
:105EF00033B1012B17D0294B01A803F1100502E0A3
:105F0000069A009214E0024659681868083303C2E2
:105F1000AB421046F7D101A906AC0FC907C424F85B
:105F2000023B1B0C23700A24009D0DB9013C23D1B8
:105F3000009808B91A490091009D174B280A2A0CAD
:105F40002C0E83F8520A4FF4FA5083F8504A83F823
:105F5000512A83F8535A01F01DF80E4905461022C4
:105F60000868104903F072F90446284601F012F857
:105F70000CE04FF0FF3409E07E2106A80CF09CFCF9
:105F80006A4681B206A803F02BF9CDE7204627B078
:105F900030BD00BF08000020A00D0020995B010863
:105FA00004E5D036EC1700200F4B2DE9F041D3F873
:105FB000647180460024BC4211DA142565430A4E00
:105FC0004146701900F5B6700C220CF0E5FB20B9C3
:105FD000751995F87801BDE8F0810134EBE74FF0D1
:105FE000FF30BDE8F08100BFA00D002008B5FFF72D
:105FF000DBFF0138082803D8024B1918087F08BDB9
:10600000022008BDD830010813B5094C00210B4609
:1060100000910A46204600F01FFA20460549064A2C
:106020000BF034F9054802B0BDE8104006F0C0BEE0
:10603000FC170020115100089C0D0020D40F0020F7
:1060400014282DE9F34104460E4675D8FF2973D074
:1060500000F0ECFA28B10D2C6ED00F2C6CD00E2C69
:106060006AD000F08DF908B1012C65D900F052FD1D
:1060700018B1A4F11203012B5ED9304D20012F5825
:106080002F492A188F42B2F8048001D1042003E07E
:106090002C4B9F4203D10820012105F0A5FCADF84F
:1060A0000480062E44D8DFE806F00411181F2631BC
:1060B0003C00224A102302EB041403200021A173A8
:1060C0008DF807308DF80600083431E004218DF892
:1060D000071005EB0414012229E048228DF807205F
:1060E00005EB0414022222E028208DF8070005EBBE
:1060F000041403221BE0114B182203218DF8072002
:106100008DF8061003EB0414042210E00B481C2148
:1061100003238DF807108DF8063000EB04140522D8
:1061200005E000208DF8070005EB04140622A27399
:10613000384601A905F022FBBDE8FC8110000020D3
:1061400000080140000C0140142870B504460E46BA
:106150003ED8204B03EB0010817B012938D0022967
:1061600036D0032934D0062932D0FF2930D000F0B0
:106170005DFA30B10D2C2BD00F2C29D00E2C00D174
:1061800070BD00F0FDF810B1012C00D870BD00F01A
:10619000C1FC20B1A4F11202012A00D870BD0D4D3E
:1061A00005EB0413987B042803D120460021FFF758
:1061B00047FF012E05D124012819295983880B6135
:1061C00070BD2EB9240129192B598A885A6170BDD6
:1061D00070BD00BF1000002004F002BE1FB50446D1
:1061E0004FF47A731B4800930268A118016004F011
:1061F000F7FD019005F048FB04F0F2FD02900298D3
:10620000019BC21A03920399002903DA0198029BA9
:106210001A1803920399A1421BD20F480378002B4E
:10622000E8D00E4A11780029E4D10398009B9842E7
:1062300004D2084A1168B1F57A7FDBD3039800F5E0
:106240007A73009300F044FF054A11780029F9D1D0
:10625000D0E71FBDC81A0020181B0020CD1A00204F
:106260009B1A002013B5084C002100910A460B46EA
:10627000204600F0F1F80549054A204602B0BDE885
:1062800010400BF003B800BF301800201151000877
:106290009C0D0020024B18785978401A704700BFB7
:1062A00038180020064B5A781978914204D998186A
:1062B000013280785A7070474FF0FF30704700BF4E
:1062C00038180020054B5A781978914202D998184D
:1062D000807870474FF0FF30704700BF38180020BB
:1062E00070470000014B0360704700BF4831010850
:1062F000034B10B504460360FFF724FB204610BD96
:1063000048310108F8B5094B054693F822001646B6
:1063100050B10C468F18BC4206D0296828468A68BE
:1063200014F8011B9047F6E73046F8BD38180020F6
:1063300010B50C4B012293F822408CB193F8234006
:106340001F2C02D94260002010BD93F824001C18B5
:1063500084F82510411CC8B283F8240083F8230078
:10636000104610BD3818002000224260024A4FF447
:106370007A71816002607047083101087047704788
:10638000014B93F8590070473818002073B50E4C34
:10639000002104F164050D4E0B4600910A46284683
:1063A00000F05AF86C343246094928460AF06EFF6C
:1063B0002046FFF7D9FF07492046324602B0BDE824
:1063C00070400AF063BF00BF381800209C0D002009
:1063D00011510008E562000808B5034B53F820008E
:1063E00000B1804708BD00BFB418002013B5084CA9
:1063F000002100910A460B46204600F02DF8054981
:10640000054A204602B0BDE810400AF03FBF00BF79
:10641000F4180020115100089C0D00202DE9F041D6
:10642000002407460E4625463B1919790A223046B4
:1064300000F0C9F82E218046304600F07CF8013487
:106440004044032C0544EFD13046F9790A2200F08C
:10645000BAF82818BDE8F08130B58371044D9DF875
:106460000C300446056001714271C37130BD00BF3C
:106470003031010805480021054B017141718171DE
:10648000C171044A044903600AF000BFFC180020EF
:10649000303101089C0D00201151000813B5084C43
:1064A000002100910A460B462046FFF7D5FF05491B
:1064B000054A204602B0BDE810400AF0E7BE00BF22
:1064C00004190020115100089C0D0020014B0360AD
:1064D000704700BF48310108F8B506460C468F18D2
:1064E0000025BC4207D0336830469A6814F8011B77
:1064F00090472D18F5E72846F8BD0000034B10B56E
:1065000004460360FFF71EFA204610BD483101081B
:1065100038B505460C46084641B10CF00DF92B681C
:106520000246DB6828462146984738BD38BD08B585
:10653000FFF7EEFF08BD08B503689A68904708BDED
:1065400038B50D210546FFF7F6FF0A210446284617
:10655000FFF7F1FF001938BD38B50446FFF7D8FF43
:1065600005462046FFF7ECFF281838BD70B500231C
:106570008AB08DF82430012A98BF0A220DF1230336
:10658000B1FBF2F505FB1211CCB2092C1E4601D865
:10659000303400E03734E4B203F801492946002DD5
:1065A000EED13146FFF7B4FF0AB070BD10B5044616
:1065B00022B90268C9B29268904710BDD2B2BDE854
:1065C0001040FFF7D3BFFFF7F1BF000013B5084C31
:1065D000002100910A460B462046FFF73DFF054982
:1065E000054A204602B0BDE810400AF04FBE00BF89
:1065F00014190020115100089C0D002013B5084CFF
:10660000002100910A460B462046FFF725FF054969
:10661000054A204602B0BDE810400AF037BE00BF70
:106620001C190020115100089C0D0020014B587DC1
:10663000704700BF241900207047000013B5084CB4
:10664000002100910A460B462046FFF705FF054949
:10665000054A204602B0BDE810400AF017BE00BF50
:106660003C190020115100089C0D002013B5084C66
:10667000002100910A460B462046FFF7EDFE054932
:10668000054A204602B0BDE810400AF0FFBD00BF39
:1066900048190020115100089C0D002010B5044637
:1066A00000680AF02FFF204610BD10B504460068B0
:1066B00008B10AF027FF00232360A360636010BDC8
:1066C00038B504460D46006801310BF0FBFC10B1F3
:1066D00084E82100012038BD036810B5044613B1D9
:1066E0004068884207D22046FFF7EAFF20B1A16840
:1066F00009B922681170012010BD70B50E4611460F
:1067000004461546FFF7E8FF18B92046FFF7CDFF0E
:1067100004E0A560206831460BF0B0FF204670BD54
:1067200038B50023044603604360836003730D465D
:1067300039B108460CF000F8294602462046FFF71A
:10674000DCFF204638BD884210B50B46044607D012
:10675000096819B19A68FFF7D0FF01E0FFF7A5FFBC
:10676000204610BD002310B50446036043608360DB
:106770000373FFF7E8FF204610BD000013B5084C77
:10678000002100910A460B462046FFF765FE0549A9
:10679000054A204602B0BDE810400AF077BD00BFB0
:1067A00050190020115100089C0D002013B5084C11
:1067B000002100910A460B462046FFF74DFE054991
:1067C000054A204602B0BDE810400AF05FBD00BF98
:1067D00058190020115100089C0D002038B51A4CA2
:1067E00094F92C30002B2DD094F82D00002829D0BE
:1067F00005F04EF994F82C2094F82D5051B2002950
:1068000095FBF1F306DD012B0BDC511E84F82C10F7
:10681000002407E0591C04DB013284F82C200224F8
:1068200000E00124084B041993F82D20511E83F831
:106830002D1005F061F9204605F03EF9BDE838401D
:1068400005F05AB938BD00BF6019002013B5084CD7
:10685000002100910A460B462046FFF7FDFD054941
:10686000054A204602B0BDE810400AF00FBD00BF47
:1068700090190020115100089C0D002013B5084C00
:10688000002100910A460B462046FFF7E5FD054929
:10689000054A204602B0BDE810400AF0F7BC00BF30
:1068A0009C190020115100089C0D0020014B036031
:1068B000704700BF483101080369186C596C421ACF
:1068C00002F03F0070470369196C5A6C914202D084
:1068D000586C185C70474FF0FF3070470369196CB3
:1068E0005A6C914207D0586C596C185C4A1C02F0E3
:1068F0003F01596470474FF0FF30704770B5044650
:106900000E462C4840F2277105F0B8FB20B96369A8
:106910001A6C586C824211D161690D6C6B1C03F0CA
:106920003F056069426C95420FD0EFF31081CA07B2
:1069300032D5036C426C934207D12DE01D4840F2E2
:106940002771012205F072FBE6E71A4840F2277131
:1069500005F094FB0028E4D01648802105F088FB60
:106960000028DED00022134840F2277105F05EFBBC
:1069700063695A6C501C995C58640E4805F070FBB2
:1069800061690C484B6C03F03F024A6440F2277186
:10699000012205F04BFBC4E7016C4654606940F2EC
:1069A000277105640125257602482A4605F03EFB3D
:1069B000284670BD00440040436910B50446196C78
:1069C0005A6C9142FBD1207E10B90023237610BD72
:1069D0000348402105F04CFB0028F4D0F5E700BF48
:1069E00000440040034B10B504460360FEF7AAFFC5
:1069F000204610BD483101082DE9F341074601202A
:106A00008846014604F0F0FF01214FF4003004F005
:106A1000F7FF07202623002601258DF8050001A891
:106A2000194C8DF804308DF806608DF8075004F08D
:106A3000ADFC12202946FFF703FB13200421FFF7CA
:106A4000FFFAC4F80080A680B046E6802681A681C1
:106A50000E4E0C2161813046214605F083FA304606
:106A600040F225512A4605F0E1FA304640F22771FE
:106A70002A4605F0DBFA3046294605F0CBFA2574A4
:106A800087F81880BDE8FC81A4190020004400406C
:106A900010B51E4840F2255105F0F0FA78B11B48B8
:106AA00005F0E2FA1A4BC0B25A6D511C01F03F02D8
:106AB000996D8A4203D0596D5A6559180875134863
:106AC00040F2277105F0DAFAF8B1114CD4F89C00C5
:106AD000D4F8A030984207D10C4840F22771002228
:106AE000BDE8104005F0A2BAD4F8A0002218431C5B
:106AF00092F85C100548C4F8A03005F0B1FAD4F85B
:106B0000A01001F03F00C4F8A00010BD00440040F8
:106B1000A4190020014B187C704700BFA419002065
:106B2000F7B5164C002504F1A406154F2B4629464F
:106B30002A4600953046FFF78FFC3A463046114909
:106B40000AF0A4FB04F114010F4804F15C02C4F83C
:106B5000BC100E494FF47A73C4F8AC00C4F8C020DE
:106B600004F1AC003A46C4F8B050C4F8B43084F82C
:106B7000C45003B0BDE8F0400AF088BBA41900205F
:106B80009C0D00201151000860310108AD6800081B
:106B900070474FF0FF307047014B0360704700BFF4
:106BA00048310108034B10B504460360FEF7CAFEE6
:106BB000204610BD48310108084608B5FEF700FE22
:106BC000012008BD08B5FEF7C7FD08BDFEF7D8BD1A
:106BD00000224260024A4FF47A718160026070477D
:106BE000883101080846FEF79FBD000037B50D4CFF
:106BF00000210D4D0B4600910A462046FFF72CFC64
:106C00002A460A49204608340AF040FB2046FFF78E
:106C1000DFFF074920462A4603B0BDE830400AF0AE
:106C200035BB00BF6C1A00209C0D002011510008DC
:106C3000996B00087047000037B50B4C00210B4DD5
:106C40000B4600910A462046FFF706FC2A462046DE
:106C500007490AF01BFB074904F108002A4603B064
:106C6000BDE830400AF012BB841A00209C0D0020C1
:106C700011510008356C0008002303601846704766
:106C800000230360184670470023036018467047CE
:106C900048F20202904210B522D00EDC99284CD066
:106CA000511E88425ED1304C0123E370FFF794FA05
:106CB00000F5EA403030606010BD48F28003984231
:106CC00007D0B0F5084F3CD048F21002904249D1AD
:106CD00020E025480121002301704170837010BD20
:106CE000214CE2782AB1FFF777FA00F5EA4030301C
:106CF00060604FF47F4003F093FAE72003F00CFB51
:106D000019490023CB700B724B728B72CB720B73D1
:106D10004B7310BD087D144960B9012248604FF4DF
:106D20007F400A720A7303F07BFAE720BDE8104047
:106D300003F0F2BA00230B7210BD0B4901228A73D3
:106D400010BD0846002101F012F80121044601F0AF
:106D500055F8064801688C4204D1034B0022DA72D0
:106D60009A725A7210BD00BF901A002008000020CD
:106D70002DE9F04191F8008086B00C46B8F1000F83
:106D800014BF90464FF0000806460BF0D5FC0746AE
:106D900020460BF0D1FC012518231E21022201936D
:106DA00002910392059000230095049440463146D9
:106DB0003A4602F0CBFC034BD8731D7406B0BDE815
:106DC000F08100BF901A0020024B012258619961A6
:106DD0009A707047901A00201FB54FF0000C0A23DC
:106DE0004FF461514FF461628DE80E10054B44F68B
:106DF00020621A60684601A902AA03AB01F0B8FC40
:106E000005B000BD301B00201FB500230093019387
:106E10000293039301A8694602AA03AB01F070FC38
:106E200005B000BD30B5574D00249FB0FF202C7039
:106E30006C702C74EC702C72AC736C72AC72EC7263
:106E40002C7303F0EDF9E72003F066FA21462246A1
:106E5000204602F057FC2B46012103F81D4F0E205F
:106E60000A4601F007FD474BD878012805D1642078
:106E700003F076F801F0E8F8F5E710210C2001F0B6
:106E800045FD414802F013F9404802F0A9FD0120F8
:106E900002F08AFD68463E4900F0EEFD394D297842
:106EA0002A7C0A431ED195F82C1000295FD0FF20C0
:106EB00002F02EFD00285AD11A24013C06D0E7200A
:106EC00003F058FA322003F04BF8F6E72D4D0E2070
:106ED0002B4603F81C4F0121224601F0CBFC85F81C
:106EE0002C40DBE7E72003F017FA0E2001210022F7
:106EF00005F11C0301F092FC2C7814B102F08EFD18
:106F0000E873204C0121E37B0022581C234603F840
:106F10001C0F0E2001F0AEFC00200146012202F001
:106F2000F1FB0125234603F81D5F29462A460E2062
:106F300001F0A0FC02F06CFB642003F011F80020CB
:106F400002F030FB84F82D504FF47F40002525736C
:106F500003F066F9E72003F0DFF948F2442002F07D
:106F6000F1FCFFF739FF84F82E501FB030BDE72049
:106F700003F000FAFA2002F0F3FF684600F0EEFD9D
:106F80008CE700BF901A0020A8310108640100209E
:106F9000716D0008024B1A6818601046704700BFF8
:106FA000301B002030B53E4C85B0206303F08CFCD4
:106FB00003F0CCFB3B4B3C483C493D4A00930190DD
:106FC0003C4B029103923C493C4A3D4802F0D2FAC4
:106FD000642002F0C5FF0125002002F0E3FA84F8E6
:106FE0002D5048F244200025257302F0ABFC354BB0
:106FF0001888012830D00E2010212A4604F11C03E5
:1070000001F00CFC102827D1254CA2789AB9237FD7
:107010001BB9012084F82E000DE0607F58B90146AD
:10702000012202F06FFB0121234603F81D1F0E20F1
:107030000A4601F01FFC1A498A78002A28D191F8E3
:107040002E302BB3204801F047FCFFF7DDFE05B0E2
:10705000BDE83040FFF7C0BEFF2002F059FC002120
:107060000E2001F053FC10210E2001F04FFC0021F6
:10707000102216480AF068FF10210E200022134B40
:1070800001F0F8FB0F4900240C8003F063FDBBE71F
:107090004FF47F4003F0C4F8E72003F03DF9D1E757
:1070A000901A002005A8000819A8000885A8000863
:1070B000ADA80008896C0008796C0008816C000894
:1070C000916C0008A6020020C41A0020AC1A00200F
:1070D0002DE9F743A74C04F0D7FB0023A36394F8F2
:1070E0003C0048B994F83D1031B962687AB3FFF7B3
:1070F00073F86468A0422AD39E4C94F82D000028AF
:1071000040D00025E57065602572256484F83C5008
:10711000012684F82D506572A572E572657302F040
:1071200077FA6FF07F40267303F07AF8E72003F0D8
:10713000F3F8642002F014FF94F82E1011B32846DF
:1071400002F030FA84F82D60FFF76CFE1AE0894CEB
:1071500094F82D30B3B9A07828B9FFF73DF800F5C1
:10716000EA4130316160002002F01CFA0122002364
:107170004FF47F4084F82D20237303F051F8E7206B
:1071800003F0CAF87B4C94F82E2012B1FFF74AFEA8
:1071900007E0A3782BB1267A354616B96069002836
:1071A0006ED174494C78012C14D10A7A012A11D17C
:1071B000CB78012B0ED103246F480BF0BDFA6E493A
:1071C00082B2012002F0A0F9601E10F0FF04F3D19A
:1071D00068494C70674C94F8442032B9607A0028B2
:1071E00069D1A37A002B66D1CAE0237AFBB194F867
:1071F0003D00E0B9617A00296ED018E0234603F81B
:107200001F2F0E200121032201F034FB594C0025D1
:107210004FF6FF70257303F003F8E72003F07CF8C6
:10722000FEF748FEA8427DDB256401236372514CC2
:10723000617A002900F0A480A27ABAB9FEF7BCFDF9
:10724000002811D002DA4FF47F0007E0012801D1B5
:107250004A4803E0022803D14FF0FF1002F0E0FF9C
:10726000E72003F059F801E00120A072FEF768FD65
:10727000002840F085803F4BD872987258727FE0AA
:10728000314632463046666002F03CFA676938465D
:107290000BF052FAD4F81880814640460BF04CFAB5
:1072A000CDF800800190394603204A46334602F06B
:1072B000C5F9A67075E7FEF7EDFD2E4900224FF4E3
:1072C0007F40CA728A724A7202F0AAFFE72003B0B6
:1072D000BDE8F04303F020B8642002F041FE04F161
:1072E000450001F089FA657B002D8FD04FF47F00B7
:1072F00002F096FF1F4C627B002A3FF47FAFE7202D
:1073000003F00AF84FF4FA7002F02AFEE72003F0C7
:1073100011F84FF4FA7002F023FE657B691ECAB2C1
:107320006273E7E794F83C3053BB206C411C0229A0
:10733000216402D1012284F83C20FEF779FD002867
:107340000C4C09DA206C411C0229216402D1012273
:1073500084F83C20022300E003236373054C0121E1
:10736000607B234603F81F0F03220E2001F082FAF0
:1073700000235BE7901A0020670100200060FF00F7
:1073800003B0BDE8F08300BF13B5084C00210091A5
:107390000A460B462046FFF75FF80549054A204696
:1073A00002B0BDE8104009F071BF00BF101B002003
:1073B000115100089C0D0020704708B5012003F012
:1073C00043FFFEE708B5032003F03EFFFEE708B5E4
:1073D000042003F039FFFEE708B5052003F034FF71
:1073E000FEE770477047704708B503F0F1FCBDE851
:1073F0000840FEF7CDB8000008B5024B0BB1AFF363
:10740000008008BD0000000008B5024B0BB1FFF77B
:107410003FFB08BD916A000808B5024B0BB1FEF7AF
:10742000ADFF08BD7D63000808B5024B0BB1FEF748
:10743000A6FF08BD7F63000808B5024B0BB1FFF73C
:10744000FBF808BD3966000808B5012004F006F90C
:1074500038B1012004F012F9024B13B10020FEF7FD
:10746000BBFF08BDD963000808B5022004F0F6F898
:1074700038B1022004F002F9024B13B10120FEF7EB
:10748000ABFF08BDD963000808B5042004F0E6F896
:1074900078B1042004F0F2F80020064B0146188071
:1074A00002F0F6FF044810210122BDE8084004F074
:1074B00010BD08BD501B0020002C014008B508205D
:1074C00004F0CCF838B1082004F0D8F8024B13B11E
:1074D0000320FEF781FF08BDD963000808B510201E
:1074E00004F0BCF838B1102004F0C8F8024B13B116
:1074F0000420FEF771FF08BDD963000808B52020FD
:1075000004F0ACF838B1202004F0B8F80E4B13B1F9
:107510000520FEF761FF402004F0A0F838B14020BC
:1075200004F0ACF8084810B10620FEF755FF8020A3
:1075300004F094F838B1802004F0A0F8024911B1A9
:107540000720FEF749FF08BDD963000808B54FF4CE
:10755000005004F083F840B14FF4005004F08EF86E
:10756000174B13B10D20FEF737FF4FF4804004F0A6
:1075700075F840B14FF4804004F080F8104810B125
:107580000E20FEF729FF4FF4004004F067F840B1E9
:107590004FF4004004F072F8094911B10F20FEF7D2
:1075A0001BFF4FF4006004F059F838B14FF400604D
:1075B00004F064F8BDE8084002F05CBC08BD00BF00
:1075C000D963000808B50F48102104F0BBFCC0B116
:1075D0000C48102104F0C1FC002003F00BF828B97E
:1075E000094B1A880A3290B2188008BD102105484C
:1075F000002204F06EFC00200121BDE8084002F0EA
:1076000047BF08BD002C0140501B002008B50120D9
:1076100004F08EFA50B1012004F09CFA044B0BB137
:10762000FFF7DCF8BDE8084004F066BA08BD00BF0B
:10763000DD67000808B5022004F07AFAB0B10C4BFF
:1076400000224FF400301A7004F018F8012004F002
:1076500045F910B1012004F04BF904F04DFA022075
:1076600004F078FABDE8084004F046BA08BD00BF4F
:10767000CD1A002002F08EBB00F062B838B5144974
:107680000B78012B23D1134A13680BB90B7038BD4B
:10769000114C402B206881B205D94030403B20601E
:1076A0001360402504E09DB2C318002023601060E1
:1076B0000A4A5018C0212A4605F010FA012029462E
:1076C00005F016FB0120BDE8384005F07FBA38BD53
:1076D000880D0020900D00208C0D0020880C0020CB
:1076E000094908B50020094B0122088003201A70BF
:1076F00005F02AFB064B0246188006484FF48871B5
:10770000BDE8084005F001BA400C00203C0C002008
:107710003E0C0020420C0020074B1868052809D1B8
:10772000064B1A68511C052A196003D10020186005
:10773000FEF764B8704700BF781B00201C1B0020B8
:107740003A4A38B511683A4B88B23A4D18801C88CD
:107750002988214001F4007084B244B14FF6FF55EE
:1077600015609A78511CC8B29870FFF7D5FF304C5D
:10777000304B25881A882A4002F4004188B22546F9
:107780001C4608B105F0E4F82A882388134003F466
:10779000806188B230B1254B27494FF6FF321A601D
:1077A00048688047224A234B11881B88194001F4FE
:1077B000005081B219B11D494DF6FF700860128862
:1077C000134003F4805398B230B1184A4EF6FF715B
:1077D0001160002003F0F4FC154B164918880A8844
:1077E000024002F4006398B260B114490A7812B101
:1077F00003F0C6FC02E0022003F0E2FC0B4B4FF268
:10780000FF7018600A490B480A880388134003F484
:1078100080718AB242B1054B4FF6FF6018600720B5
:10782000BDE8384003F0CCBC38BD00BF445C00402C
:10783000201B002064250020FC010020C80200203D
:10784000034B987A10B1034905220A60704700BFC4
:1078500040250020781B0020014B04221A6070474D
:10786000781B0020034B1A78202A01D100201870C1
:10787000704700BF241B002070470000212810B56E
:1078800008D111480368197801F07F02212A11D02C
:10789000022010BD2028FBD10B4B19680A780B4938
:1078A00002F07F030A4A212B0CBF0B460023107005
:1078B0000BB9EDE7074B044C206800248361448238
:1078C00020469847204610BD6025002025790008F5
:1078D000241B00200D790008074B19680A7802F074
:1078E0007F03212B05D1022801D1002070472228D7
:1078F000FBD00220704700BF6025002009B10220A4
:1079000070470128FBD808467047000020B9034B98
:10791000082219680A8270470148704760250020D4
:10792000C401002020B9034B082219680A8270475D
:107930000148704760250020C4010020054B1968EC
:10794000CA78042A04D8044B03EBC20104F080BDBA
:107950000020704760250020CC010020014904F080
:1079600077BD00BFEC010020014904F071BD00BFEC
:10797000F4010020334A344BD179186810B5002443
:1079800041728472C472204605F0D2F820464FF44A
:10799000007105F0D5F81021204605F0DDF84021F2
:1079A000204605F079F98021204605F065F920464A
:1079B00005F02EF9254B204693F8641005F0A6F942
:1079C000204605F014F90120214605F0B9F8012000
:1079D000C02105F051F90120202105F0BDF801205A
:1079E000214605F0D6F802204FF4C06105F0A8F852
:1079F00002204FF4807105F03FF90220214605F086
:107A0000C8F80220202105F0A7F80320214605F040
:107A100097F803204FF4887105F03EF903204021C8
:107A200005F074F903204FF4405105F0B2F803203B
:107A3000214605F091F8204604F01CFF044A01207D
:107A4000106010BD1532010860250020C40100201F
:107A5000781B002010B5FDF71DFF054B00241868AA
:107A6000847203F075FB05F085F902490C6010BDC6
:107A700060250020781B002038B504460D46FFF72E
:107A8000A7F8204625614FF41651FFF7ABF82046C2
:107A900038BD000013B5084C002100910A460B4682
:107AA0002046FEF7D9FC0549054A204602B0BDE84C
:107AB000104009F0EBBB00BF281B0020115100084B
:107AC0009C0D002070B506460D46002428460AF09D
:107AD00033FE844208D2295D3046FFF76DF801205D
:107AE00002F03EFA0134F1E770BD0000F8B504463B
:107AF0000E46174600252046FFF764F80028FADDF9
:107B00002046FFF763F8BD42C1B206D100233370AF
:107B100020461149FFF7D6FF14E00D29F6D00A29B7
:107B2000F4D0082901D07F2904D1002DE3D0013EF3
:107B3000013D02E006F8011B01352046EDB2FFF7DA
:107B40003BF8D8E72046FFF73DF8002803DD204644
:107B5000FFF73CF8F6E7F8BD555D0108F0B585B0D4
:107B60000446FFF72FF8002840F39D802046FFF7DA
:107B70002DF8C0B2772867D104F114060021212224
:107B8000304604F135050AF0DFF90021412228468C
:107B90000AF0DAF904F17607002284F8762020460C
:107BA0007A704249FFF78EFF204631462022FFF7C8
:107BB0009DFF20463E49FFF785FF394601222046BA
:107BC000FFF794FF94F87630A3F130010329F0D841
:107BD000312B0BD120463749FFF774FF2046364939
:107BE000FFF770FF20463549FFF76CFF94F87600E9
:107BF000B0F1300708D020463149FFF763FF204637
:107C000029464022FFF772FF20462E49FFF75AFF10
:107C100023693A4630462946984720462A49FFF7C5
:107C200051FF20462949FFF74DFF20462849FFF71D
:107C300049FF20462749FFF745FF20462649FFF721
:107C400041FF2046254929E069282CD1244A01AB6F
:107C500010685168002503C39168204619602149C6
:107C6000FFF730FF01AEAE5D300900F13001392978
:107C700088BF00F1570106F00F062046FEF79CFF73
:107C800006F13001392988BF06F157012046013538
:107C9000FEF792FF0C2DE5D11349204605B0BDE853
:107CA000F040FFF70FBF05B0F0BD00BFA95B0108B2
:107CB000B05B0108DD5B0108135C01083E5C010854
:107CC000845C01088F5C0108D25C0108F25C010849
:107CD000255D0108585D0108975D0108C85D010830
:107CE000E8F7FF1FDE5D0108555D0108002100F087
:107CF00004B80E4B5B58435004310D480D4B4218ED
:107D00009A42FFF4F6AF0C4A00F003B8002342F8A1
:107D1000043B0A4B9A42FFF4F9AF03F09BF9FDF7DD
:107D200077FBFDF7F3FDFDF7BBFB7047705E0108C5
:107D3000000000201C0B00201C0B002070250020E0
:107D4000FFF7FEBF01700B0A0A0C090E4370827028
:107D5000C170043070470170090A417002307047E9
:107D600043185A78405C00EB022188B2704710B586
:107D700043189A78DC78415C120402EB046258786C
:107D8000521802EB002010BD73B544790023022C79
:107D900001930FD0032C19D0012C2BD1164D28693B
:107DA0002E4620B1296901A888470246B8B9B168B2
:107DB00001201BE0104DE8682E4620B1E96801A8BB
:107DC0008847024658B9B16802200FE00A4D6A6937
:107DD0002E464AB16B6901A89847024620B1A968AE
:107DE0002046BDF8043003E0B168032000221346AA
:107DF00000F022FC7CBD00BFA81C0020072830B585
:107E000012D8012910D8EFF3108472B6012505FAB3
:107E100000F501FA00F0054B1A6822EA0502024358
:107E20001A60E30700D462B630BD00BF54020020E0
:107E3000F0B5012187B00546FFF792FF00F48043BB
:107E4000044698B250B3B4F5824F27D12846052195
:107E5000FFF786FF0026074607353446BE4208D0A6
:107E600028460221FFF77CFF013624180435B6B2FC
:107E7000F4E7744B188E21188AB21A86D86B24182E
:107E8000DC63D96B9A6B914240F0CE8093F840004E
:107E9000002800F0C9809B69992033E024F4FF4159
:107EA00021F07F0290B2002800F09B8048F210027F
:107EB00094422AD00CD8B4F5004F40F2C08048F26A
:107EC00002039C4217D9991C8C4240F0B88012E002
:107ED00048F2800084420ED005D848F24002944215
:107EE00040F0AD8051E0B4F5024F04D0B4F5084F36
:107EF00040F0A5806CE053498869002800F0948028
:107F00008B69204600210A4669E00023EA1851796E
:107F10000DF803100133042BF8D1687A2B7BAA7A71
:107F2000E97A8DF804008DF807308DF805208DF87A
:107F3000061005F10D00002306AAD218C15C01331A
:107F4000042B02F8101CF7D105F11100002306AA3A
:107F5000D218C15C0133042B02F80C1CF7D105F1D7
:107F60001500002300AAD218C15C0133042B117440
:107F7000F8D1344928798A698DF81400002A53D041
:107F80008B6920466946152229E0053500212846DF
:107F9000FFF7EDFE042100902846FFF7E8FE0821D8
:107FA00001902846FFF7E3FE0C2102902846FFF7D8
:107FB000DEFE102103902846FFF7D9FE214B0490E6
:107FC0009969002930D09B6920466946142206E051
:107FD0001C48826942B38369691D20460122984783
:107FE00022E041F203039C4205D00C339C4202D0B4
:107FF000591E8C421AD16C1D04212046FFF7B7FE92
:1080000039301CD12D790F480021C5622046FFF779
:10801000AEFE042105462046FFF7A9FE393003D104
:1080200028460121FFF7EAFE012009E0054A1388EE
:1080300099B28C4204D0B4F5805FF5D100E0002005
:1080400007B0F0BDA81C002038B5104B5D88ADB25C
:10805000CDB158680478221F514251EB02042CB173
:10806000FFF7E6FE003018BF012000E0204605467D
:1080700020B944B1054B93F8412022B903480021AF
:10808000418001F09FFD284638BD00BFA81C00209C
:108090002DE9FF4704468946904602F0A1FE0025DF
:1080A0000190BB4B5A8890B2002840F0928003F0B8
:1080B000EBFB02F095FE02900298019BC21A03921C
:1080C0000399002903DA0198029B1A180392B14917
:1080D00008680028E5D0039B8342E2D3AC4A41F212
:1080E0000703118888B2984224D85A1E90425FD262
:1080F00040F2022188425BD00DD80C2806D808280F
:1081000056D200284DD0062852D959E00D284CD01F
:1081100040F201220BE041F2020398424BD8B0F545
:10812000805F45D8B0F5017F3FD940F207229042E9
:1081300037D13AE041F21101884236D014D841F2E9
:108140000B03984234D005D841F2090290422FD057
:1081500031D82AE041F20F0188422CD028D841F2D0
:108160000D0398421DD126E042F2060290421CD037
:1081700007D8B0F5005F14D942F20401884214D93F
:1081800021E0B0F5804F00F0E88105D8A0F500535C
:10819000083B012B05D808E044F20B02904200F0A6
:1081A000DC810B2003F050F8D7E1FF202070D4E1F0
:1081B0004FF0FF3005E04FF0FF3020606060CCE111
:1081C00000202060C9E1204600213A2209F0BCFECF
:1081D000C3E15E683178042940F0758130460121A1
:1081E000FFF7BEFD05463046FFF722FE002840F0AF
:1081F000608141F20702771D954253D8511E8D428E
:1082000080F0AC8040F20220854200F0A78014D8B4
:108210000C2D09D8082D80F0A180002D00F0498197
:10822000062D40F29B80E1E00D2D00F0948040F29D
:1082300001239D4240F03D818DE041F202029542D2
:1082400018D8B5F5805F00F28980B5F5017F40F25E
:10825000828040F207218D4240F02B81307900214D
:1082600004F8010B3846FFF782FD01462046FFF770
:1082700069FD1EE141F204039D4200F08D8040F251
:10828000A48038460021FFF772FD042120603846A3
:10829000FFF76DFD6060083406F10D07224606F118
:1082A0001D016EE041F211039D4254D02CD841F2E1
:1082B0000B02954252D01CD841F209018D424DD09B
:1082C00000F28F8000213846FFF751FD0421206025
:1082D0003846FFF74CFD082160603846FFF747FD40
:1082E0000C21A0603846FFF742FD04F10C0AE06063
:1082F000DEE041F20F039D4267D035D841F20D0216
:10830000954240F0D68047E042F206018D4222D0ED
:1083100008D8B5F5005F40F2CC8042F204008542F7
:1083200019D987E042F208029542C0F0C280501C81
:10833000854210D944F20B018D4240F0BA80737926
:10834000DFF84CA038460121AAF83030FFF708FDCD
:10835000AAF83200ADE037792770AAE0384600214C
:10836000FFF705FD2060A4E000213846FFF7FFFC81
:10837000A2464AF8040B04213846FFF7F8FC606077
:1083800096E057F8040B8F4242F8040BF9D190E0C5
:10839000A81C0020301B002000213846FFF7E7FC16
:1083A000042120603846FFF7E2FC0821606038466F
:1083B000FFF7DDFC04F1080AA060E46814F139035A
:1083C00076D10121FFF71AFD72E000213846FFF750
:1083D000CEFC042120603846FFF7C9FC60600834F9
:1083E00067E0307920713F68276062E038460021FD
:1083F000FFF7BDFC042120603846FFF7B8FC0821D8
:1084000060603846FFF7ACFC0A21A0603846FFF7F1
:10841000A7FCC4F80A000C3406F11103274606F144
:10842000350253F8041B934247F8041BF9D118880E
:1084300038803EE00023F7187A79E2540133042BA8
:10844000F9D106F109000022815CA7180132042A43
:108450003971F9D106F10D000023C15CE718013331
:10846000042B3972F9D106F111000027C15DE21920
:108470000137042F1173F9D106F115000023C15CF7
:10848000E2180133042B1174F9D106F11907002207
:10849000B85CA1180132062A0875F9D106F11F0748
:1084A0000023F85CE1180133202B8876F9D100E035
:1084B00054462C48028891B28D4235D10023038066
:1084C00080F8413030E0DF8EBBB26BB33046032121
:1084D00096F802A0FFF744FC0746B9F1000F0BD055
:1084E0000421701DFFF743FC06F115010246C8F890
:1084F0000000484609F0A2FBCAEB07077A1EB2F556
:10850000806F07D20AF10501204671183A4609F03A
:1085100095FB01E04FF0FF37B8F1000F01D0C8F82C
:108520000070104B0020D8860E4F0020788001F09C
:1085300049FB3278042A05D1B5F5805F02D1304677
:10854000FFF722FC39888BB2002B7FF4AAAD0548D7
:10855000C28E91B200297FF4A4AD002004B0BDE822
:10856000F08700BFA81C002007284FF001030ED899
:10857000EFF3108272B603FA00F006490B68184256
:108580000CBF00200120D10702D462B67047184604
:10859000704700BF54020020034B1880084600219A
:1085A0000A46FFF775BD00BFA81C002010B5034B9D
:1085B0000124DC86BDE81040FFF76ABDA81C00203E
:1085C00038B50346154601224A710C46881D1946E6
:1085D000FFF7C1FB291D0570204601F061FB00205B
:1085E00038BD38B5BDF814500C469B18A071E8187A
:1085F00085B202216171E271294604F10800FFF79A
:10860000AAFB6A1D204691B201F04AFB002038BD4A
:1086100038B59B180C469DB202216171A071E271C0
:10862000294604F10800FFF796FB6A1D204691B227
:10863000BDE8384001F034BB2DE9F0471D4605F197
:10864000020A032301F107091FFA8AFA88714B71A4
:108650000C46484651461746FFF77DFBB5F57A7F35
:10866000804613D82946FFF776FB29464046FFF798
:1086700072FB394604F10B002A4609F0DFFAA91D06
:10868000204689B2BDE8F04701F00ABB4FF47A7684
:10869000B5FBF6F10AEB410291B2FFF75CFB314604
:1086A0004046FFF758FB394604F10B00324609F00B
:1086B000C5FAA5F57A75204640F2EE31ADB2BF1984
:1086C00001F0EEFAB5F57A7F05D9A5F57A7085B295
:1086D0004FF47A7601E02E460025A046394628F868
:1086E000056F4846324609F0A9FAB31C404699B2D4
:1086F000BF1901F0D5FA002DE4D1BDE8F0870000E4
:10870000F7B51A4C1E46A468FF238DF807300025E4
:10871000475D63190135042D5F72F9D100200D5CAE
:108720002318013004285D73F9D10021505C6318CF
:10873000013104295874F9D104F115000021FFF723
:1087400001FB0022B35C83540132042AFAD1214692
:10875000142242F20100FFF733FF42F201000DF153
:108760000701FFF719FF9DF90700FEBDA81C0020B7
:108770002DE9F34106460C461E4831681546D0F8EF
:1087800008804A1E1F46FF23122A8DF8073008F181
:10879000090001D81423336021684A1E122A01D827
:1087A0001423236029684A1E122A01D814232B603F
:1087B00039684A1E122A01D814233B603168FFF73A
:1087C000C1FA2168FFF7BEFA2968FFF7BBFA3968DA
:1087D000FFF7B8FA4146142242F20900FFF7F0FE13
:1087E00042F209000DF10701FFF7D6FE9DF90700DF
:1087F000BDE8FC81A81C002038B5074B42F20504F7
:108800000546996820460022FFF7DAFE20462946F1
:10881000BDE83840FFF7C0BEA81C00202DE9F34199
:10882000864613480D46866871461F4602ACFF23F4
:1088300006F1090004F8053D9046FFF783FA294642
:10884000FFF780FA40F201254146FFF77BFA0C2240
:1088500031462846FFF7B4FE28462146FFF79CFE26
:108860003846002101AAFFF7A1FE0198BDE8FC816E
:10887000A81C00202DE9F341864616480C46866860
:108880007146984602AD4FF0FF3306F10A0045F8F5
:10889000043D1746FFF756FA0C21FFF753FA21461D
:1088A000FFF750FA3946FFF74DFA4146224606F1E6
:1088B0001A0009F0C3F9902031461022A3B2FFF745
:1088C000A7FE40F202202946FFF766FE0198BDE8A8
:1088D000FC8100BFA81C002037B50B4B40F20725D8
:1088E0000446996800222846FFF76AFE2846694632
:1088F000FFF752FE9DF803009DF804102070617090
:108900009DF800003EBD00BFA81C002037B50D4AF1
:10891000034695680C4605F109001946FFF712FA5F
:10892000214640F20324FFF70DFA2946082220468B
:10893000FFF746FE20460DF10601FFF72DFEBDF8BC
:1089400006003EBDA81C00202DE9F0430023CA5CB0
:10895000C2540133102BFAD10022334B467B9918B5
:1089600091F8018004789F19F97A88EA0405847BDC
:1089700085EA01081D194178EF7A90F80CC04F4044
:10898000C17B80F810805D1895F80B908578634462
:1089900089EA050593F80B90C378477489EA0303C5
:1089A00090F80490FFB288EA090890F80590857461
:1089B00087EA090790F80690EDB285EA090590F874
:1089C0000790C374DBB283EA090390F8089080F83B
:1089D00014805FFA88F888EA090890F809904775CA
:1089E000FFB287EA090790F80A908575EDB285EA2B
:1089F000090590F80B90C375DBB283EA090388EA96
:108A00000C0C7E406C405940013280F8188047764B
:108A10008576C37680F81CC046778477C17710309E
:108A20000A2A9AD1BDE8F0836A32010810F0800F5B
:108A30004FEA400018BF80F01B00C0B27047000032
:108A40002DE9F04F037891F8A0A004468AEA030AC2
:108A500080F800A091F8A1204078A77882EA00056C
:108A6000657091F8A260E07886EA0703A37091F838
:108A7000A32097B0059582EA0005E57091F8A490CF
:108A80002679069389EA060984F8049091F8A5707E
:108A90006379079587EA0302627191F8A600A579C8
:108AA000E37980EA0506A67191F8A7700C9287EA2F
:108AB000030B84F807B0227A91F8A880607A88EADC
:108AC000020884F8088091F8A970089647406772F8
:108AD00091F8AA50A67AE07A85EA0603A37291F883
:108AE000AB20267B82EA0005E57291F8ACC00993C1
:108AF0008CEA060C84F80CC091F8ADE0637BA27B95
:108B00008EEA030E84F80DE00D9591F8AE50E07BEF
:108B10005540A57391F8AF204B4B4240E2739A4405
:108B200091F890009AF80B6199444640267091F8AC
:108B3000940099F80BA198448AEA0006267191F8EE
:108B4000980098F80B919C4489EA000626729CF8DC
:108B50000BA191F89C009E448AEA00062673DF1957
:108B60009EF80B8197F80BC191F8910091F89D60E8
:108B700088EA00098CEA060060730C9FDDF814A0F7
:108B8000DE1996F80B0191F89970DDF8208080EAE3
:108B90000706667203EB0A0091F8956090F80B7176
:108BA00084F8019087EA0600607103EB0800DDF8A5
:108BB00018E090F80B91099803EB0E0703EB000EF9
:108BC0009EF80BC191F8920091F89A6097F80B719A
:108BD0008CEA000A77405D1991F89E6084F802A043
:108BE00091F8960095F80B81A772079F88EA000517
:108BF00089EA0606A673A571DE1996F80B0191F8AD
:108C00009F5003EB0B0791F89360454097F80B01D9
:108C10009A1880EA06070D98E7701E1896F80B71EF
:108C200091F897004FF0090B87EA0006E67191F87A
:108C30009B3092F80B71E57387EA0300E0720D46F2
:108C4000CDF840B002E000BF6A32010894F800900D
:108C5000A77887EA0900FFF7E9FEFFF7E7FE94F837
:108C60000180E678824686EA0800FFF7DFFEFFF71C
:108C7000DDFE8AEA070380EA080227797040A679B8
:108C80008AEA09015FFA80F886EA07005FFA82FB48
:108C90005FFA83FA5FFA81F903970296FFF7C6FE3F
:108CA000FFF7C4FEE6796779014686EA070004917A
:108CB000FFF7BCFEFFF7BAFE039B049A94F808C0C6
:108CC00082EA0301CBB2029947404A40A17A704040
:108CD000C6B2059381EA0C00D3B20291CDF804C06C
:108CE00006930796FFF7A2FEFFF7A0FE637AE67AE7
:108CF000024686EA030003930492FFF797FEFFF70C
:108D000095FE049ADDF804C0039B82EA0C015FFA29
:108D100081FC80EA0301CBB2029909934A40D3B2A5
:108D2000CDF820C00A9394F80CC0A17B7040C6B265
:108D300081EA0C000291CDF804C00B96FFF776FE95
:108D4000FFF774FE637BE67B024686EA030003932B
:108D50000492FFF76BFEFFF769FEDDF804C0049A8A
:108D6000039B82EA0C015FFA81FC80EA0301CBB22B
:108D7000029970404A40C6B288EA0A018BEA0900AB
:108D80000D93D3B20E930291CDF830C00F9681EAC5
:108D90000006FFF74BFE89EA000286EA020C5FFA42
:108DA0008CFC8AEA0B0084F800C0CDF804C0FFF701
:108DB0003DFE8BEA000386EA030B02995FFA8BFC07
:108DC00084F801C00846CDF844C0FFF72FFE8AEAB8
:108DD000000286EA020A5FFA8AFB88EA090084F840
:108DE00002B0CDF848B0FFF721FE88EA0000DDF8B8
:108DF00018900599079A4640FFB2F6B282EA090830
:108E000087EA0100E670139688EA0006FFF70EFE77
:108E1000059B584086EA0001CAB248462271784054
:108E20001492FFF703FE474086EA0703D8B2159075
:108E300060714046FFF7FAFD89EA0001059B86EA6A
:108E400001020798D7B25840A7710697FFF7EEFDC9
:108E50000799089A48404640F6B20A9F0596E6717F
:108E600009980B9E50407E4086EA0007FFF7DEFD22
:108E7000DDF820A08AEA000387EA030C5FFA8CF889
:108E800084F8088009990A984840FFF7CFFD099AAD
:108E9000504087EA000B5FFA8BF9304684F809905E
:108EA000FFF7C4FD0A9E524686EA000387EA0301E3
:108EB0000B985FFA81FB504084F80AB0FFF7B6FDCB
:108EC000DDF82CA00E998AEA00000C9E47400F9B0B
:108ED0000D98FFB24B407040E77283EA000A02939C
:108EE000FFF7A4FD0C9A0D9B50408AEA00060E98ED
:108EF000F6B226735840FFF799FD0D99029B81EA5F
:108F000000028AEA0200C1B2617318460391FFF7BA
:108F10008DFD0E9A0C9B50408AEA00010F98CAB250
:108F2000A27358400492FFF781FD0F99514B4840BE
:108F30008AEA000C5FFA8CFADDF804C084F80FA00E
:108F400003EB0C0295F8800092F80B11DDF850C08D
:108F500081EA0002227003EB0C0195F8840091F87D
:108F60000B219E1982EA000103EB0802217195F89A
:108F7000880092F80BC196F80B218CEA000121724F
:108F800095F88C00039E82EA000121739A1995F8E6
:108F9000811092F80B0103EB090680EA010295F8B3
:108FA0008D0096F80B11DDF844C081EA0006159992
:108FB0006673581890F80B6195F88910DF1986EAE6
:108FC0000100607203EB0C0695F8850096F80B1112
:108FD0006270129A81EA000666719918DDF818C06D
:108FE00095F88A6091F80B0103EB0C0295F88E104E
:108FF000704092F80B6103EB0B02714092F80BC1C9
:1090000095F882608CEA0602049EA2709A1992F882
:109010000B6195F886205640A671A0721398A17333
:10902000191895F88F2091F80B61DDF814C0724083
:1090300003EB0C0695F8831096F80B015344484057
:10904000E07095F8871097F80B014840E07195F8AB
:109050008B0093F80B11E273109A81EA0003511E02
:10906000103D11F0FF00E37210907FF4EFAD17B0E8
:10907000BDE8F08F6A32010838B5054C0546204638
:10908000FFF762FC28462146BDE83840FFF7D8BC10
:10909000B41B002008B51021034600220C20FFF766
:1090A000BDFB102814BF4FF0FF30002008BD034661
:1090B00010210C200022FFF7DDBB000030B585B089
:1090C000054601F08DFE0190194CE36A4BB108F0A2
:1090D000F5F8E16A00220160E26208F0EFF800684A
:1090E00023E02846FFF740FA10B14FF0FF301CE0B4
:1090F00001F076FE0290029A0198111A0391039BE7
:10910000002B03DA0198029A11180391094B039876
:109110001A689042E9D20649088E83B2002BD3D058
:109120000A8E501E83B20B86002005B030BD00BFF2
:10913000A81C0020301B0020F7B5034614480D463C
:1091400086681946174602AC4FF0FF3206F1090057
:1091500044F8042DFEF7F6FD2946FEF7F3FD41F233
:1091600001053946FEF7EEFD0C2231462846FFF791
:1091700027FA21462846FFF70FFA08F09FF80199D1
:10918000016008460021FEF739FE0198FEBD00BFD0
:10919000A81C0020F7B5054610484FF0FF3387683C
:1091A00002AC294641F20B0607F1090044F8043DE0
:1091B000FEF7C8FD042239463046FFF701FA214682
:1091C0003046FFF7E9F908F079F80199016028467F
:1091D0000121FEF713FE0198FEBD00BFA81C002070
:1091E000F7B50C460746164608F068F84FF0FF330F
:1091F000E62C036023D814480821856805F109008E
:10920000FEF7A0FD2146FEF79DFD0021A14203DAF5
:109210007A5C42540131F9E704F10802D2B22946DE
:1092200041F21000FFF7CCF9694641F21000FFF758
:10923000B3F908F043F80099019B0160336008F02E
:109240003DF80068FEBD00BFA81C002037B50346EE
:1092500013484FF0FF3284680D4604F109001946A7
:109260000192FEF76FFD0821FEF76CFD0821FEF765
:1092700069FD0023E95CC1540133082BFAD11422A3
:10928000214641F20700FFF79BF901A941F20700CF
:10929000FFF782F908F012F8019A026010463EBD0D
:1092A000A81C00202DE9FF411D46314B8646D3F80E
:1092B00008800F4608F10900714616460A9CFEF721
:1092C00041FD1421FEF73EFD1421FEF73BFD142164
:1092D000FEF738FD1421FEF735FDD4F1010138BF4A
:1092E0000021FEF72FFD0FB1396800E03946FEF787
:1092F00029FD0EB1316800E03146FEF723FD0DB1C6
:10930000296800E02946FEF71DFD74B1216839B9CE
:10931000636841F287329342DCBF41F28833636075
:10932000FEF710FD6168FEF70DFD2C22414641F26B
:109330000800FFF745F941F208006946FFF72CF9EC
:10934000009B002B09DB0FB1019838600EB1029A27
:10935000326045B10399296005E007F0AFFF00993D
:109360004FF0FF330160184604B0BDE8F08100BF44
:10937000A81C00202DE9FF419846194B86469E689F
:1093800015460F4606F1090071460B9CFEF7DAFC04
:109390002946FEF7D7FC4146FEF7D4FCBDF8305015
:1093A0000C2231462846FFF70BF9284601A9FFF7A2
:1093B000F3F8029800280ADD0A9938466A46FFF752
:1093C000F5F8009904B121600029D8BF029107F097
:1093D00075FF029A0260104604B0BDE8F08100BF3C
:1093E000A81C00201FB500240094019441F204043D
:1093F0000294FFF7BFFF04B010BD00002DE9F04F4D
:1094000089B08A4616469B46149C0390FFF756FE89
:10941000DDF80CC000285CD12F4B9A6B511C99636E
:10942000D3F80880812C08F10A0307D0832C0CD1D3
:1094300006F1080908F12205182709E008F11A05C4
:10944000814610271390129002E005468146074698
:1094500061461846FEF776FC391FFEF773FC31466D
:10946000FEF770FC5946FEF76DFC832C05D149468A
:10947000FEF768FC0821FEF765FC0023B34204DA1E
:109480001AF80300E8540133F8E7002EA8BFAD191D
:10949000832C0FD0139B129998B2009101904146F2
:1094A000E0B23A46B3B2FFF79CF8832C0BD141F2FD
:1094B0000F000AE00020139A9042EBDA129A115C36
:1094C00029540130F7E741F2030005A9FFF764F8DA
:1094D000069809B0BDE8F08FA81C00201FB5002435
:1094E0000094019481240294FFF788FF04B010BD1A
:1094F0001FB5069C0094079C019483240294FFF7F7
:109500007DFF04B010BD0000202A73B503460E464F
:10951000144622D8124A1946956805F10900FEF74B
:1095200011FC0821FEF70EFC2146FEF70BFC002281
:10953000A24203DAB15C81540132F9E704F10C0371
:109540002946DAB241F21100FFF73AF841F2110070
:1095500001A9FFF721F8019801E04FF0FF307CBD31
:10956000A81C0020024B01225A805860FEF76CBDF7
:10957000A81C002010B50A4CE16022616361029BC7
:109580000399E361049A059B216262620021A36250
:10959000A061012084F8400084F8411010BD00BF94
:1095A000A81C002070B5174B174D0024064617481D
:1095B000AC63EC632C802C866C86AC86EC86EC620B
:1095C0006C806C60AB6000F0C5FAA968A64214BF5D
:1095D0000226264601224E724FF48040FEF7F0FF2D
:1095E00021464FF48040FEF7D7FFA968224644F297
:1095F0000B00FEF7E5FF44F20B002146BDE870408A
:10960000FEF7CABF141D0020A81C002065950008A5
:1096100038B5094C0020A36A98472546E869064CEE
:1096200080470028FAD0A16809B10022A260BDE8F5
:10963000384000F0B7BA00BFA81C00202DE9F04F59
:1096400083462F4885B0D0F80890144600259A46E6
:1096500088464FF0FF331C2109F1090001930F9E4A
:109660000E9F0295ADF80C50FEF76CFB2146FEF7FD
:1096700069FB5946FEF766FB04F11001FEF762FB39
:109680003146FEF75FFB2946FEF765FBBAF1000F96
:1096900008D01AF8052042550135062DF9D10630BB
:1096A000002207E0534602AA995CC1540133062BFD
:1096B000F9D1F4E7A24204DA18F802108154013219
:1096C000F8E7002CA8BF00193EB100232FB1B34228
:1096D00003DAFA5CC2540133F9E71C34A319DAB295
:1096E00049460120FEF76CFF01A90120FEF754FF57
:1096F00007F0E4FD01990160084605B0BDE8F08F70
:10970000A81C0020F7B503460F480E468568194689
:10971000174602AC4FF0FF3205F1090044F8042D62
:10972000FEF710FB3146FEF70DFB3946FEF70AFB4C
:1097300029460C220420FEF743FF04202146FEF7B1
:109740002BFF0198FEBD00BFA81C00202DE9F04FA3
:1097500082466E4885B0D0F808800D4614465146C2
:10976000002208F1090099460E9F0F9EDDF840B0D7
:109770000292ADF80C20FEF7E5FABAF1030F00F201
:10978000B680DFE80AF0022A70701421FEF7DAFAD8
:109790002146FEF7D7FA0021FEF7DDFAB9F1000FF6
:1097A00007D0002219F8021081540132062AF9D19B
:1097B00006E04B4602A95A5CC2540133062BF9D18C
:1097C00006303946FEF7BEFA0023A34203D0E95C17
:1097D000C1540133F9E7183387E02021FEF7B2FACC
:1097E0002146FEF7AFFA0021FEF7B5FAB9F1000FF6
:1097F00007D0002219F8021081540132062AF9D14B
:1098000006E04B4602AA995CC1540133062BF9D1FC
:1098100039460630FEF796FA04F10C01FEF792FA8B
:109820003146FEF78FFA5946FEF78CFA0022A24223
:1098300003D0AF5C87540132F9E7001900220421FC
:10984000129D8718AD180023B34205D015F803E028
:1098500007F803E00133F7E701391A44F0D1243463
:1098600004EB830341E02821FEF76CFA2146FEF762
:1098700069FA0021FEF76FFAB9F1000F07D0002254
:1098800019F8021081540132062AF9D106E04B463C
:1098900002A95A5CC2540133062BF9D1394606306D
:1098A000FEF750FA3146FEF74DFA5946FEF74AFAEE
:1098B0001199FEF747FA04F10801FEF743FA1399EC
:1098C000FEF740FA0021A14203D06A5C4254013104
:1098D000F9E70019002313998B4204D0129AD15C46
:1098E000C1540133F7E72C34E3189BB200E00023A6
:1098F0004146DAB20520FEF763FE052001A9FEF716
:109900004BFE019805B0BDE8F08F00BFA81C0020F9
:1099100037B50B4B01469D6802AC05F10900FEF717
:1099200011FA4FF0FF3044F8040D294604220620B6
:10993000FEF746FE06202146FEF72EFE01983EBDAC
:10994000A81C002037B548F2080248F2080102407E
:109950008A42034613490BD10020934281F840000C
:109960001FD023F4004424F0080545F4004302E02E
:10997000012081F840000B494FF0FF328D6802ACA6
:10998000194605F1090044F8042DFEF7DBF92946D4
:1099900004220820FEF714FE08202146FEF7FCFDF5
:1099A00001983EBDA81C002073B50C4B01469D6874
:1099B0004FF0FF3602AC05F109000196FEF7C2F93F
:1099C00044F8046D294604220A20FEF7F9FD0A2016
:1099D0002146FEF7E1FD01987CBD00BFA81C0020D8
:1099E00007B50D4A4FF0FF330193916890B15423AE
:1099F0004370037083704B7242788A7280780322BE
:109A0000C8720C20FEF7DCFD0C2001A9FEF7C4FD96
:109A1000019800E018460EBDA81C00202DE9F04179
:109A2000324886B0FFF736FB054600285AD1304E43
:109A30000D2043212A463346FEF7F0FE432802D08C
:109A40004FF0FF354EE03778284907F1030808EB5F
:109A500006042046FFF710FB3378F61870781028BC
:109A600004D904F110002149FFF706FBE17F204AE9
:109A700021B112F808301F2B04D101E012F8083090
:109A8000013400E02023107811188A78032A29D89D
:109A9000DFE802F0020E191900200125009501905F
:109AA000029003900490059012493A46034616E04E
:109AB00001208DE809000023029303930494059389
:109AC0000C493A460BE0012018211E2202258DE8A0
:109AD000270008490593049403203A460023FFF722
:109AE00035FE0546284606B0BDE8F081EC1C002096
:109AF000641C0020651C002000F0010383F00100BD
:109B000003B962B670470000F8B50446EFF310875A
:109B100072B60E4E337A9C4209D0052C01D0012535
:109B200006E00B48C16988470028F8D13472002547
:109B30003846FFF7E1FF054B15B15A69002AE5D019
:109B40005869D0F1010038BF0020F8BDFC1C00208E
:109B5000A81C00200F4B10B500220F490F4C1A72A1
:109B60001961DA80DA609A801860A36A1046984713
:109B70000B4800F0FDF9206A80474FF47A7000F03E
:109B8000F7F90120A26A90470120BDE81040FFF7D5
:109B9000BBBF00BFFC1C002014210020A81C00201B
:109BA000E093040010B5054C636A98470020A16A51
:109BB000884703480022026110BD00BFA81C002096
:109BC000FC1C0020024B4FF480725A60704700BFAB
:109BD00000E100E02DE9F84307460E4614461D4615
:109BE000EFF3108072B6DFF88080A4B298F8089086
:109BF000FFF782FF002000F0EDFD012037B931466C
:109C0000224600F06FFD3846154906E0D8F81010DE
:109C1000224600F067FD00203146224600F062FD3A
:109C200010480221012201F0B6FC012000F0D2FD13
:109C30009DB1EFF3108072B60B4C257AFFF75CFFF5
:109C4000A945234602D16269002AF2D05869D0F1B1
:109C5000010038BF0020BDE8F8832846BDE8F8833E
:109C60005802002058000240FC1C0020CB074CBFCB
:109C70000B464B1C10B5C3F3072444700024C4707A
:109C80000471054C01220270837084F84120034A5C
:109C9000D0609180581D10BDA81C0020FC1C002025
:109CA0002DE9F04104460D46EFF3108072B6384EB0
:109CB000377AFFF721FF17B1012F2AD104E00120E5
:109CC000FFF722FF00285FD0EFF3108872B6032160
:109CD000377A317200F0A8FE4046FFF70DFF2046AC
:109CE0002946FFF7C3FF0646002F4DD0322000F073
:109CF0003FF90120214604220346FFF76BFF0028AD
:109D000042D03220B5B200F033F90120211D2A1FC4
:109D100030E00220FFF7F8FE002835D0EFF310877F
:109D200072B61B4B1E7AB21E504250EB020656B161
:109D3000EFF3108872B604211A7A197200F074FEDB
:109D40004046FFF7D9FE3846FFF7D6FE104B16B94E
:109D50005A69002AE2D05869B0B920462946FFF76F
:109D600085FF06460520FFF7CFFE68B1B5B201209A
:109D700021462A460346FFF72DFF002814BF284638
:109D80004FF0FF30BDE8F0814FF0FF30BDE8F081CB
:109D9000FC1C002070B54FF4003001F005FC324C83
:109DA00005464FF4005001F0FFFB237AD91E052928
:109DB00054D8DFE801F03D533D53032A002D52D023
:109DC000002850D04FF4083001F0FCFB082020722E
:109DD0002469B4F80320C2F3072343EA02218CB2BA
:109DE000002C40D0E10701D4601C84B2B4F5806F30
:109DF00002D90A2001F028FA1B4A00201169034603
:109E00002246BDE87040FFF7E5BE00282BD04FF496
:109E1000083001F0D7FB154B02204FF480722072FE
:109E2000C3F8842000F0E6FC21682069884770BDF3
:109E3000CDB10F48802101F0D0FE0028F9D10A4CA5
:109E40004FF4083001F0BEFB237A032B01D105212A
:109E500002E000F0CFFC0221217270BD0B20BDE8B2
:109E6000704001F0F1B970BDFC1C002000E100E081
:109E7000003800400E4B70B5D86980470546B0B930
:109E80000C4C217A022904D004290ED079B9012280
:109E90000CE00723237200F0C7FD21692846052244
:109EA0002B46BDE87040FFF795BE0522227270BDBB
:109EB000A81C0020FC1C0020BFF34F8F054A064B56
:109EC000D16801F4E06040EA0301D160BFF34F8F35
:109ED000FEE700BF00ED00E00400FA050D4B0E4A5E
:109EE000197839B9D88881B21187188981B29187D8
:109EF0009B8806E0D88981B21187188A81B2918740
:109F00009B8906489BB29386FF21632202704170B1
:109F1000704700BF341B0020002C0140600200206D
:109F20004FF4407001F028BA0A4B4FF47A701A6867
:109F3000094BB2FBF0F109484A1EF0215A6080F843
:109F40002310002207219A601960D02380F8233063
:109F5000704700BFB402002010E000E000ED00E018
:109F6000024B18601A68002AFCD170472025002097
:109F700007B50E4B0E4A59680E4B009111684FF011
:109F8000FF32B1FBF3F1B2FBF1F3984228BF184660
:109F90004143019105484168009A019B881A984203
:109FA00002D201F071FCF5E70EBD00BF001000E029
:109FB000B402002040420F0030B54FF4003085B0AD
:109FC00001F05CFB08204FF40033002501248DF8DC
:109FD0000D00684402938DF80C508DF80E4001F08E
:109FE000FBFA032101A88DF804108DF805108DF8F7
:109FF00006508DF8074001F0C9F9042329220DEB22
:10A0000003008DF804208DF805308DF806508DF88A
:10A01000074001F0BBF9022001F060FC50B10220C2
:10A0200001F066FC01F072FD24204FF6FF7101F093
:10A03000EBF927E0242001F0F5F94AF2A551884216
:10A0400001D101F037FC012001F060FC412001F05A
:10A05000E3FC0028FAD04FF4807001F067FC012087
:10A0600001F06CFC01F052FD01F046FD03200121DE
:10A0700001F0EEFC01F040FD47F6FF7001F02CFD11
:10A0800001F03AFD05B030BD10B5044645F255501B
:10A0900001F0E8FB062001F0EBFB2820604340F6CE
:10A0A000FF73010A994228BF194688B201F0E6FB06
:10A0B00001F0EAFBBDE8104001F0EEBB082814D81F
:10A0C000012908D10B490C4A01EB8003596832F889
:10A0D000100008610BE051B9064B074A03EB800101
:10A0E0004B6832F81000586101E0FF2300E00023C4
:10A0F00058B27047600200207834010873B50E4EE4
:10A100008500731904460121186901F06DFC0B4BA1
:10A1100036F8140010215D19ADF804008DF8071011
:10A120000322686801A98DF8062001F027FB20466C
:10A130000021FFF7C3FF7CBD7834010860020020D6
:10A1400070B5012188B04FF4006001F04DFC314B37
:10A1500031481C686026B4FBF0F1304C01A88DB288
:10A1600001F08AFE01A801F087FE42F20F7201A9F8
:10A17000ADF8045020460025ADF80820ADF80A508F
:10A18000ADF8065001F030FD04A801F07EFE022378
:10A19000ADF810602046012604A9ADF81830ADF8DE
:10A1A0001260ADF81650ADF81C5001F067FD204666
:10A1B000294601F0A3FE204604A901F0A3FD204694
:10A1C000294601F0A3FE204604A901F0DFFD204648
:10A1D000294601F0A5FE204604A9ADF81050ADF8BF
:10A1E0001260ADF81650ADF8185001F011FE20467F
:10A1F000294601F09DFE2046314601F073FE2046BF
:10A20000314601F04CFE2046314601F054FE08B0C4
:10A2100070BD00BFB402002040420F00002C01407E
:10A2200030B51049104A8C8D92F82420A5B26C1CD0
:10A230005443C0F307456C430C4B240CDC808D8DDC
:10A240005861ACB201345443C0F307256C43240C6D
:10A250001C81898DC0B289B2013148434243120C3E
:10A260009A8030BD002C014060020020341B002089
:10A2700030B51049104A8C8D92F82420A5B26C1C80
:10A280005443C0F307456C430C4B240CDC818D8D8B
:10A290009861ACB201345443C0F307256C43240CDD
:10A2A0001C82898DC0B289B2013148434243120CED
:10A2B0009A8130BD002C014060020020341B002038
:10A2C000024B00221A70FFF709BE00BF341B0020AA
:10A2D00037B50F4D044605EB8003186B012105EBE4
:10A2E000440501F081FBB5F84000ADF804000CB95D
:10A2F000102100E01821074B8DF8071003EB8404B0
:10A300000322A06A01A98DF8062001F037FA3EBDAC
:10A31000783401086002002018B1E72807D1FFF760
:10A32000DDBD034B4FF40052986A026170477047DD
:10A330006002002058B1E7280FD1084A00230848DE
:10A3400013879387938601220370427005E0044BC4
:10A350004FF40050996A486170477047002C0140E3
:10A3600060020020024B0122E7201A70FFF7E2BFD3
:10A37000341B002010B1E72840D106E020498B6A49
:10A38000DA6882F40050D86070471E4A1E4B11787C
:10A39000C1B9188F80B208B1198702E0D1888AB29A
:10A3A0001A879B8F184899B209B1002102E0154A1B
:10A3B000138999B281871449888E82B2C2B9114B30
:10A3C000988819E0188F81B209B1002001E0D28984
:10A3D00090B218879B8F0C499AB20AB1002202E012
:10A3E0000848038A9AB28A870749888E83B20BB1DC
:10A3F000002002E0034A908980B28886704700BF3F
:10A4000060020020341B0020002C014010B51D4AC2
:10A4100013780BB9012102E0632B01D1FF215170A8
:10A420005178E7280B44DBB2137029D1164A632018
:10A43000147816497CB9D488A4B25C43B4FBF0F418
:10A44000A4B20C871489A4B25C43B4FBF0F4A4B2A8
:10A450008C8792880EE0D489A4B25C43B4FBF0F4FC
:10A46000A4B20C87148AA4B25C43B4FBF0F4A4B287
:10A470008C87928992B25343B3FBF0F398B28886EB
:10A4800010BD00BF60020020341B0020002C0140E2
:10A4900073B5104C0E4604EB400494F84C1005467E
:10A4A00094F8480001F0C4F9B4F85040204601F097
:10A4B000CFF809480023451995F8381068460094EC
:10A4C0008DF804308DF805108DF8066001F084F8E1
:10A4D0007CBD00BF7834010860020020F7B5224E31
:10A4E0008700F3190546586D0C4640F00100012124
:10A4F00001F07AFA1D4B06EB45065A1992F83A100C
:10A50000B6F85C0002AADF198DF8031022F8080DD6
:10A510006946F86B01F032F9012C24D11021002298
:10A5200013481B2701F0D5FC05238DF8047001A802
:10A5300000278DF805308DF806708DF8074000F083
:10A5400025FFB6F8601006208DF8050001A88DF8EB
:10A5500004108DF806708DF8074000F017FF2846AC
:10A560002146FFF795FFFEBD783401086002002008
:10A57000002C01401C4B1D495A6810B542F4407034
:10A580005860CC681A4844F080730024CB60446063
:10A59000026842F00101016001214FF0C05001F05A
:10A5A0002FFA012001F080F9FFF7BAFC01200146E3
:10A5B00001F01AFAE0B20134FFF7A0FD082CF9D13E
:10A5C000FFF7BEFD0020FFF783FE0120FFF780FEAE
:10A5D0000220FFF77DFE0320FFF77AFE0020012115
:10A5E000BDE81040FFF77ABF002004E0F0ED00E086
:10A5F000001000E0054A064B02EB800103EB40022D
:10A60000C86BB2F85C1001F009B900BF600200200D
:10A6100078340108024B03EB4000818B88B270470D
:10A62000341B0020024B002203EB40008283704762
:10A63000341B002010B5082086B0012101F0D4F9A8
:10A64000264C4FF48040012101F0DAF90320182153
:10A650004FF400538DF802008DF803102046694630
:10A66000ADF8003001F08AF84FF400422046694608
:10A67000ADF8002001F082F804204FF480438DF8FB
:10A68000030069462046ADF8003001F077F800215C
:10A69000ADF804104FF48272ADF80810ADF80A104E
:10A6A0004FF40070ADF81210A4F5544407210123B3
:10A6B000ADF80620ADF80E000822ADF814102046C3
:10A6C00001A9ADF80C30ADF8102001F04DFA238847
:10A6D000034A98B2108006B010BD00BF000C0140C4
:10A6E0002E25002070B5044601208CB00E46014690
:10A6F000154601F06DF9124B002080224FF44051B5
:10A70000012C0193029605900692079008900990FB
:10A710000A910B9006D103900A48049500F098FE28
:10A72000084807E04CB9102307480393049500F04C
:10A730008FFE054801A900F003FF0CB070BD00BFFB
:10A740000C380040440002405800024073B50F230B
:10A750000124002501A88DF804308DF805508DF8EE
:10A760000650174E8DF8074000F010FEFFF762FF0D
:10A7700020462A461349FFF7B5FF28462A461249C4
:10A78000124DFFF7AFFF30460221224600F003FFD3
:10A7900028462146224601F012FA22462846022186
:10A7A00001F00DFA2846214601F0FDF9214608483E
:10A7B00000F0E6FE3046214600F0E2FE7CBD00BF20
:10A7C0005800024014210020141D002000380040D1
:10A7D0004400024010B504462146044800F0D0FE73
:10A7E00003482146BDE8104000F0CABE44000240C4
:10A7F0005800024002484FF4805101F015B800BFE4
:10A80000000C014008B54FF40061024801F006F861
:10A8100008BD00BF000C014030B5092085B0012102
:10A8200001F0E2F84FF400644823694614488DF8BB
:10A830000330ADF8004000F0A1FF0B21012000F033
:10A84000F7FF204600F004FF0C20029400250124AD
:10A850008DF80D0002A88DF80C508DF80E4000F018
:10A86000BBFE282101A88DF804108DF805408DF855
:10A8700006508DF8074000F089FD05B030BD00BFDF
:10A88000000C01401FB52823002401A88DF80430D6
:10A890008DF8074000F07AFD4FF40060029002A8A6
:10A8A0008DF80E4000F098FE1FBD000020B1054855
:10A8B0004FF4807100F0B8BF02484FF4807100F08F
:10A8C000B5BF00BF000C014013B5082001210F4C9B
:10A8D00001F08AF8032010214FF480538DF8060010
:10A8E0008DF80710204601A9ADF8043000F046FFAE
:10A8F000FFF780FF4FF48072204601A9ADF80420D5
:10A9000000F03CFF0020FFF7D1FF1CBD000C014010
:10A9100010B50B4C238823F0400001040A0C228060
:10A92000FFF768FF074B188881B2074841F04002E3
:10A930004FF400712280BDE8104000F077BF00BFE7
:10A94000003800402C250020000C014002484FF444
:10A95000007100F069BF00BF000C014070B5082015
:10A9600086B0012101F040F82D4C01214FF48040C8
:10A9700001F046F818204FF4005303268DF8030029
:10A9800069462046ADF800308DF8026000F0F6FE12
:10A990004FF40041ADF800102046694600F0EEFE8D
:10A9A00004254FF4804220466946ADF800208DF81A
:10A9B000035000F0E3FE4FF4007510232046694673
:10A9C0008DF80330A4F55444ADF800508DF80260C2
:10A9D00000F0D4FEFFF7BAFF00204FF48271ADF80B
:10A9E0000400ADF80610ADF80800ADF80A00ADF8A7
:10A9F0000C00ADF81000ADF812000722204601A9A6
:10AA0000ADF80E50ADF8142001F0AEF823880549DA
:10AA100098B208802046012101F0C5F806B070BD4B
:10AA2000000C01402C25002010B50B4C238823F08E
:10AA3000400001040A0C2280FFF788FF074B1888AA
:10AA400081B2074841F040024FF480512280BDE8B6
:10AA5000104000F0EBBE00BF003800402E25002063
:10AA6000000C014007B50820012100F0BDFF0320C4
:10AA700014214FF480638DF806008DF80710034809
:10AA800001A9ADF8043000F079FE0EBD000C0140C4
:10AA9000002008B500F034FF4FF400000121BDE8AC
:10AAA000084000F0ADBF0000014B03221A60704760
:10AAB000781B0020044B05489A7A0AB1052100E072
:10AAC00001210160704700BF40250020781B002055
:10AAD00007B5022014238DF805000021012201A8EA
