:020000040800F2
:10C00000005000200DC10008C5DD0008C7DD000894
:10C01000C9DD0008CBDD0008CDDD00080000000010
:10C02000000000000000000000000000CFDD00085C
:10C03000D1DD000800000000D3DD0008D5DD0008D8
:10C0400059C1000859C1000859C10008D9DD0008CC
:10C0500059C1000859C1000859C1000859C1000858
:10C06000F9DD000859C1000859C1000859C100088C
:10C0700059C1000859C1000859C10008F3DD000882
:10C0800059C1000859C1000859C1000859C1000828
:10C0900095DE000859C1000859C1000859C10008BF
:10C0A00059C1000859C1000859C100084DDE0008F7
:10C0B00059C1000859C1000859C1000859C10008F8
:10C0C00059C1000859C1000859C1000859C10008E8
:10C0D00059C1000859C1000859C1000859C10008D8
:10C0E0002DDE000859C1000859C1000800000000F9
:10C0F0000000000000000000000000000000000040
:0CC1000000000000000000005FF808F1E3
:10C10C00002100F004B80C4B5B58435004310B4831
:10C11C000B4B42189A42FFF4F6AF0A4A00F003B8F0
:10C12C00002342F8043B084B9A42FFF4F9AF01F0AC
:10C13C00ADFE01F0DBF97047DC2E01080000002099
:10C14C004807002048070020D8150020FFF7FEBF45
:10C15C0008B5064B00221860054906489A6019611B
:10C16C00DA80DA609A80036A984708BD900700204D
:10C17C00A40B00208415002008B5044B1A690AB1E1
:10C18C000020186102494B6A984708BD90070020AF
:10C19C008415002062B6704708B572B606484FF495
:10C1AC00805103F0AFFA054B022218699A601968A6
:10C1BC000530884708BD00BF000C014090070020E7
:10C1CC0070B50646002014460D4600F097FD012E72
:10C1DC00A4B207D130462946224600F017FD0020B4
:10C1EC00124907E0124B01201969224600F00EFD9E
:10C1FC0000202946224600F009FD0E4802210122AA
:10C20C0003F035F9012000F079FD0A4803F037F905
:10C21C000028FAD1084803F032F90028FAD107486F
:10C22C00802103F099FB0028F9D170BD000000209B
:10C23C0090070020580002404400024000380040A3
:10C24C0003460A4601201946FFF7BABF70B50646E9
:10C25C00002014460D4600F051FD012EA4B207D16A
:10C26C0030462946224600F0D1FC0020104907E058
:10C27C00104B01201969224600F0C8FC0020294609
:10C28C00224600F0C3FC012000F038FD0A4803F000
:10C29C00F6F80028FAD1094803F0F1F80028FAD191
:10C2AC000748802103F058FB0028F9D170BD00BF6E
:10C2BC00000000209007002058000240440002407B
:10C2CC000038004003460A4600201946FFF7BEBF5F
:10C2DC0070B50E4D04460E4628464FF4805103F0BF
:10C2EC0013FA002021460422FFF7B0FF0020211D85
:10C2FC00321FFFF7ABFF064B022228464FF480514A
:10C30C009A6003F0FFF9002070BD00BF000C0140E3
:10C31C009007002070B501F00106044686F001007C
:10C32C000D18012300262370C5F307221D4BE67060
:10C33C0026716270A57005319D68081886B215B912
:10C34C009A68012AFCD19968164D012907D120461B
:10C35C003146FFF7BDFFAA68022AFCD11FE0A8688E
:10C36C000228FCD11048802103F0F6FA0028F9D1FC
:10C37C000E4BDD69A8470028FAD00A4D03220C4861
:10C38C004FF48051AA60EC60AE8003F0BDF9074910
:10C39C00C86980470028FAD0AB68022BFCD100207A
:10C3AC0070BD00BF900700200038004084150020AD
:10C3BC00000C014070B5184E35696B79022B08D012
:10C3CC00042B25D1287A441E14F0010F18BF044603
:10C3DC0014E0681D032103F003FDB0F5806F0446E3
:10C3EC0008DB05F10A004FF480610724FFF728FFF2
:10C3FC00B4600EE0C30701D4441C00E024B105F185
:10C40C000A00A1B2FFF71CFF034908228A6000E072
:10C41C000024204670BD00BF90070020024B012075
:10C42C0019690A22FFF7CCBE9007002008B5FFF768
:10C43C00C1FF18B9BDE80840FFF7AEBE08BD00004B
:10C44C0070B5384C4FF40030266903F01BF80546E4
:10C45C004FF4005003F016F8A368062B0BD1002DF7
:10C46C005ED000285CD04FF4083003F019F8BDE81A
:10C47C007040FFF7DBBFA16807291BD100284FD004
:10C48C004FF4083003F00CF80321701D03F0A8FCE6
:10C49C00A0F58064A1B2234CCA0758BFA0F2FF31AB
:10C4AC00206958BF89B200F20A40FFF7C9FE082381
:10C4BC00A36070BDA268082A09D1002830D04FF4BF
:10C4CC00083002F0EDFFBDE87040FFF765BEA068D4
:10C4DC00052814D1002D23D01348802103F03CFAF9
:10C4EC000028F9D14FF4083002F0DAFF4FF48051F4
:10C4FC000E4803F007F90B4A0221916070BDA36846
:10C50C00042B0DD165B1A088E2680521A0F58063EC
:10C51C00A16002F5806099B2BDE87040FFF7D2BE11
:10C52C0070BD00BF9007002000380040000C014097
:10C53C0008B5184BD869804700282AD1164B9A6841
:10C54C0012B90120986008BD996802290AD1062207
:10C55C0012484FF480519A6003F0D6F8BDE80840B9
:10C56C00FFF75CBF9A68032A13D19A88B2F5806FE3
:10C57C0006D805219960D968BDE80840FFF720BEB0
:10C58C0004209860D8684FF48061BDE80840FFF73C
:10C59C0099BE08BD8415002090070020000C0140B6
:10C5AC0010B50131002393420ED0040F092C01D891
:10C5BC00303400E0373401F8014C01330024000121
:10C5CC0001F8024BDBB2EEE710BD08B54FF000608E
:10C5DC004FF4404102F090FE4FF4A060BDE80840DB
:10C5EC0002F04CBE10B5044645F2555003F0A8F8C5
:10C5FC00062003F0ABF842F21070844228BF0446C8
:10C60C0028216143C1F30F2003F0A6F803F0AAF828
:10C61C00BDE8104003F0AEB8082812D8012907D1A4
:10C62C000A4B0B4A53F8201032F8100008610AE04C
:10C63C0049B9064B064A53F8201032F810004861ED
:10C64C0001E0FF2300E0002358B2704708000020EF
:10C65C00DC29010837B50E4D044605EB800318693B
:10C66C00012103F0EBF835F814000A4B1021ADF85A
:10C67C0004008DF80710032253F8240001A98DF84B
:10C68C00062002F0E9FF20460021FFF7C5FF3EBD62
:10C69C00DC2901080800002070B5012188B04FF496
:10C6AC00006003F0CBF8314B42F210701C6863262B
:10C6BC00B4FBF0F14A1E2E4C01A895B203F09AFA85
:10C6CC0001A803F097FA01A9ADF804502046002503
:10C6DC00ADF80860ADF80A50ADF8065003F042F919
:10C6EC0004A803F090FA022060230126ADF818008C
:10C6FC0004A92046ADF81030ADF81260ADF8165014
:10C70C00ADF81C5003F078F92046294603F0B4FA32
:10C71C00204604A903F0B4F92046294603F0B4FAE4
:10C72C00204604A903F0F0F92046294603F0B6FA96
:10C73C00204604A9ADF81050ADF81260ADF81650B3
:10C74C00ADF8185003F022FA2046294603F0AEFA51
:10C75C002046314603F084FA2046314603F05DFA58
:10C76C002046314603F065FA08B070BD0002002087
:10C77C00002C014030B5114B1A78F2B91049C0F3B6
:10C78C0007428C8DA5B26C1C5443FF22B4FBF2F50E
:10C79C00ACB2DC808D8DACB20134C0F307256C4398
:10C7AC00B4FBF2F4A4B21C81898DC0B289B2013100
:10C7BC004843B0FBF2F291B2998030BD480700209B
:10C7CC00002C0140014B1870704700BF4807002037
:10C7DC0038B5044C002325782370FFF7CBFF257068
:10C7EC0038BD00BF4807002037B50F4D044605EB98
:10C7FC008003186B012105EB440503F01FF8B5F815
:10C80C004000ADF804000CB9102100E01821074BD2
:10C81C008DF8071003EB84040322206A01A98DF81C
:10C82C00062002F019FF3EBDDC290108080000209B
:10C83C000B4B1A789AB960B1E72810D1D988094AFC
:10C84C0088B21087198988B290879B8899B2918693
:10C85C0005E0054A4FF40053106A036170477047B6
:10C86C0048070020002C01400800002038B5044C7B
:10C87C00002325782370FFF7DBFF257038BD00BF40
:10C88C00480700200F4A1378D3B990B1E72817D185
:10C89C000D4B198FD088414088B21887998F108919
:10C8AC00414088B29887998E92884A4090B2988677
:10C8BC0006E0064B196ACA6882F40050C8607047DB
:10C8CC00704700BF48070020002C014008000020E2
:10C8DC002B4B1A78002A52D1E72850D1D888294BF3
:10C8EC0080B268B1284A118F88B208B9012007E0DC
:10C8FC00118F928D88B291B24A1C904201D1FF20C7
:10C90C0018701F4B2148198989B269B11E4A938F3F
:10C91C0099B209B9012107E0938F928D99B293B224
:10C92C005A1C914201D1FF21017015488388184887
:10C93C009BB26BB1144A918E8BB20BB9012307E0F9
:10C94C00918E928D8BB291B24A1C934201D1FF23EE
:10C95C0003700D480B49028F91F900309A1891B26F
:10C96C000A4A018792F90010838FCB189AB20849B2
:10C97C00828791F90020838ED31899B281867047F3
:10C98C0048070020E6100020002C0140A50F0020D5
:10C99C00A40F002073B5104C0E4604EB400494F821
:10C9AC004C10054694F8480002F0B0FEB4F8504024
:10C9BC00204602F0BBFD09480023451995F83010BC
:10C9CC00684600948DF804308DF805108DF80660DB
:10C9DC0002F070FD7CBD00BFDC29010808000020BE
:10C9EC00F7B5224E8700F3190546586D0C4640F0FA
:10C9FC000100012102F022FF1D4B06EB45065A19DE
:10CA0C0092F83210B6F85C0002AADF198DF8031008
:10CA1C0022F8080D6946786B02F01EFE012C23D11A
:10CA2C001021002213481B2703F011F900238DF865
:10CA3C00047001A802278DF806308DF805708DF86A
:10CA4C00074002F025FCB6F8601001A88DF8041020
:10CA5C008DF805708DF806408DF8074002F018FC33
:10CA6C0028462146FFF796FFFEBD00BFDC290108D2
:10CA7C0008000020002C014010B501214FF0C050DF
:10CA8C0002F0E8FE012002F07DFEFFF79EFD012082
:10CA9C00014602F0D3FE0024E0B20134FFF7DAFDC8
:10CAAC00082CF9D1FFF7F8FD0020FFF79DFE0120BF
:10CABC00FFF79AFE0220FFF797FE0320FFF794FE84
:10CACC0000200146FFF78CFF154B4FF47A701A6863
:10CADC00144BB2FBF0F14A1E1349F0205A6081F856
:10CAEC002300002207209A601860CB68C3F3022051
:10CAFC00011D0629C0F1070388BFC21E042B28BFE5
:10CB0C000423012000FA03F14B1E03F0030000FA8A
:10CB1C0002F2054B1101C8B283F8230010BD00BF0F
:10CB2C000002002010E000E000ED00E0054A064B9A
:10CB3C0002EB800103EB4002486BB2F85C1002F090
:10CB4C00DBBD00BF08000020DC290108024B03EB11
:10CB5C004000418988B2704748070020024B0022F0
:10CB6C0003EB4000428170474807002030B5082095
:10CB7C0087B0012102F062FE224C01214FF480406B
:10CB8C0002F068FE18204FF4005301258DF80300C5
:10CB9C0069462046ADF800308DF8025002F05CFD7D
:10CBAC004FF40041ADF800102046694602F054FDE8
:10CBBC0004234FF4804220466946ADF800208DF8DE
:10CBCC00033002F049FD0020ADF804004FF48271EF
:10CBDC00ADF80800ADF80A00ADF812000720ADF86A
:10CBEC0006104FF400722023ADF8140001A906487A
:10CBFC00ADF80C50ADF80E20ADF8103002F078FE08
:10CC0C0007B030BD000C01400038004070B5044640
:10CC1C0001208CB00E460146154602F003FE124B65
:10CC2C00002080224FF44051012C01930296059074
:10CC3C0006920790089009900A910B9006D10390E8
:10CC4C000A48049502F070FB084807E04CB9102321
:10CC5C0007480393049502F067FB054801A902F00D
:10CC6C00DBFB0CB070BD00BF0C3800404400024030
:10CC7C005800024073B50F230124002501A88DF83C
:10CC8C0004308DF805508DF80650174E8DF807407E
:10CC9C0002F0FEFAFFF76AFF20462A461349FFF717
:10CCAC00B5FF28462A461249124DFFF7AFFF304612
:10CCBC000221224602F0DBFB28462146224602F0E6
:10CCCC0042FE22462846022102F03DFE284621461D
:10CCDC0002F02DFE2146084802F0BEFB30462146EC
:10CCEC0002F0BAFB7CBD00BF58000240A40B002030
:10CCFC00A4070020003800404400024010B5044650
:10CD0C002146044802F0A8FB03482146BDE8104028
:10CD1C0002F0A2BB440002405800024008B54FF498
:10CD2C000061024802F0E8FC08BD00BF000C0140A5
:10CD3C0030B5092085B0012102F080FD4FF400646C
:10CD4C004823694614488DF80330ADF8004002F0D2
:10CD5C0083FC0B21012002F0D9FC204602F0E6FBFB
:10CD6C000C200294002501248DF80D0002A88DF8EA
:10CD7C000C508DF80E4002F09DFB282101A88DF877
:10CD8C0004108DF805508DF806408DF8074002F020
:10CD9C007FFA05B030BD00BF000C01401FB5282341
:10CDAC00002401A88DF804308DF8074002F070FAC9
:10CDBC004FF40060029002A88DF80E4002F07AFB4E
:10CDCC001FBD000020B105484FF4807102F09ABCE1
:10CDDC0002484FF4807102F097BC00BF000C014078
:10CDEC0037B5114C0820012102F028FD1020032337
:10CDFC004FF480558DF8070001A920468DF80630B8
:10CE0C00ADF8045002F028FC2046294602F07AFCCA
:10CE1C004FF48071ADF80410204601A902F01CFCFF
:10CE2C000020FFF7CFFF3EBD000C014007B50820E6
:10CE3C00012102F003FD032014214FF480638DF8CF
:10CE4C0006008DF80710034801A9ADF8043002F074
:10CE5C0003FC0EBD000C0140002008B502F098FC4C
:10CE6C004FF400000121BDE8084002F0F3BC07B507
:10CE7C00012014238DF8050000228DF8070001A86D
:10CE8C008DF804308DF8062002F002FA0EBD000079
:10CE9C0020B105484FF4806102F036BC02484FF4D3
:10CEAC00806102F02FBC00BF000C014008B5064B9E
:10CEBC001860FFF7BBFFFFF7CFFFFFF7D8FFBDE808
:10CECC00084001F09DBF00BF68020020074B1868A6
:10CEDC00052808D106498A7B012A04D1087C8B7C61
:10CEEC00C11AC8B270470020704700BF80070020ED
:10CEFC00480700200D4B10B51868052813D10C4CB1
:10CF0C00A17B01290FD1228A638AD01A012804D16E
:10CF1C0000210320A17302F0DEF8638A054A591C34
:10CF2C00D05C618210BD4FF0FF3010BD8007002037
:10CF3C0048070020A60F0020074B196805290AD1C5
:10CF4C00064B07495A698854501CB0F5807F5861CC
:10CF5C0001D100225A617047800700204807002049
:10CF6C00E60F002070B51D4A137E012B34D0D0691A
:10CF7C00B0F5807F01D10021D161D3695269174886
:10CF8C00934202D10021017670BD8CBFC3F5807233
:10CF9C00C3EB0202114C0262256A99B2402D05D9ED
:10CFAC004033403DE3612562402604E0E81800234D
:10CFBC00AEB2E06123620A4A01255018C021324604
:10CFCC00257601F0FFFF2846314602F005F9284688
:10CFDC00BDE8704002F06EB870BD00BF480700207D
:10CFEC00E60F0020094B10B593E8140008331868BD
:10CFFC0010180AD008220649FFF7D2FA0549204634
:10D00C000422BDE81040FFF7CBBA10BDE8F7FF1FB4
:10D01C001602002026020020BFF34F8F054A064B54
:10D02C00D16801F4E06040EA0301D160BFF34F8F97
:10D03C00FEE700BF00ED00E00400FA0500230360EA
:10D04C00184670470023036018467047002303609E
:10D05C001846704748F20203984210B517D007DC07
:10D06C00992849D0591E884249D10122244845E0CB
:10D07C0048F2100398422FD0703398423FD1214A86
:10D08C0021480121117001700022204836E01C4C0F
:10D09C0022783AB14FF47F40FFF76CFBE720FFF7A3
:10D0AC00C7FB07E01A4B187808B1411E01E0194B79
:10D0BC0001211970184A1949194B00200870107079
:10D0CC001870184A184B012110701970174A18491A
:10D0DC0010702070087010BD0B7D0F4853B90121E2
:10D0EC0001704FF47F40FFF745FBE720BDE810408F
:10D0FC00FFF79EBB002201E00E480122027010BD1A
:10D10C00EA1000201C1100202C11002048000020E7
:10D11C00EB1000200011002015110020031100203D
:10D12C000E1100200D1100202411002014110020DC
:10D13C0016110020E8100020024B18601A68002A13
:10D14C00FCD1704708110020054B06481A88064987
:10D15C0042800B88054A83801188C180704700BFCC
:10D16C00004C000848000020024C0008044C000849
:10D17C0010B502F0F7F9342002F008FA0F4802F06B
:10D18C004DFA042819D10E4C0C48618802F02AFA89
:10D19C00042811D10B48A18802F024FA04280AD1E2
:10D1AC000948E18802F01EFA042803D1BDE81040BA
:10D1BC0002F0E4B9FEE7FEE7FEE7FEE7004C0008EC
:10D1CC0048000020024C0008044C000838B5614BA4
:10D1DC0061491A68501C18600C6814B10B685A1E0F
:10D1EC000A605E4C206810B12268531E06E05C4D4C
:10D1FC00297829B1E720FFF76BFB1923236019E08D
:10D20C00584B1A784AB9584B1A7812B1E720FFF7E5
:10D21C0039FB5249642008600CE0544C207848B922
:10D22C004FF6FF70FFF7A6FAE720FFF701FB01218D
:10D23C00297021700020FFF789FC40F6B731884235
:10D24C0009D90020FFF78AFC494B4FF6FF749C80EC
:10D25C00FFF78EFF28E0474841F28732036893427C
:10D26C0004D90022026002F07DFA02E001684B1C36
:10D27C0003604148017819B3404B1A7802BB40480F
:10D28C000178B9B93F4847F22F52016891420DD944
:10D29C003D4D02242C702D783C4B012103F8015F8D
:10D2AC000E200A4603F006FAFFF7B6FE0368591C77
:10D2BC00016005E00378022B02D9334D0324E9E722
:10D2CC002E480278002A43D02D4C237813B100202D
:10D2DC00207001E02B490B602D4C01222D4B22704C
:10D2EC001968C72907D900251D6000F013FCA84256
:10D2FC0004DA257002E01868421C1A60194B197880
:10D30C0069B1254843F697220368934204D9002259
:10D31C0002601F48027002E001684B1C03601C494C
:10D32C000B78012B14D01848042202700178174B8B
:10D33C000E2003F8011F01210A4603F0BBF900F08F
:10D34C00C1FA0E48074A0E490023037013700B7084
:10D35C0038BD00BF28110020081100200411002046
:10D36C00141100200D110020241100206C07002046
:10D37C0048000020FC100020EA10002003110020BF
:10D38C001611002020110020E9100020EB100020C5
:10D39C000E11002018110020101100201FB50A22B8
:10D3AC004FF461504FF461613C230A4C8DE80F003F
:10D3BC004FF6FF736380FFF7DBFE684601A902AAF4
:10D3CC0003AB03F005F94AF6AA206080FFF7D0FE04
:10D3DC001FBD00BF48000020394B002039493A4A94
:10D3EC0010B51870394C3A4B087010700146024653
:10D3FC002070187004F044F82078012805D16420BE
:10D40C00FFF79AFE02F046FEF6E710210C2003F01F
:10D41C009DF9304803F064FD2F4804F0A5F9012074
:10D42C0004F086F9FF20FFF7A5F9E720FFF700FAD3
:10D43C002A4900240C70224AE72013782BB9FFF7F5
:10D44C0021FA6420FFF778FEF5E7254CFFF7F0F999
:10D45C000121002223460E2003F0FEF804F0A2F96D
:10D46C00013001210022234620700E2003F022F906
:10D47C0000200122014604F003F81A4B4BF6BB3294
:10D48C009988914202D09A80FFF772FE03F07EFFDA
:10D49C001548002404706420FFF74EFE204603F06C
:10D4AC002BFF48F2442004F011F94FF47F40FFF7B2
:10D4BC0061F9E720FFF7BCF9084B01221A7010BD87
:10D4CC001C1100202C11002015110020EA10002046
:10D4DC00E8100020402A01085000002024110020F0
:10D4EC00EB10002048000020001100207FB5FFF752
:10D4FC00C3FA6FF07F40FFF73DF9E720FFF798F98B
:10D50C007D2002F0B3F920B1864B01221A7002F093
:10D51C00C1F943F69820FFF765F8FFF715FE82482E
:10D52C00C188B1F5404F04D04FF44044C480FFF79C
:10D53C001FFE7C4D2E78012E03D07C4A0AB100F0E0
:10D54C00F7FEFFF74DFC7A4CFFF794FB794B7A48CA
:10D55C007A497B4A009301907A4B02917A487B4935
:10D56C00039403F0B5FE6420FFF7E6FD002003F002
:10D57C00C3FE48F2442004F0A9F80E20102100222A
:10D58C00734B03F069F860B1FF2004F085F81021AB
:10D59C000E2003F0DBF80E20102100226C4B03F060
:10D5AC0089F86B4D6B4A6E7816701378E3B14FF4B3
:10D5BC007F00FFF7DFF8E720FFF73AF9654C20789A
:10D5CC0050B1E720FFF75EF92078431ED9B2FA205C
:10D5DC002170FFF7B1FDF1E75D4B012103F8010F5D
:10D5EC000A460E2003F066F84F4D4AF6AA266988C3
:10D5FC002C46B14201D0FFF7D1FE22785AB94A4BE2
:10D60C004BF6BB359888A84202D151490E7816B911
:10D61C00514A01241470514803F07EF8424B18789B
:10D62C0010B94D4D297811B94FF47F4000E0FF201F
:10D63C004B4CFFF79FF80126E720FFF7F9F826700F
:10D64C00454A13780BB1FFF7C7FE424805780DB376
:10D65C00434E00214FF47F003170FFF78BF8E72029
:10D66C00FFF7E6F83B4C227852B1E720FFF70AF9B6
:10D67C002278FA20561EF5B22570FFF75DFDF1E712
:10D68C004FF47F40FFF776F8E720FFF7D1F8344BE3
:10D69C0001201870334D2978012916D1324E347877
:10D6AC00012C12D1314A107801280ED103253048B3
:10D6BC0004F09EFB2E4982B2012003F0D3FD6B1EB9
:10D6CC0013F0FF05F3D127490D70274E3478BCB108
:10D6DC00284C2678A6B94FF6FF70FFF74BF8E720D9
:10D6EC00FFF7A6F81E4A012523481570037859192F
:10D6FC00CAB2027000F0B6F80028B4BF26702570CC
:10D70C00084C2678012E03D01C4D0DB100F048FFBB
:10D71C002078012894D01A4B1968002990D088479A
:10D72C008EE700BF0C110020480000203DE30008EC
:10D73C00D1CD000829CD00083DCD0008A9CD0008A9
:10D74C0051D0000859D0000861D0000849D0000819
:10D75C00EB100020E9100020001100200111002026
:10D76C00241100202C11002015110020EA1000209B
:10D77C00530000200311002016110020ADE5000815
:10D78C005013002008B5064B4FF4A044DC80FFF783
:10D79C00EFFC2820214601F0B9FDFFF73DFC00BF4E
:10D7AC00480000200346A0F13000C0B2092817D968
:10D7BC00612B0CD0622B0CD0632B0CD0642B0CD0B7
:10D7CC00652B0CD0662B14BF00200F2070470A204D
:10D7DC0070470B2070470C2070470D2070470E20AF
:10D7EC0070472DE9F041C0B00F468046164668469A
:10D7FC0000214FF480721D4604F0F8F84FB1384602
:10D80C0004F0F6FA044639466846224604F040F81D
:10D81C0000E03C4666B1304604F0EAFA00AB024642
:10D82C003146181904F034F8304604F0E1FA0419C2
:10D83C0065B1284604F0DCFA024600A80019294616
:10D84C0004F026F8284604F0D3FA04190A210DF83E
:10D85C00041040466946621C002303F0F9FC40B0FA
:10D86C00BDE8F08110B502200121062203F060FB17
:10D87C00114C002820601BDB104902220A801D225B
:10D88C002323CA70EB228B704A713623F9220B7159
:10D89C00CA714F2310228B7103F09EFB002807DB0B
:10D8AC000022206806491346BDE81040FFF799BFD7
:10D8BC004FF0FF3010BD00BF341100203812002093
:10D8CC00512A010810B5044C206803F05FFB10B915
:10D8DC004FF0FF33236010BD34110020284BF7B5F7
:10D8EC001E682EB9274831464FF4807204F07EF83A
:10D8FC00254F01213868254D00F01F0201FA02F175
:10D90C00002443092C6055F8232001300A4345F8C4
:10D91C0023201F4B4FF4FA7159601C602946009369
:10D92C002246234603F084FBA042C6F1FF0602DC2C
:10D93C00002E22DC1CE03868430955F8231000F057
:10D94C001F0241FA02F3DB07F2D50D4D0D4F2A6889
:10D95C002346B918324603F003FC00280EDB296875
:10D96C00081828600A21384604F0D6F80028DFD0C1
:10D97C00034B002218681A6000E00020FEBD00BFB7
:10D98C0070070020381100203411002030110020C5
:10D99C004812002070B54C4C032220464B4904F031
:10D9AC0057FA024618B94A4B4A49186816E02046FD
:10D9BC004949052204F04CFA90B9484803780BB950
:10D9CC0001210170464A4748002313600278404900
:10D9DC00086812B144491A466FE03F4913466CE09F
:10D9EC0020464249062204F033FA10B9FFF7CAFE6A
:10D9FC0067E03F4D20462946062204F029FA0646E8
:10DA0C0080B9A079A871FFF7CDFE0121FEF704FEC5
:10DA1C002F4A0346106813B936492A464DE0364959
:10DA2C002A4619E0204605F10801052204F010FAF7
:10DA3C00064698B960796873FFF7B4FE3146FEF775
:10DA4C00EBFD2349034608681BB92A4905F1080276
:10DA5C0033E0294905F1080233462EE020462749D8
:10DA6C00092204F0F5F9F0B904F109000A2104F0D7
:10DA7C0053F830B110F8011C0D2908BF01380022F1
:10DA8C00027000214FF480721D4803F0AFFF1D4857
:10DA9C0004F0AEF91B490246194803F0F9FE1A4886
:10DAAC001A4B18600DE02046194904F0B3F840B148
:10DABC00074B1149186822460023BDE87040FFF758
:10DACC0090BE002070BD00BF38110020582A0108FC
:10DADC00341100205C2A01086C2A01080D11002069
:10DAEC00101100200C110020722A01087A2A01085A
:10DAFC005A000020812A0108852A01088B2A010876
:10DB0C0050120020411100207DDB00085013002032
:10DB1C00952A010808B5FFF7E1FE002803DDBDE8F2
:10DB2C000840FFF737BF08BD10B518B930220A708E
:10DB3C00012318E002460023002A05DD0A240133E4
:10DB4C0092FBF4F2DBB2F7E7C91800280BDD0A24CC
:10DB5C0090FBF4F204FB1200044C2018C07B01F87B
:10DB6C00010D1046F1E7184610BD00BF5A00002009
:10DB7C001FB50C4BA3B10C48002404600B48AFF349
:10DB8C00008001A9FFF7D0FF04A90A18084B094926
:10DB9C0002F80C4C186801F10A0201ABFFF721FEE8
:10DBAC001FBD00BF000000005013002050120020C9
:10DBBC0034110020812A010870470000014608B585
:10DBCC00044802F0F1F80348802102F0F5F800282F
:10DBDC00F9D008BD0044004010B5441E14F8010FE4
:10DBEC0010B1FFF7EBFFF9E710BD000008B5FFF728
:10DBFC00F3FF0248BDE80840FFF7EEBF6C2D0108AB
:10DC0C00202108B5034802F0D7F8003018BF0120D6
:10DC1C0008BD00BF0044004008B5024802F0C8F837
:10DC2C0008BD00BF0044004008B50448002102F0C4
:10DC3C00AFF8034B00221A7008BD00BF004400402F
:10DC4C0074070020FFF778B910B5441E14F8010FC3
:10DC5C0010B1FFF771F9F9E710BD000008B5FFF737
:10DC6C00F3FF0248BDE80840FFF7EEBF6C2D01083A
:10DC7C00FFF740B9FFF72AB9FFF718B914282DE9B7
:10DC8C00F34104460E465BD8FF2959D02D4B18782A
:10DC9C00012803D1A4F11201012951D92A4D2701E0
:10DCAC00EA192A4BEF5904209F42B2F8048003D0A2
:10DCBC002748874203D10820012101F0BFFDADF8B0
:10DCCC000480052E38D8DFE806F00310171E253027
:10DCDC001D4B102103EB041403220020A0738DF8BC
:10DCEC0007108DF80620083426E004208DF8070074
:10DCFC0005EB041401221EE048238DF8073005EBD8
:10DD0C000414022217E028228DF8072005EB0414D6
:10DD1C00032210E00C49182303208DF807308DF8EE
:10DD2C00060001EB0414042205E000218DF8071015
:10DD3C0005EB04140522A273384601A901F08CFCF2
:10DD4C00BDE8FC817407002074000020000801402D
:10DD5C00000C01401FB504460120014601F06EFD88
:10DD6C004FF40030012101F075FD12200121FFF765
:10DD7C0085FF13200421FFF781FF00940C4C0C202D
:10DD8C000023ADF80A0069462046ADF80430ADF822
:10DD9C000630ADF80830ADF80C3001F0A1FF0121D0
:10DDAC00204601F0F5FF034901220A701FBD00BF98
:10DDBC0000440040740700207047FEE7FEE7FEE7D2
:10DDCC00FEE7704770477047FFF700BA08B50120AF
:10DDDC0001F072FD30B1012001F080FDBDE808407A
:10DDEC0001F060BD08BDFEF72BBB000008B5042098
:10DDFC0001F0A2FB78B1042001F0AEFB0020064B31
:10DE0C0001461880FEF7C6FD044810210122BDE82A
:10DE1C00084001F01CBF08BD52070020002C014037
:10DE2C0008B54FF4006001F087FB38B14FF4006087
:10DE3C0001F092FBBDE80840FEF77ABB08BD00007C
:10DE4C0008B50F48102101F03BFFC0B10C48102160
:10DE5C0001F041FF0020FEF769FE28B9094B1A8832
:10DE6C000A3290B2188008BD10210548002201F03A
:10DE7C00EEFE00200121BDE80840FEF78BBD08BD79
:10DE8C00002C01405207002000F0E0B83A4B82B061
:10DE9C001A6842F0010018605968384A0A405A6002
:10DEAC00186820F0847121F480321A60186820F40C
:10DEBC00802119605A684FF41F0122F4FE000022E1
:10DECC005860996000920192186840F48031196092
:10DEDC00294B1A6802F40030019000994A1C0092F8
:10DEEC00019818B90099B1F5A06FF1D11B6813F422
:10DEFC00003218BF012201920198012805D0204B55
:10DF0C004FF000629A6002B070471E490B6843F0F4
:10DF1C0010020A60086820F003030B600A68A1F580
:10DF2C00805342F002000860596859605A685A6080
:10DF3C00586840F4806159605A6822F47C1058602B
:10DF4C00596841F4E8125A60186840F08071196001
:10DF5C001868094A8101FBD5536823F0030151600D
:10DF6C00506840F002035360034A516801F00C0002
:10DF7C000828F9D1C3E700BF001002400000FFF8E9
:10DF8C0000ED00E00020024038B514490B78012B5D
:10DF9C0023D1134A13680BB90B7038BD114C402BAD
:10DFAC00206881B205D94030403B20601360402589
:10DFBC0004E09DB2C3180020236010600A4A501878
:10DFCC00C0212A4600F0FEFF0120294601F004F989
:10DFDC000120BDE8384001F06DB838BD6007002065
:10DFEC006807002064070020E60F0020094908B5E7
:10DFFC000020094B0122088003201A7001F018F947
:10E00C00064B0246188006484FF48871BDE808405C
:10E01C0000F0EFBF5A0700205607002058070020D9
:10E02C00A60F0020074B1868052809D1064B1A6863
:10E03C00511C052A196003D100201860FEF792BF0D
:10E04C00704700BF800700207807002038B5194BB7
:10E05C00194A1968194D88B21080148829882140F2
:10E06C0001F4007082B24AB14FF6FF541C60144B9D
:10E07C001D78691CC8B21870FFF7D4FF0E4A0F4BFD
:10E08C0014881D88254005F4004188B215461C46AD
:10E09C0008B100F0D1FE2A882388134003F4806174
:10E0AC0088B230B1034B07494FF6FF321A6048680B
:10E0BC00804738BD445C0040541300208814002075
:10E0CC007C070020A0020020034B987A10B1034972
:10E0DC0005220A60704700BF6414002080070020EE
:10E0EC00014B04221A60704780070020034B1A78FA
:10E0FC00202A01D100201870704700BF7D07002036
:10E10C0070470000212810B508D111480368197810
:10E11C0001F07F02212A11D0022010BD2028FBD152
:10E12C000B4B19680A780B4902F07F030A4A212B22
:10E13C000CBF0B46002310700BB9EDE7074B044CDA
:10E14C00206800248361448220469847204610BDF5
:10E15C0084140020B9E100087D070020A1E100082B
:10E16C00074B19680A7802F07F03212B05D102288E
:10E17C0001D1002070472228FBD00220704700BF3D
:10E18C008414002009B1022070470128FBD80846EE
:10E19C007047000020B9034B082219680A827047A7
:10E1AC0001487047841400206802002020B9034BFA
:10E1BC00082219680A8270470148704784140020AD
:10E1CC0068020020054B1968CA78042A04D8044B4D
:10E1DC0003EBC20100F0B0BB002070478414002098
:10E1EC0070020020014900F0A7BB00BF9002002084
:10E1FC00014900F0A1BB00BF98020020334A344B08
:10E20C00D179186810B5002441728472C47220460A
:10E21C0000F002FF20464FF4007100F005FF1021C2
:10E22C00204600F00DFF4021204600F0A9FF802180
:10E23C00204600F095FF204600F05EFF254B20465F
:10E24C0093F8641000F0D6FF204600F044FF012044
:10E25C00214600F0E9FE0120C02100F081FF0120E1
:10E26C00202100F0EDFE0120214600F006FF0220E7
:10E27C004FF4C06100F0D8FE02204FF4807100F022
:10E28C006FFF0220214600F0F8FE0220202100F052
:10E29C00D7FE0320214600F0C7FE03204FF48871FF
:10E2AC0000F06EFF0320402100F0A4FF03204FF488
:10E2BC00405100F0E2FE0320214600F0C1FE204652
:10E2CC0000F04CFD044A0120106010BDFD2A01082D
:10E2DC0084140020680200208007002010B5FEF78F
:10E2EC0081FE054B00241868847200F009F800F0D8
:10E2FC00B5FF02490C6010BD84140020800700207B
:10E30C0008B50120FEF7C4FD064B07490122002089
:10E31C001A601860086005494FF4E0520A801A60D0
:10E32C0008BD00BF405C0040445C004088140020E5
:10E33C0008B50120FEF746FAFF20FEF749FAE72060
:10E34C00FEF794FA024B4FF416501968884708BD33
:10E35C00E401002073B5044600200D460246014638
:10E36C0003F08EF8204603F043FD0646284603F0E2
:10E37C003FFD21460190324600230095032003F017
:10E38C001BF8074B01224FF0FF101A70FEF720FA12
:10E39C00E720FEF76BFA03488169034888477CBD88
:10E3AC0048000020E40100206F2D010838B50D460F
:10E3BC00084904F031F9002450B1042CD8BF45F8B9
:10E3CC0024000449D8BF0134002004F025F9F3E7F8
:10E3DC0038BD00BF7F2D01081FB50C4904F01CF996
:10E3EC000024C0B278B1032C07DC03F047FA04AA6E
:10E3FC0002EB840343F8100C01340020034904F0B1
:10E40C000BF9C0B2EEE7684604B010BDD12D01087F
:10E41C0030B585B01546FFF7DFFF01210622044613
:10E42C00022002F085FD002802DA4FF0FF3023E0D5
:10E43C0023211D228DF802108DF803200223ADF844
:10E44C00003023688DF8043061688DF80510A268DF
:10E45C0069468DF80620E36810228DF8073002F02B
:10E46C00BBFD0028E1DB284603F0C2FC294602462E
:10E47C000023024802F0ECFE05B030BD3D0F010850
:10E48C0008B542F21D31FFF7C3FF064B06489969E8
:10E49C0088474FF6FF70FEF79BF9E720BDE8084070
:10E4AC00FEF7E4B9E4010020822D010830B5314CAF
:10E4BC0087B0A368984700285AD0E06880472E4A56
:10E4CC002E4913680968C0B28B4203DA2C49C85430
:10E4DC00013313603B284BD1264C2A48A569A84729
:10E4EC00626929489047A1692548884724482749EB
:10E4FC0003F01CFF0546E8B11F4B0021A26919600F
:10E50C0023489047284601A9FFF750FFA1692148ED
:10E51C008847A36901989847A26902989047A16916
:10E52C0003988847A3691C48984702980399FFF7FA
:10E53C0011FF1DE01248194903F0F8FEC0B10E4856
:10E54C00A36905601248984701A90D48FFF72EFFF3
:10E55C00A26901989047A16902988847A36903981A
:10E56C009847A2690498904702A807C8FFF788FF4C
:10E57C0007B030BDE401002084070020F802002021
:10E58C00561300208C2D01089B2D0108522B0108DD
:10E59C00AE2D0108BC2D0108C52D01085B2B01080F
:10E5AC00FFF784BF10B5064C18B9236801221A82F4
:10E5BC0010BD044B18680168884720680A3010BDEC
:10E5CC00841400208014002010B5064C18B9236860
:10E5DC0001221A8210BD044B186881688847206894
:10E5EC000C3010BD841400208014002008B5234A80
:10E5FC0018B9136802221A8208BD214B0020126838
:10E60C001880117811F07F0113D1507A00F020029C
:10E61C00D1B209B102221A7000F04003D8B2184BE3
:10E62C0018B11A7842F001011EE0197821F00101AD
:10E63C001AE001291FD002291ED1507900F00F02D7
:10E64C004FEA820110F0800F01F1804000F5B842D2
:10E65C00116803D001F03002102A03E001F440509D
:10E66C00B0F5805F01D101211970064B1868016962
:10E67C008847034808BD184608BD00BF8414002015
:10E68C005614002080140020F8B5224B1C68238AF5
:10E69C00267AABB9042E13D11F48017801291F49E2
:10E6AC000AD11F4C226894B21E4AA2185200136061
:10E6BC0030220A80037028E010260E80072624E002
:10E6CC00A58AA169AB428CBF022604269D4228BFB5
:10E6DC001D46284688470746002000F061FD2A4663
:10E6EC000146384600F06EFC2946002000F074FD0F
:10E6FC00208A638A421BED1808480B4B228230217A
:10E70C004FF44052018065821A80024B18680672E1
:10E71C00F8BD00BF841400208C0700208C1400204E
:10E72C00505C0040023000208A14002010B50A4BC7
:10E73C000A4918684B78C27893420AD3817841B958
:10E74C00848834B982720648026853689847204618
:10E75C0010BD022010BD00BF84140020F402002064
:10E76C008014002038B50E4A0E4C1068236882695C
:10E77C00D9785879904721688B7A7BB170B9087930
:10E78C0060B98D7855B9084A1168CB6898472068EC
:10E79C004279C178C2720173284638BD022038BD57
:10E7AC005C140020841400208014002010B5324B1F
:10E7BC001B68187810F07F0004D15A7A22F02001DF
:10E7CC00597210BD022855D15A88002A53D1197993
:10E7DC00002950D15A7922F080004FEA800404F1CC
:10E7EC00804101F5B8442168244C12F0800F247844
:10E7FC0014BF01F0300101F44051A0423AD200297B
:10E80C0038D09B7A002B35D0840002F0800204F1C2
:10E81C008043D1B203F5B844226861B102F03002F2
:10E82C00102A21D1C4B2204600F087FC20463021AA
:10E83C0000F006FC18E002F44051B1F5805F13D1F2
:10E84C0028B90F4B93F82C1000F0D4FC01E000F029
:10E85C0062FC20684BF68F72024082F4405141F406
:10E86C00004343F08000206006490B6858698047DC
:10E87C00002010BD022010BD84140020F4020020E2
:10E88C00A00200208014002010B51F4B19684A7993
:10E89C0022F080034FEA830000F1804404F5B84075
:10E8AC001A4C0068247812F0800F14BF00F030006E
:10E8BC0000F44050A34224D24C8814BB08B3897A8C
:10E8CC00F9B19B0003F1804102F0800201F5B843DD
:10E8DC00D0B2196828B148F6BF720A4082F0100015
:10E8EC0004E04BF68F720A4082F4805040F40041F1
:10E8FC0041F080001860064B1A6891698847002027
:10E90C0010BD022010BD00BF84140020F4020020B2
:10E91C008014002008B5064B1868064B427A42F06A
:10E92C00200141721868C2699047002008BD00BFE1
:10E93C008414002080140020054B1A68538A18B9DF
:10E94C008988CB1A138270470868C018704700BFBB
:10E95C008414002008B50B4B002093F82C1000F009
:10E96C0049FC09480168087A082806D1074B4FF47E
:10E97C0080521A80064A10211180B0F109035842C6
:10E98C00584108BDA0020020841400208A140020E5
:10E99C008C14002070B52E4B1C68207A02284FD0A6
:10E9AC0004284DD0032801D0052843D1A169208A21
:10E9BC00A9B1A0B1A58A854228BF0546284688473B
:10E9CC00228A0646608A531B291861822382002002
:10E9DC0000F0F4FB2A460146304600F00AFB228A7E
:10E9EC0052B11C4B4FF4405018800020014600F0EF
:10E9FC00F3FB194A30211180208AA38A14498342DF
:10EA0C0002D80B68032202E018B10B6805221A72B7
:10EA1C000CE00A680623114913720A68104993B274
:10EA2C005A1853000C4918603020088008480168B7
:10EA3C000B7A06E0072803D10A490A68D36898477D
:10EA4C000823034A10680372BDE87040FFF782BFC9
:10EA5C00841400208A1400208C140020505C004088
:10EA6C00023000205C140020944B73B51A68944952
:10EA7C0090B24418934E65002A6835682B7A092B9E
:10EA8C0015D090B2410001F1804404F5C0442278C5
:10EA9C002A7063786B70A08800F0DAFB688020899C
:10EAAC00356800F0D5FBA880A0893168C880854DF9
:10EABC0001242B68DA881C725C78002A64D11878DF
:10EACC0010F07F0238D1092C02D1FFF72FFE45E060
:10EADC00052C0FD193F90320002A01DA08214FE00D
:10EAEC0099780029FAD198880028F7D19B7A002BC5
:10EAFC0038D0F3E7032C10D1D878012807D0724A0C
:10EB0C00204611684B699847032829D137E09B8828
:10EB1C00002BF4D1FFF7FEFE20E0012CEFD1D978C9
:10EB2C000129ECD198880028E9D15B7A03F0200206
:10EB3C00D1B20029E3D00AE0012A04D10B2CDED19A
:10EB4C00FFF710FE0AE0022AD9D1012C02D1FFF7FF
:10EB5C002DFE03E0032CD2D1FFF796FE10B1CEE7C9
:10EB6C000028BBD15548594B026891B2C818584B74
:10EB7C004100002230200A601880062100E00921A3
:10EB8C00504A10680172D3E0062C13D11C78610630
:10EB9C007AD19A784C4B012A02D11C68E36969E05E
:10EBAC00022A02D11868036A64E0032A6CD119683E
:10EBBC004B6A5FE0002C3ED15988002964D158681B
:10EBCC0020F47F42B2F5003F5ED11C7814F07F0038
:10EBDC0004D19888002800F0AE8055E001280CD1B3
:10EBEC00394A58791468A269904700284CD12B688F
:10EBFC00997A002940F09F8046E0022844D15B7945
:10EC0C0003F00F014FEA810202F1804404F5B84091
:10EC1C00304C0268207813F0800F14BF02F03002E1
:10EC2C0002F4405281422FD213F0700F2CD1002AE3
:10EC3C0040F0818028E0082C03D119784A067CD05A
:10EC4C0022E00A2C20D1187800F07F0101291BD179
:10EC5C009C7ACCB15988B9B95A6822F47F40B0F586
:10EC6C00803F11D1184C587922689469A04700282C
:10EC7C0065D009E043B113480024016820464C825A
:10EC8C008B61984720460AE00F4A0E4C11682368A6
:10EC9C000A6958789047032801D1236806E0094B8C
:10ECAC004FF6FF711B681A8A8A4201D1092103E0D1
:10ECBC00022800D082B90821197239E0505C00405A
:10ECCC0004300020841400205C140020023000204A
:10ECDC008C140020F402002093F90000002821DAA3
:10ECEC00D98801910198824202D9019A1A8211E0C5
:10ECFC008A420FD21349086890F82C108A4201D22C
:10ED0C00002105E092FBF1F001FB102212B9012168
:10ED1C000D4801700B49086890F82C209A82FFF777
:10ED2C00B3FC05E003221A72084B4FF440511980D2
:10ED3C00FFF710FE7CBD064B9DE7064B9BE7064B91
:10ED4C0099E700BF5C1400208C0700208A14002077
:10ED5C00F9E50008B1E50008D5E5000870B50D4BE4
:10ED6C001C780023A34210D203F1805202F5B8554F
:10ED7C00A90043F400420E6842F0800540F60F7281
:10ED8C0032402A430A600133ECE7034940F080002B
:10ED9C00086070BDF40200204C5C004010B51449B2
:10EDAC000B680C461A7A022A01D0042A04D1FFF708
:10EDBC006BFC2168087A13E0062A10D158780528D4
:10EDCC0009D11978480606D1D878FFF7C7FF094B47
:10EDDC001A68106A804708490B689A68904708209F
:10EDEC00034B1A681072BDE81040FFF7B3BD00BFAB
:10EDFC0084140020801400205C1400207047000054
:10EE0C0008B5074A074B0220136018720649074BD6
:10EE1C000748084A0B6010601B68984708BD00BF84
:10EE2C0084140020641400205C140020A002002034
:10EE3C00D00200208014002037B50023ADF8063036
:10EE4C005848594B026891B21204198040F1A880BD
:10EE5C001888564900F00F020A70002A6ED1544CE3
:10EE6C002568AAB2534D2A802988534A01F03000F4
:10EE7C00108029884BF6BF7201F44050288021681D
:10EE8C000A4082F4005080F0200141F4004242F02C
:10EE9C00800020601B8803F010018AB23AB9226806
:10EEAC0048F60F7010402060FFF778FF1DE02068D7
:10EEBC0083B2ADF80630BDF8061001F4006290B2D2
:10EECC0038B1216840F68F730B402360FFF7CCFDFF
:10EEDC000BE0BDF8063019B20029B1DA226840F611
:10EEEC008F7010402060FFF755FD21682A884BF683
:10EEFC00BF7302F480500B4081B209B183F480538C
:10EF0C002C4A108800F400518AB20AB183F40053E1
:10EF1C002948018801F0100291B209B183F0100365
:10EF2C00008800F0200291B209B183F0200343F471
:10EF3C0000401F4A40F08001116031E0930003F162
:10EF4C00804000F5B843196888B2ADF80600BDF8EA
:10EF5C00061008B2002809DA186840F68F710140D3
:10EF6C001960164B013A53F822008047BDF8061081
:10EF7C0001F0800293B2002B3FF462AF0B48027891
:10EF8C00910001F1804303F5B841086848F60F730E
:10EF9C0003400B600A49013A51F8220080474FE7C1
:10EFAC003EBD00BF445C00405413002060140020A0
:10EFBC00005C00408A1400208C14002030020020D9
:10EFCC004C02002030B501F1005101F540530132E3
:10EFDC005900521000230230934209D010F8015C02
:10EFEC0010F8024C44EA052421F823400133F2E7DF
:10EFFC0030BD01F1005110B5013201F540545210F1
:10F00C0064000023934205D054F8231020F8131009
:10F01C000133F7E710BD00004FF6F873014A0340C7
:10F02C0013607047505C0040800000F1804202F594
:10F03C00B842106848F68F130340194311607047AB
:10F04C00800000F1804202F5B842106848F6BF73A8
:10F05C00034001F0100080B208B99BB201E083F0CC
:10F06C00100301F0200188B208B183F0200343F4AF
:10F07C00004141F0800010607047800000F1804238
:10F08C0002F5B84210684BF68F73034001F48050C0
:10F09C0080B208B99BB201E083F4805301F40051B3
:10F0AC0088B208B183F4005343F4004141F080006E
:10F0BC0010607047800000F1804202F5B840016892
:10F0CC0048F6BF730B4083F0300242F4004141F02C
:10F0DC00800303607047800000F1804202F5B84065
:10F0EC0001684BF68F730B4083F4405242F400419D
:10F0FC0041F0800303607047800000F1804202F50C
:10F10C00B840016840F60F630B4043F4004242F0F4
:10F11C00800101607047800000F1804303F5B84026
:10F12C000268510408D5016840F60F730B4043F494
:10F13C00404242F0800101607047800000F1804342
:10F14C0003F5B8431A68500608D5196840F60F70D5
:10F15C00084040F4004242F0C001196070470000C2
:10F16C00064B49081A6893B203EBC00000F1005239
:10F17C0002F5405358004A0002607047505C004052
:10F18C00054B49081A6893B2044A03EBC000831874
:10F19C0058004A0002607047505C00400430002068
:10F1AC00054B19688AB202EBC00000F1005303F55D
:10F1BC0040514A0010887047505C0040044B19685D
:10F1CC00044B8AB202EBC000C1184A001088704789
:10F1DC00505C004004300020044B1A6893B2044A7F
:10F1EC0003EBC0008318580001607047505C00406E
:10F1FC00023000200C4B1A6893B20C4A03EBC0008F
:10F20C0083185A003E2908D94B09C90601D1581E4A
:10F21C0083B2990241F4004104E04B08C80748BF8F
:10F22C000133990211607047505C00400630002099
:10F23C00054B1968054B8AB202EBC000C1184A0095
:10F24C0010688305980D7047505C00400630002014
:10F25C00C3B2000A40EA032070470000044B0020B0
:10F26C001860044A044B4FF4064111801960704732
:10F27C00445C004088140020405C004040F0BF60BB
:10F28C00024B40F40031D960704700BF00ED00E044
:10F29C00C37810B503B3164CE168CB43C3F3022417
:10F2AC004178C4F1040201FA02F10F2222FA04F2AD
:10F2BC008478037822400A43110103F16043CAB2F7
:10F2CC0003F5614181F800230078012200F01F034F
:10F2DC00410902FA03F007E00078012200F01F0355
:10F2EC00410902FA03F02031024B43F8210010BD12
:10F2FC0000ED00E000E100E021F0604121F07F0230
:10F30C00014B10439860704700ED00E0054A82B055
:10F31C00002301930192019BC0180190019A116086
:10F32C0002B07047006C004002684FF6FE73134049
:10F33C0003602D4B00219842016041608160C160E7
:10F34C0022D02A49884229D0294B984230D02949C9
:10F35C00884237D0284B98423ED0284B984206D151
:10F36C0053F8681C41F4700043F8680C704724494A
:10F37C00884206D151F87C0C40F0706241F87C2C2C
:10F38C007047204B984206D153F8042C42F00F01E1
:10F39C0043F8041C70471C49884206D151F8183CAC
:10F3AC0043F0F00041F8180C7047184B984206D106
:10F3BC0053F82C2C42F4706143F82C1C7047144900
:10F3CC00884206D151F8403C43F4704041F8400C5F
:10F3DC007047104B984205D153F8542C42F47021CD
:10F3EC0043F8541C704700BF080002401C00024048
:10F3FC003000024044000240580002406C000240C1
:10F40C0080000240080402401C0402403004024008
:10F41C00440402405804024070B506688C680D6ABA
:10F42C0026F4FF4222F070060A6945EA04034C698F
:10F43C0013438A692343CC6913431C434B6A44EA44
:10F44C0003028B6A1A4332430260CB680A6849682C
:10F45C0043608260C16070BD19B1016841F0010365
:10F46C0003E002684FF6FE731340036070470368B5
:10F47C000AB1194301E023EA0101016070474068B9
:10F48C0080B27047C3004CBF034B044B1968014258
:10F49C000CBF002001207047000402400000024015
:10F4AC00C2004CBF014B024B586070470004024035
:10F4BC0000000240837910B5002B29D01A4B01684B
:10F4CC001C68CA4314401C605C6822405A60027974
:10F4DC0002F1804404F58232146821431160026801
:10F4EC009C68D1430C409C60DC684079214010281A
:10F4FC00D96006D1986810439860D9680A43DA60DD
:10F50C0010BD00F1804303F5823319680A4308E00B
:10F51C000179006801F1804202F582331A6822EA0F
:10F52C0000021A6010BD00BF00040140014B58617D
:10F53C00704700BF00040140064B1A68596910EA75
:10F54C00010304D010420CBF002001207047184664
:10F55C00704700BF00040140014B5861704700BF69
:10F56C0000040140034A044B02F188305A60586091
:10F57C00704700BF2301674500200240024B1A6907
:10F58C0042F080001861704700200240014BD860A7
:10F59C00704700BF00200240084BDA68D20709D43C
:10F5AC00D868400708D4D96811F0100F0CBF04209C
:10F5BC000320704701207047022070470020024052
:10F5CC0010B50446FFF7E8FF012806D11CB1FFF780
:10F5DC00E3FF013CF8E7052010BD002C08BF052017
:10F5EC0010BD000070B505464FF400500E46FFF7F5
:10F5FC00E7FF04280ED1084C236943F00100206179
:10F60C002E804FF40050FFF7DBFF226941F6FE71AC
:10F61C001140216170BD00BF0020024038B5054685
:10F62C004FF43020FFF7CCFF042812D1094C23698A
:10F63C0043F002002061656121694FF4302041F0F4
:10F64C0040022261FFF7BCFF216941F6FD730B40BC
:10F65C00236138BD00200240CB78F0B5DA0648BFF4
:10F66C008A78098803F00F0548BF154311F0FF0F86
:10F67C001ED004680022012707FA02F707EA0106E8
:10F68C00BE4211D197004FF00F0C0CFA07FC05FA93
:10F69C0007F724EA0C04282B44EA070401D146613D
:10F6AC0002E0482B08BF06610132082AE3D104604E
:10F6BC00FF2920D94468002202F10806012707FA25
:10F6CC0006F707EA0106BE4211D197004FF00F0C66
:10F6DC000CFA07FC05FA07F724EA0C04282B44EA79
:10F6EC00070401D1466102E0482B08BF06610132D4
:10F6FC00082AE1D14460F0BD836819420CBF002098
:10F70C0001207047016170474161704701F00302AD
:10F71C0030B592000F2404FA02F400FA02F0074B01
:10F72C008908023153F8215025EA040443F821409A
:10F73C0053F82140044343F8214030BD0000014000
:10F74C00014B1860704700BF00300040014B5860FF
:10F75C00704700BF00300040014B9860704700BFFD
:10F76C0000300040024B4AF6AA221A60704700BFD4
:10F77C0000300040024B4CF6CC421A60704700BF80
:10F78C0000300040014B1860704700BF20000E4253
:10F79C00014B1860704700BFD80042421D4B10B59A
:10F7AC005A6802F00C01042901D0082902D01A4A27
:10F7BC0002600EE05C685968C4F38342941CC90370
:10F7CC0002D55B689B0301D5144900E012494C43F8
:10F7DC000460104A124B5468C4F303115C5C01685A
:10F7EC0021FA04F141605468C4F302241C5D21FA2F
:10F7FC0004F484605468C4F3C2241C5D21FA04F13F
:10F80C00C1605268C2F381329B181A7CB1FBF2F1D1
:10F81C00016110BD0010024000127A0000093D0089
:10F82C00FC020020044B5A6909B1104301E022EAA2
:10F83C0000005861704700BF00100240044B9A69E9
:10F84C0009B1104301E022EA00009861704700BF43
:10F85C0000100240044BDA6909B1104301E022EABE
:10F86C000000D861704700BF001002404309012B13
:10F87C00074A01D1136803E0022B0CBF136A536AC9
:10F88C0000F01F0023FA00F101F00100704700BFE7
:10F89C0000100240024B5A6A42F080705862704766
:10F8AC0000100240034B988800F020018AB2002A15
:10F8BC00F8D0704700280040074B9A881B8891B2FB
:10F8CC0010EA030206D0084010F0FF0F0CBF002016
:10F8DC00012070471046704700280040034B9A885F
:10F8EC0091B221EA00009880704700BF00280040C8
:10F8FC000B8810B54C88028823438C8802F4415243
:10F90C002343CC8823430C8923434C8923438C8980
:10F91C002343CC89098A23431A4393B20380828BF5
:10F92C0022F400631A04130C8383018210BD038834
:10F93C0019B199B241F0400303E023F040010A04ED
:10F94C00130C0380704783889BB20AB1194301E002
:10F95C0023EA010181807047038919420CBF002002
:10F96C0001207047224A038890429BB212D002F5C4
:10F97C00006290420ED0B0F1804F0BD0A2F59832BD
:10F98C00904207D002F58062904203D002F580626B
:10F99C00904203D14A8823F070031343154A9042D6
:10F9AC0008D002F58062904204D023F44073CA88D8
:10F9BC009BB2134303808B880A8883850C4B02858A
:10F9CC0098420FD003F5006290420BD002F54063D1
:10F9DC00984207D003F58062904203D002F5806311
:10F9EC00984201D1097A018601228282704700BFB8
:10F9FC00002C014000100040038C70B523F0010274
:10FA0C001404250C0584068C8388028B9CB222F08E
:10FA1C0073052B040D881A0C26F0020633042A43B6
:10FA2C004E880D891B0C3543ADB22B43134DA842A8
:10FA3C000FD005F50065A8420BD005F54065A8422E
:10FA4C0007D005F58065A84203D005F58065A8426E
:10FA5C000ED123F008064B898D881E4326F0040333
:10FA6C002B43CE898D8924F440743543ADB22C439D
:10FA7C00C988848002838186038470BD002C014078
:10FA8C00038C30B523F010021404250C0584038C70
:10FA9C008288048B23F0200324F4E6452C040D8883
:10FAAC00240C44EA05241D042B0C0D8992B243EA64
:10FABC0005134D88A4B243EA0513124D9BB2A8421C
:10FACC0003D005F50065A84215D14D8923F08003BC
:10FADC009BB243EA05134FF6BF751D408B8822F489
:10FAEC00406245EA0315ABB28D8942EA8502CD89A5
:10FAFC0042EA850292B2C98882800483018703841A
:10FB0C0030BD00BF002C0140038C30B523F4807253
:10FB1C001404250C0584038C8288848B23F40073D5
:10FB2C0024F073052C040D88240C2C431D042B0C81
:10FB3C000D8992B243EA05234D8843EA0523124D01
:10FB4C009BB2A84203D005F50065A84215D14D899A
:10FB5C0023F400639BB243EA05234FF6FF351D40A7
:10FB6C008B8822F4405245EA0325ABB28D8942EAD8
:10FB7C000512CD8942EA051292B2C988828084832B
:10FB8C008187038430BD00BF002C0140038C30B54D
:10FB9C0023F480521404250C0584038C8288858BF5
:10FBAC0094B225F4E64215042A0C0D8823F4005374
:10FBBC0042EA05221D042B0C0D8992B243EA05334F
:10FBCC004D8843EA05330A4D9BB2A84203D005F594
:10FBDC000065A84205D18D8924F4804444EA85143B
:10FBEC00A4B2C98884808283A0F84010038430BDFD
:10FBFC00002C014000214FF6FF7383800180C180EF
:10FC0C004180017270470023038043808380C3804E
:10FC1C00038143818381C3817047038819B199B2F1
:10FC2C0041F0010303E023F001010A04130C0380EB
:10FC3C007047B0F8443029B16FEA43436FEA53413F
:10FC4C008AB201E059044A0CA0F844207047838919
:10FC5C009BB20AB1194301E023EA0101818170478B
:10FC6C00038819B199B241F0800303E023F08001BD
:10FC7C000A04130C03807047038B23F0080213044F
:10FC8C001A0C114301837047038B23F40062130495
:10FC9C001A0C42EA01218BB203837047838B23F049
:10FCAC00080213041A0C114381837047838B23F4CD
:10FCBC00006213041A0C42EA01218BB28383704751
:10FCCC00038A828911EA030092B203D011420CBF5D
:10FCDC00002001207047C9438AB20282704700009D
:10FCEC00038A30B50D460446EA8898B220F4405198
:10FCFC0011432182A3892889A98823F4B05340EAAF
:10FD0C000102688923F00C0102430804030C1A4316
:10FD1C0091B2A181A08AAA8983B223F4407187B0E1
:10FD2C001143A18201A8FFF739FD1848A389844229
:10FD3C000CBF0498039819B200294FF019032A68D4
:10FD4C0003FB00F001DA510000E09100B0FBF1F18F
:10FD5C006423B1FBF3F21201100903FB1011A0890B
:10FD6C0000B2002806DAC9003231B1FBF3F303F01C
:10FD7C00070005E009013231B1FBF3F303F00F008A
:10FD8C00024390B2208107B030BD00BF0038014063
:10FD9C00838919B199B241F4005303E023F4005163
:10FDAC000A04130C83817047C905CA0D8280704701
:10FDBC008088C105C80D7047038819420CBF00200C
:10FDCC000120704701700B0A0A0C090E43708270F7
:10FDDC00C170043070470170090A417002307047DD
:10FDEC0043185A78405C00EB022188B2704710B57A
:10FDFC0043189A78DC78415C120402EB0462587860
:10FE0C00521802EB002010BD73B544790023022C6C
:10FE1C0001930FD0032C19D0012C2BD1164D28692E
:10FE2C002E4620B1296901A888470246B8B9B168A5
:10FE3C0001201BE0104DE8682E4620B1E96801A8AE
:10FE4C008847024658B9B16802200FE00A4D6A692A
:10FE5C002E464AB16B6901A89847024620B1A968A1
:10FE6C002046BDF8043003E0B1680320002213469D
:10FE7C0000F04AFB7CBD00BF84150020072810B59C
:10FE8C000CD801290AD8012404FA00F401FA00F074
:10FE9C00034B1A6822EA040202431A6010BD00BF29
:10FEAC0010030020F0B5012187B00546FFF798FF3D
:10FEBC0000F48043044698B250B3B4F5824F27D176
:10FECC0028460521FFF78CFF0026074607353446E8
:10FEDC00BE4208D028460221FFF782FF01362418C3
:10FEEC000435B6B2F4E76A4B188E21188AB21A861A
:10FEFC00D86B2418DC63D96B9A6B914240F0C280AA
:10FF0C0093F84000002800F0BD809B69992092E096
:10FF1C0024F4FF4121F07F0293B2002B00F08F807C
:10FF2C0048F210039C421ED00AD8B4F5004F40F2A0
:10FF3C00AB8048F20200844278D9811C8C420FE0DD
:10FF4C0048F28002944271D005D848F240039C429A
:10FF5C0040F09A8047E0B4F5024F67D0B4F5084FF3
:10FF6C0040F0928062E00022A81841790DF802104E
:10FF7C000132042AF8D16B7AA87AE97A2A7B8DF8B7
:10FF8C0004308DF805008DF806108DF8072005F16A
:10FF9C000D00002306A9CA18C15C0133042B02F81A
:10FFAC00101CF7D105F11100002306AAD218C15C70
:10FFBC000133042B02F80C1CF7D105F115000023BA
:10FFCC0000AAD218C15C0133042B1174F8D130494A
:10FFDC0028798A698DF81400002A53D08B69204641
:10FFEC006946152229E0053500212846FFF7FFFE5A
:04FFFC00042100904C
:020000040801F1
:100000002846FFF7FAFE082101902846FFF7F5FE83
:100010000C2102902846FFF7F0FE1021039028469D
:10002000FFF7EBFE04901D488169002930D08369F9
:1000300069462046142206E0184B9A6942B39B6930
:10004000204600210A46984722E041F203008442FC
:1000500005D00C30844202D0411E8C421AD16C1D56
:1000600004212046FFF7C9FE393013D12D790B4A00
:1000700000212046D562FFF7C0FE04210546204638
:10008000FFF7BBFE393003D128460121FFF7FCFE04
:10009000012000E0002007B0F0BD00BF8415002063
:1000A00038B50A4C638898B208B9002038BD60683A
:1000B00001780429F9D1FFF7FBFE01280546F4D1A8
:1000C00000226280FCF76CF8284638BD84150020B9
:1000D0002DE9F0470446884691460025BC4B5A88D6
:1000E00090B20028FAD05E683178042940F072811D
:1000F00030460121FFF77AFE05463046FFF7D8FE6D
:10010000002840F05C8141F20703771D9D4253D8DF
:100110005A1E954280F0AC8040F20220854200F0E9
:10012000A78014D80C2D09D8082D80F0A180002DAF
:1001300000F04581062D40F29B80DDE00D2D00F0A2
:10014000948040F20127BD4240F039818DE041F2B8
:100150000202954218D8B5F5805F00F28980B5F5A6
:10016000017F40F2828040F207218D4240F02781DA
:100170003379002104F8013B3846FFF73EFE014683
:100180002046FFF725FE1AE141F20400854200F007
:10019000898040F2A08038460021FFF72EFE04211E
:1001A00020603846FFF729FE6060083406F10D072D
:1001B000224606F11D016EE041F21100854254D045
:1001C0002CD841F20B02954252D01CD841F20901C1
:1001D0008D424DD000F28B8000213846FFF70DFE96
:1001E000042120603846FFF708FE08216060384689
:1001F000FFF703FE0C21A0603846FFF7FEFD04F177
:100200000C0AE060DAE041F20F00854263D035D895
:1002100041F20D02954240F0D28043E042F20601E5
:100220008D4222D008D8B5F5005F40F2C88042F276
:1002300004039D4219D983E042F208039D42C0F0B5
:10024000BE80581C854210D944F20B02954240F002
:10025000B6807179DFF878A13846AAF8301001210C
:10026000FFF7C4FDAAF83200A9E037792770A6E0AD
:1002700038460021FFF7C1FD2060A0E0002138468C
:10028000FFF7BBFDA2464AF8040B04213846FFF7EE
:10029000B4FD606092E057F8043B8F4242F8043BA3
:1002A000F9D18CE000213846FFF7A7FD042120603A
:1002B0003846FFF7A2FD082160603846FFF79DFD34
:1002C00004F1080AA060E46814F1390376D1012131
:1002D000FFF7DAFD72E000213846FFF78EFD0421BA
:1002E00020603846FFF789FD6060083467E03379A5
:1002F00023713F68276062E038460021FFF77DFDEB
:10030000042120603846FFF778FD082160603846F8
:10031000FFF76CFD0A21A0603846FFF767FDC4F8BF
:100320000A000C3406F11107224606F1350157F890
:10033000043B8F4242F8043BF9D1388810803EE0FC
:100340000022B7187879A0540132042AF9D106F1B5
:1003500009070023F95CE0180133042B0171F9D17E
:1003600006F10D070020395C2218013004281172B3
:10037000F9D106F111070023F95CE2180133042BCF
:100380001173F9D106F115000022875CA118013222
:10039000042A0F74F9D106F119000023C75CE11893
:1003A0000133062B0F75F9D106F11F000021475CC0
:1003B0006218013120299776F9D100E05446044BA8
:1003C000188882B2954225D10021198022E000BF11
:1003D0008415002030460321B778FFF707FD8246D9
:1003E000B8F1000F0CD00421701DFFF706FD034685
:1003F000C9F8000006F115014046DAB201F04EFAE4
:100400007A1DB1182046C7EB0A0201F047FA0F49DE
:100410000020C8860D4F00237B80FBF7C1FE30789B
:10042000042805D1B5F5805F02D13046FFF7F2FC14
:100430003A8891B200297FF451AE044BD88E80B235
:1004400000287FF44BAEBDE8F08700BF8415002084
:1004500007284FF0010308D803FA00F004490A689E
:1004600010420CBF0020012070471846704700BFA3
:1004700010030020034B1880084600210A46FFF7AE
:1004800027BE00BF8415002010B5034B0124DC8675
:10049000BDE81040FFF71CBE8415002038B50346A8
:1004A000154601224A710C46881D1946FFF799FC32
:1004B000291D05702046FBF733FF002038BD38B5F5
:1004C000BDF814500C469B18A071E81885B20221A3
:1004D0006171E271294604F10800FFF782FC6A1D90
:1004E000204691B2FBF71CFF002038BD38B59B18A1
:1004F0000C469DB202216171A071E271294604F19E
:100500000800FFF76EFC6A1D204691B2BDE8384036
:10051000FBF706BF2DE9F0471D4605F1020A03234C
:1005200001F107091FFA8AFA88714B710C46484697
:1005300051461746FFF755FCB5F57A7F804613D82C
:100540002946FFF74EFC29464046FFF74AFC39464C
:1005500004F10B002A4601F0A1F9A91D204689B239
:10056000BDE8F047FBF7DCBE4FF47A76B5FBF6F159
:100570000AEB410291B2FFF734FC31464046FFF7E7
:1005800030FC394604F10B00324601F087F9A5F53D
:100590007A75204640F2EE31ADB2BF19FBF7C0FECE
:1005A000B5F57A7F05D9A5F57A7085B24FF47A76DC
:1005B00001E02E460025A046394628F8056F48463A
:1005C000324601F06BF9B31C404699B2BF19FBF7F4
:1005D000A7FE002DE4D1BDE8F08700002DE9F3412E
:1005E00006460C461E4831681546D0F808804A1E5B
:1005F0001F46FF23122A8DF8073008F1090001D8A1
:100600001423336021684A1E122A01D81423236060
:1006100029684A1E122A01D814232B6039684A1E01
:10062000122A01D814233B603168FFF7D1FB2168FF
:10063000FFF7CEFB2968FFF7CBFB3968FFF7C8FB54
:100640004146142242F20900FFF728FF42F2090056
:100650000DF10701FFF70EFF9DF90700BDE8FC81D2
:10066000841500202DE9F341864614480D4686681E
:1006700071461F4602ACFF2306F1090004F8013D54
:100680009046FFF7A5FB2946FFF7A2FB40F20125A4
:100690004146FFF79DFB0C2231462846FFF7FEFE40
:1006A00028462146FFF7E6FE002138460A46FFF7B6
:1006B000EBFE9DF80700BDE8FC8100BF841500201B
:1006C0002DE9F341864616480C46866871469846E1
:1006D00002AD4FF0FF3306F10A0045F8043D17461E
:1006E000FFF776FB0C21FFF773FB2146FFF770FB4A
:1006F0003946FFF76DFB4146224606F11A0001F02C
:10070000CDF8902031461022A3B2FFF7EFFE40F261
:1007100002202946FFF7AEFE0198BDE8FC8100BF2C
:100720008415002037B50B4B40F207250446996825
:1007300000222846FFF7B2FE28466946FFF79AFED8
:100740009DF803009DF80410207061709DF8000072
:100750003EBD00BF8415002037B50D4A034695689D
:100760000C4605F109001946FFF732FB214640F21D
:100770000324FFF72DFB294608222046FFF78EFEB3
:1007800020460DF10601FFF775FEBDF806003EBDDF
:10079000841500202DE9F0430023CA5CC2540133C4
:1007A000102BFAD10022334B467B991891F8018027
:1007B00004789F19F97A88EA0405847B85EA0108A0
:1007C0001D194178EF7A90F80CC04F40C17B80F83A
:1007D00010805D1895F80B908578634489EA0505CB
:1007E00093F80B90C378477489EA030390F8049058
:1007F000FFB288EA090890F80590857487EA09072E
:1008000090F80690EDB285EA090590F80790C37458
:10081000DBB283EA090390F8089080F814805FFA4D
:1008200088F888EA090890F809904775FFB287EAC6
:10083000090790F80A908575EDB285EA090590F8E8
:100840000B90C375DBB283EA090388EA0C0C7E4087
:100850006C405940013280F8188047768576C3761F
:1008600080F81CC046778477C17710300A2A9AD165
:10087000BDE8F083612B010810F0800F4FEA4000C3
:1008800018BF80F01B00C0B2704700002DE9F04F88
:10089000037891F8A0A004468AEA030A80F800A031
:1008A00091F8A1204078A77882EA0005657091F858
:1008B000A260E07886EA0703A37091F8A32097B0BE
:1008C000059582EA0005E57091F8A49026790693D3
:1008D00089EA060984F8049091F8A5706379079570
:1008E00087EA0302627191F8A600A579E37980EAAC
:1008F0000506A67191F8A7700C9287EA030B84F89D
:1009000007B0227A91F8A880607A88EA020884F811
:10091000088091F8A97008964740677291F8AA502C
:10092000A67AE07A85EA0603A37291F8AB20267BCB
:1009300082EA0005E57291F8ACC009938CEA060CD6
:1009400084F80CC091F8ADE0637BA27B8EEA030EC5
:1009500084F80DE00D9591F8AE50E07B5540A573FD
:1009600091F8AF204B4B4240E2739A4491F89000CB
:100970009AF80B6199444640267091F8940099F8D2
:100980000BA198448AEA0006267191F8980098F81D
:100990000B919C4489EA000626729CF80BA191F801
:1009A0009C009E448AEA00062673DF199EF80B819C
:1009B00097F80BC191F8910091F89D6088EA0009C1
:1009C0008CEA060060730C9FDDF814A0DE1996F81F
:1009D0000B0191F89970DDF8208080EA07066672B5
:1009E00003EB0A0091F8956090F80B7184F8019080
:1009F00087EA0600607103EB0800DDF818E090F864
:100A00000B91099803EB0E0703EB000E9EF80BC148
:100A100091F8920091F89A6097F80B718CEA000AAD
:100A200077405D1991F89E6084F802A091F89600D5
:100A300095F80B81A772079F88EA000589EA0606E8
:100A4000A673A571DE1996F80B0191F89F5003EB80
:100A50000B0791F89360454097F80B019A1880EACC
:100A600006070D98E7701E1896F80B7191F897001D
:100A70004FF0090B87EA0006E67191F89B3092F877
:100A80000B71E57387EA0300E0720D46CDF840B0C4
:100A900002E000BF612B010894F80090A77887EA74
:100AA0000900FFF7E9FEFFF7E7FE94F80180E6781A
:100AB000824686EA0800FFF7DFFEFFF7DDFE8AEADE
:100AC000070380EA080227797040A6798AEA0901BB
:100AD0005FFA80F886EA07005FFA82FB5FFA83FA22
:100AE0005FFA81F903970296FFF7C6FEFFF7C4FE8F
:100AF000E6796779014686EA07000491FFF7BCFEB4
:100B0000FFF7BAFE039B049A94F808C082EA030137
:100B1000CBB2029947404A40A17A7040C6B20593D1
:100B200081EA0C00D3B20291CDF804C00693079677
:100B3000FFF7A2FEFFF7A0FE637AE67A024686EA96
:100B4000030003930492FFF797FEFFF795FE049AC4
:100B5000DDF804C0039B82EA0C015FFA81FC80EAA5
:100B60000301CBB2029909934A40D3B2CDF820C019
:100B70000A9394F80CC0A17B7040C6B281EA0C00C5
:100B80000291CDF804C00B96FFF776FEFFF774FED6
:100B9000637BE67B024686EA030003930492FFF739
:100BA0006BFEFFF769FEDDF804C0049A039B82EA3E
:100BB0000C015FFA81FC80EA0301CBB2029970401C
:100BC0004A40C6B288EA0A018BEA09000D93D3B203
:100BD0000E930291CDF830C00F9681EA0006FFF720
:100BE0004BFE89EA000286EA020C5FFA8CFC8AEA74
:100BF0000B0084F800C0CDF804C0FFF73DFE8BEA7F
:100C0000000386EA030B02995FFA8BFC84F801C0AB
:100C10000846CDF844C0FFF72FFE8AEA000286EAB4
:100C2000020A5FFA8AFB88EA090084F802B0CDF86C
:100C300048B0FFF721FE88EA0000DDF8189005991A
:100C4000079A4640FFB2F6B282EA090887EA010035
:100C5000E670139688EA0006FFF70EFE059B5840E3
:100C600086EA0001CAB24846227178401492FFF722
:100C700003FE474086EA0703D8B2159060714046EC
:100C8000FFF7FAFD89EA0001059B86EA0102079851
:100C9000D7B25840A7710697FFF7EEFD0799089A5B
:100CA00048404640F6B20A9F0596E67109980B9EA9
:100CB00050407E4086EA0007FFF7DEFDDDF820A009
:100CC0008AEA000387EA030C5FFA8CF884F808804C
:100CD00009990A984840FFF7CFFD099A504087EAE2
:100CE000000B5FFA8BF9304684F80990FFF7C4FDDA
:100CF0000A9E524686EA000387EA03010B985FFAD0
:100D000081FB504084F80AB0FFF7B6FDDDF82CA057
:100D10000E998AEA00000C9E47400F9B0D98FFB287
:100D20004B407040E77283EA000A0293FFF7A4FD8C
:100D30000C9A0D9B50408AEA00060E98F6B2267374
:100D40005840FFF799FD0D99029B81EA00028AEA5B
:100D50000200C1B2617318460391FFF78DFD0E9A30
:100D60000C9B50408AEA00010F98CAB2A273584007
:100D70000492FFF781FD0F99514B48408AEA000C1D
:100D80005FFA8CFADDF804C084F80FA003EB0C02C4
:100D900095F8800092F80B11DDF850C081EA00024E
:100DA000227003EB0C0195F8840091F80B219E1939
:100DB00082EA000103EB0802217195F8880092F89D
:100DC0000BC196F80B218CEA0001217295F88C007A
:100DD000039E82EA000121739A1995F8811092F816
:100DE0000B0103EB090680EA010295F88D0096F8E5
:100DF0000B11DDF844C081EA000615996673581896
:100E000090F80B6195F88910DF1986EA010060728D
:100E100003EB0C0695F8850096F80B116270129A98
:100E200081EA000666719918DDF818C095F88A60A5
:100E300091F80B0103EB0C0295F88E10704092F8BC
:100E40000B6103EB0B02714092F80BC195F88260C5
:100E50008CEA0602049EA2709A1992F80B6195F82A
:100E600086205640A671A0721398A173191895F8A0
:100E70008F2091F80B61DDF814C0724003EB0C0673
:100E800095F8831096F80B0153444840E07095F8AC
:100E9000871097F80B014840E07195F88B0093F8A4
:100EA0000B11E273109A81EA0003511E103D11F0FC
:100EB000FF00E37210907FF4EFAD17B0BDE8F08F44
:100EC000612B010838B5054C05462046FFF762FC4A
:100ED00028462146BDE83840FFF7D8BC8E140020D4
:100EE000034610210C200022FFF7BCBB0346102153
:100EF0000C200022FFF7E4BB38B505460E4CE36A30
:100F00004BB100F0C5FCE36A03600020E06200F032
:100F1000BFFC006838BD2846FFF79AFA40B9228E18
:100F200091B20029EAD0238E5A1E91B2218638BD93
:100F30004FF0FF3038BD00BF84150020F7B50346E1
:100F400014480D4686681946174602AC4FF0FF322A
:100F500006F1090044F8042DFEF73AFF2946FEF792
:100F600037FF41F201053946FEF732FF0C223146C8
:100F70002846FFF793FA21462846FFF77BFA00F050
:100F800087FC0199016008460021FEF77DFF01986A
:100F9000FEBD00BF84150020F7B5054610484FF090
:100FA000FF33876802AC294641F20B0607F10900BE
:100FB00044F8043DFEF70CFF042239463046FFF7A3
:100FC0006DFA21463046FFF755FA00F061FC0199B1
:100FD000016028460121FEF757FF0198FEBD00BFC2
:100FE0008415002037B5034613484FF0FF3284685C
:100FF0000D4604F1090019460192FEF7E9FE0821A9
:10100000FEF7E6FE0821FEF7E3FE0023E95CC1548B
:101010000133082BFAD11422214641F20700FFF7D1
:101020003DFA01A941F20700FFF724FA00F030FC75
:10103000019A026010463EBD841500202DE9FF4153
:101040001D46314B8646D3F808800F4608F109004B
:10105000714616460A9CFEF7BBFE1421FEF7B8FE49
:101060001421FEF7B5FE1421FEF7B2FE1421FEF79F
:10107000AFFED4F1010138BF0021FEF7A9FE0FB188
:10108000396800E03946FEF7A3FE0EB1316800E092
:101090003146FEF79DFE0DB1296800E02946FEF7B6
:1010A00097FE74B1216839B9636841F2873293427F
:1010B000DCBF41F288336360FEF78AFE6168FEF7A9
:1010C00087FE2C22414641F20800FFF7E7F941F282
:1010D00008006946FFF7CEF9009B002B09DB0FB132
:1010E000019838600EB1029A326045B103992960C7
:1010F00005E000F0CDFB00994FF0FF33016018468A
:1011000004B0BDE8F08100BF841500202DE9FF4147
:101110009846154B07469D6814460E4605F1090092
:101120003946FEF755FE2146FEF752FE4146FEF7D0
:101130004FFEBDF830400C2229462046FFF7AEF99D
:10114000204601A9FFF796F90298002804DD3046F1
:101150000A990B9AFFF798F900F09AFB029901603F
:10116000084604B0BDE8F081841500201FB50024B6
:101170000094019441F204040294FFF7C7FF04B005
:1011800010BD00002DE9F04F89B0039114469B4635
:10119000139E149D0290FFF7AFFEDDF808C00028F3
:1011A00057D12D4B9A6B511C9963D3F80890812D20
:1011B00009F10A0307D0832D0AD104F1080A09F1C5
:1011C0002208182704E009F11A0810270646129091
:1011D00061461846FEF7FCFD391FFEF7F9FD214672
:1011E000FEF7F6FD5946FEF7F3FD832D05D1514676
:1011F000FEF7EEFD0821FEF7EBFD0022A24205DA24
:101200000398815C08F802100132F7E7002CA8BFB0
:10121000A044832D0ED0129AB6B200920196E8B285
:1012200049463A46A3B2FFF74AF9832D0BD141F262
:101230000F000AE00020B042EDDA12990B5C08F8CA
:1012400000300130F7E741F2030005A9FFF712F97A
:10125000204609B0BDE8F08F841500201FB500249A
:101260000094019481240294FFF78CFF04B010BD18
:10127000202A73B503460E46144622D8124A194650
:10128000956805F10900FEF7A3FD0821FEF7A0FD12
:101290002146FEF79DFD0022A24203DAB15C815493
:1012A0000132F9E704F10C032946DAB241F21100E8
:1012B000FFF7F4F841F2110001A9FFF7DBF80198FC
:1012C00001E04FF0FF307CBD84150020024B01226D
:1012D0005A805860FEF7E4BE8415002010B5084C13
:1012E000E16022616361029B0399E361049A059BBB
:1012F00021626262A362A061012084F8400010BDF7
:101300008415002070B5214C054621480023A363B5
:10131000E363238023866386A386E386E362638098
:101320006360A0601B48FAF719FFE1698847A26A69
:1013300006460120904706B3E16988470028FBD1A3
:10134000124C0035A16818BF01254D7201224FF4DF
:101350008040FFF7A3F800214FF48040FFF78AF8A0
:10136000A168002244F20B00FFF798F844F20B004A
:101370000021BDE87040FFF77DB8E3699847002879
:10138000FBD0E06980470028FBD1D9E78415002015
:10139000A4070020CD12010838B5094C0020A36A2B
:1013A00098472546E869064C80470028FAD0A1688E
:1013B00009B10022A260BDE83840FAF7E3BE00BFE1
:1013C000841500202DE9F04F83462F4885B0D0F8D2
:1013D0000890144600259A4688464FF0FF331C219A
:1013E00009F1090001930F9E0E9F0295ADF80C5074
:1013F000FEF7EEFC2146FEF7EBFC5946FEF7E8FC53
:1014000004F11001FEF7E4FC3146FEF7E1FC294649
:10141000FEF7E7FCBAF1000F08D01AF80520425594
:101420000135062DF9D10630002207E0534602AA05
:10143000995CC1540133062BF9D1F4E7A24204DAD6
:1014400018F8021081540132F8E7002CA8BF0019E7
:101450003EB100232FB1B34203DAFA5CC254013328
:10146000F9E71C34A319DAB249460120FFF716F850
:1014700001A90120FEF7FEFF00F00AFA01990160C0
:10148000084605B0BDE8F08F84150020F7B5034687
:101490000F480E4685681946174602AC4FF0FF32DA
:1014A00005F1090044F8042DFEF792FC3146FEF7E1
:1014B0008FFC3946FEF78CFC29460C220420FEF7EF
:1014C000EDFF04202146FEF7D5FF0198FEBD00BFC9
:1014D000841500202DE9F04F8346714885B0D0F87F
:1014E00008900D4614465946002209F109009A4613
:1014F0000E9F0F9E0292ADF80C20FEF769FCBBF127
:10150000030F00F2BE80DFE80BF0022F7676142185
:10151000FEF75EFC2146FEF75BFC0021FEF761FC56
:10152000BAF1000F07D000221AF8021081540132DC
:10153000062AF9D106E0534602A95A5CC254013387
:10154000062BF9D106303946FEF742FC4FF0000871
:10155000A04506D015F8083000F8083008F1010859
:10156000F6E708F118008AE02021FEF731FC214659
:10157000FEF72EFC0021FEF734FCBAF1000F07D075
:1015800000221AF8021081540132062AF9D106E02D
:10159000534602AA995CC1540133062BF9D139464E
:1015A0000630FEF715FC04F10C01FEF711FC314684
:1015B000FEF70EFC1099FEF70BFC0022A24203D0AE
:1015C000AF5C87540132F9E7001900220421129D13
:1015D0008718AD180023B34205D015F803E007F8CB
:1015E00003E00133F7E701391A44F0D104F1240C88
:1015F0000CEB830043E02821FEF7EAFB2146FEF7CF
:10160000E7FB0021FEF7EDFBBAF1000F07D0002247
:101610001AF8021081540132062AF9D106E0534625
:1016200002A95A5CC2540133062BF9D1394606305F
:10163000FEF7CEFB3146FEF7CBFB1099FEF7C8FB59
:101640001199FEF7C5FB04F10801FEF7C1FB1399E0
:10165000FEF7BEFB0021A14203D06A5C4254013177
:10166000F9E70019002313998B4204D0129AD15C38
:10167000C1540133F7E704F12C0808EB03001FFA0B
:1016800080F849465FFA88F20520FEF707FF05203B
:1016900001A9FEF7EFFE019805B0BDE8F08F00BF8D
:1016A0008415002037B50B4B01469D6802AC05F14F
:1016B0000900FEF78DFB4FF0FF3044F8040D29467A
:1016C00004220620FEF7EAFE06202146FEF7D2FE9F
:1016D00001983EBD8415002037B548F2080248F253
:1016E000080102408A42034613490BD1002093426D
:1016F00081F840001FD023F4004424F0080545F48D
:10170000004302E0012081F840000B494FF0FF3216
:101710008D6802AC194605F1090044F8042DFEF766
:1017200057FB294604220820FEF7B8FE0820214670
:10173000FEF7A0FE01983EBD8415002073B50C4B4A
:1017400001469D684FF0FF3602AC05F10900019695
:10175000FEF73EFB44F8046D294604220A20FEF7FA
:101760009DFE0A202146FEF785FE01987CBD00BF44
:101770008415002007B50D4A4FF0FF33019391689F
:1017800090B154234370037083704B7242788A7215
:1017900080780322C8720C20FEF780FE0C2001A97D
:1017A000FEF768FE019800E018460EBD8415002083
:1017B0002DE9F041314886B0FFF792FB054600283D
:1017C00058D12F4E2A460D2043213346FEF74AFFBB
:1017D000054600284ED13778284907F1030808EB61
:1017E00006042046FFF76EFB3378F6187078102851
:1017F00004D904F110002149FFF764FBE17F204A7E
:1018000021B112F808301F2B04D101E012F8083082
:10181000013400E02023107811188A78032A29D88F
:10182000DFE802F0020E1919002001250095019051
:10183000029003900490059012493A46034616E040
:1018400001208DE80900002302930393049405937B
:101850000C493A460BE0012018211E2202258DE892
:10186000270008490593049403203A460023FFF714
:1018700031FE0546284606B0BDE8F081C8150020B7
:10188000401500204115002000210A2200F09CBFD5
:1018900040F24073C2F20003186870470F2A2DE926
:1018A000F00340F2A18041EA00039B0740F09E80D4
:1018B0000C68A2F1100504604B68AC4643608C686C
:1018C000BCF10F0F8460CC68C5F30015C46000F153
:1018D000100301F110042BD975B12568ACF1100C7F
:1018E0001D6065685D60A5689D60E5681034DD6019
:1018F0001033BCF10F0F1BD9276804F110061F60CD
:10190000676803F110055F60A768ACF1200C9F6069
:10191000E768DF6024691C61776806F110046F6076
:10192000B7682033AF60F668BCF10F0FEE60E3D804
:10193000A2F1100828F00F0302F00F0403F1100CBD
:10194000032C00EB0C0301EB0C0851D9211F4FEACB
:101950009109444608EB890C54F8046BC8EB0C0160
:101960000CF1040C1D46644545F8046BC1F380017D
:1019700012D029B154F8041B644545F8041B0BD060
:10198000274657F8041B2E4646F8041B64686C6013
:101990003C1D351D6445F3D109F1010C4FEA8C095A
:1019A00002F0030208EB09014B44D2B10D789A18FA
:1019B000DC4303F8015B1419934204F0010410D0D6
:1019C0002CB111F8014F03F8014B934209D04D7827
:1019D0001C4604F8015B8D7802315D70631C9342F4
:1019E000F5D1BDE8F00370470346DEE70346DDE7C7
:1019F00041462246D9E700BFF0B48407034600F011
:101A00008D80541E002A00F08780E507CEB211D4E5
:101A10001A4602F8016B13461546920710D0621E53
:101A2000002C79D003F8016B14469A071D4607D0A5
:101A3000013CEDE7034603F8016B9A071D46F7D119
:101A4000032C52D9CEB246EA06270F2C47EA0743A9
:101A50002DD9A4F1100217460F2FC2F300162B60E8
:101A60006B60AB60EB6005F1100216D93EB1103F20
:101A7000136053609360D36010320F2F0DD9203F55
:101A800002F11006136053609360D36013615361D9
:101A90009361D36120320F2FF1D8A4F1100222F00C
:101AA0000F0204F00F041032032C15441DD9271F18
:101AB0003E462A46032E42F8043BC7F380070DD961
:101AC00027B1043E032E42F8043B07D9174647F8D6
