:020000040800F2
:10C00000005000200DC10008C5D10008C7D10008AC
:10C01000C9D10008CBD10008CDD100080000000034
:10C02000000000000000000000000000CFD1000868
:10C03000D1D1000800000000D3D10008D5D10008FC
:10C0400059C1000859C1000859C10008D9D10008D8
:10C0500059C1000859C1000859C1000859C1000858
:10C06000F9D1000859C1000859C1000859C1000898
:10C0700059C1000859C1000859C10008F3D100088E
:10C0800059C1000859C1000859C1000859C1000828
:10C0900095D2000859C1000859C1000859C10008CB
:10C0A00059C1000859C1000859C100084DD2000803
:10C0B00059C1000859C1000859C1000859C10008F8
:10C0C00059C1000859C1000859C1000859C10008E8
:10C0D00059C1000859C1000859C1000859C10008D8
:10C0E0002DD2000859C1000859C100080000000005
:10C0F0000000000000000000000000000000000040
:0CC1000000000000000000005FF808F1E3
:10C10C00002100F004B80C4B5B58435004310B4831
:10C11C000B4B42189A42FFF4F6AF0A4A00F003B8F0
:10C12C00002342F8043B084B9A42FFF4F9AF01F0AC
:10C13C00ADF800F0E3FE7047C801010800000020D4
:10C14C00280700202807002000150020FFF7FEBF5D
:10C15C0062B6704708B572B606484FF4805102F0CB
:10C16C0069FC054B022218699A60196805308847EA
:10C17C0008BD00BF000C01406807002070B50646E2
:10C18C00002014460D4600F0F7FC012EA4B207D196
:10C19C0030462946224600F0BBFC0020124907E03D
:10C1AC00124B01201969224600F0B2FC00202946EE
:10C1BC00224600F0ADFC0E480221012202F0EFFAFB
:10C1CC00012000F0D9FC0A4802F0F1FA0028FAD15B
:10C1DC00084802F0ECFA0028FAD10748802102F056
:10C1EC001FFD0028F9D170BD000000206807002059
:10C1FC0058000240440002400038004003460A4602
:10C20C0001201946FFF7BABF70B506460020144648
:10C21C000D4600F0B1FC012EA4B207D130462946E0
:10C22C00224600F075FC0020104907E0104B01205D
:10C23C001969224600F06CFC00202946224600F0C9
:10C24C0067FC012000F098FC0A4802F0B0FA0028C4
:10C25C00FAD1094802F0ABFA0028FAD1074880213C
:10C26C0002F0DEFC0028F9D170BD00BF00000020F8
:10C27C00680700205800024044000240003800408B
:10C28C0003460A4600201946FFF7BEBF70B50E4D97
:10C29C0004460E4628464FF4805102F0CDFB002098
:10C2AC0021460422FFF7B0FF0020211D321FFFF7AB
:10C2BC00ABFF064B022228464FF480519A6002F0E5
:10C2CC00B9FB002070BD00BF000C014068070020C6
:10C2DC0070B501F00106044686F001000D1801232B
:10C2EC0000262370C5F307221D4BE6702671627081
:10C2FC00A57005319D68081886B215B99A68012A8F
:10C30C00FCD19968164D012907D120463146FFF71B
:10C31C00BDFFAA68022AFCD11FE0A8680228FCD144
:10C32C001048802102F07CFC0028F9D10E4BDD690D
:10C33C00A8470028FAD00A4D03220C484FF480512C
:10C34C00AA60EC60AE8002F077FB0749C8698047B1
:10C35C000028FAD0AB68022BFCD1002070BD00BFC6
:10C36C006807002000380040AC140020000C01408D
:10C37C0070B5184E35696B79022B08D0042B25D17A
:10C38C00287A441E14F0010F18BF044614E0681DEF
:10C39C00032102F089FEB0F5806F044608DB05F13D
:10C3AC000A004FF480610724FFF728FFB4600EE009
:10C3BC00C30701D4441C00E024B105F10A00A1B26A
:10C3CC00FFF71CFF034908228A6000E00024204686
:10C3DC0070BD00BF68070020024B012019690A22BA
:10C3EC00FFF7CCBE6807002008B5FFF7C1FF18B9EE
:10C3FC00BDE80840FFF7AEBE08BD000070B5384C74
:10C40C004FF40030266902F0D5F905464FF4005080
:10C41C0002F0D0F9A368062B0BD1002D5ED00028BA
:10C42C005CD04FF4083002F0D3F9BDE87040FFF750
:10C43C00DBBFA16807291BD100284FD04FF408306F
:10C44C0002F0C6F90321701D02F02EFEA0F58064E7
:10C45C00A1B2234CCA0758BFA0F2FF31206958BFC4
:10C46C0089B200F20A40FFF7C9FE0823A36070BD31
:10C47C00A268082A09D1002830D04FF4083002F005
:10C48C00A7F9BDE87040FFF765BEA068052814D178
:10C49C00002D23D01348802102F0C2FB0028F9D1D3
:10C4AC004FF4083002F094F94FF480510E4802F02A
:10C4BC00C1FA0B4A0221916070BDA368042B0DD107
:10C4CC0065B1A088E2680521A0F58063A16002F542
:10C4DC00806099B2BDE87040FFF7D2BE70BD00BF5E
:10C4EC006807002000380040000C014008B5184BCC
:10C4FC00D869804700282AD1164B9A6812B90120B6
:10C50C00986008BD996802290AD1062212484FF496
:10C51C0080519A6002F090FABDE80840FFF75CBFCA
:10C52C009A68032A13D19A88B2F5806F06D8052130
:10C53C009960D968BDE80840FFF720BE04209860D8
:10C54C00D8684FF48061BDE80840FFF799BE08BD7C
:10C55C00AC14002068070020000C014010B501311C
:10C56C00002393420ED0040F092C01D8303400E084
:10C57C00373401F8014C01330024000101F8024B5F
:10C58C00DBB2EEE710BD08B54FF000604FF4404150
:10C59C0002F058F84FF4A060BDE8084002F014B85F
:10C5AC0010B5044645F2555002F062FA062002F02E
:10C5BC0065FA42F21070844228BF04462821614378
:10C5CC00C1F30F2002F060FA02F064FABDE81040EB
:10C5DC0002F068BA082812D8012907D10A4B0B4A75
:10C5EC0053F8201032F8100008610AE049B9064BE4
:10C5FC00064A53F8201032F81000486101E0FF237E
:10C60C0000E0002358B270470800002094FF000897
:10C61C0037B50E4D044605EB80031869012102F075
:10C62C00A5FA35F814000A4B1021ADF804008DF86A
:10C63C000710032253F8240001A98DF8062002F0FC
:10C64C00A3F920460021FFF7C5FF3EBD94FF00086B
:10C65C000800002070B5012188B04FF4006002F092
:10C66C0085FA314B42F210701C686326B4FBF0F172
:10C67C004A1E2E4C01A895B202F020FC01A802F033
:10C68C001DFC01A9ADF8045020460025ADF808604A
:10C69C00ADF80A50ADF8065002F0C8FA04A802F042
:10C6AC0016FC022060230126ADF8180004A92046D0
:10C6BC00ADF81030ADF81260ADF81650ADF81C5056
:10C6CC0002F0FEFA2046294602F03AFC204604A964
:10C6DC0002F03AFB2046294602F03AFC204604A917
:10C6EC0002F076FB2046294602F03CFC204604A9C9
:10C6FC00ADF81050ADF81260ADF81650ADF81850FA
:10C70C0002F0A8FB2046294602F034FC20463146B4
:10C71C0002F00AFC2046314602F0E3FB204631468B
:10C72C0002F0EBFB08B070BDE4010020002C0140CE
:10C73C0030B5114B1A78F2B91049C0F307428C8D01
:10C74C00A5B26C1C5443FF22B4FBF2F5ACB2DC80F6
:10C75C008D8DACB20134C0F307256C43B4FBF2F4FD
:10C76C00A4B21C81898DC0B289B201314843B0FB9F
:10C77C00F2F291B2998030BD28070020002C0140C4
:10C78C00014B1870704700BF2807002038B5044CC7
:10C79C00002325782370FFF7CBFF257038BD00BF31
:10C7AC002807002037B50F4D044605EB8003186BA6
:10C7BC00012105EB440502F0D9F9B5F84000ADF8BC
:10C7CC0004000CB9102100E01821074B8DF807105C
:10C7DC0003EB84040322206A01A98DF8062002F0E1
:10C7EC00D3F83EBD94FF0008080000200B4B1A78CC
:10C7FC009AB960B1E72810D1D988094A88B2108754
:10C80C00198988B290879B8899B2918605E0054A70
:10C81C004FF40053106A03617047704728070020DB
:10C82C00002C0140080000200F4A1378D3B990B1B6
:10C83C00E72817D10D4B198FD088414088B2188743
:10C84C00998F1089414088B29887998E92884A4076
:10C85C0090B2988606E0064B196ACA6882F40050BA
:10C86C00C8607047704700BF28070020002C0140AB
:10C87C00080000202B4B1A78002A52D1E72850D1FF
:10C88C00D888294B80B268B1284A118F88B208B970
:10C89C00012007E0118F928D88B291B24A1C904210
:10C8AC0001D1FF2018701F4B2148198989B269B139
:10C8BC001E4A938F99B209B9012107E0938F928D8B
:10C8CC0099B293B25A1C914201D1FF2101701548C3
:10C8DC00838818489BB26BB1144A918E8BB20BB9FA
:10C8EC00012307E0918E928D8BB291B24A1C934238
:10C8FC0001D1FF2303700D480B49028F91F90030D1
:10C90C009A1891B20A4A018792F90010838FCB18BA
:10C91C009AB20849828791F90020838ED31899B274
:10C92C008186704728070020BE100020002C014093
:10C93C007D0F00207C0F002073B5104C0E4604EBCD
:10C94C00400494F84C10054694F8480002F076F830
:10C95C00B4F85040204601F081FF094800234519E6
:10C96C0095F83010684600948DF804308DF8051059
:10C97C008DF8066001F036FF7CBD00BF94FF000807
:10C98C0008000020F7B5224E8700F3190546586DB4
:10C99C000C4640F00100012102F0E8F81D4B06EBBB
:10C9AC0045065A1992F83210B6F85C0002AADF1943
:10C9BC008DF8031022F8080D6946786B01F0E4FF3E
:10C9CC00012C23D11021002213481B2702F0A3FABB
:10C9DC0000238DF8047001A802278DF806308DF81D
:10C9EC0005708DF8074001F0F9FDB6F8601001A84C
:10C9FC008DF804108DF805708DF806408DF8074001
:10CA0C0001F0ECFD28462146FFF796FFFEBD00BF66
:10CA1C0094FF000808000020002C014010B50121F3
:10CA2C004FF0C05002F0AEF8012002F043F8FFF7CF
:10CA3C00AAFD0120014602F099F80024E0B201346D
:10CA4C00FFF7E6FD082CF9D1FFF704FE0020FFF7F5
:10CA5C00A9FE0120FFF7A6FE0220FFF7A3FE03208C
:10CA6C00FFF7A0FE00200146FFF78CFF154B4FF49B
:10CA7C007A701A68144BB2FBF0F14A1E1349F0207D
:10CA8C005A6081F82300002207209A601860CB6856
:10CA9C00C3F30220011D0629C0F1070388BFC21E83
:10CAAC00042B28BF0423012000FA03F14B1E03F0D2
:10CABC00030000FA02F2054B1101C8B283F82300FF
:10CACC0010BD00BFE401002010E000E000ED00E02C
:10CADC00054A064B02EB800103EB4002486BB2F8AF
:10CAEC005C1001F0A1BF00BF0800002094FF0008FB
:10CAFC00024B03EB4000418988B2704728070020A5
:10CB0C00024B002203EB40004281704728070020B3
:10CB1C0070B5044601208CB00E460146154602F055
:10CB2C0019F8124B002080224FF44051012C019334
:10CB3C000296059006920790089009900A910B9026
:10CB4C0006D103900A48049501F086FD084807E0D9
:10CB5C004CB9102307480393049501F07DFD05485B
:10CB6C0001A901F0F1FD0CB070BD00BF0C38004004
:10CB7C00440002405800024010B5044621460448C7
:10CB8C0001F002FE03482146BDE8104001F0FCBD57
:10CB9C00440002405800024007B50820012101F072
:10CBAC00E5FF032014214FF480638DF806008DF807
:10CBBC000710034801A9ADF8043001F0E5FE0EBDE5
:10CBCC00000C0140002008B501F07AFF4FF4000082
:10CBDC000121BDE8084001F0D5BF07B501201423A1
:10CBEC008DF8050000228DF8070001A88DF804309F
:10CBFC008DF8062001F0F2FC0EBD000020B10548B6
:10CC0C004FF4806101F018BF02484FF4806101F0CD
:10CC1C0011BF00BF000C014008B5064B1860FFF7B0
:10CC2C00BBFFFFF7CFFFFFF7D8FFBDE8084001F0CF
:10CC3C008DBA00BF4C020020074B1868052808D19C
:10CC4C0006498A7B012A04D1087C8B7CC11AC8B2A4
:10CC5C0070470020704700BF5807002028070020AD
:10CC6C000D4B10B51868052813D10C4CA17B01296C
:10CC7C000FD1228A638AD01A012804D10021032003
:10CC8C00A17301F0CEFB638A054A591CD05C61820A
:10CC9C0010BD4FF0FF3010BD5807002028070020B2
:10CCAC007E0F0020074B196805290AD1064B07494E
:10CCBC005A698854501CB0F5807F586101D100220C
:10CCCC005A6170475807002028070020BE0F00202B
:10CCDC0070B51D4A137E012B34D0D069B0F5807F1E
:10CCEC0001D10021D161D36952691748934202D115
:10CCFC000021017670BD8CBFC3F58072C3EB0202BC
:10CD0C00114C0262256A99B2402D05D94033403D41
:10CD1C00E3612562402604E0E8180023AEB2E0612E
:10CD2C0023620A4A01255018C0213246257601F0AB
:10CD3C00EFFA2846314601F0F5FB2846BDE8704075
:10CD4C0001F05EBB70BD00BF28070020BE0F0020A5
:10CD5C00094B10B593E814000833186810180AD062
:10CD6C0008220649FFF7FAFB054920460422BDE8D4
:10CD7C001040FFF7F3BB10BDE8F7FF1FFA010020CE
:10CD8C000A020020BFF34F8F054A064BD16801F40D
:10CD9C00E06040EA0301D160BFF34F8FFEE700BFB4
:10CDAC0000ED00E00400FA05054B06481A88064918
:10CDBC0002800B88054A438011888180704700BF30
:10CDCC00004C000848000020024C0008044C0008ED
:10CDDC0010B501F05FFD342001F070FD0F4801F03B
:10CDEC00B5FD042819D10E4C0C48218801F092FD98
:10CDFC00042811D10B48618801F08CFD04280AD15C
:10CE0C000948A18801F086FD042803D1BDE8104033
:10CE1C0001F04CBDFEE7FEE7FEE7FEE7004C000824
:10CE2C0048000020024C0008044C000838B52A4B7E
:10CE3C002A491A68501C18600C6814B10B685A1EE9
:10CE4C000A60274C206810B12268531E06E0254D5D
:10CE5C00297829B1E720FFF70DFD1923236019E08C
:10CE6C00214B1A784AB9214B1A7812B1E720FFF7F7
:10CE7C00DBFC1B49642008600CE01D4C207848B991
:10CE8C004FF6FF70FFF754FCE720FFF7AFFC0121D2
:10CE9C00297021700020FFF72BFE40F6B731884235
:10CEAC000AD9144C00204FF6FF75FFF729FE658058
:10CEBC00FFF78EFFFFF766FF0F4841F287320368DA
:10CECC00934205D900220260BDE8384001F0E2BD72
:10CEDC0001684B1C036038BD00110020E0100020DD
:10CEEC00DC100020EC100020E5100020FC100020CD
:10CEFC004C07002048000020D410002010B5FFF78C
:10CF0C008DFD6FF07F40FFF713FCE720FFF76EFC01
:10CF1C007D2001F043FE20B11F4B01221A7001F05D
:10CF2C0051FE43F69820FFF73BFBFFF73DFF1B48F4
:10CF3C008188B1F5404F04D04FF440448480FFF712
:10CF4C0047FF154A1378012B03D0154808B100F0A0
:10CF5C00EFFB14494C7814B9134A137813B94FF4F6
:10CF6C007F4000E0FF20FFF7E3FBE720FFF73EFCEC
:10CF7C000E4901200870084C2278012A03D00C4B72
:10CF8C000BB100F0B3FC20780128F4D009490C68EF
:10CF9C00002CF0D0A047EEE7E41000204800002061
:10CFAC003DD700084C070020D8100020FC100020B2
:10CFBC00F9D800082813002070470000014608B576
:10CFCC00044802F055F80348802102F059F8002873
:10CFDC00F9D008BD0044004010B5441E14F8010FF0
:10CFEC0010B1FFF7EBFFF9E710BD000008B5FFF734
:10CFFC00F3FF0248BDE80840FFF7EEBFB800010898
:10D00C00202108B5034802F03BF8003018BF01207E
:10D01C0008BD00BF0044004008B5024802F02CF8DF
:10D02C0008BD00BF0044004008B50448002102F0D0
:10D03C0013F8034B00221A7008BD00BF00440040D7
:10D04C004E070020FFF72EBE10B5441E14F8010F3A
:10D05C0010B1FFF727FEF9E710BD000008B5FFF788
:10D06C00F3FF0248BDE80840FFF7EEBFB800010827
:10D07C00FFF7F6BDFFF7E0BDFFF7CEBD14282DE995
:10D08C00F34104460E465BD8FF2959D02D4B187836
:10D09C00012803D1A4F11201012951D92A4D2701EC
:10D0AC00EA192A4BEF5904209F42B2F8048003D0AE
:10D0BC002748874203D10820012101F057FDADF824
:10D0CC000480052E38D8DFE806F00310171E253033
:10D0DC001D4B102103EB041403220020A0738DF8C8
:10D0EC0007108DF80620083426E004208DF8070080
:10D0FC0005EB041401221EE048238DF8073005EBE4
:10D10C000414022217E028228DF8072005EB0414E2
:10D11C00032210E00C49182303208DF807308DF8FA
:10D12C00060001EB0414042205E000218DF8071021
:10D13C0005EB04140522A273384601A901F024FC66
:10D14C00BDE8FC814E07002058000020000801407B
:10D15C00000C01401FB504460120014601F006FDFC
:10D16C004FF40030012101F00DFD12200121FFF7D9
:10D17C0085FF13200421FFF781FF00940C4C0C2039
:10D18C000023ADF80A0069462046ADF80430ADF82E
:10D19C000630ADF80830ADF80C3001F005FF012178
:10D1AC00204601F059FF034901220A701FBD00BF40
:10D1BC00004400404E0700207047FEE7FEE7FEE704
:10D1CC00FEE7704770477047FFF730BE08B5012087
:10D1DC0001F00AFD30B1012001F018FDBDE8084056
:10D1EC0001F0F8BC08BDFFF709B9000008B5042030
:10D1FC0001F03AFB78B1042001F046FB0020064B0D
:10D20C0001461880FFF798FB044810210122BDE865
:10D21C00084001F080BE08BD32070020002C014000
:10D22C0008B54FF4006001F01FFB38B14FF40060FB
:10D23C0001F02AFBBDE80840FFF758B908BD000013
:10D24C0008B50F48102101F09FFEC0B10C48102109
:10D25C0001F0A5FE0020FFF73BFC28B9094B1A880A
:10D26C000A3290B2188008BD10210548002201F046
:10D27C0052FE00200121BDE80840FFF75DBB08BD50
:10D28C00002C01403207002000F0E0B83A4B82B08D
:10D29C001A6842F0010018605968384A0A405A600E
:10D2AC00186820F0847121F480321A60186820F418
:10D2BC00802119605A684FF41F0122F4FE000022ED
:10D2CC005860996000920192186840F4803119609E
:10D2DC00294B1A6802F40030019000994A1C009204
:10D2EC00019818B90099B1F5A06FF1D11B6813F42E
:10D2FC00003218BF012201920198012805D0204B61
:10D30C004FF000629A6002B070471E490B6843F000
:10D31C0010020A60086820F003030B600A68A1F58C
:10D32C00805342F002000860596859605A685A608C
:10D33C00586840F4806159605A6822F47C10586037
:10D34C00596841F4E8125A60186840F0807119600D
:10D35C001868094A8101FBD5536823F00301516019
:10D36C00506840F002035360034A516801F00C000E
:10D37C000828F9D1C3E700BF001002400000FFF8F5
:10D38C0000ED00E00020024038B514490B78012B69
:10D39C0023D1134A13680BB90B7038BD114C402BB9
:10D3AC00206881B205D94030403B20601360402595
:10D3BC0004E09DB2C3180020236010600A4A501884
:10D3CC00C0212A4600F0A4FF0120294601F0AAF84A
:10D3DC000120BDE8384001F013B838BD40070020EB
:10D3EC004807002044070020BE0F0020094908B55B
:10D3FC000020094B0122088003201A7001F0BEF8AE
:10D40C00064B0246188006484FF48871BDE8084068
:10D41C0000F095BF3A07002036070020380700209F
:10D42C007E0F0020074B1868052809D1064B1A6897
:10D43C00511C052A196003D100201860FFF748BC65
:10D44C00704700BF580700205007002038B5194B13
:10D45C00194A1968194D88B21080148829882140FE
:10D46C0001F4007082B24AB14FF6FF541C60144BA9
:10D47C001D78691CC8B21870FFF7D4FF0E4A0F4B09
:10D48C0014881D88254005F4004188B215461C46B9
:10D49C0008B100F077FE2A882388134003F48061DA
:10D4AC0088B230B1034B07494FF6FF321A60486817
:10D4BC00804738BD445C00402C13002060140020D1
:10D4CC005407002084020020034B987A10B10349C2
:10D4DC0005220A60704700BF3C140020580700204A
:10D4EC00014B04221A60704758070020034B1A782E
:10D4FC00202A01D100201870704700BF550700206A
:10D50C0070470000212810B508D11148036819781C
:10D51C0001F07F02212A11D0022010BD2028FBD15E
:10D52C000B4B19680A780B4902F07F030A4A212B2E
:10D53C000CBF0B46002310700BB9EDE7074B044CE6
:10D54C00206800248361448220469847204610BD01
:10D55C005C140020B9D5000855070020A1D500089F
:10D56C00074B19680A7802F07F03212B05D102289A
:10D57C0001D1002070472228FBD00220704700BF49
:10D58C005C14002009B1022070470128FBD8084622
:10D59C007047000020B9034B082219680A827047B3
:10D5AC00014870475C1400204C02002020B9034B4A
:10D5BC00082219680A827047014870475C140020E1
:10D5CC004C020020054B1968CA78042A04D8044B75
:10D5DC0003EBC20100F056BB002070475C14002026
:10D5EC0054020020014900F04DBB00BF7402002022
:10D5FC00014900F047BB00BF7C020020334A344B8A
:10D60C00D179186810B5002441728472C472204616
:10D61C0000F0A8FE20464FF4007100F0ABFE102184
:10D62C00204600F0B3FE4021204600F04FFF802141
:10D63C00204600F03BFF204600F004FF254B20461F
:10D64C0093F8641000F07CFF204600F0EAFE012005
:10D65C00214600F08FFE0120C02100F027FF0120A1
:10D66C00202100F093FE0120214600F0ACFE0220A8
:10D67C004FF4C06100F07EFE02204FF4807100F088
:10D68C0015FF0220214600F09EFE0220202100F012
:10D69C007DFE0320214600F06DFE03204FF48871BF
:10D6AC0000F014FF0320402100F04AFF03204FF448
:10D6BC00405100F088FE0320214600F067FE204612
:10D6CC0000F0F2FC044A0120106010BD5400010867
:10D6DC005C1400204C0200205807002010B5FFF706
:10D6EC0037FB054B00241868847200F009F800F031
:10D6FC005BFF02490C6010BD5C1400205807002031
:10D70C0008B50120FFF77AFA064B074901220020E1
:10D71C001A601860086005494FF4E0520A801A60DC
:10D72C0008BD00BF405C0040445C00406014002019
:10D73C0008B50120FFF724F8FF20FFF727F8034B6B
:10D74C004FF416501968884708BD00BFC801002067
:10D75C0073B50C46064602F077FA24780546204647
:10D76C0002F072FA00940190314603202A460023FD
:10D77C0002F04EF94FF0FF1002B0BDE87040FFF719
:10D78C0005B8000038B50D46084902F01DFB002411
:10D79C0050B1042CD8BF45F824000449D8BF01343B
:10D7AC00002002F011FBF3E738BD00BFBB000108FD
:10D7BC001FB50C4902F008FB0024C0B278B1032C51
:10D7CC0007DC02F089F904AA02EB840343F8100C7D
:10D7DC0001340020034902F0F7FAC0B2EEE76846C4
:10D7EC0004B010BDBD00010830B585B01546FFF77B
:10D7FC00DFFF012106220446022002F039F800283E
:10D80C0002DA4FF0FF3023E023211D228DF80210A5
:10D81C008DF803200223ADF8003023688DF8043016
:10D82C0061688DF80510A26869468DF80620E368DA
:10D83C0010228DF8073002F049F80028E1DB284669
:10D84C0002F002FA294602460023024802F0D6F8FA
:10D85C0005B030BD7DF8000808B542F21D31FFF768
:10D86C00C3FF4FF6FF70BDE80840FEF78FBF000006
:10D87C0010B5184C86B0A368984748B3E068804749
:10D88C00154AC1B21548136802689342BCBF144ACA
:10D89C00D1543B291CD112481249082202F004FA37
:10D8AC0040B901A90E48FFF76DFF02980399FFF7E5
:10D8BC004FFF0DE00A480C49052202F0F5F938B982
:10D8CC00074801A9FFF75EFF02A907C9FFF7C4FFCC
:10D8DC0006B010BDC80100205C070020DC0200204F
:10D8EC002E130020A9000108B2000108FFF7C0BFE9
:10D8FC0010B5064C18B9236801221A8210BD044BCE
:10D90C0018680168884720680A3010BD5C14002034
:10D91C005814002010B5064C18B9236801221A823D
:10D92C0010BD044B18688168884720680C3010BD06
:10D93C005C1400205814002008B5234A18B9136849
:10D94C0002221A8208BD214B00201268188011781F
:10D95C0011F07F0113D1507A00F02002D1B209B13D
:10D96C0002221A7000F04003D8B2184B18B11A7882
:10D97C0042F001011EE0197821F001011AE00129A1
:10D98C001FD002291ED1507900F00F024FEA8201FC
:10D99C0010F0800F01F1804000F5B842116803D0FF
:10D9AC0001F03002102A03E001F44050B0F5805F22
:10D9BC0001D101211970064B186801698847034889
:10D9CC0008BD184608BD00BF5C1400202E140020B2
:10D9DC0058140020F8B5224B1C68238A267AABB960
:10D9EC00042E13D11F48017801291F490AD11F4C5D
:10D9FC00226894B21E4AA2185200136030220A8088
:10DA0C00037028E010260E80072624E0A58AA16961
:10DA1C00AB428CBF022604269D4228BF1D462846D9
:10DA2C0088470746002000F061FD2A46014638462B
:10DA3C0000F06EFC2946002000F074FD208A638AF9
:10DA4C00421BED1808480B4B228230214FF44052F8
:10DA5C00018065821A80024B18680672F8BD00BFFF
:10DA6C005C1400206407002064140020505C00400B
:10DA7C00023000206214002010B50A4B0A491868C5
:10DA8C004B78C27893420AD3817841B9848834B9EF
:10DA9C0082720648026853689847204610BD0220DF
:10DAAC0010BD00BF5C140020D802002058140020C8
:10DABC0038B50E4A0E4C106823688269D9785879AB
:10DACC00904721688B7A7BB170B9087960B98D78F1
:10DADC0055B9084A1168CB68984720684279C178D3
:10DAEC00C2720173284638BD022038BD34140020A0
:10DAFC005C1400205814002010B5324B1B681878A9
:10DB0C0010F07F0004D15A7A22F02001597210BD16
:10DB1C00022855D15A88002A53D11979002950D19D
:10DB2C005A7922F080004FEA800404F1804101F51B
:10DB3C00B8442168244C12F0800F247814BF01F0F3
:10DB4C00300101F44051A0423AD2002938D09B7ADE
:10DB5C00002B35D0840002F0800204F18043D1B256
:10DB6C0003F5B844226861B102F03002102A21D1C9
:10DB7C00C4B2204600F087FC2046302100F006FCA1
:10DB8C0018E002F44051B1F5805F13D128B90F4B66
:10DB9C0093F82C1000F0D4FC01E000F062FC20683B
:10DBAC004BF68F72024082F4405141F4004343F033
:10DBBC008000206006490B6858698047002010BD22
:10DBCC00022010BD5C140020D8020020840200202A
:10DBDC005814002010B51F4B19684A7922F08003A5
:10DBEC004FEA830000F1804404F5B8401A4C0068F9
:10DBFC00247812F0800F14BF00F0300000F4405075
:10DC0C00A34224D24C8814BB08B3897AF9B19B0087
:10DC1C0003F1804102F0800201F5B843D0B21968DB
:10DC2C0028B148F6BF720A4082F0100004E04BF6AF
:10DC3C008F720A4082F4805040F4004141F0800021
:10DC4C001860064B1A6891698847002010BD0220A5
:10DC5C0010BD00BF5C140020D80200205814002016
:10DC6C0008B5064B1868064B427A42F02001417207
:10DC7C001868C2699047002008BD00BF5C140020E2
:10DC8C0058140020054B1A68538A18B98988CB1A86
:10DC9C00138270470868C018704700BF5C140020DE
:10DCAC0008B50B4B002093F82C1000F049FC0948E8
:10DCBC000168087A082806D1074B4FF480521A8065
:10DCCC00064A10211180B0F109035842584108BD91
:10DCDC00840200205C1400206214002064140020D4
:10DCEC0070B52E4B1C68207A02284FD004284DD0DA
:10DCFC00032801D0052843D1A169208AA9B1A0B17C
:10DD0C00A58A854228BF054628468847228A0646AA
:10DD1C00608A531B291861822382002000F0F4FBD7
:10DD2C002A460146304600F00AFB228A52B11C4BAF
:10DD3C004FF4405018800020014600F0F3FB194AC4
:10DD4C0030211180208AA38A1449834202D80B689F
:10DD5C00032202E018B10B6805221A720CE00A6863
:10DD6C000623114913720A68104993B25A185300CA
:10DD7C000C49186030200880084801680B7A06E0CE
:10DD8C00072803D10A490A68D36898470823034A2D
:10DD9C0010680372BDE87040FFF782BF5C1400206E
:10DDAC006214002064140020505C004002300020FB
:10DDBC0034140020944B73B51A68944990B24418EB
:10DDCC00934E65002A6835682B7A092B15D090B2D2
:10DDDC00410001F1804404F5C04422782A70637834
:10DDEC006B70A08800F0DAFB68802089356800F041
:10DDFC00D5FBA880A0893168C880854D01242B688B
:10DE0C00DA881C725C78002A64D1187810F07F02D2
:10DE1C0038D1092C02D1FFF72FFE45E0052C0FD18C
:10DE2C0093F90320002A01DA08214FE099780029A0
:10DE3C00FAD198880028F7D19B7A002B38D0F3E7D9
:10DE4C00032C10D1D878012807D0724A20461168CB
:10DE5C004B699847032829D137E09B88002BF4D1D4
:10DE6C00FFF7FEFE20E0012CEFD1D9780129ECD18F
:10DE7C0098880028E9D15B7A03F02002D1B20029FE
:10DE8C00E3D00AE0012A04D10B2CDED1FFF710FEFF
:10DE9C000AE0022AD9D1012C02D1FFF72DFE03E0B2
:10DEAC00032CD2D1FFF796FE10B1CEE70028BBD1E0
:10DEBC005548594B026891B2C818584B4100002282
:10DECC0030200A601880062100E00921504A1068B1
:10DEDC000172D3E0062C13D11C7861067AD19A78A2
:10DEEC004C4B012A02D11C68E36969E0022A02D179
:10DEFC001868036A64E0032A6CD119684B6A5FE006
:10DF0C00002C3ED15988002964D1586820F47F42F6
:10DF1C00B2F5003F5ED11C7814F07F0004D19888D4
:10DF2C00002800F0AE8055E001280CD1394A587910
:10DF3C001468A269904700284CD12B68997A002963
:10DF4C0040F09F8046E0022844D15B7903F00F013A
:10DF5C004FEA810202F1804404F5B840304C02686B
:10DF6C00207813F0800F14BF02F0300202F44052FC
:10DF7C0081422FD213F0700F2CD1002A40F08180F7
:10DF8C0028E0082C03D119784A067CD022E00A2C10
:10DF9C0020D1187800F07F0101291BD19C7ACCB1DB
:10DFAC005988B9B95A6822F47F40B0F5803F11D135
:10DFBC00184C587922689469A047002865D009E06C
:10DFCC0043B113480024016820464C828B6198476A
:10DFDC0020460AE00F4A0E4C116823680A695878EB
:10DFEC009047032801D1236806E0094B4FF6FF71D7
:10DFFC001B681A8A8A4201D1092103E0022800D049
:10E00C0082B90821197239E0505C004004300020BC
:10E01C005C14002034140020023000206414002012
:10E02C00D802002093F90000002821DAD988019148
:10E03C000198824202D9019A1A8211E08A420FD2C7
:10E04C001349086890F82C108A4201D2002105E08F
:10E05C0092FBF1F001FB102212B901210D48017065
:10E06C000B49086890F82C209A82FFF7B3FC05E066
:10E07C0003221A72084B4FF440511980FFF710FE1F
:10E08C007CBD064B9DE7064B9BE7064B99E700BF13
:10E09C0034140020640700206214002045D90008C5
:10E0AC00FDD8000821D9000870B50D4B1C78002351
:10E0BC00A34210D203F1805202F5B855A90043F4E3
:10E0CC0000420E6842F0800540F60F7232402A433F
:10E0DC000A600133ECE7034940F08000086070BD32
:10E0EC00D80200204C5C004010B514490B680C465B
:10E0FC001A7A022A01D0042A04D1FFF76BFC21689A
:10E10C00087A13E0062A10D15878052809D1197815
:10E11C00480606D1D878FFF7C7FF094B1A68106A72
:10E12C00804708490B689A6890470820034B1A6887
:10E13C001072BDE81040FFF7B3BD00BF5C140020A7
:10E14C0058140020341400207047000008B5074A0A
:10E15C00074B0220136018720649074B0748084A00
:10E16C000B6010601B68984708BD00BF5C14002052
:10E17C003C1400203414002084020020B40200203F
:10E18C005814002037B50023ADF806305848594BC9
:10E19C00026891B21204198040F1A880188856497F
:10E1AC0000F00F020A70002A6ED1544C2568AAB2F6
:10E1BC00534D2A802988534A01F030001080298859
:10E1CC004BF6BF7201F44050288021680A4082F45B
:10E1DC00005080F0200141F4004242F080002060A9
:10E1EC001B8803F010018AB23AB9226848F60F7006
:10E1FC0010402060FFF778FF1DE0206883B2ADF877
:10E20C000630BDF8061001F4006290B238B12168F6
:10E21C0040F68F730B402360FFF7CCFD0BE0BDF88D
:10E22C00063019B20029B1DA226840F68F7010401E
:10E23C002060FFF755FD21682A884BF6BF7302F466
:10E24C0080500B4081B209B183F480532C4A108862
:10E25C0000F400518AB20AB183F4005329480188B2
:10E26C0001F0100291B209B183F01003008800F0A4
:10E27C00200291B209B183F0200343F400401F4AFD
:10E28C0040F08001116031E0930003F1804000F513
:10E29C00B843196888B2ADF80600BDF8061008B28C
:10E2AC00002809DA186840F68F7101401960164B86
:10E2BC00013A53F822008047BDF8061001F08002A5
:10E2CC0093B2002B3FF462AF0B480278910001F13E
:10E2DC00804303F5B841086848F60F7303400B60A0
:10E2EC000A49013A51F8220080474FE73EBD00BF72
:10E2FC00445C00402C13002038140020005C0040CB
:10E30C00621400206414002014020020300200204B
:10E31C0030B501F1005101F5405301325900521052
:10E32C0000230230934209D010F8015C10F8024C23
:10E33C0044EA052421F823400133F2E730BD01F112
:10E34C00005110B5013201F5405452106400002305
:10E35C00934205D054F8231020F813100133F7E73B
:10E36C0010BD00004FF6F873014A0340136070476C
:10E37C00505C0040800000F1804202F5B842106809
:10E38C0048F68F130340194311607047800000F169
:10E39C00804202F5B842106848F6BF73034001F0A2
:10E3AC00100080B208B99BB201E083F0100301F0B9
:10E3BC00200188B208B183F0200343F4004141F0FE
:10E3CC00800010607047800000F1804202F5B84276
:10E3DC0010684BF68F73034001F4805080B208B97B
:10E3EC009BB201E083F4805301F4005188B208B170
:10E3FC0083F4005343F4004141F0800010607047F7
:10E40C00800000F1804202F5B840016848F6BF7305
:10E41C000B4083F0300242F4004141F08003036072
:10E42C007047800000F1804202F5B84001684BF65D
:10E43C008F730B4083F4405242F4004141F080034F
:10E44C0003607047800000F1804202F5B84001681B
:10E45C0040F60F630B4043F4004242F08001016030
:10E46C007047800000F1804303F5B8400268510406
:10E47C0008D5016840F60F730B4043F4404242F05C
:10E48C00800101607047800000F1804303F5B843C0
:10E49C001A68500608D5196840F60F70084040F409
:10E4AC00004242F0C001196070470000064B490859
:10E4BC001A6893B203EBC00000F1005202F540530E
:10E4CC0058004A0002607047505C0040054B4908F8
:10E4DC001A6893B2044A03EBC000831858004A0030
:10E4EC0002607047505C004004300020054B1968F6
:10E4FC008AB202EBC00000F1005303F540514A0010
:10E50C0010887047505C0040044B1968044B8AB269
:10E51C0002EBC000C1184A0010887047505C0040E4
:10E52C0004300020044B1A6893B2044A03EBC00079
:10E53C008318580001607047505C00400230002086
:10E54C000C4B1A6893B20C4A03EBC00083185A00A8
:10E55C003E2908D94B09C90601D1581E83B299022C
:10E56C0041F4004104E04B08C80748BF013399024D
:10E57C0011607047505C004006300020054B196854
:10E58C00054B8AB202EBC000C1184A001068830523
:10E59C00980D7047505C004006300020C3B2000A52
:10E5AC0040EA032070470000044B00201860044A26
:10E5BC00044B4FF40641118019607047445C0040D5
:10E5CC0060140020405C004040F0BF60024B40F4FF
:10E5DC000031D960704700BF00ED00E0C37810B582
:10E5EC0003B3164CE168CB43C3F302244178C4F166
:10E5FC00040201FA02F10F2222FA04F28478037861
:10E60C0022400A43110103F16043CAB203F5614190
:10E61C0081F800230078012200F01F03410902FA5F
:10E62C0003F007E00078012200F01F03410902FA11
:10E63C0003F02031024B43F8210010BD00ED00E047
:10E64C0000E100E021F0604121F07F02014B10431A
:10E65C009860704700ED00E002684FF6FE731340BF
:10E66C0003602D4B00219842016041608160C160C4
:10E67C0022D02A49884229D0294B984230D02949A6
:10E68C00884237D0284B98423ED0284B984206D12E
:10E69C0053F8681C41F4700043F8680C7047244927
:10E6AC00884206D151F87C0C40F0706241F87C2C09
:10E6BC007047204B984206D153F8042C42F00F01BE
:10E6CC0043F8041C70471C49884206D151F8183C89
:10E6DC0043F0F00041F8180C7047184B984206D1E3
:10E6EC0053F82C2C42F4706143F82C1C70471449DD
:10E6FC00884206D151F8403C43F4704041F8400C3C
:10E70C007047104B984205D153F8542C42F47021A9
:10E71C0043F8541C704700BF080002401C00024024
:10E72C003000024044000240580002406C0002409D
:10E73C0080000240080402401C04024030040240E5
:10E74C00440402405804024070B506688C680D6A97
:10E75C0026F4FF4222F070060A6945EA04034C696C
:10E76C0013438A692343CC6913431C434B6A44EA21
:10E77C0003028B6A1A4332430260CB680A68496809
:10E78C0043608260C16070BD19B1016841F0010342
:10E79C0003E002684FF6FE73134003607047036892
:10E7AC000AB1194301E023EA010101607047406896
:10E7BC0080B27047C3004CBF034B044B1968014235
:10E7CC000CBF0020012070470004024000000240F2
:10E7DC00C2004CBF014B024B586070470004024012
:10E7EC0000000240837910B5002B29D01A4B016828
:10E7FC001C68CA4314401C605C6822405A60027951
:10E80C0002F1804404F582321468214311600268DD
:10E81C009C68D1430C409C60DC68407921401028F6
:10E82C00D96006D1986810439860D9680A43DA60B9
:10E83C0010BD00F1804303F5823319680A4308E0E8
:10E84C000179006801F1804202F582331A6822EAEC
:10E85C0000021A6010BD00BF00040140014B58615A
:10E86C00704700BF00040140064B1A68596910EA52
:10E87C00010304D010420CBF002001207047184641
:10E88C00704700BF00040140014B5861704700BF46
:10E89C0000040140034A044B02F188305A6058606E
:10E8AC00704700BF2301674500200240024B1A69E4
:10E8BC0042F080001861704700200240014BD86084
:10E8CC00704700BF00200240084BDA68D20709D419
:10E8DC00D868400708D4D96811F0100F0CBF042079
:10E8EC00032070470120704702207047002002402F
:10E8FC0010B50446FFF7E8FF012806D11CB1FFF75D
:10E90C00E3FF013CF8E7052010BD002C08BF0520F3
:10E91C0010BD000070B505464FF400500E46FFF7D1
:10E92C00E7FF04280ED1084C236943F00100206155
:10E93C002E804FF40050FFF7DBFF226941F6FE7189
:10E94C001140216170BD00BF0020024038B5054662
:10E95C004FF43020FFF7CCFF042812D1094C236967
:10E96C0043F002002061656121694FF4302041F0D1
:10E97C0040022261FFF7BCFF216941F6FD730B4099
:10E98C00236138BD00200240CB78F0B5DA0648BFD1
:10E99C008A78098803F00F0548BF154311F0FF0F63
:10E9AC001ED004680022012707FA02F707EA0106C5
:10E9BC00BE4211D197004FF00F0C0CFA07FC05FA70
:10E9CC0007F724EA0C04282B44EA070401D146611A
:10E9DC0002E0482B08BF06610132082AE3D104602B
:10E9EC00FF2920D94468002202F10806012707FA02
:10E9FC0006F707EA0106BE4211D197004FF00F0C43
:10EA0C000CFA07FC05FA07F724EA0C04282B44EA55
:10EA1C00070401D1466102E0482B08BF06610132B0
:10EA2C00082AE1D14460F0BD836819420CBF002074
:10EA3C0001207047016170474161704701F003028A
:10EA4C0030B592000F2404FA02F400FA02F0074BDE
:10EA5C008908023153F8215025EA040443F8214077
:10EA6C0053F82140044343F8214030BD00000140DD
:10EA7C00014B1860704700BF00300040014B5860DC
:10EA8C00704700BF00300040014B9860704700BFDA
:10EA9C0000300040024B4AF6AA221A60704700BFB1
:10EAAC0000300040024B4CF6CC421A60704700BF5D
:10EABC0000300040014B1860704700BF20000E4230
:10EACC00014B1860704700BFD80042421D4B10B577
:10EADC005A6802F00C01042901D0082902D01A4A04
:10EAEC0002600EE05C685968C4F38342941CC9034D
:10EAFC0002D55B689B0301D5144900E012494C43D5
:10EB0C000460104A124B5468C4F303115C5C016836
:10EB1C0021FA04F141605468C4F302241C5D21FA0B
:10EB2C0004F484605468C4F3C2241C5D21FA04F11B
:10EB3C00C1605268C2F381329B181A7CB1FBF2F1AE
:10EB4C00016110BD0010024000127A0000093D0066
:10EB5C00E0020020044B5A6909B1104301E022EA9B
:10EB6C0000005861704700BF00100240044B9A69C6
:10EB7C0009B1104301E022EA00009861704700BF20
:10EB8C0000100240044BDA6909B1104301E022EA9B
:10EB9C000000D861704700BF001002404309012BF0
:10EBAC00074A01D1136803E0022B0CBF136A536AA6
:10EBBC0000F01F0023FA00F101F00100704700BFC4
:10EBCC0000100240024B5A6A42F080705862704743
:10EBDC0000100240034B988800F020018AB2002AF2
:10EBEC00F8D0704700280040074B9A881B8891B2D8
:10EBFC0010EA030206D0084010F0FF0F0CBF0020F3
:10EC0C00012070471046704700280040034B9A883B
:10EC1C0091B221EA00009880704700BF00280040A4
:10EC2C00038919420CBF002001207047224A038837
:10EC3C0090429BB212D002F5006290420ED0B0F11D
:10EC4C00804F0BD0A2F59832904207D002F580622B
:10EC5C00904203D002F58062904203D14A8823F09F
:10EC6C0070031343154A904208D002F5806290421B
:10EC7C0004D023F44073CA889BB2134303808B885F
:10EC8C000A8883850C4B028598420FD003F50062ED
:10EC9C0090420BD002F54063984207D003F5806296
:10ECAC00904203D002F58063984201D1097A018623
:10ECBC0001228282704700BF002C014000100040EE
:10ECCC00038C70B523F001021404250C0584068C0A
:10ECDC008388028B9CB222F073052B040D881A0CCE
:10ECEC0026F0020633042A434E880D891B0C35434B
:10ECFC00ADB22B43134DA8420FD005F50065A842C9
:10ED0C000BD005F54065A84207D005F58065A842F3
:10ED1C0003D005F58065A8420ED123F008064B8977
:10ED2C008D881E4326F004032B43CE898D8924F451
:10ED3C0040743543ADB22C43C988848002838186EC
:10ED4C00038470BD002C0140038C30B523F01002FD
:10ED5C001404250C0584038C8288048B23F0200377
:10ED6C0024F4E6452C040D88240C44EA05241D04E7
:10ED7C002B0C0D8992B243EA05134D88A4B243EAD9
:10ED8C000513124D9BB2A84203D005F50065A842AD
:10ED9C0015D14D8923F080039BB243EA05134FF63E
:10EDAC00BF751D408B8822F4406245EA0315ABB257
:10EDBC008D8942EA8502CD8942EA850292B2C988E0
:10EDCC00828004830187038430BD00BF002C014086
:10EDDC00038C30B523F480721404250C0584038C49
:10EDEC008288848B23F4007324F073052C040D8823
:10EDFC00240C2C431D042B0C0D8992B243EA0523E1
:10EE0C004D8843EA0523124D9BB2A84203D005F569
:10EE1C000065A84215D14D8923F400639BB243EAE7
:10EE2C0005234FF6FF351D408B8822F4405245EAEE
:10EE3C000325ABB28D8942EA0512CD8942EA05124F
:10EE4C0092B2C988828084838187038430BD00BFDD
:10EE5C00002C0140038C30B523F480521404250C93
:10EE6C000584038C8288858B94B225F4E6421504C4
:10EE7C002A0C0D8823F4005342EA05221D042B0CA6
:10EE8C000D8992B243EA05334D8843EA05330A4DA6
:10EE9C009BB2A84203D005F50065A84205D18D8927
:10EEAC0024F4804444EA8514A4B2C9888480828303
:10EEBC00A0F84010038430BD002C014000214FF617
:10EECC00FF7383800180C1804180017270470023F1
:10EEDC00038043808380C380038143818381C3810A
:10EEEC007047038819B199B241F0010303E023F094
:10EEFC0001010A04130C03807047B0F8443029B1A7
:10EF0C006FEA43436FEA53418AB201E059044A0C59
:10EF1C00A0F84420704783899BB20AB1194301E0E1
:10EF2C0023EA010181817047038819B199B241F03C
:10EF3C00800303E023F080010A04130C0380704764
:10EF4C00038B23F0080213041A0C1143018370473E
:10EF5C00038B23F4006213041A0C42EA01218BB2D6
:10EF6C0003837047838B23F0080213041A0C11439C
:10EF7C0081837047838B23F4006213041A0C42EADA
:10EF8C0001218BB283837047038A828911EA0300C3
:10EF9C0092B203D011420CBF002001207047C9432C
:10EFAC008AB2028270470000038A30B50D460446CF
:10EFBC00EA8898B220F4405111432182A389288910
:10EFCC00A98823F4B05340EA0102688923F00C01AC
:10EFDC0002430804030C1A4391B2A181A08AAA89A6
:10EFEC0083B223F4407187B01143A18201A8FFF7CB
:10EFFC006DFD1848A38984420CBF0498039819B27C
:10F00C0000294FF019032A6803FB00F001DA5100C4
:10F01C0000E09100B0FBF1F16423B1FBF3F21201BB
:10F02C00100903FB1011A08900B2002806DAC900F0
:10F03C003231B1FBF3F303F0070005E00901323183
:10F04C00B1FBF3F303F00F00024390B2208107B041
:10F05C0030BD00BF00380140838919B199B241F429
:10F06C00005303E023F400510A04130C838170470E
:10F07C00C905CA0D828070478088C105C80D7047CC
:10F08C00038819420CBF00200120704701700B0A45
:10F09C000A0C090E43708270C17004307047017005
:10F0AC00090A41700230704743185A78405C00EBF3
:10F0BC00022188B2704710B543189A78DC78415C0D
:10F0CC00120402EB04625878521802EB002010BDB7
:10F0DC0073B544790023022C01930FD0032C19D063
:10F0EC00012C2BD1164D28692E4620B1296901A877
:10F0FC0088470246B8B9B16801201BE0104DE8689A
:10F10C002E4620B1E96801A88847024658B9B16873
:10F11C0002200FE00A4D6A692E464AB16B6901A8BC
:10F12C009847024620B1A9682046BDF8043003E098
:10F13C00B16803200022134600F014FB7CBD00BF15
:10F14C00AC140020072810B50CD801290AD80124CA
:10F15C0004FA00F401FA00F0034B1A6822EA0402E4
:10F16C0002431A6010BD00BFF4020020F0B501216B
:10F17C0087B00546FFF798FF00F48043044698B229
:10F18C0050B3B4F5824F27D128460521FFF78CFFE9
:10F19C000026074607353446BE4208D028460221D1
:10F1AC00FFF782FF013624180435B6B2F4E76A4B38
:10F1BC00188E21188AB21A86D86B2418DC63D96B86
:10F1CC009A6B914240F0C28093F84000002800F006
:10F1DC00BD809B69992092E024F4FF4121F07F02CD
:10F1EC0093B2002B00F08F8048F210039C421ED08B
:10F1FC000AD8B4F5004F40F2AB8048F202008442CA
:10F20C0078D9811C8C420FE048F28002944271D074
:10F21C0005D848F240039C4240F09A8047E0B4F590
:10F22C00024F67D0B4F5084F40F0928062E00022A4
:10F23C00A81841790DF802100132042AF8D16B7A22
:10F24C00A87AE97A2A7B8DF804308DF805008DF8C0
:10F25C0006108DF8072005F10D00002306A9CA1829
:10F26C00C15C0133042B02F8101CF7D105F111001D
:10F27C00002306AAD218C15C0133042B02F80C1C23
:10F28C00F7D105F11500002300AAD218C15C013397
:10F29C00042B1174F8D1304928798A698DF814003F
:10F2AC00002A53D08B6920466946152229E0053582
:10F2BC0000212846FFF7FFFE042100902846FFF7A7
:10F2CC00FAFE082101902846FFF7F5FE0C2102906A
:10F2DC002846FFF7F0FE102103902846FFF7EBFEBF
:10F2EC0004901D488169002930D083696946204605
:10F2FC00142206E0184B9A6942B39B692046002100
:10F30C000A46984722E041F20300844205D00C30B3
:10F31C00844202D0411E8C421AD16C1D042120461D
:10F32C00FFF7C9FE393013D12D790B4A0021204645
:10F33C00D562FFF7C0FE042105462046FFF7BBFE51
:10F34C00393003D128460121FFF7FCFE012000E0F3
:10F35C00002007B0F0BD00BFAC1400202DE9F04731
:10F36C000446884691460025BC4B5A8890B200282A
:10F37C00FAD05E683178042940F072813046012160
:10F38C00FFF792FE05463046FFF7F0FE002840F0EE
:10F39C005C8141F20703771D9D4253D85A1E95425A
:10F3AC0080F0AC8040F20220854200F0A78014D897
:10F3BC000C2D09D8082D80F0A180002D00F045817E
:10F3CC00062D40F29B80DDE00D2D00F0948040F284
:10F3DC000127BD4240F039818DE041F20202954295
:10F3EC0018D8B5F5805F00F28980B5F5017F40F241
:10F3FC00828040F207218D4240F027813379002131
:10F40C0004F8013B3846FFF756FE01462046FFF74D
:10F41C003DFE1AE141F20400854200F0898040F281
:10F42C00A08038460021FFF746FE042120603846B4
:10F43C00FFF741FE6060083406F10D07224606F125
:10F44C001D016EE041F21100854254D02CD841F2DE
:10F45C000B02954252D01CD841F209018D424DD07D
:10F46C0000F28B8000213846FFF725FE0421206036
:10F47C003846FFF720FE082160603846FFF71BFE78
:10F48C000C21A0603846FFF716FE04F10C0AE06070
:10F49C00DAE041F20F00854263D035D841F20D021B
:10F4AC00954240F0D28043E042F206018D4222D0D8
:10F4BC0008D8B5F5005F40F2C88042F204039D42C3
:10F4CC0019D983E042F208039D42C0F0BE80581C5B
:10F4DC00854210D944F20B02954240F0B680717906
:10F4EC00DFF878A13846AAF830100121FFF7DCFDCF
:10F4FC00AAF83200A9E037792770A6E03846002137
:10F50C00FFF7D9FD2060A0E000213846FFF7D3FDBE
:10F51C00A2464AF8040B04213846FFF7CCFD606084
:10F52C0092E057F8043B8F4242F8043BF9D18CE04F
:10F53C0000213846FFF7BFFD042120603846FFF755
:10F54C00BAFD082160603846FFF7B5FD04F1080AE2
:10F55C00A060E46814F1390376D10121FFF7F2FDC4
:10F56C0072E000213846FFF7A6FD042120603846E2
:10F57C00FFF7A1FD6060083467E0337923713F68C1
:10F58C00276062E038460021FFF795FD04212060DA
:10F59C003846FFF790FD082160603846FFF784FD80
:10F5AC000A21A0603846FFF77FFDC4F80A000C342E
:10F5BC0006F11107224606F1350157F8043B8F423C
:10F5CC0042F8043BF9D1388810803EE00022B7188D
:10F5DC007879A0540132042AF9D106F109070023E5
:10F5EC00F95CE0180133042B0171F9D106F10D0718
:10F5FC000020395C2218013004281172F9D106F16F
:10F60C0011070023F95CE2180133042B1173F9D1B3
:10F61C0006F115000022875CA1180132042A0F7430
:10F62C00F9D106F119000023C75CE1180133062B50
:10F63C000F75F9D106F11F000021475C62180131EA
:10F64C0020299776F9D100E05446044B188882B2F1
:10F65C00954225D10021198022E000BFAC14002076
:10F66C0030460321B778FFF71FFD8246B8F1000F33
:10F67C000CD00421701DFFF71EFD0346C9F80000D5
:10F68C0006F115014046DAB200F030FA7A1DB118D5
:10F69C002046C7EB0A0200F029FA0F490020C88661
:10F6AC000D4F00237B80FCF753FD3078042805D1E7
:10F6BC00B5F5805F02D13046FFF70AFD3A8891B26A
:10F6CC0000297FF451AE044BD88E80B200287FF411
:10F6DC004BAEBDE8F08700BFAC14002007284FF0FC
:10F6EC00010308D803FA00F004490A6810420CBF61
:10F6FC000020012070471846704700BFF40200201C
:10F70C00034B1880084600210A46FFF727BE00BFAE
:10F71C00AC14002038B50346154601224A710C463C
:10F72C00881D1946FFF7BBFC291D05702046FCF708
:10F73C00CFFD002038BD38B5BDF814500C469B18D1
:10F74C00A071E81885B202216171E271294604F1B9
:10F75C000800FFF7A4FC6A1D204691B2FCF7B8FD27
:10F76C00002038BD2DE9F0471D4605F1020A0323A0
:10F77C0001F107091FFA8AFA88714B710C46484649
:10F78C0051461746FFF78BFCB5F57A7F804613D8A8
:10F79C002946FFF784FC29464046FFF780FC394692
:10F7AC0004F10B002A4600F0A1F9A91D204689B2EC
:10F7BC00BDE8F047FCF78CBD4FF47A76B5FBF6F15B
:10F7CC000AEB410291B2FFF76AFC31464046FFF763
:10F7DC0066FC394604F10B00324600F087F9A5F5BA
:10F7EC007A75204640F2EE31ADB2BF19FCF770FDD0
:10F7FC00B5F57A7F05D9A5F57A7085B24FF47A768E
:10F80C0001E02E460025A046394628F8056F4846EB
:10F81C00324600F06BF9B31C404699B2BF19FCF7A5
:10F82C0057FD002DE4D1BDE8F087000038B5054642
:10F83C000E4CE36A4BB100F053F9E36A036000200D
:10F84C00E06200F04DF9006838BD2846FFF746FF2E
:10F85C0040B9228E91B20029EAD0238E5A1E91B261
:10F86C00218638BD4FF0FF3038BD00BFAC140020EE
:10F87C00F7B5034614480D4686681946174602AC80
:10F88C004FF0FF3206F1090044F8042DFFF7FEFBA0
:10F89C002946FFF7FBFB41F201053946FFF7F6FB62
:10F8AC000C2231462846FFF735FF21462846FFF744
:10F8BC0027FF00F015F90199016008460021FFF7B8
:10F8CC0041FC0198FEBD00BFAC14002037B50346C7
:10F8DC0013484FF0FF3284680D4604F109001946B5
:10F8EC000192FFF7D3FB0821FFF7D0FB0821FFF7AC
:10F8FC00CDFB0023E95CC1540133082BFAD114224F
:10F90C00214641F20700FFF705FF01A941F207006C
:10F91C00FFF7F6FE00F0E4F8019A026010463EBDD7
:10F92C00AC1400202DE9F04F89B0039114469B468E
:10F93C00139E149D0290FFF779FFDDF808C0002894
:10F94C0057D12D4B9A6B511C9963D3F80890812D8C
:10F95C0009F10A0307D0832D0AD104F1080A09F131
:10F96C002208182704E009F11A08102706461290FD
:10F97C0061461846FFF78AFB391FFFF787FB2146C4
:10F98C00FFF784FB5946FFF781FB832D05D15146C8
:10F99C00FFF77CFB0821FFF779FB0022A24205DA76
:10F9AC000398815C08F802100132F7E7002CA8BF1D
:10F9BC00A044832D0ED0129AB6B200920196E8B2F2
:10F9CC0049463A46A3B2FFF7B6FE832D0BD141F25E
:10F9DC000F000AE00020B042EDDA12990B5C08F837
:10F9EC0000300130F7E741F2030005A9FFF788FE6C
:10F9FC00204609B0BDE8F08FAC1400201FB50024E0
:10FA0C000094019481240294FFF78CFF04B010BD84
:10FA1C002DE9F04F83462F4885B0D0F80890144656
:10FA2C0000259A4688464FF0FF331C2109F1090046
:10FA3C0001930F9E0E9F0295ADF80C50FFF726FB1D
:10FA4C002146FFF723FB5946FFF720FB04F1100179
:10FA5C00FFF71CFB3146FFF719FB2946FFF71FFB8D
:10FA6C00BAF1000F08D01AF8052042550135062DC1
:10FA7C00F9D10630002207E0534602AA995CC15422
:10FA8C000133062BF9D1F4E7A24204DA18F802107C
:10FA9C0081540132F8E7002CA8BF00193EB10023B5
:10FAAC002FB1B34203DAFA5CC2540133F9E71C34C8
:10FABC00A319DAB249460120FFF72CFE01A9012057
:10FACC00FFF71EFE00F00CF801990160084605B026
:10FADC00BDE8F08FAC14002000210A2200F046BAD9
:10FAEC0040F22073C2F20003186870470F2A2DE908
:10FAFC00F00340F2A18041EA00039B0740F09E8096
:10FB0C000C68A2F1100504604B68AC4643608C682D
:10FB1C00BCF10F0F8460CC68C5F30015C46000F114
:10FB2C00100301F110042BD975B12568ACF1100C40
:10FB3C001D6065685D60A5689D60E5681034DD60DA
:10FB4C001033BCF10F0F1BD9276804F110061F608E
:10FB5C00676803F110055F60A768ACF1200C9F602B
:10FB6C00E768DF6024691C61776806F110046F6038
:10FB7C00B7682033AF60F668BCF10F0FEE60E3D8C6
:10FB8C00A2F1100828F00F0302F00F0403F1100C7F
:10FB9C00032C00EB0C0301EB0C0851D9211F4FEA8D
:10FBAC009109444608EB890C54F8046BC8EB0C0122
:10FBBC000CF1040C1D46644545F8046BC1F380013F
:10FBCC0012D029B154F8041B644545F8041B0BD022
:10FBDC00274657F8041B2E4646F8041B64686C60D5
:10FBEC003C1D351D6445F3D109F1010C4FEA8C091C
:10FBFC0002F0030208EB09014B44D2B10D789A18BC
:10FC0C00DC4303F8015B1419934204F0010410D097
:10FC1C002CB111F8014F03F8014B934209D04D78E8
:10FC2C001C4604F8015B8D7802315D70631C9342B5
:10FC3C00F5D1BDE8F00370470346DEE70346DDE788
:10FC4C0041462246D9E700BF20F0030110F0030023
:10FC5C00C0F1000051F8043B00F1040C4FEACC0C4D
:10FC6C006FF000021CBF22FA0CF213434FF0010C90
:10FC7C004CEA0C2C4CEA0C4CA3EB0C0222EA0302CF
:10FC8C0012EACC1204BF51F8043B0430F4D013F048
:10FC9C00FF0F1FBF013013F47F4F013013F47F0FA0
:10FCAC0018BF0130704700BFF0B4002A00F0838009
:10FCBC0041EA000313F003052ED0551E03780A7891
:10FCCC00934226D1002D7AD0002B7AD001358C1C92
:10FCDC004D192B1BDB0716D510F8013F14F8012C1E
:10FCEC00934216D1CC1C73B936E0AC4234D00134FB
:10FCFC00002B31D014F8012C10F8013F0134934241
:10FD0C0007D1002B28D010F8013F14F8012C934296
:10FD1C00EBD0981AF0BC7047032ACED904680B6854
:10FD2C009C42CAD1131F4CD0A4F1013222EA040424
:10FD3C0014F0803F43D15A072FD542684C680430E9
:10FD4C000431A24239D1043B06D0A2F1013424EA99
:10FD5C00020212F0803F20D00020DBE7726864685A
:10FD6C00A2F10135A24225EA020526D1043B00F19D
:10FD7C00040001F10401EFD015F0803FECD1DCF868
:10FD8C0004207C68A2F10135A24225EA020514D1B7
:10FD9C00043BE1D015F0803FDED10C460646043121
:10FDAC000430032B84460F46D8D85D1E002B85D11A
:10FDBC0033792279ADE71046ACE75D1E7EE7284625
:10FDCC00A8E71846A6E700BF40F22073C2F2000372
:10FDDC001A6801235C3200F001B800BFF0B40028AF
:10FDEC0025D0074638463E780D46013715F8014BAD
:10FDFC003CB1A642FAD1002BF4D1176007F8013CB4
:10FE0C0011E0C6B13D4600E01BB915F8016B0C467C
:10FE1C00284614F8013B9E42F6D136B1002105F874
:10FE2C00011C1060781EF0BC70473046F9E7106872
:10FE3C000028D6D1F7E716603046F4E72DE9F00F2D
:10FE4C00494C82B0D4F800C001900F463C4614F8DF
:10FE5C00015B0CEB05004678274606F00800C6B29D
:10FE6C00002EF3D12D2D61D02B2D04BF244614F878
:10FE7C00015BB346002B41D1302D43D00A239A4667
:10FE8C00BBF1000F0CBF6FF000474FF00047B7FB02
:10FE9C00FAF90AFB19700090002080460CE0303D06
:10FEAC00AB421BDD461C05D0C84539D835D00AFB02
:10FEBC000858012014F8015B0CEB0506767806F067
:10FECC000407FFB2002FEAD116F0030606D0012E6C
:10FEDC0014BF57263726AD1BAB42E3DC431C2AD09C
:10FEEC00BBF1000F01D0C8F10008002A31D0D0B905
:10FEFC004046116002B0BDE8F00F7047102BBED128
:10FF0C00302DBCD12578782D25D0582D23D043BB4E
:10FF1C004FF0080A30255346B2E700988542C6DDFB
:10FF2C004FF0FF30C6E74046611EE2E714F8015B74
:10FF3C004FF0010B9EE7BBF1000F01990CBF6FF066
:10FF4C0000404FF0004022230B60002AD2D0611EEB
:10FF5C00CFE74046CEE74FF0100A6578534602349F
:10FF6C008EE79A4630258BE72407002070B440F2C8
:10FF7C002074C2F2000406460D4620681346314632
:10FF8C002A4670BCFFF75ABF8000400020001000CA
:10FF9C00080000800040002008000000080000005D
:10FFAC000800000008000000080000000400000029
:10FFBC000400000004000000040000000400000025
:10FFCC0004000000040000000020000100020004F6
:10FFDC000100000002000000040000000800000006
:10FFEC000000000004000000080000003203530071
:04FFFC0054004D0060
:020000040801F1
:100000003300320020005600690072007400750051
:1000100061006C00200043004F004D0020005000A4
:100020006F0072007400200020002603530054006B
:100030004D006900630072006F0065006C00650090
:100040006300740072006F006E006900630073004B
:100050000403090409024300020100C0320904003C
:100060000001020201000524001001052401000125
:10007000042402020524060001070582030800FF8C
:1000800009040100020A0000000705030240000005
:1000900007058102400000120100020200004083B7
:1000A000044057000201020301434F4E4E454354A2
:1000B0003A004F50454E3A000D0A003A002E00001B
:1000C000430000000020202020202020202028287D
:1000D0002828282020202020202020202020202008
:1000E0002020202020881010101010101010101048
:1000F0001010101010040404040404040404041078
:100100001010101010104141414141410101010105
:1001100001010101010101010101010101010101CF
:1001200010101010101042424242424202020202DB
:10013000020202020202020202020202020202029F
:10014000101010102000000000000000000000004F
:10015000000000000000000000000000000000009F
:10016000000000000000000000000000000000008F
:10017000000000000000000000000000000000007F
:10018000000000000000000000000000000000006F
:10019000000000000000000000000000000000005F
:1001A000000000000000000000000000000000004F
:1001B000000000000000000000000000000000003F
:0801C000000000000000000037
:1001C8000300000000000000000C0140000C01408A
:1001D800000C0140000C0140000C014000080140E7
:1001E80000080140000801400008014000080140E3
:1001F80000080140000801400C004800000C0140C4
:100208000000000080250000FFFFFFFFFFFF54549F
:100218005443433330303000000C01408000FF006D
:10022800000800400400FF00000C01404000FF00EF
:10023800000800400000FF00000C01402000FF0003
:1002480000000000FF00FF00000C01401000FF004C
:1002580000000000FF00FF00000C01400800FF0044
:1002680000000000FF00FF00000801400080FF00C0
:1002780000000000FF00FF00000801400040FF00F0
:1002880000000000FF00FF00000801400020FF0000
:1002980000000000FF00FF00000801400001FF000F
:1002A80000000000FF00FF00000801400002FF00FE
:1002B80000000000FF00FF000008014001000000EE
:1002C800000000400000FF0000080140020001009B
:1002D800000000400400FF00000801401000040076
:1002E80000000000FF00FF0000080140200005009A
:1002F80000000000FF00FF00000801404000060069
:10030800000400400000FF000008014080000700D2
:10031800000400400400FF00000C01400100080038
:10032800000400400800FF00000C01400200090022
:10033800000400400C00FF00000801400800030012
:10034800000000400C00FF0000080140040002000B
:10035800000000400800FF00000801400004FF0002
:1003680000000000FF00FF00FFFF010061D100084E
:1003780035D000080DD0000825D00008C9CF0008E6
:10038800E5CF0008F9CF000885D00008C5CF0008E0
:1003980081D000087DD0000851D0000855D0000851
:1003A80069D0000800A24A04000000000000000014
:1003B80001020304060708091A03530054004D00FC
:1003C80033003200000000000000000000000000C0
:1003D8000000000055E1000855E10008F9D30008C5
:1003E80055E1000855E1000855E1000855E100080D
:1003F80095D3000855E1000855E1000855E10008CB
:1004080055E1000855E1000855E1000800C2010067
:100418000000080050000108040000002A0001083C
:1004280026000000F8FF000832000000F801002054
:100438001A0000005400010843000000970001085A
:1004480012000000E9D6000809D60008F9D400080F
:100458000DD5000811D500086DD5000891D5000804
:10046800FDD50008F1D50008D1D50008000000002E
:100478004000000055E10008D5D4000855E1000807
:1004880055E1000855E1000855E1000855E100086C
:1004980055E10008EDD40008040100000001000047
:1004A8000000000001020304010203040607080912
:1004B80002040608FFFF000000000000E405002019
:1004C8004C060020B40600200000000000000000D8
:1004D8000000000000000000000000000000000014
:1004E800000000000000000000000000C00001083B
:1004F80000000000000000000000000000000000F4
:1005080000000000000000000000000000000000E3
:1005180000000000000000000000000000000000D3
:1005280000000000000000000000000000000000C3
:1005380000000000000000000000000000000000B3
:1005480000000000000000000000000000000000A3
:100558000000000000000000000000000000000093
:1005680001000000000000000E33CDAB34126DE630
:10057800ECDE05000B000000000000000000000099
:100588000000000000000000000000000000000063
:100598000000000000000000000000000000000053
:1005A8000000000000000000000000000000000043
:1005B8000000000000000000000000000000000033
:0808E800F8020020C400010821
:040000050800C10C22
:00000001FF
