:020000040800F2
:10C00000005000200DC1000801D7000803D7000828
:10C0100005D7000807D7000809D70008000000006E
:10C020000000000000000000000000000BD7000826
:10C030000DD70008000000000FD7000811D7000836
:10C0400059C1000859C1000859C1000815D7000896
:10C0500059C1000859C1000859C1000859C1000858
:10C0600035D7000859C1000859C1000859C1000856
:10C0700059C1000859C1000859C100082FD700084C
:10C0800059C1000859C1000859C1000859C1000828
:10C09000D1D7000859C1000859C1000859C100088A
:10C0A00059C1000859C1000859C1000889D70008C2
:10C0B00059C1000859C1000859C1000859C10008F8
:10C0C00059C1000859C1000859C1000859C10008E8
:10C0D00059C1000859C1000859C1000859C10008D8
:10C0E00069D7000859C1000859C1000800000000C4
:10C0F0000000000000000000000000000000000040
:0CC1000000000000000000005FF808F1E3
:10C10C00002100F004B80C4B5B58435004310B4831
:10C11C000B4B42189A42FFF4F6AF0A4A00F003B8F0
:10C12C00002342F8043B084B9A42FFF4F9AF01F0AC
:10C13C004BFB01F0C3F870475C14010800000020B1
:10C14C0030070020300700200C150020FFF7FEBF41
:10C15C0008B5064B00221860054906489A6019611B
:10C16C00DA80DA609A80036A984708BD7407002069
:10C17C00880B0020B814002062B6704708B572B660
:10C18C0006484FF4805102F087FF054B02221869D4
:10C19C009A6019680530884708BD00BF000C014043
:10C1AC007407002070B50646002014460D4600F0BA
:10C1BC0097FD012EA4B207D130462946224600F045
:10C1CC0017FD0020124907E0124B01201969224685
:10C1DC0000F00EFD00202946224600F009FD0E4815
:10C1EC000221012202F00DFE012000F079FD0A4827
:10C1FC0002F00FFE0028FAD1084802F00AFE0028CF
:10C20C00FAD10748802103F071F80028F9D170BDEC
:10C21C000000002074070020580002404400024037
:10C22C000038004003460A4601201946FFF7BABF02
:10C23C0070B50646002014460D4600F051FD012E47
:10C24C00A4B207D130462946224600F0D1FC00208A
:10C25C00104907E0104B01201969224600F0C8FC78
:10C26C0000202946224600F0C3FC012000F038FDD6
:10C27C000A4802F0CEFD0028FAD1094802F0C9FDA7
:10C28C000028FAD10748802103F030F80028F9D1B2
:10C29C0070BD00BF00000020740700205800024051
:10C2AC00440002400038004003460A46002019466C
:10C2BC00FFF7BEBF70B50E4D04460E4628464FF430
:10C2CC00805102F0EBFE002021460422FFF7B0FF64
:10C2DC000020211D321FFFF7ABFF064B0222284620
:10C2EC004FF480519A6002F0D7FE002070BD00BF61
:10C2FC00000C01407407002070B501F001060446E3
:10C30C0086F001000D18012300262370C5F30722C7
:10C31C001D4BE67026716270A57005319D6808187A
:10C32C0086B215B99A68012AFCD19968164D012973
:10C33C0007D120463146FFF7BDFFAA68022AFCD17F
:10C34C001FE0A8680228FCD11048802102F0CEFF23
:10C35C000028F9D10E4BDD69A8470028FAD00A4D08
:10C36C0003220C484FF48051AA60EC60AE8002F0BE
:10C37C0095FE0749C86980470028FAD0AB68022BA4
:10C38C00FCD1002070BD00BF7407002000380040B5
:10C39C00B8140020000C014070B5184E35696B794B
:10C3AC00022B08D0042B25D1287A441E14F0010F3F
:10C3BC0018BF044614E0681D032103F0DBF9B0F547
:10C3CC00806F044608DB05F10A004FF480610724F6
:10C3DC00FFF728FFB4600EE0C30701D4441C00E053
:10C3EC0024B105F10A00A1B2FFF71CFF0349082292
:10C3FC008A6000E00024204670BD00BF7407002056
:10C40C00024B012019690A22FFF7CCBE74070020E9
:10C41C0008B5FFF7C1FF18B9BDE80840FFF7AEBE7D
:10C42C0008BD000070B5384C4FF40030266902F09E
:10C43C00F3FC05464FF4005002F0EEFCA368062B0B
:10C44C000BD1002D5ED000285CD04FF4083002F0E8
:10C45C00F1FCBDE87040FFF7DBBFA16807291BD1D9
:10C46C0000284FD04FF4083002F0E4FC0321701D7B
:10C47C0003F080F9A0F58064A1B2234CCA0758BF21
:10C48C00A0F2FF31206958BF89B200F20A40FFF7D1
:10C49C00C9FE0823A36070BDA268082A09D1002830
:10C4AC0030D04FF4083002F0C5FCBDE87040FFF707
:10C4BC0065BEA068052814D1002D23D01348802117
:10C4CC0002F014FF0028F9D14FF4083002F0B2FC4E
:10C4DC004FF480510E4802F0DFFD0B4A02219160AF
:10C4EC0070BDA368042B0DD165B1A088E26805214D
:10C4FC00A0F58063A16002F5806099B2BDE8704040
:10C50C00FFF7D2BE70BD00BF74070020003800409A
:10C51C00000C014008B5184BD869804700282AD177
:10C52C00164B9A6812B90120986008BD99680229C7
:10C53C000AD1062212484FF480519A6002F0AEFDE7
:10C54C00BDE80840FFF75CBF9A68032A13D19A88AC
:10C55C00B2F5806F06D805219960D968BDE808400E
:10C56C00FFF720BE04209860D8684FF48061BDE8C6
:10C57C000840FFF799BE08BDB814002074070020CE
:10C58C00000C014010B50131002393420ED0040F72
:10C59C00092C01D8303400E0373401F8014C013358
:10C5AC000024000101F8024BDBB2EEE710BD08B528
:10C5BC004FF000604FF4404102F076FB4FF4A06066
:10C5CC00BDE8084002F032BB10B5044645F25550A8
:10C5DC0002F080FD062002F083FD42F210708442CE
:10C5EC0028BF044628216143C1F30F2002F07EFDD1
:10C5FC0002F082FDBDE8104002F086BD082812D87A
:10C60C00012907D10A4B0B4A53F8201032F81000BD
:10C61C0008610AE049B9064B064A53F8201032F873
:10C62C001000486101E0FF2300E0002358B270477E
:10C63C00080000208411010837B50E4D044605EBA7
:10C64C0080031869012102F0C3FD35F814000A4B70
:10C65C001021ADF804008DF80710032253F82400C4
:10C66C0001A98DF8062002F0C1FC20460021FFF73D
:10C67C00C5FF3EBD841101080800002070B50121E2
:10C68C0088B04FF4006002F0A3FD314B42F2107001
:10C69C001C686326B4FBF0F14A1E2E4C01A895B21F
:10C6AC0002F072FF01A802F06FFF01A9ADF804506F
:10C6BC0020460025ADF80860ADF80A50ADF80650DC
:10C6CC0002F01AFE04A802F068FF02206023012683
:10C6DC00ADF8180004A92046ADF81030ADF8126082
:10C6EC00ADF81650ADF81C5002F050FE204629460D
:10C6FC0002F08CFF204604A902F08CFE204629464D
:10C70C0002F08CFF204604A902F0C8FE2046294600
:10C71C0002F08EFF204604A9ADF81050ADF812605F
:10C72C00ADF81650ADF8185002F0FAFE2046294626
:10C73C0002F086FF2046314602F05CFF204631466F
:10C74C0002F035FF2046314602F03DFF08B070BDC7
:10C75C00E8010020002C014030B5114B1A78F2B9D9
:10C76C001049C0F307428C8DA5B26C1C5443FF22B8
:10C77C00B4FBF2F5ACB2DC808D8DACB20134C0F3FD
:10C78C0007256C43B4FBF2F4A4B21C81898DC0B2B2
:10C79C0089B201314843B0FBF2F291B2998030BDBD
:10C7AC0030070020002C0140014B1870704700BF6F
:10C7BC003007002038B5044C002325782370FFF790
:10C7CC00CBFF257038BD00BF3007002037B50F4DAB
:10C7DC00044605EB8003186B012105EB440502F0C0
:10C7EC00F7FCB5F84000ADF804000CB9102100E0DE
:10C7FC001821074B8DF8071003EB84040322206AE1
:10C80C0001A98DF8062002F0F1FB3EBD8411010850
:10C81C00080000200B4B1A789AB960B1E72810D1A8
:10C82C00D988094A88B21087198988B290879B8861
:10C83C0099B2918605E0054A4FF40053106A0361E2
:10C84C007047704730070020002C01400800002082
:10C85C0038B5044C002325782370FFF7DBFF2570D7
:10C86C0038BD00BF300700200F4A1378D3B990B100
:10C87C00E72817D10D4B198FD088414088B2188703
:10C88C00998F1089414088B29887998E92884A4036
:10C89C0090B2988606E0064B196ACA6882F400507A
:10C8AC00C8607047704700BF30070020002C014063
:10C8BC00080000202B4B1A78002A52D1E72850D1BF
:10C8CC00D888294B80B268B1284A118F88B208B930
:10C8DC00012007E0118F928D88B291B24A1C9042D0
:10C8EC0001D1FF2018701F4B2148198989B269B1F9
:10C8FC001E4A938F99B209B9012107E0938F928D4B
:10C90C0099B293B25A1C914201D1FF210170154882
:10C91C00838818489BB26BB1144A918E8BB20BB9B9
:10C92C00012307E0918E928D8BB291B24A1C9342F7
:10C93C0001D1FF2303700D480B49028F91F9003090
:10C94C009A1891B20A4A018792F90010838FCB187A
:10C95C009AB20849828791F90020838ED31899B234
:10C96C008186704730070020CA100020002C01403F
:10C97C00890F0020880F002073B5104C0E4604EB75
:10C98C00400494F84C10054694F8480002F088FBDB
:10C99C00B4F85040204602F093FA09480023451998
:10C9AC0095F83010684600948DF804308DF8051019
:10C9BC008DF8066002F048FA7CBD00BF84110108B6
:10C9CC0008000020F7B5224E8700F3190546586D74
:10C9DC000C4640F00100012102F0FAFB1D4B06EB66
:10C9EC0045065A1992F83210B6F85C0002AADF1903
:10C9FC008DF8031022F8080D6946786B02F0F6FAF0
:10CA0C00012C23D11021002213481B2702F0E9FD31
:10CA1C0000238DF8047001A802278DF806308DF8DC
:10CA2C0005708DF8074002F00BF9B6F8601001A8FC
:10CA3C008DF804108DF805708DF806408DF80740C0
:10CA4C0002F0FEF828462146FFF796FFFEBD00BF18
:10CA5C008411010808000020002C014010B50121B0
:10CA6C004FF0C05002F0C0FB012002F055FBFFF765
:10CA7C009EFD0120014602F0ABFB0024E0B2013424
:10CA8C00FFF7DAFD082CF9D1FFF7F8FD0020FFF7CE
:10CA9C009DFE0120FFF79AFE0220FFF797FE032070
:10CAAC00FFF794FE00200146FFF78CFF154B4FF467
:10CABC007A701A68144BB2FBF0F14A1E1349F0203D
:10CACC005A6081F82300002207209A601860CB6816
:10CADC00C3F30220011D0629C0F1070388BFC21E43
:10CAEC00042B28BF0423012000FA03F14B1E03F092
:10CAFC00030000FA02F2054B1101C8B283F82300BF
:10CB0C0010BD00BFE801002010E000E000ED00E0E7
:10CB1C00054A064B02EB800103EB4002486BB2F86E
:10CB2C005C1002F0B3BA00BF0800002084110108A9
:10CB3C00024B03EB4000418988B27047300700205C
:10CB4C00024B002203EB400042817047300700206B
:10CB5C0030B5082087B0012102F03AFB224C0121AC
:10CB6C004FF4804002F040FB18204FF40053012595
:10CB7C008DF8030069462046ADF800308DF8025060
:10CB8C0002F034FA4FF40041ADF80010204669462B
:10CB9C0002F02CFA04234FF4804220466946ADF88B
:10CBAC0000208DF8033002F021FA0020ADF80400CB
:10CBBC004FF48271ADF80800ADF80A00ADF8120020
:10CBCC000720ADF806104FF400722023ADF81400C6
:10CBDC0001A90648ADF80C50ADF80E20ADF8103098
:10CBEC0002F050FB07B030BD000C01400038004093
:10CBFC0070B5044601208CB00E460146154602F075
:10CC0C00DBFA124B002080224FF44051012C01938F
:10CC1C000296059006920790089009900A910B9045
:10CC2C0006D103900A48049502F048F8084807E03A
:10CC3C004CB9102307480393049502F03FF80548BC
:10CC4C0001A902F0B3F80CB070BD00BF0C38004065
:10CC5C00440002405800024073B50F230124002504
:10CC6C0001A88DF804308DF805508DF80650174E3C
:10CC7C008DF8074001F0E4FFFFF76AFF20462A46D3
:10CC8C001349FFF7B5FF28462A461249124DFFF704
:10CC9C00AFFF30460221224602F0B3F82846214667
:10CCAC00224602F01AFB22462846022102F015FB0E
:10CCBC002846214602F005FB2146084802F096F86A
:10CCCC003046214602F092F87CBD00BF580002406D
:10CCDC00880B0020880700200038004044000240E8
:10CCEC0010B504462146044802F080F8034821465A
:10CCFC00BDE8104002F07AB84400024058000240EF
:10CD0C0008B54FF40061024802F0C0F908BD00BF3D
:10CD1C00000C014030B5092085B0012102F058FA11
:10CD2C004FF400644823694614488DF80330ADF87D
:10CD3C00004002F05BF90B21012002F0B1F9204612
:10CD4C0002F0BEF80C200294002501248DF80D0091
:10CD5C0002A88DF80C508DF80E4002F075F82821C1
:10CD6C0001A88DF804108DF805508DF806408DF84B
:10CD7C00074001F065FF05B030BD00BF000C01405D
:10CD8C001FB52823002401A88DF804308DF8074026
:10CD9C0001F056FF4FF40060029002A88DF80E408F
:10CDAC0002F052F81FBD000020B105484FF480710D
:10CDBC0002F072B902484FF4807102F06FB900BFF3
:10CDCC00000C014037B5114C0820012102F000FA8B
:10CDDC00102003234FF480558DF8070001A920463D
:10CDEC008DF80630ADF8045002F000F920462946C3
:10CDFC0002F052F94FF48071ADF80410204601A9ED
:10CE0C0002F0F4F80020FFF7CFFF3EBD000C01400C
:10CE1C0007B50820012102F0DBF9032014214FF49F
:10CE2C0080638DF806008DF80710034801A9ADF852
:10CE3C00043002F0DBF80EBD000C0140002008B5F8
:10CE4C0002F070F94FF400000121BDE8084002F037
:10CE5C00CBB907B5012014238DF8050000228DF8FD
:10CE6C00070001A88DF804308DF8062001F0E8FECB
:10CE7C000EBD000020B105484FF4806102F00EB9E0
:10CE8C0002484FF4806102F007B900BF000C01406A
:10CE9C0008B5064B1860FFF7BBFFFFF7CFFFFFF796
:10CEAC00D8FFBDE8084001F083BC00BF5002002051
:10CEBC00074B1868052808D106498A7B012A04D13A
:10CECC00087C8B7CC11AC8B270470020704700BF29
:10CEDC0060070020300700200D4B10B5186805289E
:10CEEC0013D10C4CA17B01290FD1228A638AD01A51
:10CEFC00012804D100210320A17301F0C4FD638A31
:10CF0C00054A591CD05C618210BD4FF0FF3010BD3A
:10CF1C0060070020300700208A0F0020074B19689B
:10CF2C0005290AD1064B07495A698854501CB0F59B
:10CF3C00807F586101D100225A6170476007002040
:10CF4C0030070020CA0F002070B51D4A137E012B3C
:10CF5C0034D0D069B0F5807F01D10021D161D36983
:10CF6C0052691748934202D10021017670BD8CBFE3
:10CF7C00C3F58072C3EB0202114C0262256A99B2AE
:10CF8C00402D05D94033403DE3612562402604E045
:10CF9C00E8180023AEB2E06123620A4A012550185A
:10CFAC00C0213246257601F0E5FC2846314601F0D9
:10CFBC00EBFD2846BDE8704001F054BD70BD00BFCC
:10CFCC0030070020CA0F0020094B10B593E814005D
:10CFDC000833186810180AD008220649FFF7D2FA4D
:10CFEC00054920460422BDE81040FFF7CBBA10BD1E
:10CFFC00E8F7FF1FFE0100200E020020BFF34F8F49
:10D00C00054A064BD16801F4E06040EA0301D160A7
:10D01C00BFF34F8FFEE700BF00ED00E00400FA0500
:10D02C0000230360184670470023036018467047BE
:10D03C00002303601846704748F20203984210B56B
:10D04C0017D007DC992849D0591E884249D10122B2
:10D05C00244845E048F2100398422FD07033984290
:10D06C003FD1214A21480121117001700022204832
:10D07C0036E01C4C22783AB14FF47F40FFF76CFB42
:10D08C00E720FFF7C7FB07E01A4B187808B1411EE1
:10D09C0001E0194B01211970184A1949194B00204C
:10D0AC00087010701870184A184B01211070197004
:10D0BC00174A184910702070087010BD0B7D0F486E
:10D0CC0053B9012101704FF47F40FFF745FBE72076
:10D0DC00BDE81040FFF79EBB002201E00E48012284
:10D0EC00027010BDCE100020001100201011002085
:10D0FC0048000020CF100020E4100020F910002080
:10D10C00E7100020F2100020F11000200811002080
:10D11C00F8100020FA100020CC100020024B1860F0
:10D12C001A68002AFCD17047EC100020054B064809
:10D13C001A88064942800B88054A83801188C18071
:10D14C00704700BF004C000848000020024C00084B
:10D15C00044C000810B501F0CFFE342001F0E0FEC5
:10D16C000F4801F025FF042819D10E4C0C4861889A
:10D17C0001F002FF042811D10B48A18801F0FCFE3C
:10D18C0004280AD10948E18801F0F6FE042803D1ED
:10D19C00BDE8104001F0BCBEFEE7FEE7FEE7FEE78F
:10D1AC00004C000848000020024C0008044C000809
:10D1BC0038B52A4B2A491A68501C18600C6814B1EF
:10D1CC000B685A1E0A60274C206810B12268531E47
:10D1DC0006E0254D297829B1E720FFF76BFB1923D1
:10D1EC00236019E0214B1A784AB9214B1A7812B1F5
:10D1FC00E720FFF739FB1B49642008600CE01D4C4D
:10D20C00207848B94FF6FF70FFF7A6FAE720FFF732
:10D21C0001FB0121297021700020FFF789FC40F6E9
:10D22C00B73188420AD9144C00204FF6FF75FFF72E
:10D23C0087FCA580FFF78EFFFFF7E0FE0F4841F259
:10D24C0087320368934205D900220260BDE838405A
:10D25C0001F052BF01684B1C036038BD0C1100205B
:10D26C00EC100020E8100020F8100020F110002035
:10D27C00081100205407002048000020E010002076
:10D28C001FB50A224FF461504FF461613C230A4CE4
:10D29C008DE80F004FF6FF736380FFF75BFF684666
:10D2AC0001A902AA03AB02F033FE4AF6AA20608061
:10D2BC00FFF750FF1FBD00BF480000201FB5FFF750
:10D2CC00CDFB6FF07F40FFF747FAE720FFF7A2FA9C
:10D2DC007D2001F095FF20B16E4B01221A7001F0F8
:10D2EC00A3FF43F69820FFF76FF9FFF71FFF6A487B
:10D2FC00C188B1F5404F04D04FF44044C480FFF7CF
:10D30C0029FF644A1378012B03D0644808B100F05C
:10D31C00ADFCFFF757FD624CFFF79EFC6149624A7A
:10D32C00624B009102926249624A03936248634BDA
:10D33C00019402F059FF6420FFF7F0FE002002F088
:10D34C0067FF48F2442003F04FF80E201021002212
:10D35C005B4B02F021FE60B1FF2003F02BF8102193
:10D36C000E2002F093FE0E2010210022544B02F0EE
:10D37C0041FE5348534C417821702278E2B14FF46E
:10D38C007F00FFF7E9F9E720FFF744FA4D4C2078CE
:10D39C0050B1E720FFF768FA2278531ED8B22070FC
:10D3AC00FA20FFF7BBFEF1E7454B012103F8010F13
:10D3BC000A460E2002F01EFE374B4AF6AA22598866
:10D3CC001C46914201D0FFF75BFF207858B9324BD5
:10D3DC004BF6BB329988914202D1394C207810B966
:10D3EC00394B01211970394802F036FE2A4A14785B
:10D3FC0014B93548017811B94FF47F4000E0FF2093
:10D40C00FFF7AAF9E720FFF705FA314B01221A7052
:10D41C00304C2078012816D12F490A78012A12D1D4
:10D42C002E4B1C78012C0ED103242D4803F044F90B
:10D43C002B4982B2012002F0A1FE601E10F0FF0405
:10D44C00F3D124490C70244A13788BB12548047805
:10D45C0074B94FF6FF70FFF77FF9E720FFF7DAF9A1
:10D46C001B4A0121204B11701878441CE1B2197031
:10D47C00084C2278012A03D01C4B0BB100F030FD74
:10D48C0020780128C4D01A490C68002CC0D0A047C1
:10D49C00BEE700BFF01000204800002079DC000837
:10D4AC0021CD00080DCD00088DCD0008B5CD0008AC
:10D4BC002DD0000835D0000845D000083DD000081C
:10D4CC00CF100020CD100020E4100020E51000202B
:10D4DC000811002010110020F9100020CE1000209F
:10D4EC0050000020E7100020FA100020EDDE0008AC
:10D4FC003413002070470000014608B5044802F0C0
:10D50C001DF90348802102F021F90028F9D008BD4B
:10D51C000044004010B5441E14F8010F10B1FFF781
:10D52C00EBFFF9E710BD000008B5FFF7F3FF024869
:10D53C00BDE80840FFF7EEBFA8120108202108B58E
:10D54C00034802F003F9003018BF012008BD00BFEA
:10D55C000044004008B5024802F0F4F808BD00BFD2
:10D56C000044004008B50448002102F0DBF8034BEE
:10D57C0000221A7008BD00BF00440040550700206F
:10D58C00FFF7CCBC10B5441E14F8010F10B1FFF717
:10D59C00C5FCF9E710BD000008B5FFF7F3FF024822
:10D5AC00BDE80840FFF7EEBFA8120108FFF794BCD6
:10D5BC00FFF77EBCFFF76CBC14282DE9F341044641
:10D5CC000E465BD8FF2959D02D4B1878012803D172
:10D5DC00A4F11201012951D92A4D2701EA192A4B2C
:10D5EC00EF5904209F42B2F8048003D027488742A9
:10D5FC0003D10820012101F0EBFDADF80480052ECC
:10D60C0038D8DFE806F00310171E25301D4B10210B
:10D61C0003EB041403220020A0738DF807108DF87F
:10D62C000620083426E004208DF8070005EB0414CE
:10D63C0001221EE048238DF8073005EB041402226A
:10D64C0017E028228DF8072005EB0414032210E0C4
:10D65C000C49182303208DF807308DF8060001EBD8
:10D66C000414042205E000218DF8071005EB0414C6
:10D67C000522A273384601A901F0B8FCBDE8FC8173
:10D68C00550700205C00002000080140000C014000
:10D69C001FB504460120014601F09AFD4FF40030FD
:10D6AC00012101F0A1FD12200121FFF785FF1320BC
:10D6BC000421FFF781FF00940C4C0C200023ADF8E3
:10D6CC000A0069462046ADF80430ADF80630ADF8D6
:10D6DC000830ADF80C3001F0CDFF0121204602F0EE
:10D6EC0021F8034901220A701FBD00BF004400400D
:10D6FC00550700207047FEE7FEE7FEE7FEE77047A0
:10D70C0070477047FFF754BD08B5012001F09EFD2E
:10D71C0030B1012001F0ACFDBDE8084001F08CBD3A
:10D72C0008BDFEF77FBE000008B5042001F0CEFB5B
:10D73C0078B1042001F0DAFB0020064B014618807A
:10D74C00FFF71AF9044810210122BDE8084001F046
:10D75C0048BF08BD3A070020002C014008B54FF423
:10D76C00006001F0B3FB38B14FF4006001F0BEFB78
:10D77C00BDE80840FEF7CEBE08BD000008B50F4856
:10D78C00102101F067FFC0B10C48102101F06DFFB2
:10D79C000020FFF7BDF928B9094B1A880A3290B25C
:10D7AC00188008BD10210548002201F01AFF002046
:10D7BC000121BDE80840FFF7DFB808BD002C01408F
:10D7CC003A07002000F0E0B83A4B82B01A6842F0F9
:10D7DC00010018605968384A0A405A60186820F0ED
:10D7EC00847121F480321A60186820F48021196049
:10D7FC005A684FF41F0122F4FE0000225860996011
:10D80C0000920192186840F480311960294B1A6813
:10D81C0002F40030019000994A1C0092019818B94A
:10D82C000099B1F5A06FF1D11B6813F4003218BF49
:10D83C00012201920198012805D0204B4FF0006283
:10D84C009A6002B070471E490B6843F010020A60E0
:10D85C00086820F003030B600A68A1F5805342F0BE
:10D86C0002000860596859605A685A60586840F458
:10D87C00806159605A6822F47C105860596841F4F0
:10D88C00E8125A60186840F0807119601868094AEB
:10D89C008101FBD5536823F003015160506840F0BF
:10D8AC0002035360034A516801F00C000828F9D1B7
:10D8BC00C3E700BF001002400000FFF800ED00E0DD
:10D8CC000020024038B514490B78012B23D1134AA0
:10D8DC0013680BB90B7038BD114C402B206881B20A
:10D8EC0005D94030403B20601360402504E09DB2D8
:10D8FC00C3180020236010600A4A5018C0212A4621
:10D90C0001F038F80120294601F03EF90120BDE86C
:10D91C00384001F0A7B838BD480700205007002058
:10D92C004C070020CA0F0020094908B50020094BFC
:10D93C000122088003201A7001F052F9064B0246AE
:10D94C00188006484FF48871BDE8084001F029B8EA
:10D95C00420700203E070020400700208A0F0020CD
:10D96C00074B1868052809D1064B1A68511C052A63
:10D97C00196003D100201860FFF7E6BA704700BFAA
:10D98C00600700205807002038B5194B194A196850
:10D99C00194D88B2108014882988214001F4007038
:10D9AC0082B24AB14FF6FF541C60144B1D78691CAF
:10D9BC00C8B21870FFF7D4FF0E4A0F4B14881D889D
:10D9CC00254005F4004188B215461C4608B100F00C
:10D9DC000BFF2A882388134003F4806188B230B18E
:10D9EC00034B07494FF6FF321A604868804738BD31
:10D9FC00445C0040381300206C1400205C070020AD
:10DA0C0088020020034B987A10B1034905220A6062
:10DA1C00704700BF4814002060070020014B04220F
:10DA2C001A60704760070020034B1A78202A01D136
:10DA3C0000201870704700BF5D0700207047000081
:10DA4C00212810B508D111480368197801F07F021C
:10DA5C00212A11D0022010BD2028FBD10B4B1968B4
:10DA6C000A780B4902F07F030A4A212B0CBF0B46A4
:10DA7C00002310700BB9EDE7074B044C2068002411
:10DA8C008361448220469847204610BD68140020CC
:10DA9C00F5DA00085D070020DDDA0008074B19688D
:10DAAC000A7802F07F03212B05D1022801D1002036
:10DABC0070472228FBD00220704700BF681400205A
:10DACC0009B1022070470128FBD8084670470000B6
:10DADC0020B9034B082219680A8270470148704725
:10DAEC00681400205002002020B9034B082219684A
:10DAFC000A827047014870476814002050020020C9
:10DB0C00054B1968CA78042A04D8044B03EBC201EC
:10DB1C0000F0EABB00207047681400205802002077
:10DB2C00014900F0E1BB00BF78020020014900F080
:10DB3C00DBBB00BF80020020334A344BD17918681C
:10DB4C0010B5002441728472C472204600F03CFF70
:10DB5C0020464FF4007100F03FFF1021204600F0EA
:10DB6C0047FF4021204600F0E3FF8021204600F0D3
:10DB7C00CFFF204600F098FF254B204693F8641009
:10DB8C0001F010F8204600F07EFF0120214600F045
:10DB9C0023FF0120C02100F0BBFF0120202100F059
:10DBAC0027FF0120214600F040FF02204FF4C06106
:10DBBC0000F012FF02204FF4807100F0A9FF022048
:10DBCC00214600F032FF0220202100F011FF03203B
:10DBDC00214600F001FF03204FF4887100F0A8FFEC
:10DBEC000320402100F0DEFF03204FF4405100F0F1
:10DBFC001CFF0320214600F0FBFE204600F086FDB2
:10DC0C00044A0120106010BD441201086814002061
:10DC1C00500200206007002010B5FFF7D5F9054B26
:10DC2C0000241868847200F009F800F0EFFF024934
:10DC3C000C6010BD681400206007002008B501209E
:10DC4C00FFF718F9064B0749012200201A601860EB
:10DC5C00086005494FF4E0520A801A6008BD00BF05
:10DC6C00405C0040445C00406C14002008B501206E
:10DC7C00FEF79AFDFF20FEF79DFDE720FEF7E8FD7D
:10DC8C00024B4FF416501968884708BDCC01002090
:10DC9C0073B5044600200D460246014602F066FBB1
:10DCAC00204602F009FD0646284602F005FD2146F5
:10DCBC000190324600230095032002F0F3FA074B43
:10DCCC0000224FF0FF101A70FEF774FDE720FEF7EC
:10DCDC00BFFD03488169034888477CBD480000208C
:10DCEC00CC010020AB12010838B50D46084903F0F1
:10DCFC0067F8002450B1042CD8BF45F8240004491F
:10DD0C00D8BF0134002003F05BF8F3E738BD00BF47
:10DD1C00BB1201081FB50C4903F052F80024C0B225
:10DD2C0078B1032C07DC02F091FB04AA02EB84030C
:10DD3C0043F8100C01340020034903F041F8C0B241
:10DD4C00EEE7684604B010BD301301081FB5FFF7AD
:10DD5C00E1FF012106220446022002F0B5F9002859
:10DD6C0002DA4FF0FF341EE023211D228DF8021041
:10DD7C008DF803200223ADF8003023688DF80430B1
:10DD8C0061688DF80510A26869468DF80620E46874
:10DD9C0010228DF8074002F0C5F9041EE1DB0348A0
:10DDAC00836903489847204604B010BDCC0100207D
:10DDBC00BE12010808B542F21D31FFF7C7FF064B32
:10DDCC000648996988474FF6FF70FEF7F3FCE72089
:10DDDC00BDE80840FEF73CBDCC010020D61201087E
:10DDEC0070B5334C86B0A368984700285ED0E068C5
:10DDFC008047304A304913680968C0B28B4203DA55
:10DE0C002E49C854013313603B284FD1284C2C4861
:10DE1C00A569A84762692B489047A169274888479C
:10DE2C002648294902F056FE0546E8B1214B00224E
:10DE3C001A60A1692548884701A92846FFF754FFB5
:10DE4C00A26923489047A36901989847A169029851
:10DE5C008847A26903989047A3691E48984702987F
:10DE6C000399FFF715FF21E014481B4902F032FE1D
:10DE7C000646D8B10F48A36905601448984701A914
:10DE8C003046FFF731FFA26901989047A1690298CB
:10DE9C008847A36903989847A26904989047A16999
:10DEAC000E48884702A807C8FFF784FF06B070BD6C
:10DEBC00CC01002064070020E00200203A1300206F
:10DECC00E0120108EF12010899120108021301086F
:10DEDC001013010819130108A212010827130108D5
:10DEEC0010B5FFF77DFF104B5A684AB10F4900205F
:10DEFC0058608B690E4898470E480F49FFF7C8FECB
:10DF0C000E4A107878B90E490B7863B10D48426807
:10DF1C004AB90649012444608B690B4898470B4861
:10DF2C000B4A0470147010BDE0020020CC010020DC
:10DF3C0019130108321301083B1301084800002093
:10DF4C00F91000206407002044130108E71000209A
:10DF5C00F110002010B5064C18B9236801221A8262
:10DF6C0010BD044B18680168884720680A3010BD42
:10DF7C00681400206414002010B5064C18B92368EE
:10DF8C0001221A8210BD044B1868816888472068EA
:10DF9C000C3010BD681400206414002008B5234A0E
:10DFAC0018B9136802221A8208BD214B002012688E
:10DFBC001880117811F07F0113D1507A00F02002F3
:10DFCC00D1B209B102221A7000F04003D8B2184B3A
:10DFDC0018B11A7842F001011EE0197821F0010104
:10DFEC001AE001291FD002291ED1507900F00F022E
:10DFFC004FEA820110F0800F01F1804000F5B84229
:10E00C00116803D001F03002102A03E001F44050F3
:10E01C00B0F5805F01D101211970064B18680169B8
:10E02C008847034808BD184608BD00BF6814002087
:10E03C003A14002064140020F8B5224B1C68238A83
:10E04C00267AABB9042E13D11F48017801291F4938
:10E05C000AD11F4C226894B21E4AA21852001360B7
:10E06C0030220A80037028E010260E80072624E058
:10E07C00A58AA169AB428CBF022604269D4228BF0B
:10E08C001D46284688470746002000F061FD2A46B9
:10E09C000146384600F06EFC2946002000F074FD65
:10E0AC00208A638A421BED1808480B4B22823021D0
:10E0BC004FF44052018065821A80024B1868067238
:10E0CC00F8BD00BF681400207007002070140020F9
:10E0DC00505C0040023000206E14002010B50A4B3A
:10E0EC000A4918684B78C27893420AD3817841B9AF
:10E0FC00848834B98272064802685368984720466F
:10E10C0010BD022010BD00BF68140020DC020020EE
:10E11C006414002038B50E4A0E4C106823688269CE
:10E12C00D9785879904721688B7A7BB170B9087986
:10E13C0060B98D7855B9084A1168CB689847206842
:10E14C004279C178C2720173284638BD022038BDAD
:10E15C0040140020681400206414002010B5324BC9
:10E16C001B68187810F07F0004D15A7A22F0200135
:10E17C00597210BD022855D15A88002A53D11979E9
:10E18C00002950D15A7922F080004FEA800404F122
:10E19C00804101F5B8442168244C12F0800F24789A
:10E1AC0014BF01F0300101F44051A0423AD20029D1
:10E1BC0038D09B7A002B35D0840002F0800204F119
:10E1CC008043D1B203F5B844226861B102F0300249
:10E1DC00102A21D1C4B2204600F087FC2046302101
:10E1EC0000F006FC18E002F44051B1F5805F13D149
:10E1FC0028B90F4B93F82C1000F0D4FC01E000F080
:10E20C0062FC20684BF68F72024082F4405141F45C
:10E21C00004343F08000206006490B685869804732
:10E22C00002010BD022010BD68140020DC0200206C
:10E23C00880200206414002010B51F4B19684A791D
:10E24C0022F080034FEA830000F1804404F5B840CB
:10E25C001A4C0068247812F0800F14BF00F03000C4
:10E26C0000F44050A34224D24C8814BB08B3897AE2
:10E27C00F9B19B0003F1804102F0800201F5B84333
:10E28C00D0B2196828B148F6BF720A4082F010006B
:10E29C0004E04BF68F720A4082F4805040F4004147
:10E2AC0041F080001860064B1A689169884700207D
:10E2BC0010BD022010BD00BF68140020DC0200203D
:10E2CC006414002008B5064B1868064B427A42F0DD
:10E2DC00200141721868C2699047002008BD00BF38
:10E2EC006814002064140020054B1A68538A18B96E
:10E2FC008988CB1A138270470868C018704700BF12
:10E30C006814002008B50B4B002093F82C1000F07B
:10E31C0049FC09480168087A082806D1074B4FF4D4
:10E32C0080521A80064A10211180B0F1090358421C
:10E33C00584108BD88020020681400206E1400208B
:10E34C007014002070B52E4B1C68207A02284FD018
:10E35C0004284DD0032801D0052843D1A169208A77
:10E36C00A9B1A0B1A58A854228BF05462846884791
:10E37C00228A0646608A531B291861822382002058
:10E38C0000F0F4FB2A460146304600F00AFB228AD4
:10E39C0052B11C4B4FF4405018800020014600F045
:10E3AC00F3FB194A30211180208AA38A1449834235
:10E3BC0002D80B68032202E018B10B6805221A720E
:10E3CC000CE00A680623114913720A68104993B2CB
:10E3DC005A1853000C49186030200880084801680E
:10E3EC000B7A06E0072803D10A490A68D3689847D4
:10E3FC000823034A10680372BDE87040FFF782BF20
:10E40C00681400206E14002070140020505C004032
:10E41C000230002040140020944B73B51A689449C4
:10E42C0090B24418934E65002A6835682B7A092BF4
:10E43C0015D090B2410001F1804404F5C04422781B
:10E44C002A7063786B70A08800F0DAFB68802089F2
:10E45C00356800F0D5FBA880A0893168C880854D4F
:10E46C0001242B68DA881C725C78002A64D1187835
:10E47C0010F07F0238D1092C02D1FFF72FFE45E0B6
:10E48C00052C0FD193F90320002A01DA08214FE063
:10E49C0099780029FAD198880028F7D19B7A002B1B
:10E4AC0038D0F3E7032C10D1D878012807D0724A62
:10E4BC00204611684B699847032829D137E09B887F
:10E4CC00002BF4D1FFF7FEFE20E0012CEFD1D97820
:10E4DC000129ECD198880028E9D15B7A03F020025D
:10E4EC00D1B20029E3D00AE0012A04D10B2CDED1F1
:10E4FC00FFF710FE0AE0022AD9D1012C02D1FFF756
:10E50C002DFE03E0032CD2D1FFF796FE10B1CEE71F
:10E51C000028BBD15548594B026891B2C818584BCA
:10E52C004100002230200A601880062100E00921F9
:10E53C00504A10680172D3E0062C13D11C78610686
:10E54C007AD19A784C4B012A02D11C68E36969E0B4
:10E55C00022A02D11868036A64E0032A6CD1196894
:10E56C004B6A5FE0002C3ED15988002964D1586871
:10E57C0020F47F42B2F5003F5ED11C7814F07F008E
:10E58C0004D19888002800F0AE8055E001280CD109
:10E59C00394A58791468A269904700284CD12B68E5
:10E5AC00997A002940F09F8046E0022844D15B799B
:10E5BC0003F00F014FEA810202F1804404F5B840E8
:10E5CC00304C0268207813F0800F14BF02F0300238
:10E5DC0002F4405281422FD213F0700F2CD1002A3A
:10E5EC0040F0818028E0082C03D119784A067CD0B1
:10E5FC0022E00A2C20D1187800F07F0101291BD1D0
:10E60C009C7ACCB15988B9B95A6822F47F40B0F5DC
:10E61C00803F11D1184C587922689469A047002882
:10E62C0065D009E043B113480024016820464C82B0
:10E63C008B61984720460AE00F4A0E4C11682368FC
:10E64C000A6958789047032801D1236806E0094BE2
:10E65C004FF6FF711B681A8A8A4201D1092103E027
:10E66C00022800D082B90821197239E0505C0040B0
:10E67C0004300020681400204014002002300020D8
:10E68C0070140020DC02002093F90000002821DA2D
:10E69C00D98801910198824202D9019A1A8211E01B
:10E6AC008A420FD21349086890F82C108A4201D282
:10E6BC00002105E092FBF1F001FB102212B90121BF
:10E6CC000D4801700B49086890F82C209A82FFF7CE
:10E6DC00B3FC05E003221A72084B4FF44051198029
:10E6EC00FFF710FE7CBD064B9DE7064B9BE7064BE8
:10E6FC0099E700BF40140020700700206E14002022
:10E70C00A9DF000861DF000885DF000870B50D4B3C
:10E71C001C780023A34210D203F1805202F5B855A5
:10E72C00A90043F400420E6842F0800540F60F72D7
:10E73C0032402A430A600133ECE7034940F0800081
:10E74C00086070BDDC0200204C5C004010B5144920
:10E75C000B680C461A7A022A01D0042A04D1FFF75E
:10E76C006BFC2168087A13E0062A10D1587805282A
:10E77C0009D11978480606D1D878FFF7C7FF094B9D
:10E78C001A68106A804708490B689A6890470820F5
:10E79C00034B1A681072BDE81040FFF7B3BD00BF01
:10E7AC0068140020641400204014002070470000FE
:10E7BC0008B5074A074B0220136018720649074B2D
:10E7CC000748084A0B6010601B68984708BD00BFDB
:10E7DC0068140020481400204014002088020020F7
:10E7EC00B80200206414002037B50023ADF80630C1
:10E7FC005848594B026891B21204198040F1A88014
:10E80C001888564900F00F020A70002A6ED1544C39
:10E81C002568AAB2534D2A802988534A01F030004A
:10E82C00108029884BF6BF7201F440502880216873
:10E83C000A4082F4005080F0200141F4004242F082
:10E84C00800020601B8803F010018AB23AB922685C
:10E85C0048F60F7010402060FFF778FF1DE020682D
:10E86C0083B2ADF80630BDF8061001F4006290B228
:10E87C0038B1216840F68F730B402360FFF7CCFD55
:10E88C000BE0BDF8063019B20029B1DA226840F667
:10E89C008F7010402060FFF755FD21682A884BF6D9
:10E8AC00BF7302F480500B4081B209B183F48053E2
:10E8BC002C4A108800F400518AB20AB183F4005338
:10E8CC002948018801F0100291B209B183F01003BC
:10E8DC00008800F0200291B209B183F0200343F4C8
:10E8EC0000401F4A40F08001116031E0930003F1B9
:10E8FC00804000F5B843196888B2ADF80600BDF841
:10E90C00061008B2002809DA186840F68F71014029
:10E91C001960164B013A53F822008047BDF80610D7
:10E92C0001F0800293B2002B3FF462AF0B480278E7
:10E93C00910001F1804303F5B841086848F60F7364
:10E94C0003400B600A49013A51F8220080474FE717
:10E95C003EBD00BF445C004038130020441400202E
:10E96C00005C00406E14002070140020180200207F
:10E97C003402002030B501F1005101F54053013251
:10E98C005900521000230230934209D010F8015C58
:10E99C0010F8024C44EA052421F823400133F2E735
:10E9AC0030BD01F1005110B5013201F54054521047
:10E9BC0064000023934205D054F8231020F8131060
:10E9CC000133F7E710BD00004FF6F873014A03401E
:10E9DC0013607047505C0040800000F1804202F5EB
:10E9EC00B842106848F68F13034019431160704702
:10E9FC00800000F1804202F5B842106848F6BF73FF
:10EA0C00034001F0100080B208B99BB201E083F022
:10EA1C00100301F0200188B208B183F0200343F405
:10EA2C00004141F0800010607047800000F180428E
:10EA3C0002F5B84210684BF68F73034001F4805016
:10EA4C0080B208B99BB201E083F4805301F4005109
:10EA5C0088B208B183F4005343F4004141F08000C4
:10EA6C0010607047800000F1804202F5B8400168E8
:10EA7C0048F6BF730B4083F0300242F4004141F082
:10EA8C00800303607047800000F1804202F5B840BB
:10EA9C0001684BF68F730B4083F4405242F40041F3
:10EAAC0041F0800303607047800000F1804202F562
:10EABC00B840016840F60F630B4043F4004242F04B
:10EACC00800101607047800000F1804303F5B8407D
:10EADC000268510408D5016840F60F730B4043F4EB
:10EAEC00404242F0800101607047800000F1804399
:10EAFC0003F5B8431A68500608D5196840F60F702C
:10EB0C00084040F4004242F0C00119607047000018
:10EB1C00064B49081A6893B203EBC00000F100528F
:10EB2C0002F5405358004A0002607047505C0040A8
:10EB3C00054B49081A6893B2044A03EBC0008318CA
:10EB4C0058004A0002607047505C004004300020BE
:10EB5C00054B19688AB202EBC00000F1005303F5B3
:10EB6C0040514A0010887047505C0040044B1968B3
:10EB7C00044B8AB202EBC000C1184A0010887047DF
:10EB8C00505C004004300020044B1A6893B2044AD5
:10EB9C0003EBC0008318580001607047505C0040C4
:10EBAC00023000200C4B1A6893B20C4A03EBC000E5
:10EBBC0083185A003E2908D94B09C90601D1581EA1
:10EBCC0083B2990241F4004104E04B08C80748BFE6
:10EBDC000133990211607047505C004006300020F0
:10EBEC00054B1968054B8AB202EBC000C1184A00EC
:10EBFC0010688305980D7047505C0040063000206B
:10EC0C00C3B2000A40EA032070470000044B002006
:10EC1C001860044A044B4FF4064111801960704788
:10EC2C00445C00406C140020405C004040F0BF602D
:10EC3C00024B40F40031D960704700BF00ED00E09A
:10EC4C00C37810B503B3164CE168CB43C3F302246D
:10EC5C004178C4F1040201FA02F10F2222FA04F203
:10EC6C008478037822400A43110103F16043CAB24D
:10EC7C0003F5614181F800230078012200F01F03A5
:10EC8C00410902FA03F007E00078012200F01F03AB
:10EC9C00410902FA03F02031024B43F8210010BD68
:10ECAC0000ED00E000E100E021F0604121F07F0286
:10ECBC00014B10439860704700ED00E002684FF67E
:10ECCC00FE73134003602D4B00219842016041609C
:10ECDC008160C16022D02A49884229D0294B9842B0
:10ECEC0030D02949884237D0284B98423ED0284B07
:10ECFC00984206D153F8681C41F4700043F8680C34
:10ED0C0070472449884206D151F87C0C40F070625F
:10ED1C0041F87C2C7047204B984206D153F8042CB8
:10ED2C0042F00F0143F8041C70471C49884206D17D
:10ED3C0051F8183C43F0F00041F8180C7047184B90
:10ED4C00984206D153F82C2C42F4706143F82C1CD9
:10ED5C0070471449884206D151F8403C43F4704046
:10ED6C0041F8400C7047104B984205D153F8542C85
:10ED7C0042F4702143F8541C704700BF0800024055
:10ED8C001C00024030000240440002405800024087
:10ED9C006C00024080000240080402401C04024047
:10EDAC0030040240440402405804024070B5066826
:10EDBC008C680D6A26F4FF4222F070060A6945EA57
:10EDCC0004034C6913438A692343CC6913431C43E2
:10EDDC004B6A44EA03028B6A1A4332430260CB68E3
:10EDEC000A68496843608260C16070BD19B10168EE
:10EDFC0041F0010303E002684FF6FE731340036019
:10EE0C00704703680AB1194301E023EA010101606C
:10EE1C007047406880B27047C3004CBF034B044B33
:10EE2C00196801420CBF0020012070470004024009
:10EE3C0000000240C2004CBF014B024B58607047AF
:10EE4C000004024000000240837910B5002B29D049
:10EE5C001A4B01681C68CA4314401C605C68224051
:10EE6C005A60027902F1804404F58232146821431D
:10EE7C00116002689C68D1430C409C60DC6840794E
:10EE8C0021401028D96006D1986810439860D96841
:10EE9C000A43DA6010BD00F1804303F58233196830
:10EEAC000A4308E00179006801F1804202F58233DF
:10EEBC001A6822EA00021A6010BD00BF000401406B
:10EECC00014B5861704700BF00040140064B1A68A3
:10EEDC00596910EA010304D010420CBF0020012034
:10EEEC0070471846704700BF00040140014B586141
:10EEFC00704700BF00040140034A044B02F1883004
:10EF0C005A605860704700BF2301674500200240DB
:10EF1C00024B1A6942F080001861704700200240D1
:10EF2C00014BD860704700BF00200240084BDA68E4
:10EF3C00D20709D4D868400708D4D96811F0100F4B
:10EF4C000CBF04200320704701207047022070473B
:10EF5C000020024010B50446FFF7E8FF012806D157
:10EF6C001CB1FFF7E3FF013CF8E7052010BD002CB6
:10EF7C0008BF052010BD000070B505464FF40050C9
:10EF8C000E46FFF7E7FF04280ED1084C236943F027
:10EF9C00010020612E804FF40050FFF7DBFF226947
:10EFAC0041F6FE711140216170BD00BF002002408E
:10EFBC0038B505464FF43020FFF7CCFF042812D1AA
:10EFCC00094C236943F002002061656121694FF40B
:10EFDC00302041F040022261FFF7BCFF216941F66D
:10EFEC00FD730B40236138BD00200240CB78F0B597
:10EFFC00DA0648BF8A78098803F00F0548BF154325
:10F00C0011F0FF0F1ED004680022012707FA02F747
:10F01C0007EA0106BE4211D197004FF00F0C0CFA13
:10F02C0007FC05FA07F724EA0C04282B44EA07042A
:10F03C0001D1466102E0482B08BF06610132082A63
:10F04C00E3D10460FF2920D94468002202F10806AC
:10F05C00012707FA06F707EA0106BE4211D197000D
:10F06C004FF00F0C0CFA07FC05FA07F724EA0C0416
:10F07C00282B44EA070401D1466102E0482B08BF63
:10F08C0006610132082AE1D14460F0BD836819425F
:10F09C000CBF00200120704701617047416170472F
:10F0AC0001F0030230B592000F2404FA02F400FAC6
:10F0BC0002F0074B8908023153F8215025EA040469
:10F0CC0043F8214053F82140044343F8214030BD1C
:10F0DC0000000140014B1860704700BF0030004039
:10F0EC00014B5860704700BF00300040014B9860E6
:10F0FC00704700BF00300040024B4AF6AA221A604B
:10F10C00704700BF00300040024B4CF6CC421A60F6
:10F11C00704700BF00300040014B1860704700BFC3
:10F12C0020000E42014B1860704700BFD8004242CD
:10F13C001D4B10B55A6802F00C01042901D00829A6
:10F14C0002D01A4A02600EE05C685968C4F383422C
:10F15C00941CC90302D55B689B0301D5144900E0DC
:10F16C0012494C430460104A124B5468C4F3031107
:10F17C005C5C016821FA04F141605468C4F3022418
:10F18C001C5D21FA04F484605468C4F3C2241C5D31
:10F19C0021FA04F1C1605268C2F381329B181A7CC7
:10F1AC00B1FBF2F1016110BD0010024000127A00B7
:10F1BC0000093D00E8020020044B5A6909B11043D4
:10F1CC0001E022EA00005861704700BF00100240C5
:10F1DC00044B9A6909B1104301E022EA00009861DE
:10F1EC00704700BF00100240044BDA6909B11043AC
:10F1FC0001E022EA0000D861704700BF0010024015
:10F20C004309012B074A01D1136803E0022B0CBF01
:10F21C00136A536A00F01F0023FA00F101F0010099
:10F22C00704700BF00100240024B5A6A42F08070D7
:10F23C005862704700100240034B988800F0200180
:10F24C008AB2002AF8D0704700280040074B9A88F1
:10F25C001B8891B210EA030206D0084010F0FF0F91
:10F26C000CBF00200120704710467047002800405A
:10F27C00034B9A8891B221EA00009880704700BF36
:10F28C00002800400B8810B54C88028823438C88DA
:10F29C0002F441522343CC8823430C8923434C89E9
:10F2AC0023438C892343CC89098A23431A4393B281
:10F2BC000380828B22F400631A04130C8383018273
:10F2CC0010BD038819B199B241F0400303E023F05B
:10F2DC0040010A04130C0380704783889BB20AB167
:10F2EC00194301E023EA0101818070470389194227
:10F2FC000CBF002001207047224A038890429BB229
:10F30C0012D002F5006290420ED0B0F1804F0BD0BB
:10F31C00A2F59832904207D002F58062904203D059
:10F32C0002F58062904203D14A8823F070031343A4
:10F33C00154A904208D002F58062904204D023F422
:10F34C004073CA889BB2134303808B880A888385D9
:10F35C000C4B028598420FD003F5006290420BD003
:10F36C0002F54063984207D003F58062904203D0C7
:10F37C0002F58063984201D1097A018601228282CA
:10F38C00704700BF002C014000100040038C70B58A
:10F39C0023F001021404250C0584068C8388028B4F
:10F3AC009CB222F073052B040D881A0C26F0020671
:10F3BC0033042A434E880D891B0C3543ADB22B43C5
:10F3CC00134DA8420FD005F50065A8420BD005F5EA
:10F3DC004065A84207D005F58065A84203D005F525
:10F3EC008065A8420ED123F008064B898D881E43F8
:10F3FC0026F004032B43CE898D8924F440743543C5
:10F40C00ADB22C43C988848002838186038470BD8D
:10F41C00002C0140038C30B523F010021404250C91
:10F42C000584038C8288048B23F0200324F4E645A6
:10F43C002C040D88240C44EA05241D042B0C0D8986
:10F44C0092B243EA05134D88A4B243EA0513124D58
:10F45C009BB2A84203D005F50065A84215D14D8991
:10F46C0023F080039BB243EA05134FF6BF751D4092
:10F47C008B8822F4406245EA0315ABB28D8942EACF
:10F48C008502CD8942EA850292B2C98882800483C2
:10F49C000187038430BD00BF002C0140038C30B5C4
:10F4AC0023F480721404250C0584038C8288848BCD
:10F4BC0023F4007324F073052C040D88240C2C43C6
:10F4CC001D042B0C0D8992B243EA05234D8843EAA7
:10F4DC000523124D9BB2A84203D005F50065A84246
:10F4EC0015D14D8923F400639BB243EA05234FF6F3
:10F4FC00FF351D408B8822F4405245EA0325ABB200
:10F50C008D8942EA0512CD8942EA051292B2C98868
:10F51C00828084838187038430BD00BF002C01402E
:10F52C00038C30B523F480521404250C0584038C11
:10F53C008288858B94B225F4E64215042A0C0D883A
:10F54C0023F4005342EA05221D042B0C0D8992B2C0
:10F55C0043EA05334D8843EA05330A4D9BB2A84272
:10F56C0003D005F50065A84205D18D8924F48044AB
:10F57C0044EA8514A4B2C98884808283A0F8401020
:10F58C00038430BD002C014000214FF6FF738380B3
:10F59C000180C18041800172704700230380438049
:10F5AC008380C380038143818381C3817047038837
:10F5BC0019B199B241F0010303E023F001010A04EF
:10F5CC00130C03807047B0F8443029B16FEA434301
:10F5DC006FEA53418AB201E059044A0CA0F8442066
:10F5EC00704783899BB20AB1194301E023EA0101F8
:10F5FC0081817047038819B199B241F0800303E00F
:10F60C0023F080010A04130C03807047038B23F052
:10F61C00080213041A0C114301837047038B23F463
:10F62C00006213041A0C42EA01218BB20383704767
:10F63C00838B23F0080213041A0C11438183704747
:10F64C00838B23F4006213041A0C42EA01218BB25F
:10F65C0083837047038A828911EA030092B203D034
:10F66C0011420CBF002001207047C9438AB20282AC
:10F67C0070470000038A30B50D460446EA8898B2FC
:10F68C0020F4405111432182A3892889A98823F4AD
:10F69C00B05340EA0102688923F00C0102430804CC
:10F6AC00030C1A4391B2A181A08AAA8983B223F4D4
:10F6BC00407187B01143A18201A8FFF739FD1848AA
:10F6CC00A38984420CBF0498039819B200294FF007
:10F6DC0019032A6803FB00F001DA510000E09100E5
:10F6EC00B0FBF1F16423B1FBF3F21201100903FB3F
:10F6FC001011A08900B2002806DAC9003231B1FB22
:10F70C00F3F303F0070005E009013231B1FBF3F329
:10F71C0003F00F00024390B2208107B030BD00BF50
:10F72C0000380140838919B199B241F4005303E0C8
:10F73C0023F400510A04130C83817047C905CA0DC8
:10F74C00828070478088C105C80D704703881942B4
:10F75C000CBF00200120704701700B0A0A0C090E27
:10F76C0043708270C170043070470170090A417097
:10F77C000230704743185A78405C00EB022188B283
:10F78C00704710B543189A78DC78415C120402EB90
:10F79C0004625878521802EB002010BD73B54479FE
:10F7AC000023022C01930FD0032C19D0012C2BD148
:10F7BC00164D28692E4620B1296901A888470246B2
:10F7CC00B8B9B16801201BE0104DE8682E4620B195
:10F7DC00E96801A88847024658B9B16802200FE0D1
:10F7EC000A4D6A692E464AB16B6901A898470246D0
:10F7FC0020B1A9682046BDF8043003E0B1680320AD
:10F80C000022134600F021FB7CBD00BFB814002081
:10F81C00072810B50CD801290AD8012404FA00F4E1
:10F82C0001FA00F0034B1A6822EA040202431A6040
:10F83C0010BD00BFFC020020F0B5012187B00546C9
:10F84C00FFF798FF00F48043044698B250B3B4F528
:10F85C00824F27D128460521FFF78CFF002607464B
:10F86C0007353446BE4208D028460221FFF782FFF6
:10F87C00013624180435B6B2F4E76A4B188E2118F9
:10F88C008AB21A86D86B2418DC63D96B9A6B9142B6
:10F89C0040F0C28093F84000002800F0BD809B69C6
:10F8AC00992092E024F4FF4121F07F0293B2002BC7
:10F8BC0000F08F8048F210039C421ED00AD8B4F599
:10F8CC00004F40F2AB8048F20200844278D9811C90
:10F8DC008C420FE048F28002944271D005D848F275
:10F8EC0040039C4240F09A8047E0B4F5024F67D049
:10F8FC00B4F5084F40F0928062E00022A8184179DC
:10F90C000DF802100132042AF8D16B7AA87AE97A40
:10F91C002A7B8DF804308DF805008DF806108DF8D3
:10F92C00072005F10D00002306A9CA18C15C01339C
:10F93C00042B02F8101CF7D105F11100002306AAC4
:10F94C00D218C15C0133042B02F80C1CF7D105F161
:10F95C001500002300AAD218C15C0133042B1174CA
:10F96C00F8D1304928798A698DF81400002A53D0CF
:10F97C008B6920466946152229E005350021284669
:10F98C00FFF7FFFE042100902846FFF7FAFE08213E
:10F99C0001902846FFF7F5FE0C2102902846FFF750
:10F9AC00F0FE102103902846FFF7EBFE04901D4853
:10F9BC008169002930D0836969462046142206E00B
:10F9CC00184B9A6942B39B69204600210A46984716
:10F9DC0022E041F20300844205D00C30844202D074
:10F9EC00411E8C421AD16C1D04212046FFF7C9FE22
:10F9FC00393013D12D790B4A00212046D562FFF7FF
:10FA0C00C0FE042105462046FFF7BBFE393003D16A
:10FA1C0028460121FFF7FCFE012000E0002007B082
:10FA2C00F0BD00BFB814002038B50A4C638898B2FA
:10FA3C0008B9002038BD606801780429F9D1FFF7B6
:10FA4C00FBFE01280546F4D100226280FCF794FBF2
:10FA5C00284638BDB81400202DE9F04704468846E6
:10FA6C0091460025BC4B5A8890B20028FAD05E68AB
:10FA7C003178042940F0728130460121FFF77AFE7B
:10FA8C0005463046FFF7D8FE002840F05C8141F275
:10FA9C000703771D9D4253D85A1E954280F0AC80C7
:10FAAC0040F20220854200F0A78014D80C2D09D812
:10FABC00082D80F0A180002D00F04581062D40F22C
:10FACC009B80DDE00D2D00F0948040F20127BD42BB
:10FADC0040F039818DE041F20202954218D8B5F51B
:10FAEC00805F00F28980B5F5017F40F2828040F2A0
:10FAFC0007218D4240F027813379002104F8013B26
:10FB0C003846FFF73EFE01462046FFF725FE1AE178
:10FB1C0041F20400854200F0898040F2A080384612
:10FB2C000021FFF72EFE042120603846FFF729FE46
:10FB3C006060083406F10D07224606F11D016EE0E7
:10FB4C0041F21100854254D02CD841F20B0295425F
:10FB5C0052D01CD841F209018D424DD000F28B805D
:10FB6C0000213846FFF70DFE042120603846FFF7D0
:10FB7C0008FE082160603846FFF703FE0C21A060E8
:10FB8C003846FFF7FEFD04F10C0AE060DAE041F2C2
:10FB9C000F00854263D035D841F20D02954240F0FA
:10FBAC00D28043E042F206018D4222D008D8B5F54E
:10FBBC00005F40F2C88042F204039D4219D983E0F1
:10FBCC0042F208039D42C0F0BE80581C854210D9F9
:10FBDC0044F20B02954240F0B6807179DFF878A1BF
:10FBEC003846AAF830100121FFF7C4FDAAF83200FC
:10FBFC00A9E037792770A6E038460021FFF7C1FD50
:10FC0C002060A0E000213846FFF7BBFDA2464AF871
:10FC1C00040B04213846FFF7B4FD606092E057F8FE
:10FC2C00043B8F4242F8043BF9D18CE0002138466A
:10FC3C00FFF7A7FD042120603846FFF7A2FD08213D
:10FC4C0060603846FFF79DFD04F1080AA060E46887
:10FC5C0014F1390376D10121FFF7DAFD72E00021AE
:10FC6C003846FFF78EFD042120603846FFF789FDEA
:10FC7C006060083467E0337923713F68276062E085
:10FC8C0038460021FFF77DFD042120603846FFF740
:10FC9C0078FD082160603846FFF76CFD0A21A060F2
:10FCAC003846FFF767FDC4F80A000C3406F111075B
:10FCBC00224606F1350157F8043B8F4242F8043BCB
:10FCCC00F9D1388810803EE00022B7187879A0541A
:10FCDC000132042AF9D106F109070023F95CE01876
:10FCEC000133042B0171F9D106F10D070020395CA9
:10FCFC002218013004281172F9D106F111070023E2
:10FD0C00F95CE2180133042B1173F9D106F11500DB
:10FD1C000022875CA1180132042A0F74F9D106F174
:10FD2C0019000023C75CE1180133062B0F75F9D1BC
:10FD3C0006F11F000021475C6218013120299776DB
:10FD4C00F9D100E05446044B188882B2954225D173
:10FD5C000021198022E000BFB81400203046032196
:10FD6C00B778FFF707FD8246B8F1000F0CD00421DD
:10FD7C00701DFFF706FD0346C9F8000006F11501DA
:10FD8C004046DAB200F06CFB7A1DB1182046C7EB86
:10FD9C000A0200F065FB0F490020C8860D4F0023B6
:10FDAC007B80FCF7E9F93078042805D1B5F5805F44
:10FDBC0002D13046FFF7F2FC3A8891B200297FF469
:10FDCC0051AE044BD88E80B200287FF44BAEBDE808
:10FDDC00F08700BFB8140020034B188008460021A0
:10FDEC000A46FFF739BE00BFB814002010B5034B0C
:10FDFC000124DC86BDE81040FFF72EBEB8140020AD
:10FE0C0038B50346154601224A710C46881D194621
:10FE1C00FFF7ABFC291D05702046FCF76DFA00209E
:10FE2C0038BD38B59B180C469DB202216171A0718A
:10FE3C00E271294604F10800FFF797FC6A1D204681
:10FE4C0091B2BDE83840FCF757BA2DE9F0471D4692
:10FE5C0005F1020A032301F107091FFA8AFA8871D6
:10FE6C004B710C46484651461746FFF77EFCB5F5DC
:10FE7C007A7F804613D82946FFF777FC29464046FF
:10FE8C00FFF773FC394604F10B002A4600F0E8FA40
:10FE9C00A91D204689B2BDE8F047FCF72DBA4FF4F6
:10FEAC007A76B5FBF6F10AEB410291B2FFF75DFCF5
:10FEBC0031464046FFF759FC394604F10B003246F7
:10FECC0000F0CEFAA5F57A75204640F2EE31ADB2CF
:10FEDC00BF19FCF711FAB5F57A7F05D9A5F57A703B
:10FEEC0085B24FF47A7601E02E460025A0463946BD
:10FEFC0028F8056F4846324600F0B2FAB31C40466B
:10FF0C0099B2BF19FCF7F8F9002DE4D1BDE8F087E0
:10FF1C002DE9F34106460C461E4831681546D0F8CB
:10FF2C0008804A1E1F46FF23122A8DF8073008F15D
:10FF3C00090001D81423336021684A1E122A01D803
:10FF4C001423236029684A1E122A01D814232B601B
:10FF5C0039684A1E122A01D814233B603168FFF716
:10FF6C00FBFB2168FFF7F8FB2968FFF7F5FB396805
:10FF7C00FFF7F2FB4146142242F20900FFF740FF63
:10FF8C0042F209000DF10701FFF726FF9DF907006A
:10FF9C00BDE8FC81B81400202DE9F34186461448D5
:10FFAC000D46866871461F4602ACFF2306F1090018
:10FFBC0004F8013D9046FFF7CFFB2946FFF7CCFB39
:10FFCC0040F201254146FFF7C7FB0C22314628467B
:10FFDC00FFF716FF28462146FFF7FEFE00213846A4
:10FFEC000A46FFF703FF9DF80700BDE8FC8100BF40
:04FFFC00B814002015
:020000040801F1
:100000002DE9F341864616480C46866871469846A7
:1000100002AD4FF0FF3306F10A0045F8043D1746E4
:10002000FFF7A0FB0C21FFF79DFB2146FFF79AFB92
:100030003946FFF797FB4146224606F11A0000F0C9
:1000400015FA902031461022A3B2FFF7F0FE40F2DD
:1000500002202946FFF7C6FE0198BDE8FC8100BFDB
:10006000B814002037B50B4B40F2072504469968B9
:1000700000222846FFF7CAFE28466946FFF7B2FE6F
:100080009DF803009DF80410207061709DF8000039
:100090003EBD00BFB814002037B50D4A0346956831
:1000A0000C4605F109001946FFF75CFB214640F2BA
:1000B0000324FFF757FB294608222046FFF7A6FE38
:1000C00020460DF10601FFF78DFEBDF806003EBD8E
:1000D000B8140020F7B5034614480D468668194643
:1000E000174602AC4FF0FF3206F1090044F8042D28
:1000F000FFF738FB2946FFF735FB41F2010539468A
:10010000FFF730FB0C2231462846FFF77FFE2146E1
:100110002846FFF767FE00F0A3F901990160084641
:100120000021FFF77BFB0198FEBD00BFB814002043
:1001300037B5034613484FF0FF3284680D4604F18B
:10014000090019460192FFF70DFB0821FFF70AFB92
:100150000821FFF707FB0023E95CC1540133082B9A
:10016000FAD11422214641F20700FFF74FFE01A900
:1001700041F20700FFF736FE00F072F9019A0260C3
:1001800010463EBDB8140020202A73B503460E4623
:10019000144622D8124A1946956805F10900FFF75E
:1001A000E1FA0821FFF7DEFA2146FFF7DBFA002229
:1001B000A24203DAB15C81540132F9E704F10C0385
:1001C0002946DAB241F21100FFF720FE41F2110098
:1001D00001A9FFF707FE019801E04FF0FF307CBD59
:1001E000B8140020024B01225A805860FFF722BC4D
:1001F000B814002010B5084CE16022616361029BD5
:100200000399E361049A059B21626262A362A06183
:10021000012084F8400010BDB814002070B5214CB6
:10022000054621480023A363E36323802386638676
:10023000A386E386E36263806360A0601B48FBF7EC
:100240008DFFE1698847A26A06460120904706B300
:10025000E16988470028FBD1124C0035A16818BF1E
:1002600001254D7201224FF48040FFF7CFFD0021A0
:100270004FF48040FFF7B6FDA168002244F20B0066
:10028000FFF7C4FD44F20B000021BDE87040FFF70A
:10029000A9BDE36998470028FBD0E06980470028A2
:1002A000FBD1D9E7B814002088070020E501010838
:1002B0002DE9F04F83462F4885B0D0F808901446BA
:1002C00000259A4688464FF0FF331C2109F10900AA
:1002D00001930F9E0E9F0295ADF80C50FFF742FA66
:1002E0002146FFF73FFA5946FFF73CFA04F11001A7
:1002F000FFF738FA3146FFF735FA2946FFF73BFAA0
:10030000BAF1000F08D01AF8052042550135062D24
:10031000F9D10630002207E0534602AA995CC15485
:100320000133062BF9D1F4E7A24204DA18F80210DF
:1003300081540132F8E7002CA8BF00193EB1002318
:100340002FB1B34203DAFA5CC2540133F9E71C342B
:10035000A319DAB249460120FFF758FD01A901208F
:10036000FFF740FD00F07CF801990160084605B0F8
:10037000BDE8F08FB8140020F7B503460F480E46CD
:1003800085681946174602AC4FF0FF3205F10900A7
:1003900044F8042DFFF7E6F93146FFF7E3F9394653
:1003A000FFF7E0F929460C220420FFF72FFD042077
:1003B0002146FFF717FD0198FEBD00BFB8140020CD
:1003C00037B50B4B01469D6802AC05F10900FFF7FC
:1003D000C9F94FF0FF3044F8040D294604220620E5
:1003E000FFF714FD06202146FFF7FCFC01983EBDF7
:1003F000B814002037B548F2080248F2080102405C
:100400008A42034613490BD10020934281F84000F1
:100410001FD023F4004424F0080545F4004302E013
:10042000012081F840000B494FF0FF328D6802AC8B
:10043000194605F1090044F8042DFFF793F9294600
:1004400004220820FFF7E2FC08202146FFF7CAFC3F
:1004500001983EBDB814002000210A2200F088BD9A
:1004600040F22873C2F20003186870470F2A2DE982
:10047000F00340F2A18041EA00039B0740F09E8018
:100480000C68A2F1100504604B68AC4643608C68B0
:10049000BCF10F0F8460CC68C5F30015C46000F197
:1004A000100301F110042BD975B12568ACF1100CC3
:1004B0001D6065685D60A5689D60E5681034DD605D
:1004C0001033BCF10F0F1BD9276804F110061F6011
:1004D000676803F110055F60A768ACF1200C9F60AE
:1004E000E768DF6024691C61776806F110046F60BB
:1004F000B7682033AF60F668BCF10F0FEE60E3D849
:10050000A2F1100828F00F0302F00F0403F1100C01
:10051000032C00EB0C0301EB0C0851D9211F4FEA0F
:100520009109444608EB890C54F8046BC8EB0C01A4
:100530000CF1040C1D46644545F8046BC1F38001C1
:1005400012D029B154F8041B644545F8041B0BD0A4
:10055000274657F8041B2E4646F8041B64686C6057
:100560003C1D351D6445F3D109F1010C4FEA8C099E
:1005700002F0030208EB09014B44D2B10D789A183E
:10058000DC4303F8015B1419934204F0010410D01A
:100590002CB111F8014F03F8014B934209D04D786B
:1005A0001C4604F8015B8D7802315D70631C934238
:1005B000F5D1BDE8F00370470346DEE70346DDE70B
:1005C00041462246D9E700BFC9B2F0B400294BD05A
:1005D00082070FD00278002A71D0914242D0431C8A
:1005E00005E013F8012B002A3BD091423AD09A073C
:1005F0001846F6D1036841EA0127A3F1013222EA45
:10060000030212F0803F47EA07471CD17B40A3F169
:10061000013222EA030313F0803F14D1021D02E0ED
:1006200014F0803F0FD1104652F8043BA3F101367D
:1006300087EA030426EA0303A4F1013513F0803F9F
:1006400025EA0404ECD00278002A38D0914209D07F
:10065000431C01E0914205D0184613F8012B002AF3
:10066000F8D11046F0BC704783070BD00278002AFF
:10067000F8D0431C03E0017801330029F2D0990738
:100680001846F8D10168A1F1013323EA010212F002
:10069000803F0AD1031D184653F8041BA1F1013411
:1006A00024EA010212F0803FF5D00378002BD9D064
:1006B000421C1178104601320029FAD1D2E71046C7
:1006C000D0E700BF20F0030110F00300C0F10000EC
:1006D00051F8043B00F1040C4FEACC0C6FF000021F
:1006E0001CBF22FA0CF213434FF0010C4CEA0C2C05
:1006F0004CEA0C4CA3EB0C0222EA030212EACC12E5
:1007000004BF51F8043B0430F4D013F0FF0F1FBFB7
:10071000013013F47F4F013013F47F0F18BF013005
:10072000704700BF2DE9F00701273C4600254FF038
:10073000FF3663198B4200EB060C0DD21CF804A0A7
:1007400010F80380D0452ED201241D469F1B63194B
:100750008B4200EB060CF1D34FF0010A17605446B0
:1007600000254FF0FF3C6319994200EB0C080ED9AD
:1007700018F8048010F80390C1451AD901241D46C9
:10078000CCEB030A6319994200EB0C08F0D80CF18A
:1007900001000136B0423CBFBA463046C2F800A064
:1007A000BDE8F00770470BD001272E463C46ED19F7
:1007B000BFE709D04FF0010AAC4654465544D2E792
:1007C000BC4205D00134B4E7544505D00134CAE732
:1007D00027461D460124ACE7A2461D460124C2E778
:1007E0002DE9F04FADF2244D1546064689461046D8
:1007F000194607AA1C46FFF795FF07AB82460DF284
:100800001C411A1D5C6008338B425460F9D114B34B
:1008100001232F78611E08A8A34240F8271001EA9F
:10082000030218D032B16A7802234F1EA34240F867
:10083000227010D0B046A4465C1C15F803E0CE1A16
:100840002A5D02330F1B634540F82E6040F822708A
:10085000F2D146466446079928466918524600F088
:1008600035FC002840F0B6800AF1FF3E05EB0E0C87
:10087000CDF808E0CAF1010E834604F1FF38CDF847
:100880000CC0CDF814E00746CDF810A04A460095FC
:10089000019408E027B1079FBB4201D20199CB1B0D
:1008A0009B4400272246019CB0185C440021A21AF8
:1008B00000F06CFB002840F08780002C00F0848062
:1008C000301910F8013C08A951F82330002BE1D170
:1008D000049B9F4228BF3B46434527D2DDF800904A
:1008E00006EB0B0119F80350CA5C09EB03009542B3
:1008F00066D1DD43454415F0010F024613D00133A4
:10090000434513D24078CD5C013285420BD057E08D
:1009100012F8010FCD5C854252D1013312F8010F5C
:10092000CD5C85424CD101334345F1D3DDF81090C5
:10093000029B4F4528BF4B4639D2DDF808C0DDF891
:10094000009006EB0B0519F80C1015F80C0081420D
:1009500040F0C080DDF80CE009EB070ACAEB0E019D
:10096000C80772461ED5DDF8089009F1FF31DDF8A1
:100970000C90685C19F801CC09F1FF32844516D15E
:100980000B460FE012F8019C15F800E04A1EF145F5
:100990000DD10346013815F800C011F8011C61455E
:1009A00005D10346581E524502F1FF31EAD1013705
:1009B0009F4200F29180079F019ABB44D71B71E7C9
:1009C000DDF814E0F3446BE7002009B00DF5806D0D
:1009D000BDE8F08FCAEB0400504538BF5046CAF15D
:1009E0000102431C0AF1FF3C05EB0A0704F1FF3B3F
:1009F000019200944A460793B1464FF000086446BE
:100A00003E46009909EB020008EB0107BA1A0021E3
:100A100000F0BCFA0028D7D1002FD5D009EB070091
:100A200010F8013C08AA52F8230000284AD1DA4500
:100A300009EB08002AD210F80A303178994218BF21
:100A4000534642D16FEA0A0303EB0B01C907324652
:100A5000534618D50AF101035B4517D2324612F806
:100A6000011F10F803E08E450DD02EE012F8011F93
:100A700010F803C08C4528D1013312F8011F10F87B
:100A800003E08E4521D101335B45EFD3621C234641
:100A90009BD0295D025D914213D1E10709D5631E08
:100AA000E95CC25C914204D00BE0E95CC25C91421B
:100AB00007D15A1E002B88D0A95C825C023B914270
:100AC000F3D0079880443A469BE7DDF804C0E04441
:100AD0009844F8E7049B6AE706EB0B0075E700BF54
:100AE0002DE9F04F037889B080460D46002B00F0C9
:100AF00065810A789AB184460131012602E011F835
:100B0000012B5AB1934214BF002606F001061CF8CF
:100B1000013F0C46002BF2D1207820B936B1404677
:100B200009B0BDE8F08F4FF00008F8E708F10100C8
:100B30002978FFF749FD641B06460028F3D0012CF5
:100B400000F0B580A044404594BFC0EB08070127E2
:100B50001F2C06D939462A462346FFF741FE804618
:100B6000DDE7214607AA2846FFF7DCFD0799039039
:100B700069182846039A00F0A9FA002840F09980E5
:100B8000DDF80CC0DDF80C900CF1FF3E05EB0E011A
:100B9000C9F1010C8346CDF808E080460491CDF8F8
:100BA00014C03A46B146019508EB040609EB020071
:100BB0000021B21A00F0EAF90028B4D1002EB2D018
:100BC000039B9B4528BF5B469C4227D9019D09EBAF
:100BD000030010F80820E95CE81891425FD1DD437A
:100BE0002D1915F0010F024609EB080113D001334E
:100BF0009C4213D94078CD5C013285420BD04EE047
:100C000012F8010FCD5C854249D1013312F8010F72
:100C1000CD5C854243D101339C42F1D8DDF80CE034
:100C2000029ADE4540F2CD80019B09EB0805995CF4
:100C3000A85C814240F0C580DDF804A0049BDA4442
:100C4000CAEB0301C8071AD5029FDDF810C0791E50
:100C5000685C1CF8017C0CF1FF33874214D10A4612
:100C60000DE013F801EC2F5C4B1EBE450CD1024683
:100C700001382F5C11F8011CB94205D10246501E03
:100C8000534503F1FF31ECD10BF1010B934500F219
:100C90009A80079A9044C2EB040B324684E7059D84
:100CA00005EB080B0BEB03084FF0000BF5E7804654
:100CB00035E7DDF80CA00399CAEB0403534538BFB0
:100CC0005346CAF1010B581C06EB0A0205EB0A0851
:100CD000CDF808B03B4607904FF00009019201F1B2
:100CE000FF3B37468A4609EB0406F8180021F21A42
:100CF00000F04CF900287FF416AF002E3FF413AF3C
:100D0000544598BF07EB09002CD9DDF804E098F8AA
:100D100000001EF8093098424AD16FEA0A02111900
:100D2000C9074246534607EB090018D50AF10103EB
:100D30009C4217D9424612F8011F10F803C08C4597
:100D40000DD036E012F8011F10F803E08E4530D1C7
:100D5000013312F8011F10F803C08C4529D101336B
:100D60009C42EFD8BBF1FF3F5B463FF4F8AE15F86D
:100D70000B1010F80B20914216D11BF0010F0AD076
:100D80000BF1FF33E95CC25C914204D00CE0E95CFA
:100D9000C25C914208D15A1E002B3FF4E0AEA95C20
:100DA000825C023B9142F2D00798814433469AE735
:100DB0005346DDF808E0F1449944F7E70C46012674
:100DC000AAE6039A60E74E46C844A8E640F22873B4
:100DD000C2F200031A6801235C3200F001B800BFC0
:100DE000F0B4002825D0074638463E780D46013736
:100DF00015F8014B3CB1A642FAD1002BF4D1176093
:100E000007F8013C11E0C6B13D4600E01BB915F8FA
:100E1000016B0C46284614F8013B9E42F6D136B1D0
:100E2000002105F8011C1060781EF0BC70473046A8
:100E3000F9E710680028D6D1F7E716603046F4E7E6
:100E40002DE9F00F494C82B0D4F800C001900F4654
:100E50003C4614F8015B0CEB05004678274606F08B
:100E60000800C6B2002EF3D12D2D61D02B2D04BF6A
:100E7000244614F8015BB346002B41D1302D43D0FA
:100E80000A239A46BBF1000F0CBF6FF000474FF0EA
:100E90000047B7FBFAF90AFB197000900020804662
:100EA0000CE0303DAB421BDD461C05D0C84539D8AF
:100EB00035D00AFB0858012014F8015B0CEB05063D
:100EC000767806F00407FFB2002FEAD116F0030689
:100ED00006D0012E14BF57263726AD1BAB42E3DCEC
:100EE000431C2AD0BBF1000F01D0C8F10008002A32
:100EF00031D0D0B94046116002B0BDE8F00F704764
:100F0000102BBED1302DBCD12578782D25D0582D71
:100F100023D043BB4FF0080A30255346B2E7009870
:100F20008542C6DD4FF0FF30C6E74046611EE2E76E
:100F300014F8015B4FF0010B9EE7BBF1000F019924
:100F40000CBF6FF000404FF0004022230B60002ADE
:100F5000D2D0611ECFE74046CEE74FF0100A657849
:100F6000534602348EE79A4630258BE72C07002043
:100F700070B440F22874C2F2000406460D462068A0
:100F8000134631462A4670BCFFF75ABF8307F0B4B8
:100F9000C9B200F09680531E002A00F094800278B7
:100FA0008A420BD0421CD8071AD512F0030F104604
:100FB0001CD01478013B01328C4211D1F0BC704737
:100FC000002B7CD01278013B8A42F7D014F0030F3B
:100FD000204604F1010209D02478013B8C42EDD077
:100FE00012F0030F104602F10104E9D1032B3FD99F
:100FF000046841EA012545EA054585EA0407A7F1A9
:10100000013222EA07021E1F041D12F0803FC6F3C0
:1010100080072DD1032E334629D967B12668204693
:1010200085EA0602A2F1013626EA0202043412F031
:10103000803F19D01CE020462468061D85EA040282
:10104000A2F1013424EA020212F0803F10D1346888
:10105000043B85EA0402A2F1013424EA0202341DB1
:1010600012F0803F304603D1043B032BE3D82046E7
:101070005D1E23B303788B42A0D0431C0022E807F7
:1010800014D51C781846012201338C4296D0954223
:10109000184603F1010402F102020ED01B788B42C4
:1010A0008CD020462478431C8C4287D09542184629
:1010B00003F1010402F10202F0D100207EE718469C
:1010C0007CE7134692E7104678E700BF032AF0B4A6
:1010D00031D941EA00039C072ED106680F68151F1D
:1010E000031D0C1DBE42C5F3800C24D1032D2A46DE
:1010F0001FD9BCF1000F08D01E682568214618468C
:1011000004340433AE4211D015E0214618461C6861
:101110000B68051D0E1D9C420DD1314628462E68D8
:101120000D68043A031D0C1DAE4204D1043A032A93
:10113000EBD8214618461AB303780C78A3420AD19B
:10114000551E0022EB0714D510F8013F11F8014F8E
:101150000122A3420DD0181B10E010F8013F11F836
:10116000014FA342F7D110F8013F11F8014FA342FC
:10117000F1D1AA4202F10202EFD10020F0BC704787
:101180001046FBE7800040002000100008000080AF
:1011900000400020080000000800000008000000D7
:1011A0000800000008000000040000000400000027
:1011B000040000000400000004000000040000001F
:1011C00004000000002000010002000401000000F3
:1011D0000200000004000000080000000000000001
:1011E00004000000080000003203530054004D00CA
:1011F0003300320020005600690072007400750050
:1012000061006C00200043004F004D0020005000A2
:101210006F00720074002000200026035300540069
:101220004D006900630072006F0065006C0065008E
:101230006300740072006F006E0069006300730049
:101240000403090409024300020100C0320904003A
:101250000001020201000524001001052401000123
:10126000042402020524060001070582030800FF8A
:1012700009040100020A0000000705030240000003
:1012800007058102400000120100020200004083B5
:10129000044057000201020301434F4E4E454354A0
:1012A0003A004F50454E3A000D0A00574946492032
:1012B000436F6E6E65637465643F003A3B00436F35
:1012C0006E6E65637465643F21206E6F7420736574
:1012D0006E64696E67004D73672073656E743F00BE
:1012E000676F742073656D69636F6C6F6E2E00633A
:1012F0006865636B696E6720636F6D6D616E643ADC
:101300002000746F6B656E697A696E672E2E2E00F1
:1013100070617274732E2E2E00636F6E6E6563742F
:10132000696E672E2E2E0073656E64696E672E2EB1
:101330002E0074657374313233340070617373340A
:101340003332310057652068617665204448435048
:101350002100000043000000002020202020202049
:101360002020282828282820202020202020202055
:101370002020202020202020208810101010101065
:1013800010101010101010101004040404040404B1
:10139000040404101010101010104141414141414B
:1013A000010101010101010101010101010101012D
:1013B000010101011010101010104242424242423D
:1013C00002020202020202020202020202020202FD
:1013D00002020202101010102000000000000000A5
:1013E00000000000000000000000000000000000FD
:1013F00000000000000000000000000000000000ED
:1014000000000000000000000000000000000000DC
:1014100000000000000000000000000000000000CC
:1014200000000000000000000000000000000000BC
:1014300000000000000000000000000000000000AC
:10144000000000000000000000000000000000009C
:0C14500000000000000000000000000090
:10145C000300000000000000000C0140000C0140E3
:10146C00000C0140000C0140000C01400008014040
:10147C00000801400008014000080140000801403C
:10148C0000080140000801400C004800000C01401D
:10149C0000000000802500000100FFFFFFFFFFFFA0
:1014AC00434333303030005454540000000C01409E
:1014BC008000FF00000800400400FF00000C014009
:1014CC004000FF00000800400000FF00000C01403D
:1014DC002000FF0000000000FF00FF00000C014096
:1014EC001000FF0000000000FF00FF00000C014096
:1014FC000800FF0000000000FF00FF000008014092
:10150C000080FF0000000000FF00FF000008014009
:10151C000040FF0000000000FF00FF000008014039
:10152C000020FF0000000000FF00FF000008014049
:10153C000001FF0000000000FF00FF000008014058
:10154C000002FF0000000000FF00FF000008014047
:10155C0001000000000000400000FF0000080140F6
:10156C0002000100000000400400FF0000080140E0
:10157C001000040000000000FF00FF000008014004
:10158C002000050000000000FF00FF0000080140E3
:10159C0040000600000400400000FF00000801406D
:1015AC0080000700000400400400FF00000C014014
:1015BC0001000800000400400800FF00000C01407E
:1015CC0002000900000400400C00FF00000801406C
:1015DC0008000300000000400C00FF000008014060
:1015EC0004000200000000400800FF000008014059
:1015FC000004FF0000000000FF00FF00FFFF0100DF
:10160C009DD6000871D5000849D5000861D50008A1
:10161C0005D5000821D5000835D50008C1D500082E
:10162C0001D50008BDD50008B9D500088DD5000836
:10163C0091D50008A5D5000800A24A0400000000BE
:10164C000000000001020304060708091A035300F6
:10165C0054004D0033003200000000000000000078
:10166C000000000000000000B9E70008B9E700081E
:10167C0035D90008B9E70008B9E70008B9E7000850
:10168C00B9E70008D1D80008B9E70008B9E70008A5
:10169C00B9E70008B9E70008B9E70008B9E700089E
:1016AC0000C2010000000800401201080400000004
:1016BC001A12010826000000E8110108320000008F
:1016CC00FC0100201A000000441201084300000035
:1016DC00871201081200000025DC000845DB000819
:1016EC0035DA000849DA00084DDA0008A9DA0008F2
:1016FC00CDDA000839DB00082DDB00080DDB000813
:10170C000000000040000000B9E7000811DA0008F2
:10171C00B9E70008B9E70008B9E70008B9E700081D
:10172C00B9E70008B9E7000829DA0008040100004D
:10173C000001000001000000000000000102030491
:10174C00010203040607080902040608FFFF000053
:10175C0000000000EC05002054060020BC06002010
:10176C00000000000000000000000000000000006D
:10177C00000000000000000000000000000000005D
:10178C0000000000541301080000000000000000DD
:10179C00000000000000000000000000000000003D
:1017AC00000000000000000000000000000000002D
:1017BC00000000000000000000000000000000001D
:1017CC00000000000000000000000000000000000D
:1017DC0000000000000000000000000000000000FD
:1017EC0000000000000000000000000000000000ED
:1017FC0000000000000000000100000000000000DC
:10180C000E33CDAB34126DE6ECDE05000B000000A0
:10181C0000000000000000000000000000000000BC
:10182C0000000000000000000000000000000000AC
:10183C00000000000000000000000000000000009C
:10184C00000000000000000000000000000000008C
:101B7C0000000000000000000003002058130108C2
:040000050800C10C22
:00000001FF
